:020000040800F2
:10000000000001201123000861230008612300087B
:10001000612300086123000861230008000000003C
:100020000000000000000000000000006123000844
:10003000612300080000000061230008252000085B
:100040006123000861230008612300086123000880
:100050006123000861230008612300086123000870
:100060006123000861230008612300086123000860
:100070006123000861230008612300086123000850
:100080006123000861230008612300086123000840
:100090006123000861230008612300086123000830
:1000A0006123000861230008612300086123000820
:1000B0006123000800000000000000006123000828
:1000C0006123000800000000000000006123000818
:1000D0000000000061230008612300080000000008
:1000E00061230008612300080000000000000000F8
:1000F0000000000000000000000000000000000000
:100100000000000000000000000000006123000863
:1001100000000000000000006123000861230008C7
:10012000612300086123000861230008612300089F
:100130006123000800000000000000000000000033
:10014000612300086123000861230008612300087F
:10015000612300086123000861230008612300086F
:1001600061230008612300086123000800000000EB
:100170006123000861230008000000000000000067
:0C018000612300086123000861230008CF
:1001900010B5054C237833B9044B13B10448AFF3C1
:1001A00000800123237010BDC80100200000000062
:1001B0007488000808B5034B1BB103490348AFF32B
:1001C000008008BD00000000CC01002074880008F9
:1001D00001F0FF01102A2BDB10F0070F08D010F8F8
:1001E000013B013A8B422DD010F0070F42B3F6D1FC
:1001F000F0B441EA012141EA014122F007047FF015
:1002000000070023F0E80256083C85EA010586EA6B
:10021000010685FA47F5A3FA87F586FA47F6A5FAA7
:1002200087F68EB9EED1F0BC01F0FF0102F00702B3
:1002300032B110F8013B013A83EA010313B1F8D15E
:100240000020704701387047002D06BF354603383F
:10025000073815F0010F07D1013015F4807F02BF78
:10026000013015F4C03F0130F0BC0138704700BFC9
:10027000034613F8012B002AFBD1181A01387047E6
:1002800081F0004102E000BF83F0004330B54FEA47
:1002900041044FEA430594EA050F08BF90EA020FB4
:1002A0001FBF54EA000C55EA020C7FEA645C7FEA47
:1002B000655C00F0E2804FEA5454D4EB5555B8BF6A
:1002C0006D420CDD2C4480EA020281EA030382EADB
:1002D000000083EA010180EA020281EA0303362D6D
:1002E00088BF30BD11F0004F4FEA01314FF4801C40
:1002F0004CEA113102D0404261EB410113F0004F52
:100300004FEA03334CEA133302D0524263EB430308
:1003100094EA050F00F0A780A4F10104D5F1200EA6
:100320000DDB02FA0EFC22FA05F2801841F1000101
:1003300003FA0EF2801843FA05F359410EE0A5F1D5
:1003400020050EF1200E012A03FA0EFC28BF4CF006
:10035000020C43FA05F3C01851EBE37101F00045BC
:1003600007D54FF0000EDCF1000C7EEB00006EEBC9
:100370000101B1F5801F1BD3B1F5001F0CD3490853
:100380005FEA30004FEA3C0C04F101044FEA4452AA
:1003900012F5800F80F09A80BCF1004F08BF5FEA31
:1003A000500C50F1000041EB045141EA050130BD11
:1003B0005FEA4C0C404141EB0101013C28BFB1F523
:1003C000801FE9D291F0000F04BF01460020B1FA6E
:1003D00081F308BF2033A3F10B03B3F120020CDA41
:1003E0000C3208DD02F1140CC2F10C0201FA0CF01F
:1003F00021FA02F10CE002F11402D8BFC2F1200C84
:1004000001FA02F120FA0CFCDCBF41EA0C01904039
:10041000E41AA2BF01EB0451294330BD6FEA040482
:100420001F3C1CDA0C340EDC04F11404C4F120026D
:1004300020FA04F001FA02F340EA030021FA04F37F
:1004400045EA030130BDC4F10C04C4F1200220FAD6
:1004500002F001FA04F340EA0300294630BD21FA14
:1004600004F0294630BD94F0000F83F4801306BFDA
:1004700081F480110134013D4EE77FEA645C18BFCE
:100480007FEA655C29D094EA050F08BF90EA020F65
:1004900005D054EA000C04BF1946104630BD91EA5D
:1004A000030F1EBF0021002030BD5FEA545C05D160
:1004B0004000494128BF41F0004130BD14F580049F
:1004C0003CBF01F5801130BD01F0004545F0FE4113
:1004D00041F470014FF0000030BD7FEA645C1ABF48
:1004E000194610467FEA655C1CBF0B46024650EA7F
:1004F000013406BF52EA033591EA030F41F40021AB
:1005000030BD00BF90F0000F04BF0021704730B530
:100510004FF4806404F132044FF000054FF0000105
:1005200050E700BF90F0000F04BF0021704730B5C6
:100530004FF4806404F1320410F0004548BF40429B
:100540004FF000013EE700BF42004FEAE2014FEAF0
:1005500031014FEA02701FBF12F07F4393F07F4FCB
:1005600081F06051704732F07F4208BF704793F0CE
:100570007F4F04BF41F40021704730B54FF46074E1
:1005800001F0004521F000411CE700BF50EA0102E4
:1005900008BF704730B54FF000050AE050EA01028D
:1005A00008BF704730B511F0004502D5404261EBFD
:1005B00041014FF4806404F132045FEA915C3FF43E
:1005C000D8AE4FF003025FEADC0C18BF03325FEADB
:1005D000DC0C18BF033202EBDC02C2F1200300FA8C
:1005E00003FC20FA02F001FA03FE40EA0E0021FAB1
:1005F00002F11444BDE600BF70B54FF0FF0C4CF49F
:10060000E06C1CEA11541DBF1CEA135594EA0C0F50
:1006100095EA0C0F00F0DEF82C4481EA030621EA8B
:100620004C5123EA4C5350EA013518BF52EA0335C6
:1006300041F4801143F4801338D0A0FB02CE4FF078
:100640000005E1FB02E506F00042E0FB03E54FF0A8
:100650000006E1FB03569CF0000F18BF4EF0010EA0
:10066000A4F1FF04B6F5007F64F5407404D25FEA9C
:100670004E0E6D4146EB060642EAC62141EA55514F
:100680004FEAC52040EA5E504FEACE2EB4F1FD0C91
:1006900088BFBCF5E06F1ED8BEF1004F08BF5FEA0F
:1006A000500E50F1000041EB045170BD06F00046C1
:1006B00046EA010140EA020081EA0301B4EB5C046E
:1006C000C2BFD4EB0C0541EA045170BD41F4801166
:1006D0004FF0000E013C00F3AB8014F1360FDEBF8B
:1006E000002001F0004170BDC4F10004203C35DA67
:1006F0000C341BDC04F11404C4F1200500FA05F3EA
:1007000020FA04F001FA05F240EA020001F000428A
:1007100021F0004110EBD37021FA04F642EB060100
:100720005EEA430E08BF20EAD37070BDC4F10C042A
:10073000C4F1200500FA04F320FA05F001FA04F2EE
:1007400040EA020001F0004110EBD37041F10001DA
:100750005EEA430E08BF20EAD37070BDC4F12005E5
:1007600000FA05F24EEA020E20FA04F301FA05F24D
:1007700043EA020321FA04F001F0004121FA04F2F5
:1007800020EA020000EBD3705EEA430E08BF20EAC5
:10079000D37070BD94F0000F0FD101F000464000FF
:1007A00041EB010111F4801F08BF013CF7D041EA81
:1007B000060195F0000F18BF704703F00046520085
:1007C00043EB030313F4801F08BF013DF7D043EA56
:1007D0000603704794EA0C0F0CEA135518BF95EA0C
:1007E0000C0F0CD050EA410618BF52EA4306D1D193
:1007F00081EA030101F000414FF0000070BD50EAB2
:10080000410606BF1046194652EA430619D094EA3B
:100810000C0F02D150EA013613D195EA0C0F05D125
:1008200052EA03361CBF104619460AD181EA030179
:1008300001F0004141F0FE4141F470014FF0000031
:1008400070BD41F0FE4141F4780170BD70B54FF0CC
:10085000FF0C4CF4E06C1CEA11541DBF1CEA13554C
:1008600094EA0C0F95EA0C0F00F0A7F8A4EB05042E
:1008700081EA030E52EA03354FEA013100F0888025
:100880004FEA03334FF0805545EA131343EA1263EE
:100890004FEA022245EA111545EA10654FEA0026A3
:1008A0000EF000419D4208BF964244F1FD0404F55C
:1008B000407402D25B084FEA3202B61A65EB0305B8
:1008C0005B084FEA32024FF480104FF4002CB6EB75
:1008D000020E75EB030E22BFB61A754640EA0C00F5
:1008E0005B084FEA3202B6EB020E75EB030E22BF35
:1008F000B61A754640EA5C005B084FEA3202B6EB76
:10090000020E75EB030E22BFB61A754640EA9C0034
:100910005B084FEA3202B6EB020E75EB030E22BF04
:10092000B61A754640EADC0055EA060E18D04FEAC2
:10093000051545EA16754FEA06164FEAC30343EA62
:1009400052734FEAC2025FEA1C1CC0D111F4801F2F
:100950000BD141EA00014FF000004FF0004CB6E728
:1009600011F4801F04BF01430020B4F1FD0C88BFC7
:10097000BCF5E06F3FF6AFAEB5EB030C04BFB6EBD2
:10098000020C5FEA500C50F1000041EB045170BDC5
:100990000EF0004E4EEA113114EB5C04C2BFD4EBF2
:1009A0000C0541EA045170BD41F480114FF0000E76
:1009B000013C90E645EA060E8DE60CEA135594EAF2
:1009C0000C0F08BF95EA0C0F3FF43BAF94EA0C0FF5
:1009D0000AD150EA01347FF434AF95EA0C0F7FF46A
:1009E00025AF104619462CE795EA0C0F06D152EABE
:1009F00003353FF4FDAE1046194622E750EA4106A2
:100A000018BF52EA43067FF4C5AE50EA41047FF4B2
:100A10000DAF52EA43057FF4EBAE12E74FF0FF3C17
:100A200006E000BF4FF0010C02E000BF4FF0010CE8
:100A30004DF804CD4FEA410C7FEA6C5C4FEA430C61
:100A400018BF7FEA6C5C1BD001B050EA410C0CBFB0
:100A500052EA430C91EA030F02BF90EA020F002012
:100A6000704710F1000F91EA030F58BF994208BF79
:100A700090422CBFD8176FEAE37040F00100704736
:100A80004FEA410C7FEA6C5C02D150EA013C07D18D
:100A90004FEA430C7FEA6C5CD6D152EA033CD3D0D8
:100AA0005DF8040B704700BF8446104662468C46D2
:100AB0001946634600E000BF01B5FFF7B7FF002805
:100AC00048BF10F1000F01BD4DF808EDFFF7F4FF2E
:100AD0000CBF012000205DF808FB00BF4DF808EDB9
:100AE000FFF7EAFF34BF012000205DF808FB00BFDC
:100AF0004DF808EDFFF7E0FF94BF012000205DF8FE
:100B000008FB00BF4DF808EDFFF7CEFF94BF0120B2
:100B100000205DF808FB00BF4DF808EDFFF7C4FFAB
:100B200034BF012000205DF808FB00BF4FEA410CF4
:100B30007FEA6C5C02D150EA013C0AD14FEA430CD7
:100B40007FEA6C5C02D152EA033C02D14FF0000014
:100B500070474FF0010070474FEA410212F5001252
:100B600015D211D56FF47873B3EB625212D94FEAF4
:100B7000C12343F0004343EA505311F0004F23FADE
:100B800002F018BF404270474FF00000704750EA33
:100B9000013005D111F0004008BF6FF000407047F0
:100BA0004FF00000704700BF4A0011D212F500124A
:100BB00011D20DD56FF47873B3EB62520ED44FEAB5
:100BC000C12343F0004343EA505323FA02F0704735
:100BD0004FF00000704750EA013002D14FF0FF3073
:100BE00070474FF0000070474FEA4102B2F1E04316
:100BF00024BFB3F5001CDCF1FE5C0DD901F0004C04
:100C00004FEAC0024CEA5070B2F1004F40EB830053
:100C100008BF20F00100704711F0804F21D113F17F
:100C20003872BCBF01F00040704741F480114FEAB8
:100C30005252C2F11802C2F1200C10FA0CF320FA41
:100C400002F018BF40F001004FEAC1234FEAD3235E
:100C500003FA0CFC40EA0C0023FA02F34FEA4303C8
:100C6000CCE77FEA625307D150EA01331EBF4FF051
:100C7000FE4040F44000704701F0004040F0FE406C
:100C800040F40000704700BF38B50022002304463E
:100C90000D46FFF723FF28B920462946BDE8384016
:100CA00000F00AB8204605F1004100F005F8404286
:100CB00061EB410138BD00BFD0B50C4B00220646A8
:100CC0000F46FFF799FCFFF76FFF0446FFF71AFC8A
:100CD000074B0022FFF790FC02460B463046394690
:100CE000FFF7D2FAFFF760FF2146D0BD0000F03DCC
:100CF0000000F04180B58CB004AF78613961FA60D2
:100D0000BB6087ED010A97F83430002B2BD03B6B8A
:100D1000DB001946202002F047FE0346FB613B6BD7
:100D20005B001946F8699FED1F0A01F0C5FDBB6A1B
:100D30009B683A6B92B2B96A097BB86A407B0390B0
:100D400002910192009397ED010AFB69FA683969F3
:100D5000786900F02BF83B6B5B001A46B968F869BC
:100D600001F078FD19E0BB68002B02D10E4803F0BA
:100D7000F5FEBB6A9B683A6B92B2B96A097BB86AA6
:100D8000407B039002910192009397ED010ABB68AA
:100D9000FA683969786900F009F800BF2037BD4664
:100DA00080BD00BF000000009088000880B588B0BA
:100DB00002AF78613961FA60BB6087ED010ABA8CD5
:100DC00097F82C30019397F828300093134697ED4D
:100DD000010A3A6AF968386900F012F80123012221
:100DE000F968786901F08AFDBB8C5B001A46B96826
:100DF000F86801F02FFD00BF1837BD4680BD000028
:100E000080B592B000AF78613961FA6087ED020A6F
:100E1000FB80FB8807EE903AF8EE677AC7ED0D7A13
:100E2000FB88013B3B63D7ED0D7A77EEA76A97ED20
:100E3000027AC6EE877A97ED0D7AB4EEE77AF1EE94
:100E400010FA02D57B6B7B6409E0D7ED0D7A77EE63
:100E5000A76A97ED027AC6EE877AC7ED117A97ED09
:100E6000027AF0EE006AC7EE267AC7ED0B7AD7ED6C
:100E7000117AFCEEE77A17EE903ABB62FB889B0092
:100E8000184602F0B7FD03467B62FB881946786A74
:100E9000B7EE000A01F010FD0023FB6333E0FB6BAB
:100EA00007EE903AF8EEE77A97ED0B7A67EE277A3D
:100EB000C7ED107AD7ED0D7AB7EE007A77EEC77AE4
:100EC00097ED107AB4EEE77AF1EE10FA07DDD7ED80
:100ED0000D7AB7EE007A77EEC77AC7ED107AD7EDC4
:100EE000107AFDEEE77A17EE903ABB61BB699B0082
:100EF000FA681A44FB6B9B00796A0B4412681A600B
:100F0000FB6B0133FB63FB6BBA6A9A42C7D897F855
:100F10005030002B1DD0FB889B00184602F06AFD64
:100F200003463B62FB881946386A9FED480A01F088
:100F3000C3FCBB6A3A6A796A786901F0ABFBFB884B
:100F40001A463969386A01F049FB386A02F05AFDDD
:100F500008E0BB6A3A69796A786901F09BFB786AB4
:100F600002F050FD97F85430002B6BD00023BB6388
:100F700064E0BB6B07EE903AF8EEE77A97ED0B7AF8
:100F800067EE277AC7ED107AD7ED0D7AB7EE007AC3
:100F900077EEC77A97ED107AB4EEE77AF1EE10FAB1
:100FA00007DDD7ED0D7AB7EE007A77EEC77AC7ED99
:100FB000107AD7ED107AFDEEE77A17EE903AFB61E2
:100FC000BB6B3A6BD31ADB007A69134493ED007A5A
:100FD000FB699B00FA681344D3ED007A27EE277A69
:100FE00097F850305B00C3F1010307EE903AF8EE3A
:100FF000E77ABB6B3A6BD31ADB003A69134467EEAE
:10100000277AC3ED007ABB6B3A6BD31ADB007A699F
:10101000134493ED017AFB699B00FA681344D3ED06
:10102000007ABB6B3A6BD31ADB003A69134467EE64
:10103000277AC3ED017ABB6B0133BB63BB6BBA6A22
:101040009A4296D800BF4837BD4680BD00000000D8
:1010500080B598B004AFF860B9607A603B603868DA
:1010600000F0BCF878647B6CB3F5805F05D9574B12
:10107000574AB721574802F09FFC7B6CDB001946AA
:10108000202002F091FC03463B647B6CDB00194698
:10109000202002F089FC0346FB637B6C5B00194651
:1010A000386C9FED4D0A01F007FC7B6C5B00194624
:1010B000F86B9FED490A01F0FFFB7B6C9AB207F1D8
:1010C00020031146184602F011F9034687F83B3019
:1010D0007B6C9AB207F110031146184602F00AF829
:1010E000034687F83B3007F1200000233A6C79680B
:1010F00002F04AF8796CF86800F0CCFB0123FB643D
:101100001EE0FB6CDB003A6C1A44FB6C796CCB1A6A
:10111000DB00396C0B4412681A60FB6CDB003A6C24
:101120001344D3ED017AFB6C7A6CD31ADB003A6C72
:101130001344F1EE677AC3ED017AFB6C0133FB6473
:101140007B6C5A08FB6C9A42DBD80023BB6427E017
:10115000BB681A68BB6C9B001344D3ED007ABB6874
:101160009B68013BBA6C9A420CBF01230023DBB29F
:1011700007F1100003937B6C02933B680193FB68BB
:101180000093B0EE670ABB6DFA6B396CFFF7B2FDE6
:101190003B68DB00BA6D1344BB65BB6C0133BB64B9
:1011A000BB689B68BA6C9A42D2DB386C02F02AFCAE
:1011B000F86B02F027FCF86802F024FCB86802F033
:1011C00021FC00BF5037BD4680BD00BFAC88000881
:1011D000D4890008EC8800080000000080B485B0C5
:1011E00000AF78607B68002B01D100230AE0012367
:1011F000FB6002E0FB685B00FB60FA687B689A4278
:10120000F8D3FB6818461437BD465DF8047B704779
:1012100080B586B000AF78613961BB6087ED010AA7
:10122000C7ED000A1346FB737B69BA685A607B6995
:101230003A6A9A603B6A9B00184602F0DBFB034661
:101240001A467B691A60FB7B002B09D13A6AD7EDFD
:10125000000A97ED010AB968786900F00BF917E008
:10126000FB7B012B0BD13A6A97ED001AD7ED010AEF
:10127000B968B0EE000A786900F00EF808E03A6A42
:10128000D7ED000A97ED010AB968786900F074F9A2
:1012900000BF1837BD4680BDB0B592B000AF7861D1
:1012A00087ED040AF960C7ED020A87ED011A3A607A
:1012B000BB683B647B68FB63FB6807EE903AF8EE23
:1012C000E76A97ED0F7AC6EE877AC7ED0E7AFB686C
:1012D00007EE903AF8EEE76A97ED107AC6EE877A55
:1012E000C7ED0D7AFB68DA0F13445B1007EE903AF6
:1012F000F8EEE77A97ED017AB4EEE77AF1EE10FABC
:1013000005D9584B584A4621584802F055FBB86B4E
:10131000FFF71AF902460B4643EC102B06F080FF4C
:1013200055EC104B3869FFF70FF902460B4643ECBA
:10133000102B06F075FF53EC102B20462946FFF7C3
:1013400085FA02460B4610461946FFF74DFC034648
:101350003B63786BFFF7F8F802460B4643EC102B23
:1013600006F05EFF55EC104B3869FFF7EDF80246CA
:101370000B4643EC102B06F053FF53EC102B20468A
:101380002946FFF763FA02460B4610461946FFF757
:101390002BFC0346FB6297ED0B7AD7ED0C7A77EEC8
:1013A000677AC7ED0A7A3B68013B07EE903AB8EEE0
:1013B000E77AD7ED0A6AC6EE877AC7ED0A7A3B6804
:1013C0009B00184602F016FB03467B623B689B00BD
:1013D000184602F00FFB03463B623B689B00184631
:1013E00002F008FB0346FB6100237B6411E07B6C89
:1013F00007EE903AB8EEE77A7B6C9B007A6A13446A
:10140000D7ED0A7A67EE277AC3ED007A7B6C013359
:101410007B647A6C3B689A42E9DB3B681A46396A1E
:1014200097ED0C0A786A01F04DF83B681A46F969A5
:101430009FED0F0A386A01F08BF87B691B683A68E8
:101440001946F86901F0F6F9786A02F0DBFA386AB1
:1014500002F0D8FAF86902F0D5FA00BF4837BD4665
:10146000B0BD00BF18890008D88900086C89000841
:101470001872313F80B58EB000AF7861396187ED69
:10148000030AC7ED020A7A60FB683B63BB68FB6234
:101490003B6907EE903AF8EEE76A97ED0B7AC6EEF5
:1014A000877AC7ED0A7A3B6907EE903AF8EEE76A69
:1014B00097ED0C7AC6EE877AC7ED097A3B69DA0FA9
:1014C00013445B1007EE903AF8EEE77A97ED027A54
:1014D000B4EEE77AF1EE10FA05D9244B244A7B21C9
:1014E000244802F069FA97ED097AD7ED0A7A77EE87
:1014F000677AC7ED087A7B6807EE903AB8EEE77A2C
:10150000D7ED086AC6EE877AC7ED087A7B689B003C
:10151000184602F06FFA0346FB6100237B6311E07B
:101520007B6B07EE903AB8EEE77A7B6B9B00FA692B
:101530001344D7ED087A67EE277AC3ED007A7B6B08
:1015400001337B637A6B7B689A42E9DB7B691B68BA
:101550007A68194697ED0A0AF86900F0B3FFF8694E
:1015600002F050FA00BF3837BD4680BD1889000828
:10157000F48900086C89000880B58EB000AF7861EE
:10158000396187ED030AC7ED020A7A60FB68FB62E6
:10159000BB68BB623B69DA0F13445B1007EE903AFD
:1015A000F8EEE77A97ED027AB4EEE77AF1EE10FA08
:1015B00005D9394B394A9E21394802F0FDF997ED9A
:1015C0000A7AD7ED0B7A77EE677AC7ED097A7B68EE
:1015D00007EE903AB8EEE77AD7ED096AC6EE877A59
:1015E000C7ED097A7B689B00184602F003FA0346B0
:1015F0003B627B689B00184602F0FCF90346FB61E6
:1016000000237B6311E07B6B07EE903AB8EEE77A3C
:101610007B6B9B003A6A1344D7ED097A67EE277A11
:10162000C3ED007A7B6B01337B637A6B7B689A42F4
:10163000E9DB7B681A46F96997ED0B0A386A00F016
:1016400041FF00233B6319E03B6907EE903AF8EE57
:10165000E76A3B6B9B00FA69134493ED007A7B6960
:101660001A687B68591E3B6BCB1A9B001344C6EE6D
:10167000877AC3ED007A3B6B01333B633A6B7B683F
:101680009A42E1DB386A02F0BDF9F86902F0BAF972
:1016900000BF3837BD4680BD18890008108A000891
:1016A0006C89000890B58FB000AFF86087ED020A32
:1016B000C7ED010A87ED001AFB6807EE903AB8EE15
:1016C000677AD7ED027A67EE277AFCEEE77A17EEB3
:1016D000903AFB62FB6A9B00184602F08BF90346C6
:1016E000BB62FB6A9B00184602F084F903467B62EA
:1016F000FB6A9B00184602F07DF903463B62FB6AD9
:101700009B00184602F076F90346FB61FB6A9B00DA
:10171000184602F06FF90346BB6100237B6314E0B7
:101720007B6B07EE903AF8EEE76AFB6807EE903ABB
:10173000B8EE677A7B6B9B007A6A1344C6EE877AB1
:10174000C3ED007A7B6B01337B637B6BFA6A9A4251
:10175000E6D897ED007AD7ED017A77EE676AFB6AF3
:1017600003F18043013B9B007A6A134493ED007AB6
:10177000C6EE877AC7ED057AFB6A3A6A796A786AB3
:1017800000F048FED7ED057AB6EE007A67EE877A6C
:10179000FA6AF969B0EE670A386A00F0D9FEFA6AA7
:1017A000B96997ED010A786A00F0D2FEFB6A3A6ADD
:1017B000F969B86900F0D6FDFA6A796A9FED180AEE
:1017C000386A00F0C5FE00233B6314E03B6B9B00CE
:1017D0007A6A1344D3ED007A3B6B9B00BA6AD41843
:1017E000B0EE670A00F0D8FFF0EE407AC4ED007A60
:1017F0003B6B01333B633B6BFA6A9A42E6D8786AEB
:1018000002F000F9F86902F0FDF8386A02F0FAF81F
:10181000B86902F0F7F8BB6A18463C37BD4690BD80
:10182000DB0FC94080B483B000AF786087ED000A59
:101830007B68002B26D07B68154A5A607B680022A3
:101840009A607B6800221A607B6800225A737B686A
:1018500000221A737B683A681A61D7ED007A37EE76
:10186000A77AD7ED007A67EE277A7B68C3ED067A10
:10187000F7EE006A97ED007AC6EE877A7B68C3EDD3
:10188000057A00E000BF0C37BD465DF8047B704769
:101890005BD37C3F80B58CB000AF786039607B68EB
:1018A0003A681A603B6807EE903AB8EE677ADFED67
:1018B000546AC6EE877AC7ED0A7A07F10C033B61DA
:1018C000DFED4F7AF1EEE77A3B69C3ED007AD7EDB1
:1018D000037A9FED4C7A67EE877AC7ED037A3B680F
:1018E0009B00184602F086F803461A467B689A6009
:1018F0003B689B00184602F07DF803467B623B681C
:101900009B00184602F076F803463B623B689B005A
:10191000184602F06FF80346FB613B689B001846CF
:1019200002F068F80346BB613B689B00184602F072
:1019300061F803467B610023FB6211E0FB6A07EE5E
:10194000903AB8EEE77AFB6A9B007A6A1344D7EDC7
:101950000A7A67EE277AC3ED007AFB6A0133FB62ED
:10196000FB6A3A689A42E9D87B68D3ED047A77EE4D
:10197000A77A3A68396AB0EE670A786A00F0E8FD3B
:101980007B68D3ED047A9FED1E7A67EE877AF1EEDD
:10199000677A3A68396AB0EE670A386A00F092FDF1
:1019A0003B68FA69396A386A00F034FD3A68B96907
:1019B000BEEE000AF86900F0CBFD3A687969B869B3
:1019C00000F038FFD7ED037A7B689B683A681946C8
:1019D000B0EE670A786900F0BBFD786A02F012F891
:1019E000386A02F00FF8F86902F00CF8B86902F0F2
:1019F00009F8786902F006F800BF3037BD4680BDAF
:101A0000DB0FC940C449403FB0B5ADF5484D92B079
:101A100002AF00F067FA42F2107000F01DFA6C4B52
:101A2000D3F888306A4A43F47003C2F8883000F073
:101A30006FFB4FF4E131674800F0CCFB9FED661A75
:101A4000DFED660AB4EE000A4FF48060FFF72AFE6D
:101A500007F5484303F13403186007F14003143BD2
:101A600007F5484202F1300213604FF4485107F580
:101A7000484303F1300318689FED590A00F01CFF3A
:101A800007F14003303BB7EE000A1846FFF7CAFEE5
:101A900007F14001303907F140003C383223009310
:101AA000DFED4D0A9FED4D0A4FF480630122FFF7F1
:101AB000AFFB07F140013C3907F14000303807F532
:101AC000484303F130031B680093802307F5484225
:101AD00002F134021268FFF7BBFA002307F548420F
:101AE00002F13C02136067E007F5484303F13C0351
:101AF00019683C4802F0CAFF002307F5484202F18A
:101B00003802136046E007F5484303F13C031B68C5
:101B1000DB0107F5484202F138021268134407F569
:101B2000484202F12C02136007F5484303F12C03ED
:101B30001B68DB0007F5484202F1300212681344CB
:101B40001B681846FEF700FD04460D4607F548439E
:101B500003F12C031B68DB0007F5484202F1300259
:101B6000126813445B681846FEF7EEFC02460B460B
:101B7000CDE9002322462B461B4802F087FF07F5DC
:101B8000484303F138031B68013307F5484202F16B
:101B90003802136007F5484303F138031B687F2BB5
:101BA000B1DD07F5484303F13C031B68013307F53A
:101BB000484202F13C02136007F5484303F13C033D
:101BC0001B68312B90DD094802F0C8FF00BFFDE71C
:101BD00000ED00E000B4C404000096430000484259
:101BE000000000009C890008C4890008CC89000816
:101BF00080B584B000AF78607B68DBB23B7307F1DF
:101C00000C0364220121184600F03EFB7B68184655
:101C10001037BD4680BD80B586B000AFF860B960B2
:101C20007A6000237B6109E0BB685A1CBA601B78AC
:101C30001846FFF7DDFF7B6901337B617A697B68BA
:101C40009A42F1DB7B6818461837BD4680BD80B4E8
:101C500000AF01231846BD465DF8047B704780B590
:101C600082B000AF7860396003F0DAF803461622DC
:101C70001A604FF0FF3318460837BD4680BD80B567
:101C800082B000AF78604FF0FF317868FFF7E7FF70
:101C900000BFFDE780B586B000AFF860B9607A603C
:101CA00000237B610AE0AFF300800146BB685A1C49
:101CB000BA60CAB21A707B6901337B617A697B684A
:101CC0009A42F0DB7B6818461837BD4680BD80B469
:101CD00083B000AF78604FF0FF3318460C37BD4635
:101CE0005DF8047B704780B483B000AF78603960E2
:101CF0003B684FF400525A60002318460C37BD462B
:101D00005DF8047B704780B483B000AF7860012336
:101D100018460C37BD465DF8047B704780B485B02B
:101D200000AFF860B9607A60002318461437BD46EA
:101D30005DF8047B7047000080B586B000AF786026
:101D4000144A154BD31A7B617B693B61134B1B68AB
:101D5000002B02D1114B124A1A60104B1A687B6893
:101D600013443A699A4207D203F05AF803460C2208
:101D70001A604FF0FF3309E0084B1B68FB60074B0C
:101D80001A687B681344054A1360FB6818461837C5
:101D9000BD4680BD0000012000040000E4010020D9
:101DA0003803002080B400AF064BD3F88830054AD2
:101DB00043F47003C2F8883000BFBD465DF8047B71
:101DC000704700BF00ED00E080B483B000AF034671
:101DD000FB7197F90730002B0CDBFB7903F01F0236
:101DE000074997F907305B09012000FA02F26033D6
:101DF00041F8232000BF0C37BD465DF8047B7047D7
:101E000000E100E080B483B000AF03463960FB71AD
:101E100097F90730002B0ADB3B68DAB20C4997F9D7
:101E200007301201D2B20B4483F800230AE03B686A
:101E3000DAB20849FB7903F00F03043B1201D2B276
:101E40000B441A7600BF0C37BD465DF8047B704723
:101E500000E100E000ED00E080B582B000AF786006
:101E6000124B00221A60114A7B68013B53600F211C
:101E70004FF0FF30FFF7C6FF0C4B00229A600B4B70
:101E80001B680A4A23F004031360084B1B68074AC7
:101E900043F002031360054B1B68044A43F001033F
:101EA000136000BF0837BD4680BD00BF10E000E0F2
:101EB00080B400AF044B1B680133034A136000BFBA
:101EC000BD465DF8047B7047E801002080B400AF98
:101ED000034B1B681846BD465DF8047B704700BF86
:101EE000E801002080B400AF4C4B1B684B4A23F044
:101EF0008073136000BF494B1B6803F00073002B15
:101F0000F9D1464BDB68454A23F00303D360434BCA
:101F1000DB68424A43F00103D360404BDB683F4A31
:101F200023F07003D3603D4BDB683C4A23F4FE434F
:101F3000D3603A4BDB68394A43F42053D360374BC4
:101F4000DB68364A23F0C063D360344BDB68334A26
:101F500023F4C003D360314BDB68304A23F40033F1
:101F6000D3602E4BDB682D4A43F46023D3602B4BA8
:101F70001B682A4A43F080731360284BDB68274AAA
:101F800043F08073D36000BF244B1B6803F00073E1
:101F9000002BF9D0214B9B6C204A43F4807393644F
:101FA0001F4B1B681E4A23F0070313601C4B1B6862
:101FB0001B4A43F00403136000BF194B1B6803F076
:101FC0000403002BF9D0154B9B68144A23F003033C
:101FD0009360124B9B68114A43F00303936000BF68
:101FE0000E4B9B6803F00C03002BF9D00B4B9B6846
:101FF0000A4A23F4E0639360084B9B68074A23F482
:1020000060539360054B9B68044A23F0F003936090
:1020100000BFBD465DF8047B704700BF0010024062
:102020000020024080B500AF4FF0FF30FFF7CCFE3C
:10203000FFF73EFF00BF80BD80B485B000AF786081
:102040007B6803F00703FB600C4BDB68BB60BA687E
:102050004FF6FF031340BB60FB681A02BB681343D3
:1020600043F0BF6343F40033BB60044ABB68D360F2
:1020700000BF1437BD465DF8047B704700ED00E0FB
:1020800080B483B000AF0346FB7197F90730002B93
:102090000BDBFB7903F01F02074997F907305B0957
:1020A000012000FA02F241F8232000BF0C37BD46A0
:1020B0005DF8047B704700BF00E100E080B483B0AE
:1020C00000AF03463960FB7197F90730002B0ADB3C
:1020D0003B68DAB20C4997F907301201D2B20B44CF
:1020E00083F800230AE03B68DAB20849FB7903F081
:1020F0000F03043B1201D2B20B441A7600BF0C3717
:10210000BD465DF8047B704700E100E000ED00E0B3
:1021100080B400AF2E4BDB6C2D4A43F00103D36437
:102120004FF090431B684FF0904223F0404323F060
:10213000300313604FF090431B684FF0904243F020
:10214000004343F0200313604FF090435B684FF06F
:10215000904223F4004323F0040353604FF0904374
:102160009B684FF0904223F0404323F0300393608C
:102170004FF090439B684FF0904243F0004343F090
:10218000200393604FF090431B6A4FF0904223F47A
:10219000706313624FF090431B6A4FF0904243F418
:1021A000E06313624FF090435B6A4FF0904223F07C
:1021B000704353624FF090435B6A4FF0904243F09C
:1021C0004053536200BFBD465DF8047B704700BFBB
:1021D0000010024080B582B000AF78603960284BB3
:1021E0009B6D274A43F400339365264B1B68254AB1
:1021F00023F08053136023497A683B68B2FBF3F302
:10220000CB60204B1B681F4A23F4806313601D4B77
:102210005B681C4A23F4405353601A4B9B68194A6D
:1022200023F400739360174B9B68164A23F4807362
:102230009360144B5B68134A23F490435360114B33
:102240009B68104A23F02A0393600E4B1B680D4ACB
:1022500043F00D0313600B4B1B680A4A43F0200345
:1022600013600020FFF7E8FE01212620FFF726FF7C
:102270002620FFF705FF00BF0837BD4680BD00BF21
:10228000001002400044004080B586B000AFF86006
:102290000B467A60FB720023FB75FFF717FE38616F
:1022A00019E01A4BDB6903F08003002B09D0FB7D9A
:1022B000FA6813441A78154B1A85FB7D0133FB75B8
:1022C00009E0FFF703FE02463B69D31A7A689A4297
:1022D00001D8002315E0FA7DFB7A9A42E1D309E0A8
:1022E000FFF7F4FD02463B69D31A7A689A4201D897
:1022F000002306E0054BDB6903F04003002BEFD120
:10230000012318461837BD4680BD00BF0044004079
:10231000DFF834D0FFF746FD0C480D490D4A002385
:1023200002E0D458C4500433C4188C42F9D30A4A8A
:102330000A4C002301E013600432A242FBD302F0F6
:1023400075FDFFF761FBFEE70000012000000020A3
:10235000C8010020EC6A0208C801002038030020F0
:10236000FEE7000070B59E0833D000F1100401F1C3
:10237000100E02F1100C354654ED047A1EED047A6D
:1023800077EE877A10344CED047A1EED037A54ED23
:10239000077A77EE877A013D4CED037A1EED027ADB
:1023A00054ED067A77EE877A0EF1100E4CED027A34
:1023B00054ED057A1EED057A77EE877A0CF1100C54
:1023C0004CED057AD8D100EB061001EB061102EBBB
:1023D000061213F003031BD0D1ED007A90ED007AC2
:1023E00077EE877A013BC2ED007A11D0D0ED017A09
:1023F00091ED017A77EE877A012BC2ED017A07D051
:10240000D0ED027A91ED027A77EE877AC2ED027A08
:1024100070BD00BF70B59E0833D000F1100401F10B
:10242000100E02F1100C354654ED047A1EED047ABC
:1024300067EE877A10344CED047A1EED037A54ED82
:10244000077A67EE877A013D4CED037A1EED027A3A
:1024500054ED067A67EE877A0EF1100E4CED027A93
:1024600054ED057A1EED057A67EE877A0CF1100CB3
:102470004CED057AD8D100EB061001EB061102EB0A
:10248000061213F003031BD0D1ED007A90ED007A11
:1024900067EE877A013BC2ED007A11D0D0ED017A68
:1024A00091ED017A67EE877A012BC2ED017A07D0B0
:1024B000D0ED027A91ED027A67EE877AC2ED027A68
:1024C00070BD00BF10B5940827D000F1100C01F1C9
:1024D0001003A6465CED047A77EE807A0CF1100CBE
:1024E00043ED047A5CED077A77EE807ABEF1010E57
:1024F00043ED037A5CED067A77EE807A03F1100300
:1025000043ED067A5CED057A77EE807A43ED057A45
:10251000E0D100EB041001EB041112F0030215D01E
:10252000D0ED007A77EE807A013AC1ED007A0DD0D5
:10253000D0ED017A77EE807A012AC1ED017A05D0DB
:10254000D0ED027A37EE800A81ED020A10BD00BF9D
:1025500010B5940827D000F1100C01F11003A64625
:102560001CED036A1CED027A5CED017A5CED046AF5
:1025700020EE066A20EE077A60EE277A66EE806A21
:10258000BEF1010E03ED036A43ED046A03ED027A26
:1025900043ED017A0CF1100C03F11003E0D100EBD4
:1025A000041001EB041112F0030215D0D0ED007AF3
:1025B00067EE807A013AC1ED007A0DD0D0ED017A54
:1025C00067EE807A012AC1ED017A05D0D0ED027A5A
:1025D00027EE800A81ED020A10BD00BF10B59408F5
:1025E00037D000F1200C01F12003A6465CED087AFB
:1025F00043ED087A5CED077AF1EE677A0CF1200C76
:1026000043ED077A5CED0E7A43ED067A5CED0D7AC8
:10261000F1EE677A43ED057A5CED0C7A43ED047ACE
:102620005CED0B7AF1EE677A43ED037A5CED0A7AA2
:1026300043ED027A5CED097ABEF1010EF1EE677AA4
:1026400003F1200343ED097AD0D100EB441001EBF4
:10265000441112F003021BD003680B60D0ED017A25
:10266000013AF1EE677AC1ED017A11D083688B608F
:10267000D0ED037A012AF1EE677AC1ED037A07D033
:1026800003690B61D0ED057AF1EE677AC1ED057A49
:1026900010BD00BF70B59E084BD001F1100400F1D1
:1026A000200E02F1200C35461EED087A54ED046A26
:1026B00027EE267A0EF1200E0CED087A5EED0F7AE9
:1026C00067EEA67A10344CED077A54ED076A1EEDDA
:1026D0000E7A27EE267A013D0CED067A5EED0D7A34
:1026E00067EEA67A0CF1200C4CED0D7A54ED066ADB
:1026F0001EED0C7A27EE267A0CED0C7A5EED0B7A45
:1027000067EEA67A4CED0B7A54ED056A1EED0A7A57
:1027100027EE267A0CED0A7A5EED097A67EEA67A44
:102720004CED097AC0D100EB461001EB061102EB2B
:10273000461213F003032DD0D1ED006A90ED007A1C
:1027400027EE267A013B82ED007AD0ED017A67EE22
:10275000A67AC2ED017A1DD0D1ED016A90ED027A20
:1027600027EE267A012B82ED027AD0ED037A67EE0E
:10277000A67AC2ED037A0DD0D1ED026A90ED047A0B
:1027800027EE267A82ED047AD0ED057A67EEA67AF6
:10279000C2ED057A70BD00BFDFED227A20EE270A78
:1027A000B5EEC00AF1EE10FAFDEEC07A04D517EED0
:1027B000903A013B07EE903AF8EEE77ADFED1A6ABD
:1027C00030EE670A60EE267ABCEEE77A17EE103A32
:1027D0009BB2B3F5007F1BD207EE103AB8EE477AF2
:1027E000591C37EEC70A89B2104AF7EE006A02EBAD
:1027F000810137EE267AD1ED006A02EB830377EE92
:10280000677A20EE260A93ED007AA7EE870A7047D2
:1028100077EEE67A9FED067AB0EE670A0121002393
:10282000E2E700BF83F9223E0000004400DF000819
:102830000000000062B170B506460D461446B6ECC5
:10284000010A05F02BFD013CA5EC010AF7D170BD92
:10285000704700BF10B594081FD000F1100C01F1B3
:102860001003A6465CED047A43ED047A5CED037A2E
:102870000CF1100C43ED037A5CED067A43ED027A1D
:102880005CED057ABEF1010E03F1100343ED057A0C
:10289000E8D100EB041001EB041112F0030209D09F
:1028A00003680B60013A05D043684B60012A1CBFE6
:1028B00083688B6010BD00BF5FEA910C10D000F1FF
:1028C00010036246013A03ED040A03ED030A03ED27
:1028D000020A03ED010A03F11003F3D100EB0C101F
:1028E00011F0030109D0013980ED000A05D001295A
:1028F00080ED010A18BF80ED020A70472DE9F04F04
:102900002DED0C8B93B0012A0588029283460C466C
:10291000019300F05A83B5F5807F00F01D811CD92A
:10292000B5F5006F00F0188140F24683B5F5805F81
:1029300006D1DBF8042001232946204600F076FD6D
:10294000019B002B40F0D480029B012B00F0DB8028
:1029500013B0BDEC0C8BBDE8F08F402DE9D040F2F8
:10296000F580802DECD16908DBF804208800103058
:1029700004EB850604F110034FEAD50E04EB000CBE
:1029800003EB0E1E304402F1100806F1100717ED9C
:10299000041A57ED031A10ED045A50ED035A57ED7F
:1029A000028A17ED018A10ED027A50ED017A13EDDB
:1029B000044A53ED034A13ED026A53ED016A1CED1C
:1029C000042A5CED032A1CED020A5CED010A74EE98
:1029D00001BA34EEA1BA72EE059A32EEA59A30EE43
:1029E000073A70EEA73A76EE28AA36EE88AA43EDAB
:1029F00004BA03ED03BA43ED02AA03ED01AA4CEDBC
:102A0000049A0CED039A0CED023A4CED013A58EDA4
:102A1000033A18ED043A34EE414A74EEE14A75EE99
:102A2000E25A35EE425A24EEA31A63EEC41A23EE9C
:102A3000652AA4EE031A10339E4565EE032AB0EE14
:102A4000614AA4EE834A0CF1100C08F11008F0EE74
:102A5000424AE5EE234A07F1100700F11000B0EEFC
:102A6000625AA5EEA35A07ED074A07ED081A40ED92
:102A7000084A00ED075A58ED055A18ED065A36EE89
:102A8000686A76EEC86A77EEE07A37EE407A26EE2C
:102A9000A53A65EEC63A25EE674AA6EE053A67EE18
:102AA000054AB0EE636AA6EE856AF0EE446AE7EE88
:102AB000256AB0EE647AA7EEA57A07ED063A07ED2F
:102AC000056A40ED066A00ED057A7FF460AF89B2D1
:102AD00020460223039100F0A9FC02230399DBF8AE
:102AE0000420304600F0A2FC019B002B3FF42CAFE9
:102AF000DBF80820BBF80C10204600F071FC029BAC
:102B0000012B7FF425AF07EE905AF8EE677AB7EE07
:102B1000007AC7EE276A002D3FF41AAF083400236D
:102B200001339D4204F1080414ED047A54ED037A54
:102B300027EE267A67EEE67A04ED047A44ED037A0E
:102B4000EED113B0BDEC0C8BBDE8F08F102D3FF42F
:102B50000AAF202D7FF4F4AE6B0804EBC30191EDB6
:102B6000006AD1ED015A94ED007AD4ED017ADBF8D8
:102B70000470049101EB830277EE066A37EE467A21
:102B800037EEA56A77EEE57AD2ED005A92ED012A8A
:102B9000059204EB830696ED005AD6ED012A0896BD
:102BA00036EEA53A204633EE053A77EEA53A0830E0
:102BB00084ED003A0A905808069076EEC56A77EEE2
:102BC000857A304633EEC55AD2ED013A099708307E
:102BD00077EE024A36EE624A76EEE56A77EEE57AFD
:102BE0000B90D6ED015A084637EE227A36EE236A6C
:102BF00008300C9037EE427A069834EE424A74EE72
:102C0000E24A36EE256A02EB830384ED016A0C3B4F
:102C100086ED007A86ED015AC1ED006A81ED014A28
:102C20001146C2ED004AC2ED017A821E50080F9390
:102C3000083107F1100304F110020D9103900E9377
:102C400007F12008109207F13009039F049A1195AB
:102C50009A463B01079308EB0713A2F10C0102F11E
:102C6000100E1D46059ADDE90F373046A2F10C0C17
:102C70000C3E1030103252ED028A50ED021A1EED59
:102C8000026A57ED022A12ED011A1EED017A10EDCB
:102C900001BA57ED016A72EE863A71EEA87A36EE05
:102CA000874A77EEA37A72EEC62A47ED027A52ED92
:102CB000015A50ED017A77EEA57A76EEC76A77EE83
:102CC000847A32EEC1AA47ED017ADCED02BA93EDC7
:102CD00002CA91ED025AD6ED020A9CED010A93ED6B
:102CE000016A91ED018A96ED017A70EEABCA35EE7C
:102CF0000CDA77EE00AA7CEE8D7A76EEE19AC6EDDC
:102D0000027AD3ED017A91ED012A32EE272A79EE8B
:102D1000A89A32EE2A2A3AEE0BAA86ED012A1AED7B
:102D2000019A5AED027A30EE863A7AEEC8AA7CEE23
:102D3000C55A75EE4C4A33EE6B3A3AEEC65A75EE0A
:102D4000CC5A3BEE866A29EE89CA69EE4ABAAAEEE7
:102D500027CA08F110080837B0EE6BAAA9EEA7AA97
:102D6000083E0AF1080A74EEC09A33EE483A79EE4A
:102D7000879A63EE27AA67EEE97A00ED01AAB0EE22
:102D80006AAAE3EE097A08300839A9EE89AA0EF199
:102D9000080EACF1080C73EEE13A34EE4B4A00ED4C
:102DA00004CA81ED03AAC1ED047A58ED077A73EEE7
:102DB000E83A34EE414A34EEC77A76EEE86A58EDE6
:102DC000084A64EE278A27EEE33A65EEA75A3DEEFD
:102DD0006C2A67EEC57AE3EEA48A454509F1180925
:102DE000F0EE433AE4EE243A02F10802A3F10803BC
:102DF000E5EE645AE4EE827A72EECB2A4EED048A56
:102E000036EE486A4EED033ACCED047ACCED035A27
:102E100019ED0C5A59ED0B5A77EE007A32EE811A01
:102E200036EE607A76EEA16A25EEC14A65EE674A13
:102E300027EE056AA6EE854A66EEA53AF0EE646ACC
:102E4000E7EE256AB0EE467AE1EE053AA7EEA57AFE
:102E500042ED043A02ED034AC3ED046A83ED037ABE
:102E60007FF409AF079A0E9BBDF81810119D13440B
:102E70009C46039B0B9A581E02EBC0030D9AD3EDA0
:102E8000024AD3ED037A02EBC0070A9A97ED024A91
:102E9000D7ED032A02EBC0060C9A96ED027AD6ED26
:102EA000036A02EBC00292ED023AD2ED033A74EEED
:102EB000845A37EE036A37EE437A75EE865A36EE59
:102EC000646AC6ED025A97ED032A93ED035A76EE33
:102ED000A35A35EE025A76EEE36A35EE255A77EEBE
:102EE000623A86ED035A099E36EEE43A06EBC000DC
:102EF00090ED055AD0ED041A33EE043A73EEA73A7A
:102F000075EEE75A25EE632A23EE055AA3EE212A31
:102F10002046A3EEA15A83ED032A83ED025A9CEDCD
:102F2000015A9CED003A039B36EE446A75EEE25A74
:102F300065EE463A25EE855AE5EE833A013303EB1A
:102F40004303A6EE035A06EBC30377EE677A36EE29
:102F5000C47A82ED025AC2ED033A77EEA27A37EED6
:102F6000247AD3ED016AD3ED005A039126EEE76A85
:102F700067EE266AA7EE256A32460423E7EEA56AC5
:102F800087ED036AC7ED026A00F050FA0898DBF893
:102F900004200399042300F049FA0498DBF8042084
:102FA0000399042300F042FA03990598DBF8042002
:102FB000042300F03BFAC3E4B5F5007F3FF4B9AC5D
:102FC000B5F5806F3FF4CFACBAE475B101F10C03F5
:102FD000002253ED027A0132F1EE677A954243ED19
:102FE000027A03F10803F4D195E4019B002B3FF42E
:102FF000AFAC7DE5064B99898181D3E901324FF46D
:10300000006CC0E90132A0F800C00020704700BF8A
:1030100034660208064B99898181D3E901324FF465
:10302000806CC0E90132A0F800C00020704700BFEA
:1030300004660208064B99898181D3E901324FF475
:10304000007CC0E90132A0F800C00020704700BF3A
:1030500074660208064B99898181D3E901324FF4E5
:10306000807CC0E90132A0F800C00020704700BF9A
:1030700044660208064B99898181D3E901324FF0F9
:10308000800CC0E90132A0F800C00020704700BFEA
:1030900014660208064B99898181D3E901324FF009
:1030A000400CC0E90132A0F800C00020704700BF0A
:1030B00084660208064B99898181D3E901324FF079
:1030C000200CC0E90132A0F800C00020704700BF0A
:1030D00054660208064B99898181D3E901324FF089
:1030E000100CC0E90132A0F800C00020704700BFFA
:1030F00024660208B1F5807F31D018D9B1F5006F90
:1031000025D00CD9B1F5805F1ED1164B018099896D
:103110008181D3E90132C0E9013200207047B1F565
:10312000007F16D0B1F5806F0ED10F4BEEE740292E
:1031300011D003D9802907D10C4BE7E710290CD017
:10314000202901D10A4BE1E74FF0FF307047094BCE
:10315000DCE7094BDAE7094BD8E7094BD6E7094B1F
:10316000D4E700BF64660208046602081466020819
:10317000546602083466020874660208846602080F
:10318000246602084466020870B5154606460C46D9
:103190001A46002B55D0D1ED007AD1ED016A008896
:1031A000716937EEA67A77EEE67AB6EE004A431EEC
:1031B00027EE047A67EE847A002B85ED007AC5ED60
:1031C000017A04EBC30C35DD01F1100EACEBC0004D
:1031D0001034ACF1080C05F11001DCED036ADCEDF4
:1031E000027A14ED027A14ED015A1EED026A5EEDC8
:1031F000015A77EE674A77EE877A35EE667AE6EE21
:10320000647AACF1080C0831A5EEA47A60450EF1A1
:10321000080E76EE856A04F10804E5EEE67AA6EE7D
:10322000667A67EE847A27EE047A41ED047A01ED3E
:10323000037AD2D1294630460123BDE87040FFF71A
:103240005DBB0123FFF75AFBD4ED017A94ED006AD0
:103250003388706977EEA77AF0EE006AB0EE677A8D
:10326000A6EE267A5E1E04EBC601D6EE267A103054
:1032700005F11002B6EE004A27EE047A67EE847A72
:1032800085ED007AC5ED017A04F11003083913EDDC
:10329000027AD1ED036AD1ED027A13ED015A10EDF5
:1032A000026A50ED015A77EEC74A77EE877A35EE1B
:1032B000667AE6EE247A013E0832A5EEA47A002E64
:1032C00000F1080076EE856A03F10803E5EEA67AC0
:1032D000A1F10801A6EE667A67EE847A27EE047AF9
:1032E00042ED047A02ED037AD1DC70BDB1F5007FC6
:1032F00038B50C4605464ED00ED8802937D01AD99D
:10330000B1F5807F30D100282ED0FFF7B3FE10B981
:103310002B4B2C826B6138BDB1F5006F31D0B1F50C
:10332000805F15D100B3FFF765FE0028F3D1254B70
:103330002C826B6138BD202937D0402914D198B137
:10334000FFF7B8FE0028E6D11F4B2C826B6138BD19
:10335000B1F5806F08D138B1FFF76CFE0028DAD1E3
:103360001A4B2C826B6138BD4FF0FF3038BD0028FE
:10337000FAD0FFF78FFE0028CDD1154B2C826B6160
:1033800038BD0028F0D0FFF745FE0028C3D1114B0F
:103390002C826B6138BD0028E6D0FFF75BFE002869
:1033A000B9D10D4B2C826B6138BD0028DCD0FFF702
:1033B00091FE0028AFD1094B2C826B6138BD00BF54
:1033C00084180208041D02080465020884E6010846
:1033D00084F6010884F80108045D0208841C0208D0
:1033E00011B370B54FF0000E951C32F81EC035F8C1
:1033F0001E304FEA9C0C9B0850F82C6050F823407C
:1034000040F82C4040F823600CF1010C01330EF120
:10341000020E50F82C4050F8236040F82C608E4586
:1034200040F82340E1D370BD704700BF2DE9F04F55
:103430002DED108B8FB0CDE90A3203460433DFED5A
:10344000BDCA0C908A468B460D934FEADB0707EB0B
:1034500087044FEACB000090E400C7EBC7000C9B49
:1034600002944FEAC708C4004FEA0719059409F10E
:10347000040008F1040403EB471107EB47061C4462
:1034800018447B010193330101EB0715A7EB870279
:103490000393F30005EBC20204930D9E009B099772
:1034A00001EBC70C4FF0000E02EB471795ED00AA99
:1034B00092ED008AD7ED00AA10ED012A91ED005A95
:1034C0009CED004A56ED013A14ED016A78EE2A0AA5
:1034D00036EE041A32EE0A3A33EE857A71EE204A5D
:1034E00077EE036A36EE446A76EEA47A76EEE46A04
:1034F00046ED017AC1ED006A9CED01BAD4ED00BA47
:10350000D2ED019A96ED004AD1ED015AD7ED011A9C
:10351000D0ED004A95ED01CA7BEECB6A36EE489AB3
:1035200076EEE92A73EEC53A34EE655A39EE2A9AF8
:1035300072EEA12AF0EE638AB0EE450AE9EE6C8ADB
:10354000DE44F245A2EEEC0A36EE6A6A76EEE16AF5
:1035500076EE087A74EE255A32EE4A8A34EECC4A78
:1035600076EEA96A74EE8CAA3AEE422A7CEE644AA0
:1035700079EEA11A7BEE8BBAE9EE2C3AB0EE44AAB2
:10358000B0EE489AF0EE409AB0EE68BA35EEEA6ACC
:10359000A7EEAC9AA2EEAC5AA6EEACAA37EE437AEE
:1035A000E7EEEC9AA6EEECBAE6EEAC4AA7EEAC2A51
:1035B0007BEEA12A77EE616A75EEAA7A37EE6B7A16
:1035C00036EE413A36EE606A77EEA2AA76EEABBAF4
:1035D00077EEE27A37EE217A75EE492A73EE8A1A8F
:1035E00033EE203A36EE016A73EECA3A34EE0B4AF5
:1035F00078EEA44A39EE055A70EE025A78EE296A3E
:10360000C6ED00AAC1ED017A1E4440ED01BA19448D
:1036100085ED007A80ED003A85ED016A184444EDAD
:10362000011A1D44C7ED003A8CED004AC2ED004A74
:10363000C4ED002A87ED015A1C44CCED015A1F4409
:10364000C2ED016A9C441A443FF630AF1F46099B05
:10365000072B40F2A381019D0C9E029C03980499C4
:10366000059A083508F1080873190834089306EB21
:1036700008030830079333190831069333180832CA
:103680000593731809F10C090493B318039306EB1F
:103690000903019306F10C0302934FF001094FF067
:1036A00000083B460A9A90440B9A02EBC80292ED3E
:1036B00000FA02EBC802D2ED00EA02EBC80292ED7A
:1036C00000EA02EBC802D2ED00DA02EBC80292ED8A
:1036D00000DA02EBC802A8EB880192ED00CA02EB07
:1036E000C802D2ED00BA92ED01BA02EB0112D2ED9E
:1036F00001AA02EBC80292ED01AA02EBC802D2EDC8
:10370000019A02EBC80292ED019A02EBC802D2EDD7
:10371000018A02EBC802D2ED017ADDE901C7DDE9D9
:103720000365DDE90540DDE90712CDED007ACE46FF
:1037300002E000BFF304353FD5ED004A1CED017AED
:10374000D4ED006A96ED003A57ED013AD1ED002A2A
:10375000D2ED005AD0ED007A97ED008A74EE830A1C
:1037600032EEA70A33EEA55A37EE266A30EE204A2B
:1037700035EE062A72EEE77A72EE042A73EEE55A07
:1037800047ED012AD1ED01FAD0ED013A92ED011A8F
:1037900032EE442A35EE466A95ED014A3FEEE35A91
:1037A0007FEEA33A77EEE4FA77EE661A77EEC37A05
:1037B00076EEC76A3FEE833A96ED017A75EE44FAEB
:1037C00078EE412A77EEA47A7FEE87FAF0EE654A2A
:1037D000E3EE6C4ADE44F245E3EE2C5AB0EE623A78
:1037E000AFEEEC3AE7EEAC6A35EE475A73EE266A76
:1037F000A7EEEC3A35EE045A38EE011A34EE074AD9
:103800009CED008A94ED017AEFEEAC2AF0EE43FADB
:10381000B0EE613AA7EEAC3A71EEAF7A78EE071AE5
:1038200078EE47FA37EE487AB0EE6F8AA5EE2C7A3A
:10383000A5EE2C8A37EE247AE5EE6C4A31EE615A19
:1038400071EE211A35EE601A74EEAFFA35EE405A79
:1038500073EE844A30EE010A36EE441A36EE636A9D
:1038600035EE205A34EE064A71EEA40A22EE496A79
:1038700071EEE41A71EE233AADEEA16A69EE214AC7
:103880006AEE051AEDEE824AB0EE612AAEEEA32A88
:1038900063EECA3AC7ED000AEEEE853A1F449DED8D
:1038A000005A82ED016A65EE001A24EE455A35EEA3
:1038B000886AACEE005A32EEC30A33EE223A75EE55
:1038C000C85A6AEE800A2BEE031A66EE6A2AC2ED27
:1038D000004AEFEE060A1A44ABEEA51A65EECB4A93
:1038E00029EEA76A67EE695AECEE041AEFEE002A99
:1038F000B0EE454A2FEEE80A28EEA65AAEEE076A69
:10390000B0EE657AEBEE834AADEE2F5AADEE260AA5
:10391000AEEE277A0CED012ACCED003AC4ED001A88
:1039200084ED014A9C44C1ED000AC1ED012A1C440A
:1039300086ED001AC6ED014A194480ED005A80ED6B
:10394000010A1E4485ED006A184485ED017A1D4484
:103950003FF6F2AE089A08320892079A08320792A8
:10396000069A08320692059A08320592049A08329D
:103970000492039A08320392029A08320292019A40
:1039800008320192099A09F101094A457FF48AAE89
:103990000A9BDB009BB20A93934656E50FB0BDEC41
:1039A000108BBDE8F08F00BF024B0A460146186835
:1039B00000F0DEB80C0000201FB514461A46094B73
:1039C0001B680546D86854B9074B1C46CDE901343D
:1039D00000912B46054901F029F801F055FA044BF6
:1039E000F4E700BF0C000020CF660208A1660208C1
:1039F00094660208024B0146186800F02DB800BF1B
:103A00000C000020024B0146186802F091B800BF7C
:103A10000C00002070B50F4E0C463168054611B9F8
:103A200001F0DCF930602146284601F0D7F9431C4B
:103A300003D14FF0FF34204670BDC41C24F00304B2
:103A4000A042F8D0211A284601F0C8F90130F2D17D
:103A5000EFE700BFEC0100202DE9F843CD1C25F075
:103A6000030508350C2D38BF0C25002D064601DB5B
:103A7000A94204D90C2333600020BDE8F883DFF8A5
:103A8000D48000F069F8D8F800301C4644BB2946C1
:103A90003046FFF7BFFF431C044658D1D8F800401A
:103AA0002746002F43D1002C4BD02368394630469F
:103AB00004EB030901F092F9814542D121686D1AA6
:103AC00029463046FFF7A6FF01303AD023682B4441
:103AD0002360D8F800305A6862BBC8F800700FE065
:103AE0002268521B20D40B2A17D96119A3422560E2
:103AF00018BF5960636808BFC8F8001062514B6076
:103B0000304600F02FF804F10B00231D20F00700D1
:103B1000C21A1CBF1B1AA350AFE76268A3420CBFB6
:103B2000C8F800205A60EBE723466468AEE73C46DD
:103B30007F68B6E71A465B68A342FBD10023536057
:103B4000DEE70C233360304600F00CF894E70560A4
:103B5000D6E700BFF0010020014801F08CB900BF9A
:103B600034030020014801F087B900BF340300206E
:103B7000F8B54B1E0B4206460D4606D1082938BF44
:103B80000825531D04D90C23336000252846F8BDB1
:103B9000042A38BF0422D41C24F00304C5F107030F
:103BA000A342F0D3A5F108012144FFF755FF0028F7
:103BB000EBD050F8042C031F002AB8BF9B18EA1C56
:103BC0001A446D421540191D6A1A0BD00B2A03EBDB
:103BD000020718D91868801A98501A60304601F008
:103BE000A7FF3B461A6804F10C0198182944884243
:103BF000CCD92919C81A121A186004312A51304632
:103C000001F096FFC2E751429950EBE72DE9FF47DB
:103C100057EC106B002F0C4619463B46BBBF07F113
:103C200000431F4600232D230B700D9BDDF830A0B1
:103C3000914623F02008BCBF32461646B8F1460F25
:103C400005D0B8F1450F00D10134022100E0032175
:103C500003AB019302AB009347EC106B5346224633
:103C600001F0A2F9B8F1470F054619D119F0010F7B
:103C70000ED000EB04090022002330463946FCF741
:103C800023FF08B1CDF80C903022039B4B451ED387
:103C9000039B0E9A5B1B2846136004B0BDE8F087B7
:103CA000B8F1460F00EB0409E5D10378302B0AD1B7
:103CB0000022002330463946FCF706FF18B9C4F14C
:103CC0000104CAF80040DAF800309944D3E7591CDF
:103CD00003911A70D9E7F7B50029BABF49422D23DD
:103CE0002B2309290270437029DD0DF107031D46BE
:103CF0000A271A46B1FBF7F607FB1614303402F810
:103D0000014C0C46632C03F1FF333146F1DC3031BA
:103D1000941E03F8011C411C2346AB420AD30DF14B
:103D200009039B1AAC4288BF002302330344181ACC
:103D300003B0F0BD13F8016B01F8016FEDE730231C
:103D400030318370C170031DF1E700002DE9F04FA1
:103D50008DB00C46DDF8588016461F46054601F02A
:103D600005F8036804931846FCF782FA00230A93C7
:103D7000D8F800300590073323F0070303F1080259
:103D800094F818A0D4F800B0C8F80020D3E900894E
:103D900029F000430793CDF81880C4E91289DDE9C2
:103DA00006019C4B4FF0FF32FCF7C0FE70BBDDE913
:103DB0000601984B4FF0FF32FCF79AFE30BB002211
:103DC000002340464946FCF789FE10B12D2384F8B4
:103DD0004330914A914BBAF1470F94BF90469846B1
:103DE000032323612BF0040323604FF000090097A5
:103DF00033460BAA2146284600F0D2F9013040F0A4
:103E00008D804FF0FF300DB0BDE8F08F42464B463D
:103E100040464946FCF78AFE40B14B46002BBCBFEA
:103E20002D2384F843307E4A7E4BD4E763680AF042
:103E3000DF0206925A1C3BD1062363604BF480627A
:103E40000023226003930AABCDE901A309AB0093E1
:103E5000616849EC108B0DF123032846FFF7D6FE6D
:103E6000069B0999472B804629D1C81C02DB636851
:103E7000994241DDAAF1020A5FFA8AFA01395246F3
:103E800004F150000991FFF726FF0A9A1318012A3E
:103E90008146236102DC2268D20701D50133236108
:103EA0009DF82330002BA2D02D2384F843309EE7C9
:103EB000069A472AC2D1002BC0D10123BDE7BAF12F
:103EC000650FDBD9BAF1660F18D1002963680BDDE5
:103ED000216113B92268D00702D501330B44236155
:103EE000A1654FF00009DBE713B92268D20701D5BD
:103EF0000233F4E70123F2E74FF0670A0A9B994285
:103F000005DB23682161D807EAD54B1CE7E70029C8
:103F1000D4BFC1F1020201221344E0E723685A052D
:103F200007D42369424631462846B84701302BD191
:103F300067E7BAF1650F40F2DD80D4E91201002293
:103F40000023FCF7C1FD002833D0374A0123314656
:103F50002846B84701303FF454AFDDE909384345FE
:103F600002DB2368D8070FD5DDE904233146284654
:103F7000B84701303FF445AF4FF0000908F1FF3872
:103F800004F11A0AC84509DC23689B0700F1038184
:103F9000E0680B9B9842B8BF184634E701235246AD
:103FA00031462846B84701303FF42BAF09F10109EB
:103FB000E8E7099B002B39DC1B4A012331462846E0
:103FC000B84701303FF41DAFDDE9093959EA030371
:103FD00002D12368D907D7D5DDE904233146284625
:103FE000B84701303FF40DAF4FF0000A04F11A0B4F
:103FF000099B5B42534501DC4B4693E701235A463C
:1040000031462846B84701303FF4FBAE0AF1010AB9
:10401000EEE700BFFFFFEF7FD0660208D46602081C
:10402000D8660208DC660208E0660208A36DDDF8C7
:1040300028A05345A8BF5346002B994636DC4FF0C5
:10404000000B29EAE97904F11A02A36D0693A3EBA8
:1040500009035B4531DC099B9A453ADC2368DA07A2
:1040600037D4099BAAEB0309069BAAEB03039945E6
:10407000A8BF9946B9F1000F33DC4FF0000829EAD8
:10408000E97904F11A0B099BAAEB0303A3EB0903DB
:1040900043457FF779AF01235A4631462846B84752
:1040A00001303FF4AEAE08F10108ECE7424631467C
:1040B0002846B8470130C2D1A3E60123314628463D
:1040C0000692B84701303FF49CAE069A0BF1010B03
:1040D000BBE7DDE9042331462846B8470130C0D1AB
:1040E0008FE6069A4B46424431462846B84701308F
:1040F000C3D186E6DDF828A0BAF1010F01DCDB07A9
:1041000036D50123424631462846B84701303FF4B0
:1041100078AEDDE9042331462846B84701303FF444
:1041200070AED4E91201002200230AF1FF3AFCF735
:10413000CBFCC0B9534608F1010231462846B847C6
:1041400001300CD15DE601235A4631462846B84776
:1041500001303FF456AE08F10108D045F3DB4B4681
:1041600004F15002DFE64FF0000804F11A0BF4E707
:1041700001234246E1E701234A4631462846B84733
:1041800001303FF43EAE08F10108E3680B995B1A79
:104190004345F0DCFCE64FF0000804F11909F4E7B0
:1041A0002DE9F047164698468A680B69DDF820909D
:1041B0009342B8BF1346336091F8432007460C463C
:1041C0000AB1013333602368990642BF3368023372
:1041D0003360256815F0060506D104F1190AE36875
:1041E00032689B1AAB4226DC94F843302268003BCD
:1041F00018BF012392062BD404F1430241463846EE
:10420000C84701301ED02368226903F00603042B3F
:1042100002BFE5683368ED1AA3680CBF25EAE575AF
:1042200000259342C4BF9B1AED1800261A34B542EC
:104230001AD1002008E00123524641463846C847BB
:10424000013003D14FF0FF30BDE8F0870135C6E7FC
:10425000E1185A1C302081F84300224494F845109C
:1042600082F843100233C7E701232246414638460D
:10427000C8470130E6D00136D9E700002DE9FF47F5
:104280000F7E0C9E782F914680460C469A4601F18F
:10429000430207D8622F0AD8002F00F0D280582F8F
:1042A00000F0B98004F1420684F842703AE0A7F1C8
:1042B0006303152BF6D801A151F823F0154300082C
:1042C00029430008A5420008A5420008A5420008AD
:1042D000A542000829430008A5420008A54200089D
:1042E000A5420008A54200082944000853430008DD
:1042F000E3430008A5420008A54200084B4400081B
:10430000A542000853430008A5420008A542000842
:10431000EB43000833681A1D1B68326004F1420643
:1043200084F8423001239DE033682068191D316014
:10433000060601D51D6803E04506FBD5B3F900501C
:10434000002D03DA2D236D4284F8433059480A23A7
:1043500011E021683368080653F8045B02D449066B
:1043600048BFADB26F2F5348336014BF0A230823F0
:10437000002184F843106668A660002EA2BF216861
:1043800021F0040121600DB9002E4BD01646B5FB7B
:10439000F3F103FB1157C75D06F8017D2F46BB42C1
:1043A0000D46F4D9082B0BD12368DF0708D5236904
:1043B00061689942DEBF302306F8013C06F1FF3602
:1043C000921B2261CDF800A04B4603AA214640462D
:1043D000FFF7E6FE01304AD14FF0FF3004B0BDE8F0
:1043E000F087236843F0200323603348782784F85C
:1043F0004570236831681F0651F8045B02D45F06DC
:1044000048BFADB23160D90744BF43F020032360F9
:104410001DB11023ACE72748E9E7236823F0200308
:104420002360F6E71646BDE7336825686169181D05
:1044300030602E061B6801D5196002E06806FBD5C6
:104440001980002323611646BCE733681A1D3260C9
:104450001E68626800213046FBF7BAFE08B1801B77
:10446000606063682361002384F84330AAE723690E
:10447000324649464046D0470130ADD023689B07BD
:1044800013D4E068039B9842B8BF1846A6E70123FF
:10449000324649464046D04701309DD00135E36859
:1044A00003995B1AAB42F2DCEBE7002504F1190635
:1044B000F5E700BFE2660208F36602082DE9F04F57
:1044C00087B0174603938B685A1EB2F5AE7F81BF43
:1044D0006FF4AE7503EB050B40F25D138B600B6858
:1044E0000A464FF0000543F4F06342F81C3BCDE967
:1044F000045580460C4698BF4FF0000B01921646BB
:10450000AA46A9460295A26852B13B681B784E2B79
:1045100064D8402B3CD8A3F12B01C8B20E283AD95D
:10452000B9F1000F03D0236823F4807323600AF1EC
:10453000FF3ABAF1010F00F21781019B9E4200F28F
:104540000881012007B0BDE8F08FA3F161020D2AB8
:10455000E6D801A151F822F09F4600082145000845
:104560002145000821450008FF460008D7460008FD
:104570002145000821450008AD46000821450008F6
:10458000214500082145000821450008654600082E
:10459000A3F14102DBE70E29C2D801A050F821F0B7
:1045A000554600082145000855460008EB4600081E
:1045B00021450008FD4500083B4600083B46000831
:1045C0003B4600083B4600083B4600083B460008C7
:1045D0003B4600083B4600083B4600086E2B09D8C6
:1045E000602BB2D8542B7BD0592B99D1072D97D162
:1045F00008252CE0742B73D0792BF6E72168C805C9
:104600001BD521F08001216009F10109BBF1000FE8
:1046100003D001320BF1FF3BA260A368013BA36012
:104620002369013323617B68013B002B7B6040F3EE
:1046300087803B6801333B6065E71AEB05017FF437
:104640006FAF226822F4C07222600D468A4606F8D7
:10465000013BE2E7226810067FF562AF22F080029C
:104660002260F4E7BAF1000F0ED1B9F1000F0ED1BC
:10467000226802F4E061B1F5E06F08D122F4F06243
:1046800022604FF0010AE2E7BAF1020F55D0012D86
:1046900002D0042D7FF444AF0135EDB2D7E7BAF173
:1046A000010F7FF43DAF4FF0020AD0E77DB9B9F1B9
:1046B000000F7FF438AF226802F4E061B1F5E06FDB
:1046C00040F0088122F4F06222600125BFE7032D4B
:1046D000E2D0052DDEE7022D7FF422AF0325B6E7F9
:1046E000062D7FF41DAF0725B1E7226891057FF500
:1046F00017AF22F420722260CDF80890A7E7226855
:1047000002F4A061B1F5806F06D050057FF508AFC7
:10471000B9F1000F00F0DE80910558BF029922F434
:10472000F06258BFA9EB010142F4C07258BFCDE955
:10473000041622604FF0000989E74FF0030A86E76C
:10474000D4F8803139464046984700283FF4DBAE24
:10475000E6E6D4F87C3116F8011D3A464046984703
:104760002369013B2361E8E66B1E062B24D8022D4A
:1047700036D8019B9E427FF6E4AED4F87C3116F821
:10478000011D3A46404698472369013B2361F0E703
:10479000D4F87C311BF8011D3A46404698472369FE
:1047A000013B23610AF1FF3A5FFA8AFABAF1020F7C
:1047B000EED1033DEDB2761B2368DA0530D55B05FB
:1047C00011D5019B9E427FF6BCAED4F87C3116F821
:1047D000011D3A46404698472369013B2361F0E7B3
:1047E000AA46B346DEE716F8011C2369652903F1E2
:1047F000FF3306F1FF3523610CD045290AD0D4F8E8
:104800007C313A4640469847236916F8021C013B22
:10481000B51E2361D4F87C313A46404698472E466F
:10482000226812F0100201D000208BE6327023685B
:1048300003F4C063B3F5806F1CD1029B4B45A3EB1F
:10484000090223D101990022404602F071FC039B2A
:1048500021681B6811F0020F57EC106B03F1040282
:104860001FD003990A601B68C3E90067E36801333E
:10487000E360D9E7049B002BE4D005990A230131BA
:10488000404602F0D5FC049B059EC21A04F26F1349
:104890009E4228BF04F5B7761049304600F066F90D
:1048A000D0E711F0040F03990A60DCD11D6832468D
:1048B0003B4630463946FCF739F928B1084800F044
:1048C000DDFA85ED000AD1E730463946FCF78CF970
:1048D0002860CBE74FF0000929E600BF0467020813
:1048E000CF660208002310B50446C0E90033C0E9D2
:1048F0000433836081814366C28183611946082243
:104900005C3000F02BFA0D4B63620D4BA3620D4B34
:10491000E3620D4B23630D4B24629C4206D003F1EE
:104920006802944202D0D0339C4205D104F1580071
:10493000BDE8104000F09EBA10BD00BFAD4B0008AE
:10494000CF4B0008074C00082B4C0008F401002056
:10495000024A0349034800F07BB800BF0000002072
:10496000717800081000002041680C4B994210B586
:10497000044601D002F07CFFA168094B994202D0A5
:10498000204602F075FFE168064B994204D02046AC
:10499000BDE8104002F06CBF10BD00BFF401002064
:1049A0005C020020C402002010B50B4B0B4C0C4ADB
:1049B0001A60204600220421FFF794FF04F16800EA
:1049C00001220921FFF78EFF04F1D0000222BDE889
:1049D00010401221FFF786BF2C030020F4010020B5
:1049E00051490008014800F046BA00BF35030020D5
:1049F000014800F041BA00BF3503002010B504465D
:104A0000FFF7F0FF236A1BB1BDE81040FFF7F0BFCE
:104A1000044B2362044B1B68002BF5D1FFF7C4FF46
:104A2000F2E700BF694900082C0300200EB403B56B
:104A3000014603AB054853F8042B0068019302F0CC
:104A40007BFD02B05DF804EB03B070470C00002062
:104A50002DE9F8430746884614460026D4E9019517
:104A6000B9F1010905D52468002CF7D13046BDE81D
:104A7000F883AB89012B07D9B5F90E30013303D088
:104A800029463846C04706436835E9E70FB407B5FD
:104A9000064904AB086853F8042B8168019302F0BF
:104AA0004BFD03B05DF804EB04B070470C00002030
:104AB000036A70B5846805460E460BB9FFF79EFF82
:104AC000636EDB0705D4A389980502D4A06D00F0BE
:104AD000D2F9A389190702D52369002B35D12146C4
:104AE000284600F0E5F880B34FF0FF35636EDA0733
:104AF00005D4A3899B0502D4A06D00F0BDF928461A
:104B000070BD002B04DAA2699A4217DC0A2915D07D
:104B100023685A1C22601970A36816F8011F013B14
:104B2000A3600029EDD1002B11DA22460A21284684
:104B300000F07FF80130D7D00A25D7E72246284673
:104B400000F077F80130E7D1CEE7013EE4E72368D3
:104B50005A1C22600A221A70EEE70000024B01463E
:104B60001868FFF7A5BF00BF0C0000200EB400B509
:104B70009CB01DAB029006906FF000410948079170
:104B80000491094953F8042B05910068019302A987
:104B900002F0ACFB029B00221A701CB05DF804EB23
:104BA00003B070470C0000200802FFFF10B50C4650
:104BB000B1F90E1000F000F90028ABBF636DA389B6
:104BC0001B1823F48053ACBF6365A38110BD2DE98E
:104BD000F0411F468B89DB0505460C46164605D578
:104BE000B1F90E100223002200F0D4F8A389B4F921
:104BF0000E1023F48053A38132463B462846BDE87D
:104C0000F04100F0FBB810B50C46B1F90E1000F001
:104C1000C1F8431CA38915BF606523F4805343F496
:104C20008053A38118BFA38110BDB1F90E1000F00D
:104C3000A1B8F8B50E461446054618B1036A0BB97B
:104C4000FFF7DCFEA369A360A3891A0701D52369D6
:104C500043B92146284600F02BF818B14FF0FF3732
:104C60003846F8BD23682269981A6369F6B2834210
:104C7000374605DC2146284602F0FAFD0028EDD132
:104C8000A368013BA36023685A1C22601E706269FE
:104C9000431C9A4204D0A389DB07E1D50A2EDFD159
:104CA0002146284602F0E4FD0028D9D0D6E70000CE
:104CB00038B5294B054618680C4618B1036A0BB97C
:104CC000FFF79CFEB4F90C30190722D4DA0607D49A
:104CD00009222A6043F04003A3814FF0FF3033E004
:104CE000580712D5616B41B104F14403994202D0D7
:104CF000284600F01DFF00236363A38923F02403EB
:104D0000A3810023636023692360A38943F0080320
:104D1000A38123694BB9A38903F42073B3F5007F02
:104D200003D02146284602F0F1FDB4F90C3013F00F
:104D300001020AD00022A26062695242A261226985
:104D400042B913F08000C5D138BD990758BF6269D8
:104D5000A260F4E70020F7E70C00002002440346BD
:104D6000934200D1704703F8011BF9E700487047F0
:104D70004C01002038B5064D0023044608462B6040
:104D8000FCF7A5FF431C02D12B6803B1236038BD9B
:104D90003003002038B5074D04460846114600226E
:104DA0002A601A46FCF7BAFF431C02D12B6803B1F4
:104DB000236038BD3003002038B5074D044608464F
:104DC000114600222A601A46FCF764FF431C02D1F8
:104DD0002B6803B1236038BD3003002038B5064D81
:104DE0000023044608462B60FCF7A6FF431C02D1B3
:104DF0002B6803B1236038BD3003002038B5074D60
:104E000004460846114600222A601A46FCF703FFB2
:104E1000431C02D12B6803B1236038BD300300204E
:104E2000014B1868704700BF0C00002070B50D4D95
:104E30000D4C641BA4100026A64209D10B4D0C4C4E
:104E400003F018FD641BA4100026A64205D170BD16
:104E500055F8043B98470136EEE755F8043B984770
:104E60000136F2E7E46A0208E46A0208E46A02082A
:104E7000E86A020870477047704700009FED010A1A
:104E8000704700BF0000C07F08B5062002F0CEFDCD
:104E90000120FCF7F4FE2DE9F74F03690C69A342EA
:104EA00007467EDB013C01F11408A30000F1140564
:104EB000009305EB8403019358F8243055F824201F
:104EC00001339A4208EB8409B2FBF3F62ED34FF07C
:104ED000000AC446AE46D3465CF8043B98B206FBD3
:104EE00000A0020C1B0C06FB0323DEF8002080B29E
:104EF00092B2121A5A44DEF800004FEA134A9BB2EB
:104F0000C3EB224303EB104392B242EA0342E14572
:104F10004EF8042B4FEA234BDED2009BEB582BB903
:104F2000019B043B9D421A462FD33C61384601F059
:104F30000DF9002825DB2946002058F8042BD1F86C
:104F400000C01FFA82FE1FFA8CF3A3EB0E0303448A
:104F5000120CC2EB234202EB1C429BB243EA024317
:104F6000C14541F8043B4FEA2240E6D255F82420DF
:104F700005EB840322B9043B9D421A460BD33C61E6
:104F80000136304603B0BDE8F08F1268043B002ABA
:104F9000CBD1013CC6E71268043B002AEFD1013CAB
:104FA000EAE70020EEE700002DE9F04FC76999B06D
:104FB0008DED020B55EC104B229E099183460E920B
:104FC00013937FB91020FEF715FD0246CBF81C00A5
:104FD00020B9A74BEF21A748FEF7EEFCC0E9017707
:104FE0000760C760DBF81C30196859B15A684A601D
:104FF000012393408B60584600F024FEDBF81C3000
:1050000000221A602B1EB9BF23F000430393002334
:105010003360039F984BBCBF01223260BB4312D167
:10502000139A42F20F731360C7F31303234300F084
:105030004D85239BDFF854A2002B00F04F850AF129
:10504000030300F049BD9DED027B002251EC170BDC
:1050500000238DED0C7BFBF737FD804658B1139A8A
:1050600001231360239B13B1239A844B1360DFF851
:1050700020A200F033BD9DED0C0B16AA17A95846CF
:1050800001F084F9C7F30A568146002E77D00D9BB4
:10509000CDF85080C3F31303DDE90C0143F07F53D7
:1050A00043F44013A6F2FF3619460022744BFBF777
:1050B000EBF869A3D3E90023FBF79EFA68A3D3E9D1
:1050C0000023FBF7E3F8044630460D46FBF72AFAC7
:1050D00065A3D3E90023FBF78FFA02460B4620466F
:1050E0002946FBF7D3F804460D46FBF735FD0022B1
:1050F0000746002320462946FBF7F0FC40B138461E
:10510000FBF710FA22462B46FBF7DEFC00B9013F05
:10511000162F51D85B4B03EBC703D3E90023DDE91E
:105120000C01FBF7DBFC002848D0013F0023129361
:10513000169B9B1B5A1E44BFC3F101080023089213
:1051400054BF4FF000080893002F39DB089B0F97DE
:105150003B44089300230A93099B092B64D8052B31
:10516000C4BF043B0993099BA3F10203CCBF0024F5
:105170000124032B63D8DFE803F02A373555DDE936
:1051800016631E4406F23243202BC1BFC3F1400315
:105190009F4006F2124324FA03F3D6BFC3F1200363
:1051A00047EA030004FA03F0FBF7ACF90122A1F18E
:1051B000F873013E149277E70123B8E71290B7E73E
:1051C0007B420A930023A8EB07080F93C4E7002350
:1051D0000B930E9B002B35DC0123009307931A469B
:1051E0000E920BE00123F3E700230B930E9BFB18B9
:1051F00000930133012B0793B8BF0123DBF81C0098
:105200000021042202F114059D421FD94160584635
:1052100000F0D8FC824600283CD11B4B024640F2ED
:10522000AF11D8E60123E0E70124002309930B9492
:105230004FF0FF330093079300221223D0E701239E
:105240000B93F5E70E9B00930793D7E701315200CC
:10525000D8E700BFAFF3008061436F63A787D23FF9
:10526000B3C8608B288AC63FFB799F501344D33F55
:10527000166702082D6702080000F07FE166020849
:105280000000F83F286802088567020812670208D4
:10529000E0660208DBF81C301860079B0E2B00F25A
:1052A000A480002C00F0A180002F33DDAD4B07F06F
:1052B0000F0203EBC20393ED007BF8058DED047B39
:1052C0004FEA271416D5A84BDDE90C01D3E90823D2
:1052D000FBF7BCFACDE9020104F00F040326A24D4E
:1052E00054B9DDE90423DDE90201FBF7AFFACDE9AA
:1052F000020128E00226F2E7E10708D5DDE9040112
:10530000D5E90023FBF778F9CDE9040101366410F3
:105310000835E5E700F0D2807C42924B924D04F0D4
:105320000F0203EBC203D3E90023DDE90C01FBF715
:1053300063F9CDE90201241100230226002C40F07C
:10534000B280002BD3D1129BDDE90245002B00F087
:10535000B780864B002220462946FBF7BFFB00287A
:1053600000F0AE80079B002B00F0AA80009B002B72
:1053700037DD7B1E049320467D4B00222946FBF738
:105380003BF9CDE90201009C01363046FBF7CAF833
:10539000DDE90223FBF730F9764B0022FAF776FFBE
:1053A0000546A1F15076002C40F08D80DDE9020128
:1053B000714B0022FAF768FF02460B46CDE9022343
:1053C0002A463346FBF7A8FB002840F08B82DDE934
:1053D00002012A4606F10043FBF780FB002840F05B
:1053E0002881DDE90C34CDE90234179B002BC0F293
:1053F0005A810E2F00F357815A4B03EBC70393EDED
:10540000007B0E9B002B8DED007B03DA079B002BAE
:1054100040F30181DDE902455646DDE900232046DF
:105420002946FBF713FAFBF797FB8046FBF77AF860
:10543000DDE90023FBF7E0F802460B46204629464B
:1054400008F13004FAF720FF06F8014B079DA6EBA0
:105450000A04A54202460B4640F01781FAF716FFF0
:10546000DDE9002304460D46FBF756FB002840F01B
:10547000F980DDE9002320462946FBF725FB18B11A
:1054800018F0010F40F0EE804946584600F0DAFB74
:1054900000233370139B01371F60239B002B00F008
:1054A0001D831E601AE3E20705D5D5E90023FBF74B
:1054B000A3F801360123641008353FE7022642E7CE
:1054C000079C049761E7274B0B9903EBC40353E94F
:1054D00002235444002953D028490020FBF7B6F991
:1054E00033462A46FAF7D0FECDE910015646DDE9EB
:1054F0000201FBF731FB0546FBF714F802460B46A9
:10550000DDE90201FAF7C0FE303502460B46CDE96F
:10551000022306F8015BDDE91023FBF7DFFA002820
:1055200071D1DDE9022311490020FAF7ADFEDDE972
:105530001023FBF7D3FA002840F09580A6423FF4F1
:1055400050AFDDE910010A4B0022FBF755F8084B7C
:10555000CDE910010022DDE90201FBF74DF8CDE9AC
:105560000201C4E728680208006802080000F03F52
:105570000000244000001C40000014400000E03FF8
:1055800031462846FBF738F8CDE910011594564608
:10559000DDE90201FBF7E0FA0546FAF7C3FF024630
:1055A0000B46DDE90201FAF76FFE303506F8015BC4
:1055B00002460B46A642CDE902234FF0000224D159
:1055C000AC4BDDE91001FAF761FE02460B46DDE95E
:1055D0000201FBF7A1FA002845D1DDE91023A54916
:1055E0000020FAF751FE02460B46DDE90201FBF707
:1055F00075FA00283FF4F5AE159E731E159316F844
:10560000013C302BF8D0049F3EE79B4BFAF7F4FFA8
:10561000CDE90201BCE70CD1984B0022DDE9000185
:10562000FAF7EAFFDDE90223FBF76CFA002800F045
:105630005781002425460E9BDB43049356460027E2
:105640002146584600F0FEFA002DDCD02FB1AF42C3
:1056500003D03946584600F0F5FA2946584600F07E
:10566000F1FAD0E7049733461E4613F8012D392A84
:1056700007D19A45F8D1049A0132049230228AF86F
:1056800000201A7801321A70BDE77B4B0022FAF72E
:10569000B3FF0022002304460D46FBF715FA00284D
:1056A0003FF4BBAEF0E60B9A002A00F0DB80099ACB
:1056B000012A00F3BF80149A002A00F0B78003F299
:1056C00033430A9C4646089A01211A445846984496
:1056D000089200F0B5FB05465EB1089B002B08DD83
:1056E000B342089AA8BF3346A8EB0308F61AD31AA8
:1056F00008930A9BF3B10B9B002B00F0B7808CB191
:1057000029462246584600F05BFC4A4601460546BB
:10571000584600F0ABFB49460490584600F092FA18
:10572000049B99460A9B1A1B04D04946584600F030
:1057300047FC81460121584600F082FB0F9B04463E
:10574000002B00F0CF811A460146584600F038FC85
:10575000099B012B044600F39580029B002B40F02F
:105760008780039BC3F31303002B40F08980039BC6
:1057700023F000431B0D1B052BB1089B013308933D
:1057800008F1010801230A930F9B002B00F0B08160
:10579000236904EB8303186900F006FBC0F12000C5
:1057A000089B184410F01F0077D0C0F12003042B91
:1057B0006BDD089BC0F11C00034480440644089341
:1057C000B8F1000F05DD49464246584600F052FC4C
:1057D0008146089B002B05DD21461A46584600F0FD
:1057E00049FC0446129B002B59D02146484600F044
:1057F000ADFC002853DA7B1E0493494600230A229D
:10580000584600F041FA0B9B8146002B00F0728154
:10581000002329460A22584600F036FA009B002B46
:10582000054667DC099B022B41DC63E0169BC3F154
:10583000360346E7079B5C1E0A9BA342BFBF0A9B39
:105840000F9A0A94E31AB4BFD2181C1B079BBCBF63
:105850000F920024002BB5BFA8EB0306079B002383
:10586000464630E70A9C0B9D464635E70A9A5CE7B8
:10587000002388E70000E03F0000244000001440BF
:10588000029B80E700230A9382E799D0089A1C3391
:105890001A4498441E44089292E70346F6E7079B91
:1058A0000497002B20DC0093099B022B1EDD009B3C
:1058B000002B7FF4C0AE21460522584600F0E4F9E3
:1058C00001460446484600F041FC00287FF7B3AE8D
:1058D0005646312306F8013B049B01330493AEE6A0
:1058E000079C04972546F3E7079B00930B9B002B2F
:1058F00000F00481002E05DD29463246584600F0AE
:10590000B9FB05460A9B002B5AD06968584600F03F
:1059100059F9064628B9844B024640F2EF21FFF7B9
:105920005ABB2A690232920005F10C010C3002F0D8
:10593000BBF801223146584600F09CFB0AF10103F6
:105940000793009B53440B93029B03F001032F46E4
:105950000A930546079B2146013B48460093FFF703
:105960009AFA3946029000F13008484600F0EEFB02
:105970002A4608902146584600F004FCC2680646B4
:1059800002BB0146484600F0E1FB0246314658465C
:105990000E9200F057F9099B0E9A079E43EA020106
:1059A0000A9B194310D1B8F1390F29D0089B002B5D
:1059B00002DD029B03F13108009B83F800803FE683
:1059C0002846BBE70122E1E7089B002B04DB09998D
:1059D0000B430A990B4320D1002AEDDD49460122F1
:1059E000584600F047FB2146814600F0AFFB0028F7
:1059F00003DCE1D118F0010FDED0B8F1390FD8D1B6
:105A0000009A3923137033461E46013B16F8012CC9
:105A1000392A52D001321A7012E6002A07DDB8F195
:105A2000390FEDD0009A08F10103137008E6079BC7
:105A3000079A03F8018C0B9B934228D04946002318
:105A40000A22584600F020F9AF4281464FF0000389
:105A50004FF00A023946584607D100F015F90746BB
:105A60000546079B0133079374E700F00DF92946BB
:105A7000074600230A22584600F006F90546F0E7DB
:105A8000009B002BCCBF1E460126564400274946EA
:105A90000122584600F0EEFA2146814600F056FBFE
:105AA0000028B0DC02D118F0010FACD133461E46FD
:105AB00013F8012D302AFAD0C2E59A45A4D1049BEF
:105AC0000133049331238AF80030B9E5239BDFF8D2
:105AD0005CA01BB10AF10803239A1360504619B069
