:020000040800F2
:1000000000000120BD2F00080D3000080D30000851
:100010000D3000080D3000080D3000080000000011
:100020000000000000000000000000000D3000088B
:100030000D300008000000000D30000831280008D5
:100040000D3000080D3000080D3000080D3000089C
:100050000D3000080D3000080D3000080D3000088C
:100060000D3000080D3000080D3000080D3000087C
:100070000D3000080D3000080D3000080D3000086C
:100080000D3000080D3000080D3000080D3000085C
:100090000D3000080D3000080D3000080D3000084C
:1000A0000D3000080D3000080D3000080D3000083C
:1000B0000D30000800000000000000000D300008B6
:1000C0000D30000800000000000000000D300008A6
:1000D000000000000D3000080D3000080000000096
:1000E0000D3000080D300008000000000000000086
:1000F0000000000000000000000000000000000000
:100100000000000000000000000000000D300008AA
:1001100000000000000000000D3000080D30000855
:100120000D3000080D3000080D3000080D300008BB
:100130000D3000080000000000000000000000007A
:100140000D3000080D3000080D3000080D3000089B
:100150000D3000080D3000080D3000080D3000088B
:100160000D3000080D3000080D30000800000000C0
:100170000D3000080D3000080000000000000000F5
:0C0180000D3000080D3000080D300008A4
:1001900010B5054C237833B9044B13B10448AFF3C1
:1001A00000800123237010BDEC010020000000003E
:1001B0003C5C000808B5034B1BB103490348AFF38F
:1001C000008008BD00000000F00100203C5C000839
:1001D000034613F8012B002AFBD1181A0138704787
:1001E00001F0FF01102A2BDB10F0070F08D010F8E8
:1001F000013B013A8B422DD010F0070F42B3F6D1EC
:10020000F0B441EA012141EA014122F007047FF004
:1002100000070023F0E80256083C85EA010586EA5B
:10022000010685FA47F5A3FA87F586FA47F6A5FA97
:1002300087F68EB9EED1F0BC01F0FF0102F00702A3
:1002400032B110F8013B013A83EA010313B1F8D14E
:100250000020704701387047002D06BF354603382F
:10026000073815F0010F07D1013015F4807F02BF68
:10027000013015F4C03F0130F0BC0138704700BFB9
:1002800081F0004102E000BF83F0004330B54FEA47
:1002900041044FEA430594EA050F08BF90EA020FB4
:1002A0001FBF54EA000C55EA020C7FEA645C7FEA47
:1002B000655C00F0E2804FEA5454D4EB5555B8BF6A
:1002C0006D420CDD2C4480EA020281EA030382EADB
:1002D000000083EA010180EA020281EA0303362D6D
:1002E00088BF30BD11F0004F4FEA01314FF4801C40
:1002F0004CEA113102D0404261EB410113F0004F52
:100300004FEA03334CEA133302D0524263EB430308
:1003100094EA050F00F0A780A4F10104D5F1200EA6
:100320000DDB02FA0EFC22FA05F2801841F1000101
:1003300003FA0EF2801843FA05F359410EE0A5F1D5
:1003400020050EF1200E012A03FA0EFC28BF4CF006
:10035000020C43FA05F3C01851EBE37101F00045BC
:1003600007D54FF0000EDCF1000C7EEB00006EEBC9
:100370000101B1F5801F1BD3B1F5001F0CD3490853
:100380005FEA30004FEA3C0C04F101044FEA4452AA
:1003900012F5800F80F09A80BCF1004F08BF5FEA31
:1003A000500C50F1000041EB045141EA050130BD11
:1003B0005FEA4C0C404141EB0101013C28BFB1F523
:1003C000801FE9D291F0000F04BF01460020B1FA6E
:1003D00081F308BF2033A3F10B03B3F120020CDA41
:1003E0000C3208DD02F1140CC2F10C0201FA0CF01F
:1003F00021FA02F10CE002F11402D8BFC2F1200C84
:1004000001FA02F120FA0CFCDCBF41EA0C01904039
:10041000E41AA2BF01EB0451294330BD6FEA040482
:100420001F3C1CDA0C340EDC04F11404C4F120026D
:1004300020FA04F001FA02F340EA030021FA04F37F
:1004400045EA030130BDC4F10C04C4F1200220FAD6
:1004500002F001FA04F340EA0300294630BD21FA14
:1004600004F0294630BD94F0000F83F4801306BFDA
:1004700081F480110134013D4EE77FEA645C18BFCE
:100480007FEA655C29D094EA050F08BF90EA020F65
:1004900005D054EA000C04BF1946104630BD91EA5D
:1004A000030F1EBF0021002030BD5FEA545C05D160
:1004B0004000494128BF41F0004130BD14F580049F
:1004C0003CBF01F5801130BD01F0004545F0FE4113
:1004D00041F470014FF0000030BD7FEA645C1ABF48
:1004E000194610467FEA655C1CBF0B46024650EA7F
:1004F000013406BF52EA033591EA030F41F40021AB
:1005000030BD00BF90F0000F04BF0021704730B530
:100510004FF4806404F132044FF000054FF0000105
:1005200050E700BF90F0000F04BF0021704730B5C6
:100530004FF4806404F1320410F0004548BF40429B
:100540004FF000013EE700BF42004FEAE2014FEAF0
:1005500031014FEA02701FBF12F07F4393F07F4FCB
:1005600081F06051704732F07F4208BF704793F0CE
:100570007F4F04BF41F40021704730B54FF46074E1
:1005800001F0004521F000411CE700BF50EA0102E4
:1005900008BF704730B54FF000050AE050EA01028D
:1005A00008BF704730B511F0004502D5404261EBFD
:1005B00041014FF4806404F132045FEA915C3FF43E
:1005C000D8AE4FF003025FEADC0C18BF03325FEADB
:1005D000DC0C18BF033202EBDC02C2F1200300FA8C
:1005E00003FC20FA02F001FA03FE40EA0E0021FAB1
:1005F00002F11444BDE600BF70B54FF0FF0C4CF49F
:10060000E06C1CEA11541DBF1CEA135594EA0C0F50
:1006100095EA0C0F00F0DEF82C4481EA030621EA8B
:100620004C5123EA4C5350EA013518BF52EA0335C6
:1006300041F4801143F4801338D0A0FB02CE4FF078
:100640000005E1FB02E506F00042E0FB03E54FF0A8
:100650000006E1FB03569CF0000F18BF4EF0010EA0
:10066000A4F1FF04B6F5007F64F5407404D25FEA9C
:100670004E0E6D4146EB060642EAC62141EA55514F
:100680004FEAC52040EA5E504FEACE2EB4F1FD0C91
:1006900088BFBCF5E06F1ED8BEF1004F08BF5FEA0F
:1006A000500E50F1000041EB045170BD06F00046C1
:1006B00046EA010140EA020081EA0301B4EB5C046E
:1006C000C2BFD4EB0C0541EA045170BD41F4801166
:1006D0004FF0000E013C00F3AB8014F1360FDEBF8B
:1006E000002001F0004170BDC4F10004203C35DA67
:1006F0000C341BDC04F11404C4F1200500FA05F3EA
:1007000020FA04F001FA05F240EA020001F000428A
:1007100021F0004110EBD37021FA04F642EB060100
:100720005EEA430E08BF20EAD37070BDC4F10C042A
:10073000C4F1200500FA04F320FA05F001FA04F2EE
:1007400040EA020001F0004110EBD37041F10001DA
:100750005EEA430E08BF20EAD37070BDC4F12005E5
:1007600000FA05F24EEA020E20FA04F301FA05F24D
:1007700043EA020321FA04F001F0004121FA04F2F5
:1007800020EA020000EBD3705EEA430E08BF20EAC5
:10079000D37070BD94F0000F0FD101F000464000FF
:1007A00041EB010111F4801F08BF013CF7D041EA81
:1007B000060195F0000F18BF704703F00046520085
:1007C00043EB030313F4801F08BF013DF7D043EA56
:1007D0000603704794EA0C0F0CEA135518BF95EA0C
:1007E0000C0F0CD050EA410618BF52EA4306D1D193
:1007F00081EA030101F000414FF0000070BD50EAB2
:10080000410606BF1046194652EA430619D094EA3B
:100810000C0F02D150EA013613D195EA0C0F05D125
:1008200052EA03361CBF104619460AD181EA030179
:1008300001F0004141F0FE4141F470014FF0000031
:1008400070BD41F0FE4141F4780170BD70B54FF0CC
:10085000FF0C4CF4E06C1CEA11541DBF1CEA13554C
:1008600094EA0C0F95EA0C0F00F0A7F8A4EB05042E
:1008700081EA030E52EA03354FEA013100F0888025
:100880004FEA03334FF0805545EA131343EA1263EE
:100890004FEA022245EA111545EA10654FEA0026A3
:1008A0000EF000419D4208BF964244F1FD0404F55C
:1008B000407402D25B084FEA3202B61A65EB0305B8
:1008C0005B084FEA32024FF480104FF4002CB6EB75
:1008D000020E75EB030E22BFB61A754640EA0C00F5
:1008E0005B084FEA3202B6EB020E75EB030E22BF35
:1008F000B61A754640EA5C005B084FEA3202B6EB76
:10090000020E75EB030E22BFB61A754640EA9C0034
:100910005B084FEA3202B6EB020E75EB030E22BF04
:10092000B61A754640EADC0055EA060E18D04FEAC2
:10093000051545EA16754FEA06164FEAC30343EA62
:1009400052734FEAC2025FEA1C1CC0D111F4801F2F
:100950000BD141EA00014FF000004FF0004CB6E728
:1009600011F4801F04BF01430020B4F1FD0C88BFC7
:10097000BCF5E06F3FF6AFAEB5EB030C04BFB6EBD2
:10098000020C5FEA500C50F1000041EB045170BDC5
:100990000EF0004E4EEA113114EB5C04C2BFD4EBF2
:1009A0000C0541EA045170BD41F480114FF0000E76
:1009B000013C90E645EA060E8DE60CEA135594EAF2
:1009C0000C0F08BF95EA0C0F3FF43BAF94EA0C0FF5
:1009D0000AD150EA01347FF434AF95EA0C0F7FF46A
:1009E00025AF104619462CE795EA0C0F06D152EABE
:1009F00003353FF4FDAE1046194622E750EA4106A2
:100A000018BF52EA43067FF4C5AE50EA41047FF4B2
:100A10000DAF52EA43057FF4EBAE12E74FF0FF3C17
:100A200006E000BF4FF0010C02E000BF4FF0010CE8
:100A30004DF804CD4FEA410C7FEA6C5C4FEA430C61
:100A400018BF7FEA6C5C1BD001B050EA410C0CBFB0
:100A500052EA430C91EA030F02BF90EA020F002012
:100A6000704710F1000F91EA030F58BF994208BF79
:100A700090422CBFD8176FEAE37040F00100704736
:100A80004FEA410C7FEA6C5C02D150EA013C07D18D
:100A90004FEA430C7FEA6C5CD6D152EA033CD3D0D8
:100AA0005DF8040B704700BF8446104662468C46D2
:100AB0001946634600E000BF01B5FFF7B7FF002805
:100AC00048BF10F1000F01BD4DF808EDFFF7F4FF2E
:100AD0000CBF012000205DF808FB00BF4DF808EDB9
:100AE000FFF7EAFF34BF012000205DF808FB00BFDC
:100AF0004DF808EDFFF7E0FF94BF012000205DF8FE
:100B000008FB00BF4DF808EDFFF7CEFF94BF0120B2
:100B100000205DF808FB00BF4DF808EDFFF7C4FFAB
:100B200034BF012000205DF808FB00BF4FEA410CF4
:100B30007FEA6C5C02D150EA013C0AD14FEA430CD7
:100B40007FEA6C5C02D152EA033C02D14FF0000014
:100B500070474FF0010070474FEA410212F5001252
:100B600015D211D56FF47873B3EB625212D94FEAF4
:100B7000C12343F0004343EA505311F0004F23FADE
:100B800002F018BF404270474FF00000704750EA33
:100B9000013005D111F0004008BF6FF000407047F0
:100BA0004FF00000704700BF80B500AF0449054812
:100BB00001F020FD03461A46034B1A7000BF80BDAA
:100BC0000C020020040000200802002080B500AFC5
:100BD000002002F065F800BF80BD80B500AF0120A5
:100BE00002F05EF800BF80BD80B582B000AF034662
:100BF000FB71FB1D4FF47A720121184601F052FF80
:100C000000BF0837BD4680BD80B582B000AF00236D
:100C1000FB71FF23BB71F91DB81D4FF47A730122DC
:100C200001F090FFFB7918460837BD4680BD80B5BE
:100C300082B000AF7860FFF7E7FF03461A467B6893
:100C40001A7000BF0837BD4680BD80B582B000AFC6
:100C500001F0A2FD7860FFF7D7FFFFF7D5FF03464D
:100C6000FB70FB78FF2B07D001F096FD02467B68F6
:100C7000D31AB3F5FA7FF0D3FB7818460837BD4690
:100C800080BD000080B586B000AF41F6FF737B6188
:100C9000FFF7A3FF00233B6105E0FF20FFF7A4FF60
:100CA0003B6901333B613B69092BF6DDFFF78EFFA2
:100CB00040233B7100237B710023BB710023FB7138
:100CC00000233B7295237B720023FB6009E03A1DF1
:100CD000FB6813441B781846FFF786FFFB68013357
:100CE000FB60FB68052BF2DD02E07B69013B7B6169
:100CF000FFF78AFF0346012B02D07B69002BF4D15A
:100D0000FFF76BFFFF20FFF76FFF034B01221A7005
:100D100000BF1837BD4680BD1102002080B400AF6F
:100D2000034B00221A7000BFBD465DF8047B70477C
:100D30001102002080B400AF034B1B781846BD465B
:100D40005DF8047B704700BF1102002080B584B0BD
:100D500000AF7860396001F01FFDF860FFF754FFC5
:100D60000346FB72FB7AFF2B06D101F015FD02460C
:100D7000FB68D31A632BF1D9FB7AFE2B01D0002339
:100D800016E07B685A1C7A601846FFF750FF7B68B4
:100D90005A1C7A601846FFF74AFF3B68023B3B60EB
:100DA0003B68002BEDD1FFF72FFFFFF72DFF01234D
:100DB00018461037BD4680BD80B584B000AF78605E
:100DC0000B46FB7000237B73FFF73FFF0346FF2BAF
:100DD00001D0002340E0FB781846FFF705FFFB78C1
:100DE000FD2B31D00023BB737B685A1C7A601B78C3
:100DF0001846FFF7F9FE7B685A1C7A601B78184684
:100E0000FFF7F2FEBB7B013BBB73BB7B002BEBD13F
:100E1000FFF7FAFEFFF7F8FE0BE0FFF7F5FE0346DB
:100E2000FB73FB7B03F01F03052B06D07B7B013399
:100E30007B737B7B402BF0D900E000BF00BFFFF746
:100E4000E3FE0346002BFAD0FB7B03F01F03052BC8
:100E500001D1012300E0002318461037BD4680BDB4
:100E600080B584B000AF03463960FB71FFF7EDFE3B
:100E70000346FF2B01D0FF2340E0FB791846FFF724
:100E8000B3FE3B681B0EDBB21846FFF7ADFE3B68B6
:100E90001B0CDBB21846FFF7A7FE3B681B0ADBB250
:100EA0001846FFF7A1FE3B68DBB21846FFF79CFE31
:100EB0000023FB73FB79402B01D19523FB73FB7956
:100EC000482B01D18723FB73FB7B1846FFF78CFE71
:100ED000FB794C2B01D1FFF797FE0A23BB73FFF779
:100EE00093FE03467B7397F90D30002B05DABB7B2D
:100EF000013BBB73BB7B002BF1D17B7B18461037CA
:100F0000BD4680BD80B588B000AF78600023FB7718
:100F1000FFF75CFE00214920FFF7A2FF0346002BEC
:100F200042D107F1080310211846FFF70FFF0346CF
:100F3000002B39D03B7A9B09DBB2012B0BD17B7C98
:100F40001A463B7C1B0213440133BB61BB699A0206
:100F50007B681A6026E07B7B03F00F03DAB2BB7C70
:100F6000DB09DBB21344DAB27B7C5B00DBB203F05B
:100F70000603DBB21344DBB20233BB773B7C9B0935
:100F8000DBB21A46FB7B9B001A44BB7B9B0203F43B
:100F9000406313440133BB61BB7F093BBA699A408C
:100FA0007B681A600123FB77FFF717FEFFF72CFE23
:100FB000FB7F18462037BD4680BD80B483B000AFAC
:100FC00078607B684FF400721A60012318460C3772
:100FD000BD465DF8047B704780B582B000AF034624
:100FE000FB71FB79002B02D0FFF74CFE01E0FFF70D
:100FF00095FE00BF0837BD4680BD80B500AFFFF746
:1010000099FE0346002B14BF01230023DBB21846D0
:1010100080BD80B582B000AF0023FB71FFF7D6FD25
:10102000FFF713FE0346FF2B01D10123FB71FFF7EE
:10103000D4FDFFF7E9FDFB7918460837BD4680BDB2
:1010400080B584B000AF78600023FB73FFF7BEFD6E
:101050007B68BB6000214920FFF702FF0346002B9D
:1010600008D11021B868FFF771FE0346002B01D0AC
:101070000123FB73FFF7B1FDFFF7C6FDFB7B1846AD
:101080001037BD4680BD80B584B000AF78607B6806
:10109000BB600023FB73FFF799FD00214A20FFF797
:1010A000DFFE0346002B08D11021B868FFF74EFE83
:1010B0000346002B01D00123FB73FFF78EFDFFF7E2
:1010C000A3FDFB7B18461037BD4680BD90B587B0A9
:1010D00000AF78607B683B610023FB73FFF776FD10
:1010E00000217A20FFF7BCFE0346002B11D100231C
:1010F000FB7509E03C69631C3B61FFF785FD034616
:101100002370FB7D0133FB75FB7D032BF2D901239B
:10111000FB73FFF762FDFFF777FDFB7B18461C377B
:10112000BD4690BD90B585B000AF734B1B78DBB268
:1011300003F00203002B03D06F4B1B78DBB2D7E028
:10114000FFF7A0FDFFF742FD0023BB730021402005
:10115000FFF786FE0346012B40F0B28001F01CFB36
:10116000B8604FF4D5714820FFF77AFE0346012B93
:101170005FD10023FB730CE0FC7BFFF745FD0346CA
:101180001A4604F110033B4403F80C2CFB7B01339B
:10119000FB73FB7B032BEFD9BB79012B40F09080D5
:1011A000FB79AA2B40F08C8000217720FFF758FEB6
:1011B0000346012B07D84FF080416920FFF750FE0E
:1011C0000346002B08D001F0E7FA0246BB68D31AA9
:1011D000B3F57A7FE8D300E000BF01F0DDFA024604
:1011E000BB68D31AB3F57A7F6AD200217A20FFF761
:1011F00037FE0346002B63D10023FB730CE0FC7B1E
:10120000FFF702FD03461A4604F110033B4403F8BE
:101210000C2CFB7B0133FB73FB7B032BEFD93B795E
:1012200003F04003002B01D0062300E00223BB7330
:1012300046E000217720FFF713FE0346012B08D874
:1012400000216920FFF70CFE0346012B01D8022381
:1012500000E00123BB73BB7B022B0ED10021772062
:10126000FFF7FEFD0346012B0ED800216920FFF792
:10127000F7FD0346002B07D110E000214120FFF7C6
:10128000EFFD0346002B08D001F086FA0246BB684A
:10129000D31AB3F57A7FDED300E000BF01F07CFA09
:1012A0000246BB68D31AB3F57A7F07D84FF40071B2
:1012B0005020FFF7D5FD0346002B01D00023BB7360
:1012C0000E4ABB7B1370FFF788FCFFF79DFCBB7BCE
:1012D000002B08D0084B1B78DBB223F00103DAB2F5
:1012E000054B1A7001E0FFF719FD034B1B78DBB2C9
:1012F00018461437BD4690BD0000002010020020A3
:1013000080B400AF034B1B78DBB21846BD465DF8D6
:10131000047B70470000002080B584B000AFF86007
:10132000B9607A602C4B1B78DBB203F00103002B11
:1013300001D000234BE0294B1B7803F00403002B62
:1013400002D1BB685B02BB60FFF740FC7B68012BEE
:1013500011D1B9685120FFF783FD0346002B2CD132
:101360004FF40071F868FFF7F1FC0346002B24D01E
:1013700000237B6021E0B9685220FFF771FD03462E
:10138000002B1AD14FF40071F868FFF7DFFC034619
:1013900083F00103DBB2002B0AD1FB6803F5007375
:1013A000FB607B68013B7B607B68002BEAD100E03F
:1013B00000BF00214C20FFF753FDFFF70EFCFFF7A5
:1013C00023FC7B68002B0CBF01230023DBB21846F3
:1013D0001037BD4680BD00BF000000201002002075
:1013E00080B584B000AFF860B9607A603A4B1B7882
:1013F000DBB203F00103002B01D0002368E0364B81
:101400001B78DBB203F00403002B01D000235FE064
:10141000324B1B7803F00403002B02D1BB685B0244
:10142000BB60FFF7D3FB7B68012B10D1B968582054
:10143000FFF716FD0346002B40D1FE21F868FFF7A9
:10144000BBFC0346002B39D000237B6036E0234BE6
:101450001B7803F00203002B07D000217720FFF751
:10146000FFFC79685720FFF7FBFCB9685920FFF7AC
:10147000F7FC0346002B21D1FC21F868FFF79CFC08
:10148000034683F00103DBB2002B0AD1FB6803F5AE
:101490000073FB607B68013B7B607B68002BEBD1BA
:1014A00000E000BFFD210020FFF786FC034683F02B
:1014B0000103DBB2002B01D001237B60FFF78DFB22
:1014C000FFF7A2FB7B68002B0CBF01230023DBB2DC
:1014D00018461037BD4680BD0000002010020020D5
:1014E00080B582B000AF0346FB71FFF71BFE0346D9
:1014F00018460837BD4680BD80B582B000AF0346B0
:10150000FB71FFF7FDFE0346002B07D1074B1B784D
:10151000DBB223F00103DAB2044B1A70034B1B78E1
:10152000DBB218460837BD4680BD00BF0100002071
:1015300080B584B000AFB9607A603B600346FB734E
:101540003A687968B868FFF7E7FE0346002B01D0D8
:10155000002300E0012318461037BD4680BD80B54A
:1015600084B000AFB9607A603B600346FB733A68B1
:101570007968B868FFF734FF0346002B01D00023D9
:1015800000E0012318461037BD4680BD80B586B007
:1015900000AF03463A60FB710B46BB713B683B6191
:1015A0000123FB75514B1B78DBB203F00103002BC9
:1015B00001D0032395E0BB790D2B00F2838001A2BB
:1015C00052F823F035160008FD150008191600081A
:1015D000C5160008C51600087B160008C5160008C9
:1015E000C5160008C5160008C5160008C51600086F
:1015F00045160008571600086916000807F10C0385
:101600001846FFF77FFC0346002B5ED0FA683B6864
:101610001A600023FB7558E007F108031846FFF72E
:10162000CCFC0346002B52D0BA683B681A600023FA
:10163000FB754CE0FFF7EDFC0346002B49D000237F
:10164000FB7546E03868FFF7FBFC0346002B42D0F1
:101650000023FB753FE03868FFF715FD0346002BBC
:101660003BD00023FB7538E03868FFF72FFD0346B9
:10167000002B34D00023FB7531E03B691B78022B33
:1016800012D0022B1ADC002B02D0012B06D015E061
:101690000020FFF7A1FC0023FB7512E00120FFF7FB
:1016A0009BFC0023FB750CE0FFF7A7FC03461A46E2
:1016B0003B6901331A700023FB7502E00423FB75BC
:1016C00000BF0DE00423FB750AE000BF08E000BF87
:1016D00006E000BF04E000BF02E000BF00E000BF82
:1016E000FB7D18461837BD4680BD00BF01000020B5
:1016F00080B500AF01F072F8354B1B68354AA2FB8C
:1017000003235B0A184601F00DF800F083FF01F097
:1017100053FB2F4B1B68184601F0B0FB01F078FA21
:1017200001F090F82A4B1B68184601F04BF9FFF7BF
:101730003BFA642001F03CF801222749274800F0D9
:10174000F7FD03461A46264B1A70254B1B78002BD3
:1017500003D0244802F078F902E0234802F074F93B
:101760001F4B1B781946214802F0E8F8204A21490E
:10177000194800F025FE1E4B1B68D3F81432023BBB
:101780001B4A126892F8022202FB03F31A4A136002
:10179000174B1B6893F802321A46164B1B6802FB64
:1017A00003F3164A1360144B1B685B081946144870
:1017B00002F0C4F8114B1B685B081946114802F08F
:1017C000BDF800F057FF4FF4FA7000F0F1FFF8E7B2
:1017D00018000020D34D6210585C0008140200204D
:1017E000120200205C5C0008805C0008A05C00081D
:1017F00048040020440400204C0400205004002031
:10180000B85C0008D45C000880B584B000AF786094
:101810007B68DBB23B7307F10C036422012118469D
:1018200001F088FB7B6818461037BD4680BD80B547
:1018300086B000AFF860B9607A6000237B6109E090
:10184000BB685A1CBA601B781846FFF7DDFF7B693E
:1018500001337B617A697B689A42F1DB7B681846C9
:101860001837BD4680BD000080B400AF064BD3F8EA
:101870008830054A43F47003C2F8883000BFBD4683
:101880005DF8047B704700BF00ED00E080B584B0D8
:1018900000AF0346FB71FB79084A9B0013445B6869
:1018A0005B68FA7905490A44127A1046984703465C
:1018B000FB73FB7B18461037BD4680BD74040020C7
:1018C00080B584B000AF0346FB710023FB73FB7946
:1018D0000D4AD35C002B11D1FB790B4A0121D15465
:1018E000FB79094A9B0013445B681B68FA79064937
:1018F0000A44127A104698470346FB73FB7B18464E
:101900001037BD4680BD00BF7404002090B587B07D
:1019100000AFB9607A603B600346FB73FB7B0A4A09
:101920009B0013445B689C68FB7B074A1344187A4E
:101930003B687A68B968A0470346FB75FB7D18468B
:101940001C37BD4690BD00BF7404002090B587B021
:1019500000AFB9607A603B600346FB73FB7B0A4AC9
:101960009B0013445B68DC68FB7B074A1344187ACE
:101970003B687A68B968A0470346FB75FB7D18464B
:101980001C37BD4690BD00BF7404002080B485B0F4
:1019900000AF78600023FB6016E01049FA68134638
:1019A0005B0013449B000B441B687A689A4208D181
:1019B0000A49FA6813465B0013449B000B4400225B
:1019C0001A60FB680133FB60FB68012BE5D900BF9F
:1019D00000BF1437BD465DF8047B70475C040020EF
:1019E00080B586B000AF78600023FB737B6893F806
:1019F0000432002B38D07B68D3F82C327B617B68B3
:101A000093F80102796801237A69FFF79FFF034683
:101A1000002B02D00123FB7326E07B68002283F8B1
:101A200004227B68D3F820327A69D21A7B68D3F813
:101A300018329A4218D27B6893F803323B6110E067
:101A40007B68D3F818327A6913447B617B6893F81A
:101A50000102796801237A69FFF778FF3B69013B4E
:101A60003B613B69012BEBD8FB7B18461837BD4621
:101A700080BD80B584B000AF786039600023FB730F
:101A80007B68D3F82C323A689A421BD07868FFF70B
:101A9000A7FF0346FB73FB7B002B13D17B6893F8F6
:101AA0000102796801233A68FFF730FF0346002BF3
:101AB00004D04FF0FF333B600123FB737B683A682F
:101AC000C3F82C22FB7B18461037BD4680BD80B57D
:101AD00086B000AF786039603B68012B05D97B6820
:101AE000D3F814323A689A4202D301237B61A3E00F
:101AF0004FF0FF337B617B6893F80032032B68D093
:101B0000032B00F38F80012B02D0022B40D089E001
:101B10003B68FB60FB685B08FA681344FB607B680A
:101B2000D3F82022FB685B0A134419467868FFF754
:101B3000A0FF0346002B78D1FB685A1CFA60C3F360
:101B400008037A68D35CBB607B68D3F82022FB680B
:101B50005B0A134419467868FFF78BFF0346002B96
:101B600065D1FB68C3F308037A68D35C1B021A468D
:101B7000BB681343BB603B6803F00103002B02D03A
:101B8000BB681B0902E0BB68C3F30B037B6153E036
:101B90007B68D3F820223B681B0A134419467868F7
:101BA000FFF767FF0346002B43D13B685B0003F45C
:101BB000FF737A6813443B613B6901331B781B0256
:101BC0001AB23B691B781BB213431BB29BB27B61F9
:101BD00032E07B68D3F820223B68DB0913441946C6
:101BE0007868FFF746FF0346002B24D13B689B0033
:101BF00003F4FE737A6813443B613B6903331B783B
:101C00001A063B6902331B781B0413433A690132FD
:101C10001278120213433A691278134323F0704387
:101C20007B6109E001237B6106E000BF04E000BFA7
:101C300002E000BF00E000BF7B6918461837BD46D0
:101C400080BD80B487B000AF78604FF0FF333B6158
:101C50007B681B68002B31D07B681B687B6102E0CE
:101C60007B6901337B617B691B78202B03D97B69FE
:101C70001B783A2BF4D17B691B783A2B1CD17B68FB
:101C80001B68FB60FB685A1CFA601B78303BBB602A
:101C9000BB68092B0ED8FA687B699A420AD1BB68E7
:101CA000002B07D1BB683B617B6901337B617B689B
:101CB0007A691A603B6902E000233B613B69184680
:101CC0001C37BD465DF8047B7047000080B582B0CC
:101CD00000AF786039607B68002283F804227B685B
:101CE0004FF0FF32C3F82C2239687868FFF7C1FE45
:101CF0000346002B01D003234AE07B6803F5FF7302
:101D000001331B781B021AB27B6893F8FE311BB2B9
:101D100013431BB2204A934201D0022338E07B6870
:101D2000363303331B781A067B68363302331B784D
:101D30001B0413437A6836320132127812021343BD
:101D40007A6892F83620134323F07F43134A934274
:101D500001D100231CE07B68523303331B781A0641
:101D60007B68523302331B781B0413437A68523268
:101D700001321278120213437A6892F85220134308
:101D800023F07F43054A934201D1002300E0012361
:101D900018460837BD4680BD55AAFFFF464154008E
:101DA00080B596B000AFF860B9601346FB71FB6870
:101DB00000221A60B868FFF744FFF863FB6B002B42
:101DC00001DA0B23A8E29D4AFB6B52F82330BB6378
:101DD000BB6B002B01D10C239EE2FB68BA6B1A602F
:101DE000BB6B93F80032002B1BD0BB6B93F8013216
:101DF0001846FFF74BFD034687F8373097F8373022
:101E000003F00103002B0CD1FB79002B07D097F8CE
:101E1000373003F00403002B01D00A237CE20023B7
:101E20007AE2BB6B002283F80022FB6BDAB2BB6B59
:101E300083F80122BB6B93F801321846FFF740FD8F
:101E4000034687F8373097F8373003F00103002B4B
:101E500001D0032360E2FB79002B07D097F83730DD
:101E600003F00403002B01D00A2355E200233B6555
:101E7000396DB86BFFF72AFF034687F8573097F89C
:101E80005730012B53D100233B6428E0BA6B3B6CE5
:101E90001B0103F5DF7313443B633B6B04331B7877
:101EA000002B12D03B6B0B331B781A063B6B0A33AB
:101EB0001B781B0413433A6B093212781202134346
:101EC0003A6B083212781A4300E000223B6C9B0008
:101ED00058333B4443F8442C3B6C01333B643B6C2C
:101EE000032BD3D900233B643B6C002B02D03B6C0B
:101EF000013B3B643B6C9B0058333B4453F8443CF0
:101F00003B653B6D002B05D0396DB86BFFF7DEFEEE
:101F1000034600E0022387F8573097F85730002B2C
:101F200005D03B6C01333B643B6C032BE2D997F843
:101F30005730032B01D10123EEE197F85730002BE6
:101F400001D00D23E8E1BB6B1B7B1B021AB2BB6BFC
:101F5000DB7A1BB213431BB2B3F5007F01D00D2314
:101F6000DAE1BB6BDB7D1B021AB2BB6B9B7D1BB244
:101F700013431BB29BB2FB64FB6C002B12D1BB6BF7
:101F800093F827301A06BB6B93F826301B041343D3
:101F9000BA6B92F8252012021343BA6B92F82420F0
:101FA0001343FB64BB6BFA6CC3F81822BB6B1A7C3F
:101FB000BB6B83F80322BB6B93F80332012B06D073
:101FC000BB6B93F80332022B01D00D23A4E1BB6B52
:101FD00093F803321A46FB6C02FB03F3FB64BB6B02
:101FE0005A7BBB6B83F80222BB6B93F80232002B47
:101FF0000AD0BB6B93F802321A46BB6B93F80232DD
:10200000013B1340002B01D00D2385E1BB6B9B7C72
:102010001B021AB2BB6B5B7C1BB213431BB29AB29E
:10202000BB6BA3F80822BB6BB3F8083203F00F03B5
:102030009BB2002B04D00D236EE100BF540400209E
:10204000BB6B1B7D1B021AB2BB6BDB7C1BB2134349
:102050001BB29BB2BB64BB6C002B12D1BB6B93F861
:1020600023301A06BB6B93F822301B041343BA6B60
:1020700092F8212012021343BA6B92F820201343E6
:10208000BB64BB6BDB7B1B021AB2BB6B9B7B1BB2C3
:1020900013431BB2FB85FB8D002B01D10D233BE1CC
:1020A000FA8DFB6C1344BA6BB2F80822120992B293
:1020B0001344BB62BA6CBB6A9A4201D20D232BE176
:1020C000BA6CBB6AD31ABA6B92F80222B3FBF2F372
:1020D0007B627B6A002B01D10D231DE1012387F870
:1020E00057307B6A40F6F572934202D9022387F893
:1020F00057307B6A4FF6F572934202D9032387F873
:1021000057307B6A9A1CBB6BC3F81422BB6B3A6DC9
:10211000C3F81C22FA8D3B6D1A44BB6BC3F8202216
:102120003A6DBB6A1A44BB6BC3F8282297F8573044
:10213000032B21D1BB6BB3F80832002B01D00D2348
:10214000EAE0BB6B93F82F301A06BB6B93F82E3086
:102150001B041343BA6B92F82D2012021343BA6B7F
:1021600092F82C201A43BB6BC3F82422BB6BD3F824
:1021700014329B007B6425E0BB6BB3F80832002B64
:1021800001D10D23C8E0BB6BD3F82022FB6C1A44AD
:10219000BB6BC3F8242297F85730022B04D1BB6BDA
:1021A000D3F814325B000CE0BB6BD3F81422134657
:1021B0005B0013445A08BB6BD3F8143203F00103DD
:1021C00013447B64BB6BD3F818227B6C03F2FF13C0
:1021D0005B0A9A4201D20D239EE0BB6B4FF0FF32A7
:1021E000C3F81022BB6BD3F81022BB6BC3F80C22D0
:1021F000BB6B802283F8052297F85730032B77D1E9
:10220000BB6B93F831301B021AB2BB6B93F83030C2
:102210001BB213431BB2012B6AD13B6D013319462C
:10222000B86BFFF726FC0346002B61D1BB6B002285
:1022300083F80522BB6B93F8FF311B021AB2BB6B0C
:1022400093F8FE311BB213431BB2354A93424FD170
:10225000BB6BDB781A06BB6B9B781B041343BA6B12
:10226000527812021343BA6B127813432D4A9342E9
:102270003ED1BB6B93F8E7311A06BB6B93F8E6319E
:102280001B041343BA6B92F8E52112021343BA6B95
:1022900092F8E4211343244A934229D1BB6B93F86B
:1022A000EB311A06BB6B93F8EA311B041343BA6B8C
:1022B00092F8E92112021343BA6B92F8E8211A430B
:1022C000BB6BC3F81022BB6B93F8EF311A06BB6BE4
:1022D00093F8EE311B041343BA6B92F8ED2112020E
:1022E0001343BA6B92F8EC211A43BB6BC3F80C2270
:1022F000BB6B97F8572083F800220C4B1B880133E7
:102300009AB20A4B1A80094B1A88BB6BA3F80622B3
:10231000B86BFFF73BFB002318465837BD4680BD1E
:1023200055AAFFFF52526141727241615804002068
:1023300080B588B000AFF860B9601346FB71BB6828
:102340003B6107F110031846FFF77BFCF861FB695E
:10235000002B01DA0B232DE0184AFB6952F82330D9
:10236000BB61BB69002B06D0B869FFF70FFBBB69E7
:10237000002283F80022FB68002B03D0FB680022B8
:1023800083F80022FA680D49FB6941F82320FB68B5
:10239000002B02D0FB79012B01D000230AE007F1CA
:1023A000080107F10C0300221846FFF7F9FC034669
:1023B000FB75FB7D18462037BD4680BD54040020C8
:1023C00080B58EB000AFF860B9607A6007F10C0399
:1023D000002219467868FFF7E3FC034687F8373098
:1023E0007B681B68FB6197F83730002B40F0AF80AB
:1023F000FB69D3F81022FB69D3F81432023B9A42EE
:1024000005D8FB69D3F81022BB681A609FE0FB690E
:1024100093F80032FB7600233B63FB7E012B25D132
:102420000223FB62F96AF869FFF751FB78617B6967
:10243000B3F1FF3F03D1012387F8373077E07B69A1
:10244000012B03D1022387F8373070E07B69002B22
:1024500002D13B6B01333B63FB6A0133FB62FB69D7
:10246000D3F81432FA6A9A42DCD360E0FB69D3F8FD
:102470001432FB62FB69D3F82032BB6200237B621B
:1024800000233B627B6A002B12D1BB6A5A1CBA62E2
:102490001946F869FFF7EDFA034687F8373097F8E1
:1024A0003730002B42D1FB693B624FF400737B62F3
:1024B000FB7E022B15D13B6A01331B781B021AB23B
:1024C0003B6A1B781BB213431BB2002B02D13B6B40
:1024D00001333B633B6A02333B627B6A023B7B62B4
:1024E0001DE03B6A03331B781A063B6A02331B78F4
:1024F0001B0413433A6A01321278120213433A6AF8
:102500001278134323F07043002B02D13B6B01334D
:102510003B633B6A04333B627B6A043B7B62FB6A3E
:10252000013BFB62FB6A002BACD100E000BFFB6902
:102530003A6BC3F81022FB6993F8053243F00103AC
:10254000DAB2FB6983F80522BB683A6B1A6097F828
:10255000373018463837BD4680BD000080B487B09C
:1025600000AFF860B9601346FB710123FB750023CF
:10257000BB751F4B5B7ADBB2012B31D81C4B5B7AEE
:10258000DBB21A461A4B00219954194B5B7ADBB225
:10259000174A9B001344FA685A60154B5B7ADBB20A
:1025A0001A46134B1344FA791A72114B5B7ADBB259
:1025B0005A1CD1B20E4A5172BB75BB7D3033DAB2B0
:1025C000BB681A70BB6801333A221A70BB680233C9
:1025D0002F221A70BB68033300221A700023FB7588
:1025E000FB7D18461C37BD465DF8047B704700BF75
:1025F0007404002080B582B000AF7860396000229A
:1026000039687868FFF7AAFF034618460837BD46C1
:1026100080BD000080B400AF144BDB6C134A43F064
:102620000203D364124B1B68114A23F0C0031360EA
:102630000F4B1B680E4A43F0400313600C4B5B6862
:102640000B4A23F008035360094B9B68084A23F0A8
:10265000C0039360064B9B68054A43F08003936078
:1026600000BFBD465DF8047B704700BF001002400C
:102670000004004880B400AF054B5B69044A83F056
:102680000803536100BFBD465DF8047B704700BF7F
:102690000004004880B483B000AF0346FB7197F993
:1026A0000730002B0CDBFB7903F01F02074997F979
:1026B00007305B09012000FA02F2603341F8232061
:1026C00000BF0C37BD465DF8047B704700E100E0B9
:1026D00080B483B000AF03463960FB7197F90730CF
:1026E000002B0ADB3B68DAB20C4997F9073012017C
:1026F000D2B20B4483F800230AE03B68DAB20849FF
:10270000FB7903F00F03043B1201D2B20B441A769B
:1027100000BF0C37BD465DF8047B704700E100E068
:1027200000ED00E080B582B000AF7860124B00226F
:102730001A60114A7B68013B53600F214FF0FF3054
:10274000FFF7C6FF0C4B00229A600B4B1B680A4A2E
:1027500023F004031360084B1B68074A43F002038D
:102760001360054B1B68044A43F00103136000BF6C
:102770000837BD4680BD00BF10E000E080B400AF68
:10278000044B1B680133034A136000BFBD465DF86C
:10279000047B70478004002080B400AF034B1B68AB
:1027A0001846BD465DF8047B704700BF80040020DA
:1027B00080B584B000AF7860FFF7EEFFF86000BF2F
:1027C000FFF7EAFF0246FB68D31A7A689A42F7D805
:1027D00000BF00BF1037BD4680BD000080B400AF11
:1027E000124B1B68114A43F48073136000BF0F4BF8
:1027F0001B6803F48063002BF9D00C4B9B680B4AD9
:1028000023F003039360094B9B68084A43F00103DC
:10281000936000BF054B9B6803F00C03042BF9D1B8
:1028200000BF00BFBD465DF8047B7047001002404A
:1028300080B500AF4FF0FF30FFF72CFFFFF79EFF92
:1028400000BF80BD80B400AF5D4BDB6C5C4A43F0E1
:102850000103D3644FF090431B684FF0904223F480
:10286000406313604FF090431B684FF0904223F495
:10287000405313604FF090431B684FF0904223F495
:10288000404313604FF090431B684FF0904243F475
:10289000006313604FF090431B684FF0904243F485
:1028A000005313604FF090431B684FF0904243F485
:1028B000004313604FF090431B6A4FF0904223F4A3
:1028C000700313624FF090431B6A4FF0904223F065
:1028D000706313624FF090431B6A4FF0904223F0F5
:1028E000704313624FF090431B6A4FF0904243F4E1
:1028F000A00313624FF090431B6A4FF0904243F0E5
:10290000A06313624FF090431B6A4FF0904243F074
:10291000A04313624FF090439B684FF0904223F422
:10292000406393604FF090439B684FF0904223F4D4
:10293000405393604FF090439B684FF0904223F4D4
:10294000404393604FF090439B684FF0904243F4B4
:10295000006393604FF090439B684FF0904243F4C4
:10296000005393604FF090439B684FF0904243F4C4
:10297000004393604FF09043DB684FF0904223F4A4
:102980004053D3604FF09043DB684FF0904223F404
:102990004043D3604FF09043DB684FF0904243F4E4
:1029A0008053D3604FF09043DB684FF0904243F484
:1029B0008043D36000BFBD465DF8047B704700BF15
:1029C0000010024080B483B000AF7860324B1B6EC1
:1029D000314A43F480531366304B1B682F4A23F06F
:1029E000380313607B682E4A934206D12B4B1B6839
:1029F0002A4A43F01803136005E0284B1B68274A56
:102A000043F030031360254B1B68244A23F0010375
:102A10001360224B1B68214A23F0020313601F4BF3
:102A20001B681E4A23F4806313601C4B1B681B4AFF
:102A300023F400431360194B1B68184A23F08003EA
:102A40001360164B1B68154A43F440731360134B15
:102A50001B68124A43F004031360104B5B680F4A73
:102A600023F4706353600D4B5B680C4A43F4E063DE
:102A700053600A4B5B68094A43F480535360074B29
:102A80001B68064A43F04003136000BF0C37BD4685
:102A90005DF8047B704700BF001002400030014029
:102AA0000024F40080B588B000AFF8600B467A606F
:102AB000FB72234B1B68224A43F040031360002340
:102AC000FB77FFF769FEB86119E01D4B9B6803F0C7
:102AD0000203002B09D0FB7FFA6813441A78184BC5
:102AE000DA60FB7F0133FB7709E0FFF755FE024612
:102AF000BB69D31A7A689A4201D800231BE0FA7F97
:102B0000FB7A9A42E1D309E0FFF746FE0246BB6931
:102B1000D31A7A689A4201D800230CE0084B9B68CC
:102B200003F08003002BEFD1054BDB687B61044B86
:102B30009B687B61012318462037BD4680BD00BFDE
:102B40000030014080B588B000AFF860B9603B60EC
:102B50001346FB712D4B1B682C4A43F04003136056
:102B60000023FB77FFF718FEB8610123BB772DE048
:102B7000264B9B6803F00203002B0AD0BB7F002B7F
:102B800007D0FB7FBA6813441A78204BDA60002321
:102B9000BB771E4B9B6803F00103002B0CD01B4B33
:102BA000D968FB7FFA681344CAB21A70FB7F0133FD
:102BB000FB770123BB7709E0FFF7EEFD0246BB6917
:102BC000D31A3A689A4201D800231BE0FA7FFB79B6
:102BD0009A42CDD309E0FFF7DFFD0246BB69D31A65
:102BE0003A689A4201D800230CE0084B9B6803F036
:102BF0008003002BEFD1054BDB687B61034B9B68A7
:102C00007B61012318462037BD4680BD003001405E
:102C100080B400AF214BDB6C204A43F00103D36446
:102C20004FF090431B684FF0904223F440731360C1
:102C30004FF090431B684FF0904243F48073136051
:102C40004FF090439B684FF0904223F440739360A1
:102C50004FF090439B684FF0904243F400739360B1
:102C60004FF09043DB684FF0904223F44073D36001
:102C70004FF09043DB684FF0904243F48073D36091
:102C80004FF090439B694FF0904243F010039361E3
:102C900000BFBD465DF8047B704700BF00100240D6
:102CA00080B483B000AF0346FB71FB79002B08D0E2
:102CB0004FF090439B694FF0904243F010039361B3
:102CC00007E04FF090439B694FF0904243F480132C
:102CD000936100BF0C37BD465DF8047B7047000070
:102CE00080B485B000AF78607B6803F00703FB60B9
:102CF0000C4BDB68BB60BA684FF6FF031340BB6048
:102D0000FB681A02BB68134343F0BF6343F400330C
:102D1000BB60044ABB68D36000BF1437BD465DF892
:102D2000047B704700ED00E080B483B000AF034641
:102D3000FB7197F90730002B0BDBFB7903F01F02C7
:102D4000074997F907305B09012000FA02F241F8C0
:102D5000232000BF0C37BD465DF8047B704700BFE1
:102D600000E100E080B483B000AF03463960FB713E
:102D700097F90730002B0ADB3B68DAB20C4997F968
:102D800007301201D2B20B4483F800230AE03B68FB
:102D9000DAB20849FB7903F00F03043B1201D2B207
:102DA0000B441A7600BF0C37BD465DF8047B7047B4
:102DB00000E100E000ED00E080B400AF2E4BDB6CE2
:102DC0002D4A43F00103D3644FF090431B684FF04A
:102DD000904223F0404323F0300313604FF09043C0
:102DE0001B684FF0904243F0004343F02003136010
:102DF0004FF090435B684FF0904223F4004323F080
:102E0000040353604FF090439B684FF0904223F0CF
:102E1000404323F0300393604FF090439B684FF0A2
:102E2000904243F0004343F0200393604FF09043FF
:102E30001B6A4FF0904223F4706313624FF090438B
:102E40001B6A4FF0904243F4E06313624FF09043EB
:102E50005B6A4FF0904223F0704353624FF090430F
:102E60005B6A4FF0904243F04053536200BFBD464F
:102E70005DF8047B704700BF0010024080B582B04F
:102E800000AF7860284B9B6D274A43F4003393656D
:102E9000264B1B68254A23F080531360234A7B6826
:102EA0002349A1FB03139B0AD360204B1B681F4AD5
:102EB00023F4806313601D4B5B681C4A23F440536A
:102EC00053601A4B9B68194A23F400739360174BA5
:102ED0009B68164A23F480739360144B5B68134A13
:102EE00023F490435360114B9B68104A23F02A034C
:102EF00093600E4B1B680D4A43F00D0313600B4BA0
:102F00001B680A4A43F0200313600020FFF7E8FE25
:102F100001212620FFF726FF2620FFF705FF00BF2F
:102F20000837BD4680BD00BF00100240004400408D
:102F3000B5814E1B80B586B000AFF8600B467A6055
:102F4000FB720023FB75FFF727FC38611AE01A4B70
:102F5000DB6903F08003002B0AD0FB7DFA68134481
:102F60001A78154B92B21A85FB7D0133FB7509E087
:102F7000FFF712FC02463B69D31A7A689A4201D8DD
:102F8000002315E0FA7DFB7A9A42E0D309E0FFF7CF
:102F900003FC02463B69D31A7A689A4201D800239F
:102FA00006E0054BDB6903F04003002BEFD1012362
:102FB00018461837BD4680BD00440040DFF834D0C5
:102FC000FEF752FC0C480D490D4A002302E0D4588C
:102FD000C4500433C4188C42F9D30A4A0A4C002363
:102FE00001E013600432A242FBD300F011F8FEF7B7
:102FF0007FFBFEE70000012000000020EC01002024
:10300000D4600008EC01002098040020FEE70000D6
:1030100070B50D4D0D4C641BA4100026A64209D1BD
:103020000B4D0C4C02F00AFE641BA4100026A642B5
:1030300005D170BD55F8043B98470136EEE755F8C9
:10304000043B98470136F2E7CC600008CC600008EA
:10305000CC600008D060000802440346934200D1CF
:10306000704703F8011BF9E72DE9FF4755EC104BBA
:10307000002D0E4619462B46BBBF05F100431D46E9
:1030800000232D230B700D9BDDF830A0914623F01B
:103090002008BCBF22461446B8F1460F05D0B8F14F
:1030A000450F00D10136022100E0032103AB01935B
:1030B00002AB009345EC104B5346324600F018FE2D
:1030C000B8F1470F074602D119F0010F22D0B8F12D
:1030D000460F07EB060910D13B78302B0AD10022AE
:1030E000002320462946FDF7EFFC18B9C6F101067A
:1030F000CAF80060DAF80030994400220023204624
:103100002946FDF7E1FC08B1CDF80C903022039B75
:103110004B4507D3039B0E9ADB1B3846136004B064
:10312000BDE8F087591C03911A70F0E7F7B5034624
:103130000029B8BF494203F8022BB4BF2D222B222D
:10314000092942702ADD0DF10704A4460A27A64684
:103150000A4691FBF7F607FB16153035632A04F192
:10316000FF340EF8015C3146F1DC3031AEF102057E
:1031700004F8011C441C294661450AD30DF10902DB
:10318000A2EB0E02654588BF00221344181A03B053
:10319000F0BD11F8012B04F8012FEDE73023303199
:1031A0008370C170031DF1E72DE9F04F2DED028B07
:1031B0008DB00C46DDF8608016461F46054601F0CE
:1031C0003DFDD0F800A05046FDF702F800230A9319
:1031D00023680593D8F8003094F818B0073323F02B
:1031E000070303F10802C8F80020D3E90023C4E96B
:1031F0001223D4E9128929F000430793CDF81880EF
:1032000008EE100A9F4BDDE906014FF0FF32FDF793
:103210008DFC88BBDDE906019A4B4FF0FF32FDF7CC
:1032200067FC48BB0022002340464946FDF756FC98
:1032300010B12D2384F84330934B9448BBF1470FD2
:1032400094BF9846804603232361059B23F0040224
:1032500022604FF00009009733460BAA214628460A
:1032600000F0D8F9013040F090804FF0FF300DB001
:10327000BDEC028BBDE8F08F42464B4640464946C6
:10328000FDF754FC40B14B46002BBCBF2D2384F806
:1032900043307F487F4BD1E763680BF0DF02069233
:1032A0005A1C3FD106236360059B616843F480622A
:1032B000002303930AABCDE901B309AB49EC108BB2
:1032C000009322600DF123032846FFF7CDFE069BF5
:1032D0000999472B804608D1C81C02DB63689942D4
:1032E00041DDABF1020B5FFA8BFBBBF1650F20D820
:1032F00001395A4604F150000991FFF717FF0A9A65
:103300001318012A8146236102DC2268D20701D505
:10331000013323619DF82330002B9CD02D2384F8AA
:10332000433098E7069A472ABED1002BBCD101232F
:10333000B9E7BBF1660F18D1002963680BDD216185
:1033400013B92268D00702D501330B442361A1656C
:103350004FF00009DEE713B92268D20701D5023326
:10336000F4E70123F2E74FF0670B0A9B994205DB74
:1033700023682161D807EAD54B1CE7E70029D4BFB1
:10338000C1F1020201221344E0E723685A0507D481
:103390002369424631462846B84701302CD164E7BC
:1033A000BBF1650F40F2E080D4E912010022002356
:1033B000FDF78AFB002834D0374A012331462846DE
:1033C000B84701303FF451AFDDE909239A4202DBEF
:1033D0002368D80710D518EE103A524631462846D1
:1033E000B84701303FF441AF4FF0000804F11A092B
:1033F0000A9B013B434509DC23689B0700F10581DB
:10340000E0680B9B9842B8BF184630E701234A4654
:1034100031462846B84701303FF427AF08F101088C
:10342000E6E7099B002B39DC1B4A0123314628467D
:10343000B84701303FF419AFDDE90923134302D146
:103440002368D907D8D518EE103A52463146284697
:10345000B84701303FF409AF4FF0000904F11A0AF0
:10346000099B5B424B4501DC0A9B92E701235246D4
:1034700031462846B84701303FF4F7AE09F101095B
:10348000EEE700BFFFFFEF7FF45C0008F85C000888
:10349000005D0008FC5C0008045D00080A9AA36D4A
:1034A0009A42A8BF1A46002A914637DC4FF0000B1B
:1034B00029EAE97904F11A02A36D0593A3EB090344
:1034C0005B4533DCDDE909239A423BDB2368DA07FD
:1034D00038D40A9B059A09999A1AA3EB01099145D8
:1034E000A8BF9146B9F1000F35DC4FF0000829EA7A
:1034F000E97904F11A0ADDE909239B1AA3EB090310
:1035000043457FF779AF0123524631462846B847F5
:1035100001303FF4AAAE08F10108ECE7134631464A
:1035200042462846B8470130C0D19EE601233146C5
:1035300028460592B84701303FF497AE059A0BF143
:10354000010BB9E718EE103A524631462846B84703
:103550000130BED189E6059A4B46424431462846A1
:10356000B8470130C1D180E60A9A012A01DCDB07A5
:1035700038D50123424631462846B84701303FF44A
:1035800074AE18EE103A524631462846B84701301C
:103590003FF46BAED4E9120100220023FDF794FA48
:1035A000D8B90A9B08F10102013B31462846B847C9
:1035B00001300ED159E60123524631462846B8471C
:1035C00001303FF452AE08F101080A9B013B43452C
:1035D000F1DC4B4604F15002DCE64FF0000804F148
:1035E0001A0AF2E701234246DFE701234A46314641
:1035F0002846B84701303FF438AE08F10108E368C7
:103600000B995B1A4345F0DCFAE64FF0000804F131
:103610001909F4E72DE9F047164699468A680B69BF
:10362000DDF820809342B8BF1346336091F8432001
:1036300007460C460AB1013333602368990642BF3E
:10364000336802333360256815F0060506D104F1AE
:10365000190AE36832689B1AAB4226DC94F84320CF
:10366000131E226818BF012392062BD404F14302D3
:1036700049463846C04701301ED02368E5683268A5
:1036800003F00603042B08BFAD1AA36822690CBF20
:1036900025EAE57500259342C4BF9B1AED18002664
:1036A0001A34B5421AD1002008E001235246494697
:1036B0003846C047013003D14FF0FF30BDE8F087F6
:1036C0000135C6E7E1185A1C302081F84300224436
:1036D00094F8451082F843100233C7E701232246CD
:1036E00049463846C0470130E6D00136D9E70000E8
:1036F0002DE9FF470F7E0C9D782F914680460C46A2
:103700009A4601F1430207D8622F0AD8002F00F031
:10371000D880582F00F0A38004F1420584F842704D
:103720003AE0A7F16303152BF6D801A151F823F075
:10373000893700089D370008193700081937000835
:1037400019370008193700089D3700081937000895
:10375000193700081937000819370008A938000878
:10376000CD3700088B3800081937000819370008D2
:10377000CB38000819370008CD3700081937000882
:1037800019370008933800082B681A1D1B682A6037
:1037900004F1420584F842300123A3E0206829683F
:1037A000060601F104030AD50E682B60002E03DA29
:1037B0002D23764284F843305E480A2319E00E68D0
:1037C0002B6010F0400F18BF36B2EFE72B6820686F
:1037D000191D2960010601D51E6802E04606FBD5C9
:1037E0001E8854486F2F0CBF08230A23002184F839
:1037F00043106568A560002DA2BF216821F0040177
:1038000021600EB9002D4DD01546B6FBF3F103FB38
:103810001167C75D05F8017D3746BB420E46F4D9F6
:10382000082B0BD12368DE0708D52369616899420C
:10383000DEBF302305F8013C05F1FF35521B226144
:10384000CDF800A04B4603AA21464046FFF7E2FE12
:1038500001304CD14FF0FF3004B0BDE8F08735485F
:1038600081F845702968236851F8046B29601D06AA
:1038700014D5DF0744BF43F0200323601EB923683B
:1038800023F0200323601023B0E7236843F02003D4
:1038900023607823284884F84530E3E7590648BF79
:1038A000B6B2E6E71546BBE72B6826686169181DC6
:1038B000286035061B6801D5196002E07006FBD54B
:1038C0001980002323611546BAE72B681A1D2A6068
:1038D0001D68626800212846FCF782FC08B1401B85
:1038E000606063682361002384F84330A8E723699C
:1038F0002A4649464046D0470130ABD023689B0753
:1039000013D4E068039B9842B8BF1846A4E701238C
:10391000324649464046D04701309BD00135E368E6
:1039200003995B1AAB42F2DCEBE7002504F11906C0
:10393000F5E700BF065D0008175D00080FB40A4BED
:1039400013B51C6824B1A36913B9204601F0D8F857
:1039500005AB049AA1680193204601F095FE02B0E0
:10396000BDE8104004B070471C00002070B50E4642
:10397000054618B183690BB901F0C2F8AB69AC68B0
:1039800013B9284601F0BCF82C4B9C4220D16C683E
:10399000636EDB0705D4A389980502D4A06D01F0FE
:1039A00052F9A38919071DD52369DBB1013EA3682C
:1039B00016F8011F013BA36039BB002B38DA224601
:1039C0000A21284600F048F8013011D00A2511E0FC
:1039D0001B4B9C4201D1AC68DAE71A4B9C4208BFF2
:1039E000EC68D5E72146284600F088F80028DDD0AD
:1039F0004FF0FF35636EDA0705D4A3899B0502D427
:103A0000A06D01F021F9284670BD002B04DAA269EF
:103A10009A4206DC0A2904D023685A1C22601970D5
:103A2000C5E72246284600F017F80130BFD1DFE78E
:103A300023680A255A1C22601D70DBE7D85D000848
:103A4000F85D0008B85D0008024B01461868FFF7F2
:103A50008DBF00BF1C000020F8B50E461446054679
:103A600018B183690BB901F04BF8214B9C422BD163
:103A70006C68A369A360A3891A072FD523696BB368
:103A800023692068C01A6369F6B28342374604DCB2
:103A90002146284600F0A0FF30BBA368013BA3608D
:103AA00023685A1C22601E7063690130834204D06F
:103AB000A389DB0706D50A2E04D12146284600F04B
:103AC0008BFF88B93846F8BD0A4B9C4201D1AC68DF
:103AD000CFE7094B9C4208BFEC68CAE7214628465D
:103AE00000F00CF80028CBD04FF0FF37EAE700BF1A
:103AF000D85D0008F85D0008B85D0008324B70B56D
:103B00001D6806460C4625B1AB6913B9284600F07E
:103B1000F7FF2E4B9C420FD16C68A389B4F90C209F
:103B200019072CD4DD0611D40923336042F0400379
:103B3000A3814FF0FF303EE0254B9C4201D1AC68A1
:103B4000EBE7244B9C4208BFEC68E6E7580712D528
:103B5000616B41B104F14403994202D0304601F057
:103B600089FC00236363A38923F02403A38100233A
:103B7000636023692360A38943F00803A381236959
:103B80004BB9A38903F42073B3F5007F03D021461A
:103B9000304601F07FF8A089B4F90C2010F0010341
:103BA0000AD00023A36063695B42A361236943B920
:103BB00010F08000BAD170BD810758BF6369A3605F
:103BC000F4E70020F7E700BF1C000020D85D0008E4
:103BD000F85D0008B85D00082DE9F74F03690C692E
:103BE000A3420746C0F28180013C01F1140800F1B4
:103BF000140505EB8403019358F8243055F824206C
:103C000001339A424FEA840B08EB8409B2FBF3F6C6
:103C100031D34FF0000E4046AC46F24650F8042B2C
:103C200093B206FB03E34FEA134E9BB2AAEB0303E6
:103C3000DCF800A0120C13FA8AF306FB02E20093F0
:103C4000009B4FEA124E92B2C2EB1A4202EB2342A1
:103C5000BDF80030814543EA02434CF8043B4FEA8B
:103C6000224ADBD255F80B302BB9019B043B9D4215
:103C70001A462ED33C61384601F0E4FA002824DBD2
:103C8000013628464FF0000C58F8042BD0F800E01D
:103C900093B2ACEB0303120C13FA8EF3C2EB1E4289
:103CA00002EB23429BB243EA0243C14540F8043B86
:103CB0004FEA224CE8D255F8242005EB840322B9C0
:103CC000043B9D421A460AD33C61304603B0BDE82E
:103CD000F08F1268043B002ACCD1013CC7E7126880
:103CE000043B002AF0D1013CEBE70020EEE70000A6
:103CF0002DE9F04F2DED048B57EC106B93B0456A16
:103D0000DDF88080069110EE10AA044609920C930B
:103D1000BB4675B9102000F0FDFF0246606220B975
:103D2000A74BEA21A74801F045FEC0E9015505600F
:103D3000C560636A196851B15A684A6001239340AB
:103D40008B60204601F03CF8636A00221A603B1E3B
:103D5000AABF002323F0004BC8F800309A4BBCBF29
:103D60000122C8F8002033EA0B031BD10C9A42F25F
:103D70000F731360CBF31303334300F09285219B41
:103D800063B9924B22E0924B01930833219A13605E
:103D9000019813B0BDEC048BBDE8F08F8B4B019301
:103DA0000333F3E70022002350465946FCF78CFE0C
:103DB0004BEC19AB804658B10C9A01231360219B40
:103DC000002B00F06B8583481860431E0193DFE7EA
:103DD0004BEC10AB10AA11A9204601F0D9FACBF395
:103DE0000A5508EE100A002D00F0848019EE903A72
:103DF000C3F3130343F07F57564647F44017A5F229
:103E0000FF35CDF83880744B002230463946FCF738
:103E10003BFA65A3D3E90023FCF7EEFB64A3D3E9E7
:103E20000023FCF733FA064628460F46FCF77AFBD8
:103E300061A3D3E90023FCF7DFFB02460B463046C3
:103E40003946FCF723FA06460F46FCF785FE0022AA
:103E50000090002330463946FCF740FE50B10098F0
:103E6000FCF760FB32463B46FCF72EFE10B9009B88
:103E7000013B0093009B162B5AD8009A574B03EB3B
:103E8000C203D3E9002351EC190BFCF727FE0028ED
:103E900050D0009B013B009300230B93109B5D1BB4
:103EA0006B1E059345BFC5F1010304930023002356
:103EB0004CBF05930493009B002B3DDB059B009AB0
:103EC0000A921344059300230793069B092B00F2E3
:103ED0008980052BC4BF043B0693069BA3F1020314
:103EE000CCBF00250125032B00F28780DFE803F01B
:103EF0002D3A3859DDE910531D4405F23243202B89
:103F0000C1BFC3F1400305F212400BFA03F326FAD6
:103F100000F0DABFC3F1200306FA03F01843FCF700
:103F2000F1FA01230646A1F1F877013D0E936AE705
:103F30000123B2E70B90B1E7049B009A9B1A04930C
:103F40005342079300230A93BFE700230893099B7A
:103F5000002B55DC0123CDE902331A4609920CE00F
:103F60000123F3E70023099A0893009B134402936B
:103F70000133012B0393B8BF0123606A0022426022
:103F8000042202F114069E4241683DD9204600F009
:103F9000D7FE019000283BD1114B02464FF4D5715A
:103FA000C0E60123DFE700BF61436F63A787D23F0D
:103FB000B3C8608B288AC63FFB799F501344D33F18
:103FC000355D00084C5D00080000F07F315D0008A1
:103FD000285D0008055D00080000F83FA05E0008AD
:103FE000A75D000801250023069308954FF0FF33D5
:103FF000CDE9023300221223B0E701230893F5E74D
:10400000099BCDE90233B8E7013141605200B8E7BE
:10401000636A019A1A60039B0E2B00F29D80002DAB
:1040200000F09A80009B002B32DDB74A03F00F03AB
:1040300002EBC303D3E90089009BD8054FEA23179D
:1040400016D5B24B51EC190BD3E90823FCF7FEFB54
:1040500007F00F0782468B460325AC4E57B9424600
:104060004B4650465946FCF7F1FB82468B4628E00A
:104070000225F2E7F90708D540464946D6E900236C
:10408000FCF7BAFA0135804689467F100836E5E725
:1040900000F09B80009B9D4F5E429B4B06F00F0201
:1040A00003EBC203D3E9002351EC190BFCF7A4FA8C
:1040B000361182468B4600230225002E7AD1002B32
:1040C000D3D10B9B002B00F08280914B00225046F5
:1040D0005946FCF703FD002879D0039B002B76D0CE
:1040E000029B002B36DD009B504659465F1E002286
:1040F000884BFCF781FA029E82468B4601352846A2
:10410000FCF710FA52465B46FCF776FA824B002227
:10411000FCF7BCF8D046D9468246A1F1507B002E70
:1041200058D17E4B002240464946FCF7ADF8524636
:104130005B4680468946FCF7EFFC002840F09582FC
:1041400052460BF1004340464946FCF7C7FC0028A5
:1041500040F089825BEC19AB119B002BC0F24881C7
:10416000009A0E2A00F34481674B03EBC203D3E9A4
:104170000089099B002B80F2D580039B002B00F364
:10418000D18040F06F82654B002240464946FCF7E3
:1041900033FA52465B46FCF7B5FC039E37460028CF
:1041A00040F04582019D312305F8013B009B01331E
:1041B000009340E2F20705D5D7E90023FCF71CFA8B
:1041C000013501237610083777E7022579E7009F4C
:1041D000039E94E701994C4B31440D91089903EBF0
:1041E000C60353E90223002943D04D490020FCF7C0
:1041F0002DFB52465B46FCF747F8019D82468B46F5
:1042000049464046FCF7A8FC0646FCF78BF90246F7
:104210000B4640464946FCF737F8303605F8016B47
:1042200052465B4680468946FCF758FC002863D11D
:1042300042464B4636490020FCF726F852465B467C
:10424000FCF74CFC002840F0B5800D9B9D4281D0CE
:10425000304B002250465946FCF7CEF92D4B824692
:104260008B46404649460022FCF7C6F980468946FF
:10427000C6E750465946FCF7BFF90D9B019D0F93C9
:1042800082468B4649464046FCF766FC0646FCF7EC
:1042900049F9303602460B4640464946FBF7F4FFE3
:1042A00005F8016B0D9B9D42804689464FF0000248
:1042B00024D11B4B50465946FBF7E8FF02460B46FC
:1042C00040464946FCF728FC002873D152465B461D
:1042D00013490020FBF7D8FF02460B4640464946EB
:1042E000FCF7FCFB00283FF435AF0F9D6B1E0F93CE
:1042F00015F8013C302BF8D0009749E0054BFCF74E
:104300007BF980468946BDE7A05E0008785E00081C
:104310000000F03F0000244000001C40000014405A
:104320000000E03F019D56465F4642464B46304600
:104330003946FCF78BFAFCF70FFC8246FCF7F2F8E3
:1043400042464B46FCF758F902460B463046394682
:104350000AF13006FBF798FF05F8016B019E039FF9
:10436000AE1BB74202460B4635D1FBF78FFF4246E4
:104370004B4606460F46FCF7CFFBD0B942464B46AC
:1043800030463946FCF7A0FB10B11AF0010F10D1EE
:10439000204618EE101A00F013FD002300982B7031
:1043A0000C9B01301860219B002B3FF4F1AC1D6089
:1043B000EEE4009F2B461D4613F8012D392A06D145
:1043C000019A9A42F7D10199302201370A701A787E
:1043D00001321A7090E7A64B0022FCF70DF900227B
:1043E000002306460F46FCF76FFB00289DD0CFE761
:1043F000089A002A00F0D780069A012A00F3BA80B2
:104400000E9A002A00F0B28003F23343079E049D07
:10441000049A1A440492059A01211A4420460592EE
:1044200000F086FD0746002D0CDD059B002B09DD05
:10443000AB42049AA8BF2B46D21A0492059AED1AF1
:10444000D31A0593079B1BB3089B002B00F0AF808A
:10445000002E13DD39463246204600F029FE18EEC4
:10446000102A01460746204600F078FD18EE101A83
:104470008046204600F0A4FC08EE108A079B9A1B99
:1044800006D018EE101A204600F012FE08EE100AB0
:104490000121204600F04CFD0A9B002B064640F30C
:1044A00088801A460146204600F002FE069B012B3A
:1044B000064640F381804FF00008336906EB830322
:1044C000186900F0E5FCC0F12000059B184410F0CD
:1044D0001F0000F09280C0F12003042B40F38A807B
:1044E000C0F11C00049B03440493059B0344054452
:1044F0000593049B002B07DD18EE101A1A46204680
:1045000000F030FE08EE100A059B002B05DD314659
:104510001A46204600F026FE06460B9B002B6ED066
:1045200018EE100A314600F08DFE002867DA009B75
:10453000013B18EE101A00930A220023204600F0D7
:1045400061FC089B08EE100A002B00F0B1810023EB
:1045500039460A22204600F055FC029B002B0746F4
:1045600000F38E80069B022B51DC89E0109BC3F187
:1045700036034BE7039B5E1E079BB342BFBF079BFF
:104580000796F21A0A9BB6BF9B189E1B0A93039BC1
:10459000B8BF0026002BB7BFDDE90323DDE90335F3
:1045A0009D1A002334E7079E049D089F3BE7079A66
:1045B00067E7069B012B18DCBAF1000F15D1CBF38E
:1045C000130393B92BF000431B0D1B0583B1049B10
:1045D00001330493059B013305934FF001080A9BB7
:1045E000002B7FF46AAF01206FE74FF00008F6E779
:1045F0009846F4E73FF47DAF18461C3072E7039B02
:10460000002B37DC069B022B34DD039B0293029BBD
:104610006BB931460522204600F0F4FB0146064600
:1046200018EE100A00F00EFE00283FF7BBAD099B04
:10463000019DDB4300934FF000083146204600F017
:10464000BFFB002F3FF4A4AEB8F1000F05D0B84572
:1046500003D04146204600F0B3FB3946204600F027
:10466000AFFB95E600263746E1E70097374699E528
:1046700000002440089B002B00F0CA80039B02939B
:10468000002D05DD39462A46204600F06BFD074621
:10469000B8F1000F5BD07968204600F051FB054669
:1046A00028B9874B024640F2EA21FFF73BBB3A6943
:1046B0000232920007F10C010C3000F033FB0122B2
:1046C0002946204600F04EFD019B03F10109DDE97A
:1046D0000123134405930AF00103B84604930746E7
:1046E000314618EE100AFFF777FA4146029000F1C2
:1046F000300A18EE100A00F0A5FD3A460390314644
:10470000204600F0BBFDC26809F1FF3B054602BB35
:10471000014618EE100A00F095FD02462946204693
:10472000079200F04DFBDDE9063243EA0201049BEB
:104730000B434D460FD1BAF1390F2AD0039B002B02
:1047400002DD029B03F1310A8BF800A075E73846C1
:10475000BAE70122E2E7039B002B04DB06990B4337
:1047600004990B4322D1002AEEDD18EE101A012223
:10477000204600F0F7FC314608EE100A00F062FD1A
:10478000002803DCE0D11AF0010FDDD0BAF1390FB7
:10479000D7D139238BF800302B461D46013B15F845
:1047A000012C392A71D001321A7046E7002A07DD40
:1047B000BAF1390FEDD00AF101038BF800303CE774
:1047C000059B09F801AC994547D018EE101A002353
:1047D0000A22204600F016FBB84508EE100A4FF0FA
:1047E00000034FF00A024146204606D100F00AFBC2
:1047F0008046074609F1010972E700F003FB3946DC
:10480000804600230A22204600F0FCFA0746F1E722
:10481000039B0293019D18EE100A3146FFF7DCF965
:1048200000F1300A019B05F801ABEA1A029B9342A2
:1048300009DD18EE101A00230A22204600F0E2FAE1
:1048400008EE100AE7E7029B002BC8BF1D46019B3C
:10485000D8BF01251D444FF0000818EE101A0122A0
:10486000204600F07FFC314608EE100A00F0EAFC1A
:10487000002891DC02D11AF0010F8DD12B461D4684
:1048800013F8012D302AFAD0D7E6019A9A4284D142
:10489000009B0133009331231370CEE6094BFFF7E1
:1048A00095BA219B002B7FF46EAA074BFFF78EBAB7
:1048B000029B002BAEDC069B022B3FF7A8AEA9E7BC
:1048C000A75D0008045D0008285D00088A892DE9BD
:1048D000F041054610070C4658D44B68002B05DC08
:1048E0000B6C002B02DC0020BDE8F081E66A002E94
:1048F000F9D0002312F480522F682B6032D0606D03
:10490000A3895A0705D56368C01A636B0BB1236C82
:10491000C01A00230246E66A216A2846B047431CB3
:10492000A38906D129681D292CD82A4ACA40D6074E
:1049300028D500226260D9042269226004D5421C75
:1049400001D12B6803B96065616B2F600029CAD063
:1049500004F14403994202D0284600F08BFD002068
:104960006063C1E7216A01232846B047411CC7D1D3
:104970002B68002BC4D01D2B01D0162B01D12F602A
:10498000B1E7A38943F04003A381ADE70F69002F8E
:10499000A9D093070E6808BF4B690F6018BF0023AA
:1049A000A6EB07088B60B8F1000F9CDD216AA66AB0
:1049B00043463A462846B047002806DCA38943F020
:1049C0004003A3814FF0FF308EE70744A8EB0008B7
:1049D000E9E700BF0100402038B50B6905460C46E9
:1049E00013B90025284638BD18B183690BB900F00A
:1049F00087F8144B9C421BD16C68B4F90C30002B27
:104A0000EFD0626ED00704D4990502D4A06D00F0F7
:104A10001AF928462146FFF759FF636EDA07054663
:104A2000E0D4A3899B05DDD4A06D00F00DF9D9E792
:104A3000054B9C4201D1AC68DFE7044B9C4208BFA8
:104A4000EC68DAE7D85D0008F85D0008B85D00089A
:104A5000002310B50446C0E90033C0E90433836085
:104A600081814366C2818361194608225C30FEF76A
:104A7000F3FA054B6362054BA362054BE362054BFA
:104A80002462236310BD00BF095900082B59000898
:104A90006359000887590008014900F0AFB800BF0A
:104AA000D949000870B568224D1E55430E4605F1E0
:104AB000740100F04BFD044640B10021C0E900162E
:104AC0000C30A06005F16802FEF7C6FA204670BD02
:104AD000014800F0B8B800BF85040020014800F08C
:104AE000B3B800BF85040020014800F0ACB800BF97
:104AF00086040020014800F0A7B800BF860400200B
:104B000010B50446FFF7F0FFA3691BB1BDE81040E4
:104B1000FFF7F0BFC4E912332365134B134A1B6838
:104B2000A262A34204BF0123A361204600F020F843
:104B30006060204600F01CF8A060204600F018F8E5
:104B40000022E06004216068FFF782FFA068012274
:104B50000921FFF77DFFE06802221221FFF778FFAD
:104B60000123A361D2E700BFF05C0008994A000866
:104B7000F8B50746FFF7ACFF1E4B1E68B36913B9C3
:104B80003046FFF7BDFF4836D6E90134013B03D577
:104B900033680BB33668F7E7B4F90C50D5B9164B48
:104BA000E36004F15800656600F04CF8FFF796FFEB
:104BB000C4E90155C4E904552560A56108222946C8
:104BC00004F15C00FEF748FAC4E90D55C4E912553A
:104BD0002046F8BD6834D9E704213846FFF762FF64
:104BE000044630600028D5D1FFF778FF0C233B60E6
:104BF000EEE700BFF05C00080100FFFF2DE9F8437D
:104C00000646884600F148040027D4E90195B9F129
:104C1000010905D52468002CF7D13846BDE8F88392
:104C2000AB89012B07D9B5F90E30013303D02946E2
:104C30003046C04707436835E9E700000048704741
:104C40007001002070477047704770B50E46B1F98B
:104C50000E10002996B014461D4608DAB6F90C303D
:104C600000222A601A0610D44FF480630EE06A46D0
:104C700000F0E0FE0028F1DB019A02F47042A2F598
:104C800000535A425A412A60EEE740230020236035
:104C900016B070BD8B8973B59D0706460C4607D5C7
:104CA00004F14703236023610123636102B070BDF7
:104CB00001AB6A46FFF7C9FF00990546304600F090
:104CC00045FC48B9B4F90C309A05EFD423F003033E
:104CD00043F00203A381E3E70D4BB362A389206095
:104CE00043F08003A381009B6361019B20615BB162
:104CF000B4F90E10304600F0AFFE28B1A38923F0BE
:104D0000030343F00103A381A0890543A581CDE7F7
:104D1000994A0008024B0146186800F017BC00BF12
:104D20001C0000200A44914200F1FF3300D170477B
:104D300010B511F8014B03F8014F9142F9D110BDA4
:104D400070B5466A04460D4676B91020FFF7E2FFBB
:104D50000246606220B9184B1848662100F02AFE0E
:104D6000C0E901660660C660666AF36883B1636A7B
:104D7000DB6853F82500B8B9012101FA05F6721D68
:104D80009200204600F060FB60B1C0E901560EE0E1
:104D900021220421204600F057FB636AF060DB68A3
:104DA000002BE4D1002070BD026843F825200023C9
:104DB000C0E90333F7E700BF355D0008185E00085F
:104DC00070B5466A05460C4676B91020FFF7A2FF7B
:104DD0000246686220B9094B09488A2100F0EAFDC1
:104DE000C0E901660660C6603CB16B6A6268DB6858
:104DF00053F82210216043F8224070BD355D000851
:104E0000185E00082DE9F0410D6907460C461E4664
:104E100001F1140C0020DCF8003099B202FB0161B2
:104E20001E0C0B0C02FB063389B2013001EB03416F
:104E300085424CF8041B4FEA1346ECDC0EB3A36822
:104E4000AB4219DC616838460131FFF779FF8046D3
:104E500028B902460C4B0D48B52100F0ABFD226984
:104E6000023204F10C0192000C30FFF75BFF214687
:104E70003846FFF7A5FF444604EB850301355E6124
:104E800025612046BDE8F081A75D0008185E000896
:104E9000030C1B04D3B90004102310F07F4F04BF90
:104EA0000002083310F0704F04BF0001043310F00B
:104EB000404F04BF80000233002805DB10F0804F14
:104EC00003F1010308BF2023184670470023E4E7DD
:104ED000036813F0070201460BD0DA0723D49807C2
:104EE00049BF5B089B0801200B605CBF0B60022080
:104EF000704798B2A8B91B0C1020DAB20AB9083072
:104F00001B0A1A0704BF1B0904309A0704BF9B0839
:104F10000230DA0703D45B0800F1010005D00B6012
:104F200070471046E9E700207047202070470000D6
:104F300010B50C460121FFF703FF024628B9054BC7
:104F400005484FF4A07100F035FD01234461036171
:104F500010BD00BFA75D0008185E00082DE9F04FE6
:104F600091460A69D9F810309A42B8BF0B460C46F0
:104F7000BCBF4C4699462769D9F810A0A368616860
:104F800007EB0A06B34285B0B8BF0131FFF7D8FE80
:104F900030B90246444B454840F25D1100F00AFD2D
:104FA00000F1140505EB86082B460022434521D36A
:104FB00004F1140303EB870709F1140303EB8A02DE
:104FC00002923A1B153A22F00302043204F1150151
:104FD0008F4238BF04220192029A03939A420CD85E
:104FE000002E03DD58F8043D002B5AD0066105B0B1
:104FF000BDE8F08F43F8042BD8E7B3F800A0BAF16E
:10500000000F24D004F1140EA9464FF0000C5EF8F6
:10501000042BD9F800101FFA82FB89B20AFB0B118E
:105020004FEA124BD9F8002061444FEA124C0AFBB8
:105030000BC202EB114289B241EA0241774549F8BD
:10504000041B4FEA124CE2D8019A45F802C0039AB9
:10505000B2F802900433B9F1000F20D0296804F1AE
:10506000140CAE464FF0000ABCF800B0BEF80220A7
:1050700009FB0B22924489B241EA0A414EF8041B13
:105080005CF8042BBEF80010120C09FB021101EBB6
:105090001A4167454FEA114AE6D8019AA9500435EA
:1050A0009AE7013E9CE700BFA75D0008185E000874
:1050B0002DE9F843154612F0030206460F4607D0C5
:1050C000254C013A002354F82220FFF79BFE0746A7
:1050D000AD103DD0746A7CB91020FFF71BFE02466C
:1050E000706228B91D4B1E484FF4D77100F062FC66
:1050F000C0E901440460C460D6F82480D8F80840B0
:105100004CB940F271213046FFF712FF0023C8F876
:105110000800044603604FF00009EB070AD5394642
:1051200022463046FFF71AFF394680463046FFF7E1
:1051300047FE47466D100BD0206838B922462146FD
:105140003046FFF70BFF2060C0F800900446E4E70C
:105150003846BDE8F88300BF685F0008355D000889
:10516000185E00082DE9F0470C464968236903EBF7
:105170006218A368074691464FEA621A08F10106D1
:10518000B3420BDB3846FFF7DBFD054648B9024664
:105190002A4B2B4840F2D91100F00CFC01315B0086
:1051A000EEE7002300F1140100F110021846534508
:1051B00037DB20692AEAEA7A04F1140319F01F099F
:1051C00001EB8A0103EB80002FD0C9F1200E8A4643
:1051D0004FF0000C1A6802FA09F242EA0C024AF88F
:1051E000042B53F8042B984222FA0EFCF2D8031B2E
:1051F000153B23F00303043304F11502904238BF3A
:10520000042341F803C0BCF1000F01D008F10206ED
:10521000013E38462E612146FFF7D2FD2846BDE803
:10522000F08742F8040F0133C1E7043953F8042B27
:1052300041F8042F9842F9D8EAE700BFA75D0008BB
:10524000185E000830B502690C69121B0ED100F11E
:105250001403143103EB840001EB840150F8045D66
:1052600051F8044DA54203D005D30122104630BDAC
:105270008342F3D3FAE74FF0FF32F7E72DE9F84F17
:105280000C460646114620469046FFF7DBFF051EFA
:1052900010D129463046FFF753FD30B93A4B02464C
:1052A00040F23221394800F085FB0123C0E9043582
:1052B000BDE8F88FA4BF4346A0463046D8F8041096
:1052C000A6BF1C4600250125FFF73AFD20B92E4B4D
:1052D00002464FF41071E5E7D8F810702669C560F2
:1052E00004F1140908F1140500F1140E05EB870C04
:1052F00009EB860608F11002F246002159F8043B3A
:1053000052F804BF1FFA83F811FA8BF11B0CA1EBC2
:105310000808C3EB1B4303EB28431FFA88F8191452
:105320004E4548EA03434AF8043BE7D8331B153B94
:1053300023F0030304331534A64238BF04231D446D
:1053400073449E462E4666450ED30CF10302521B53
:1053500022F00302033DAC4538BF00221A4452F844
:10536000043D7BB10761A3E756F8048B11FA88F27C
:10537000141404EB184492B242EA04424EF8042B8F
:105380002114E0E7013FEAE7A75D0008185E000886
:105390002DE9F7438946012157EC106B9046FFF742
:1053A000CFFC044630B90246254B264840F20A316C
:1053B00000F000FBC7F30A55C7F3130335BB002EFB
:1053C000019328D068460096FFF782FD009900B34C
:1053D000019AC0F1200302FA03F30B43C240636158
:1053E0000192019BA361002B14BF022201222261C2
:1053F000D5B1A5F233450544C9F80050C0F13500D8
:10540000C8F80000204603B0BDE8F08343F48013E1
:10541000D5E76161E5E701A8FFF75AFD019B6361EC
:10542000012222612030E3E704EB8203A0F2324044
:10543000C9F800001869FFF72BFDC0EB4210DFE749
:10544000A75D0008185E000837B5A1FB02244CB91F
:105450001146019200F07AF8019A054630B92846C3
:1054600003B030BD0C2202600025F8E72146FDF7AD
:10547000F3FDF4E737B5002944D051F8043C01901E
:10548000002BA1F10404B8BFE41800F019FB1E4A78
:105490000198136833B96360146003B0BDE830400D
:1054A00000F014BBA34208D9256861198B4201BFE3
:1054B00019685B6849192160EDE71A465B680BB112
:1054C000A342FAD911685518A5420BD1246821448A
:1054D0005418A3421160E0D11C685B6853602144FA
:1054E0001160DAE702D90C230360D6E72568611959
:1054F0008B4204BF19685B68636004BF491921606F
:105500005460CAE703B030BD8804002070B50E4E69
:105510000C463168054611B900F0E6F930602146C5
:10552000284600F0E1F9431C0AD0C41C24F003040F
:10553000A04207D0211A284600F0D6F9013001D147
:105540004FF0FF34204670BD8C0400202DE9F0415F
:10555000CD1C25F0030508350C2D38BF0C25002D7A
:10556000074601DBA94205D90C233B6000263046E3
:10557000BDE8F0812E4E00F0A3FA33681C4634BB20
:1055800029463846FFF7C2FF431C04464DD1346814
:105590002646002E40D123683146384604EB0308E6
:1055A00000F0A2F980453AD1216803356D1A25F043
:1055B000030508350C2D38BF0C2529463846FFF762
:1055C000A5FF01302BD023682B4423600EE0226816
:1055D000521B1ED40B2A16D96119A342256018BF8D
:1055E0005960636808BF316062514B60384604F10E
:1055F0000B0600F06BFA26F00706231DF21AB6D050
:105600009B1BA350B3E76268A3420CBF32605A6091
:10561000ECE723466468B2E734467668B9E70C23C2
:105620003B60384600F052FAA1E72560DEE700BF94
:10563000880400209368013B002B10B4936008DAC3
:105640009469A34201DB0A2903D15DF8044BFEF7FC
:1056500003BA1368581C1060197008465DF8044BB3
:105660007047F8B506460F461446D518AC4201D12E
:10567000002007E014F8011B3A463046FFF7DAFF36
:10568000431CF3D1F8BD00002DE9F04F0D469DB04D
:1056900014469846064618B183690BB9FFF730FAED
:1056A000894B9D421BD175686B6ED90705D4AB89B8
:1056B0009A0502D4A86DFFF7C6FAAB891B0701D57E
:1056C0002B69EBB929463046FEF718FAC0B16B6E6C
:1056D000DC070ED54FF0FF301DB0BDE8F08F7B4BDF
:1056E0009D4201D1B568DFE7794B9D4208BFF5685F
:1056F000DAE7AB899805EDD4A86DFFF7A5FAE9E7DD
:105700000023099320238DF82930CDF80C80302315
:10571000DFF8C0818DF82A304FF0010923469A4600
:1057200013F8012B0AB1252AF9D1BAEB040B0BD0DF
:105730005B46224629463046FFF793FF013000F0D2
:10574000AA80099A5A4409929AF80030002B00F076
:10575000A28000234FF0FF32CDE905230AF1010AB0
:10576000049307938DF853301A935446052214F886
:10577000011B5848FAF734FD049AD8B9D10644BF42
:1057800020238DF85330130744BF2B238DF853305B
:105790009AF800302A2B15D0079A544600204FF073
:1057A0000A0C214611F8013B303B092B4ED9B0B110
:1057B000079214E0A0EB080309FA03F313430493E0
:1057C000A246D2E7039B191D1B680391002BBBBFA8
:1057D0005B4242F0020207930793B8BF049223781A
:1057E0002E2B0CD163782A2B35D1039B1A1D1B68F5
:1057F0000392002BB8BF4FF0FF3302340593DFF85C
:10580000E4A0217803225046FAF7EAFC40B1402395
:10581000A0EB0A0003FA00F0049B03430134049355
:1058200014F8011B2C488DF828100622FAF7D8FC32
:1058300000283FD0294B1BBB039B073323F00703F2
:1058400008330393099B3B44099367E70CFB02323F
:105850000C460120A5E700230134059319464FF0BB
:105860000A0C204610F8012B303A092A03D9002BE4
:10587000C5D00591C3E70CFB012104460123F0E7E5
:1058800003AB00932A46164B04A93046FDF78CFC67
:105890000746781CD6D16B6ED90705D4AB899A051B
:1058A00002D4A86DFFF7D0F9AB895B063FF512AFC4
:1058B000099811E703AB00932A46094B04A9304627
:1058C000FDF716FFE4E700BFD85D0008F85D0008AB
:1058D000B85D0008745F00087E5F0008A931000809
:1058E000635600087A5F000838B5064D0023044669
:1058F00008462B6000F092F9431C02D12B6803B1DB
:10590000236038BD9004002010B50C46B1F90E108C
:1059100000F0E2F80028ABBF636DA3891B1823F4E5
:105920008053ACBF6365A38110BD2DE9F0411F46D4
:105930008B89DB0505460C46164605D5B1F90E10D8
:105940000223002200F098F8A389B4F90E1023F482
:105950008053A38132463B462846BDE8F04100F023
:1059600017B810B50C46B1F90E1000F085F8431CBD
:10597000A38915BF606523F4805343F48053A3814A
:1059800018BFA38110BDB1F90E1000F031B80000AE
:1059900038B5074D04460846114600222A601A46CB
:1059A000FBF745FF431C02D12B6803B1236038BDD0
:1059B000900400201FB514461A46094B1B68054683
:1059C000D8684CB1074B0091CDE9013406492B460C
:1059D00000F01EF800F09FF8044B1C46F3E700BFF0
:1059E0001C000020855F0008925F0008C05F00086F
:1059F00038B5064D0023044608462B6000F0D6F863
:105A0000431C02D12B6803B1236038BD90040020F1
:105A10000EB403B5014603AB054853F8042B0068E8
:105A20000193FFF731FE02B05DF804EB03B070475D
:105A30001C00002038B5074D0023044608461146D7
:105A40002B6000F0BBF8431C02D12B6803B123602C
:105A500038BD00BF9004002038B5064D0023044631
:105A600008462B6000F0BAF8431C02D12B6803B142
:105A7000236038BD9004002038B5074D0446084621
:105A8000114600222A601A4600F0B8F8431C02D1E1
:105A90002B6803B1236038BD9004002082B001B9A7
:105AA00001A942B14BB113780B601278101E18BFD8
:105AB000012002B070471046FBE76FF00100F8E7E5
:105AC0000148FFF7C0B800BF840400200148FFF779
:105AD000BBB800BF8404002038B5074D0446084613
