:020000040800F2
:10000000000001203514000885140008851400083C
:1000100085140008851400088514000800000000FD
:10002000000000000000000000000000851400082F
:10003000851400080000000085140008491100081C
:10004000851400088514000885140008851400082C
:10005000851400088514000885140008851400081C
:10006000851400088514000885140008851400080C
:1000700085140008851400088514000885140008FC
:1000800085140008851400088514000885140008EC
:1000900085140008851400088514000885140008DC
:1000A00085140008851400088514000885140008CC
:1000B00085140008000000000000000085140008FE
:1000C00085140008000000000000000085140008EE
:1000D00000000000851400088514000800000000DE
:1000E00085140008851400080000000000000000CE
:1000F0000000000000000000000000000000000000
:10010000000000000000000000000000851400084E
:10011000000000000000000085140008851400089D
:10012000851400088514000885140008851400084B
:10013000851400080000000000000000000000001E
:10014000851400088514000885140008851400082B
:10015000851400088514000885140008851400081B
:1001600085140008851400088514000800000000AC
:10017000851400088514000800000000000000003D
:0C01800085140008851400088514000890
:1001900010B5054C237833B9044B13B10448AFF3C1
:1001A00000800123237010BDD40100200000000056
:1001B000F07A000808B5034B1BB103490348AFF3BD
:1001C000008008BD00000000D8010020F07A00087F
:1001D000034613F8012B002AFBD1181A0138704787
:1001E00001F0FF01102A2BDB10F0070F08D010F8E8
:1001F000013B013A8B422DD010F0070F42B3F6D1EC
:10020000F0B441EA012141EA014122F007047FF004
:1002100000070023F0E80256083C85EA010586EA5B
:10022000010685FA47F5A3FA87F586FA47F6A5FA97
:1002300087F68EB9EED1F0BC01F0FF0102F00702A3
:1002400032B110F8013B013A83EA010313B1F8D14E
:100250000020704701387047002D06BF354603382F
:10026000073815F0010F07D1013015F4807F02BF68
:10027000013015F4C03F0130F0BC0138704700BFB9
:1002800081F0004102E000BF83F0004330B54FEA47
:1002900041044FEA430594EA050F08BF90EA020FB4
:1002A0001FBF54EA000C55EA020C7FEA645C7FEA47
:1002B000655C00F0E2804FEA5454D4EB5555B8BF6A
:1002C0006D420CDD2C4480EA020281EA030382EADB
:1002D000000083EA010180EA020281EA0303362D6D
:1002E00088BF30BD11F0004F4FEA01314FF4801C40
:1002F0004CEA113102D0404261EB410113F0004F52
:100300004FEA03334CEA133302D0524263EB430308
:1003100094EA050F00F0A780A4F10104D5F1200EA6
:100320000DDB02FA0EFC22FA05F2801841F1000101
:1003300003FA0EF2801843FA05F359410EE0A5F1D5
:1003400020050EF1200E012A03FA0EFC28BF4CF006
:10035000020C43FA05F3C01851EBE37101F00045BC
:1003600007D54FF0000EDCF1000C7EEB00006EEBC9
:100370000101B1F5801F1BD3B1F5001F0CD3490853
:100380005FEA30004FEA3C0C04F101044FEA4452AA
:1003900012F5800F80F09A80BCF1004F08BF5FEA31
:1003A000500C50F1000041EB045141EA050130BD11
:1003B0005FEA4C0C404141EB0101013C28BFB1F523
:1003C000801FE9D291F0000F04BF01460020B1FA6E
:1003D00081F308BF2033A3F10B03B3F120020CDA41
:1003E0000C3208DD02F1140CC2F10C0201FA0CF01F
:1003F00021FA02F10CE002F11402D8BFC2F1200C84
:1004000001FA02F120FA0CFCDCBF41EA0C01904039
:10041000E41AA2BF01EB0451294330BD6FEA040482
:100420001F3C1CDA0C340EDC04F11404C4F120026D
:1004300020FA04F001FA02F340EA030021FA04F37F
:1004400045EA030130BDC4F10C04C4F1200220FAD6
:1004500002F001FA04F340EA0300294630BD21FA14
:1004600004F0294630BD94F0000F83F4801306BFDA
:1004700081F480110134013D4EE77FEA645C18BFCE
:100480007FEA655C29D094EA050F08BF90EA020F65
:1004900005D054EA000C04BF1946104630BD91EA5D
:1004A000030F1EBF0021002030BD5FEA545C05D160
:1004B0004000494128BF41F0004130BD14F580049F
:1004C0003CBF01F5801130BD01F0004545F0FE4113
:1004D00041F470014FF0000030BD7FEA645C1ABF48
:1004E000194610467FEA655C1CBF0B46024650EA7F
:1004F000013406BF52EA033591EA030F41F40021AB
:1005000030BD00BF90F0000F04BF0021704730B530
:100510004FF4806404F132044FF000054FF0000105
:1005200050E700BF90F0000F04BF0021704730B5C6
:100530004FF4806404F1320410F0004548BF40429B
:100540004FF000013EE700BF42004FEAE2014FEAF0
:1005500031014FEA02701FBF12F07F4393F07F4FCB
:1005600081F06051704732F07F4208BF704793F0CE
:100570007F4F04BF41F40021704730B54FF46074E1
:1005800001F0004521F000411CE700BF50EA0102E4
:1005900008BF704730B54FF000050AE050EA01028D
:1005A00008BF704730B511F0004502D5404261EBFD
:1005B00041014FF4806404F132045FEA915C3FF43E
:1005C000D8AE4FF003025FEADC0C18BF03325FEADB
:1005D000DC0C18BF033202EBDC02C2F1200300FA8C
:1005E00003FC20FA02F001FA03FE40EA0E0021FAB1
:1005F00002F11444BDE600BF70B54FF0FF0C4CF49F
:10060000E06C1CEA11541DBF1CEA135594EA0C0F50
:1006100095EA0C0F00F0DEF82C4481EA030621EA8B
:100620004C5123EA4C5350EA013518BF52EA0335C6
:1006300041F4801143F4801338D0A0FB02CE4FF078
:100640000005E1FB02E506F00042E0FB03E54FF0A8
:100650000006E1FB03569CF0000F18BF4EF0010EA0
:10066000A4F1FF04B6F5007F64F5407404D25FEA9C
:100670004E0E6D4146EB060642EAC62141EA55514F
:100680004FEAC52040EA5E504FEACE2EB4F1FD0C91
:1006900088BFBCF5E06F1ED8BEF1004F08BF5FEA0F
:1006A000500E50F1000041EB045170BD06F00046C1
:1006B00046EA010140EA020081EA0301B4EB5C046E
:1006C000C2BFD4EB0C0541EA045170BD41F4801166
:1006D0004FF0000E013C00F3AB8014F1360FDEBF8B
:1006E000002001F0004170BDC4F10004203C35DA67
:1006F0000C341BDC04F11404C4F1200500FA05F3EA
:1007000020FA04F001FA05F240EA020001F000428A
:1007100021F0004110EBD37021FA04F642EB060100
:100720005EEA430E08BF20EAD37070BDC4F10C042A
:10073000C4F1200500FA04F320FA05F001FA04F2EE
:1007400040EA020001F0004110EBD37041F10001DA
:100750005EEA430E08BF20EAD37070BDC4F12005E5
:1007600000FA05F24EEA020E20FA04F301FA05F24D
:1007700043EA020321FA04F001F0004121FA04F2F5
:1007800020EA020000EBD3705EEA430E08BF20EAC5
:10079000D37070BD94F0000F0FD101F000464000FF
:1007A00041EB010111F4801F08BF013CF7D041EA81
:1007B000060195F0000F18BF704703F00046520085
:1007C00043EB030313F4801F08BF013DF7D043EA56
:1007D0000603704794EA0C0F0CEA135518BF95EA0C
:1007E0000C0F0CD050EA410618BF52EA4306D1D193
:1007F00081EA030101F000414FF0000070BD50EAB2
:10080000410606BF1046194652EA430619D094EA3B
:100810000C0F02D150EA013613D195EA0C0F05D125
:1008200052EA03361CBF104619460AD181EA030179
:1008300001F0004141F0FE4141F470014FF0000031
:1008400070BD41F0FE4141F4780170BD70B54FF0CC
:10085000FF0C4CF4E06C1CEA11541DBF1CEA13554C
:1008600094EA0C0F95EA0C0F00F0A7F8A4EB05042E
:1008700081EA030E52EA03354FEA013100F0888025
:100880004FEA03334FF0805545EA131343EA1263EE
:100890004FEA022245EA111545EA10654FEA0026A3
:1008A0000EF000419D4208BF964244F1FD0404F55C
:1008B000407402D25B084FEA3202B61A65EB0305B8
:1008C0005B084FEA32024FF480104FF4002CB6EB75
:1008D000020E75EB030E22BFB61A754640EA0C00F5
:1008E0005B084FEA3202B6EB020E75EB030E22BF35
:1008F000B61A754640EA5C005B084FEA3202B6EB76
:10090000020E75EB030E22BFB61A754640EA9C0034
:100910005B084FEA3202B6EB020E75EB030E22BF04
:10092000B61A754640EADC0055EA060E18D04FEAC2
:10093000051545EA16754FEA06164FEAC30343EA62
:1009400052734FEAC2025FEA1C1CC0D111F4801F2F
:100950000BD141EA00014FF000004FF0004CB6E728
:1009600011F4801F04BF01430020B4F1FD0C88BFC7
:10097000BCF5E06F3FF6AFAEB5EB030C04BFB6EBD2
:10098000020C5FEA500C50F1000041EB045170BDC5
:100990000EF0004E4EEA113114EB5C04C2BFD4EBF2
:1009A0000C0541EA045170BD41F480114FF0000E76
:1009B000013C90E645EA060E8DE60CEA135594EAF2
:1009C0000C0F08BF95EA0C0F3FF43BAF94EA0C0FF5
:1009D0000AD150EA01347FF434AF95EA0C0F7FF46A
:1009E00025AF104619462CE795EA0C0F06D152EABE
:1009F00003353FF4FDAE1046194622E750EA4106A2
:100A000018BF52EA43067FF4C5AE50EA41047FF4B2
:100A10000DAF52EA43057FF4EBAE12E74FF0FF3C17
:100A200006E000BF4FF0010C02E000BF4FF0010CE8
:100A30004DF804CD4FEA410C7FEA6C5C4FEA430C61
:100A400018BF7FEA6C5C1BD001B050EA410C0CBFB0
:100A500052EA430C91EA030F02BF90EA020F002012
:100A6000704710F1000F91EA030F58BF994208BF79
:100A700090422CBFD8176FEAE37040F00100704736
:100A80004FEA410C7FEA6C5C02D150EA013C07D18D
:100A90004FEA430C7FEA6C5CD6D152EA033CD3D0D8
:100AA0005DF8040B704700BF8446104662468C46D2
:100AB0001946634600E000BF01B5FFF7B7FF002805
:100AC00048BF10F1000F01BD4DF808EDFFF7F4FF2E
:100AD0000CBF012000205DF808FB00BF4DF808EDB9
:100AE000FFF7EAFF34BF012000205DF808FB00BFDC
:100AF0004DF808EDFFF7E0FF94BF012000205DF8FE
:100B000008FB00BF4DF808EDFFF7CEFF94BF0120B2
:100B100000205DF808FB00BF4DF808EDFFF7C4FFAB
:100B200034BF012000205DF808FB00BF4FEA410CF4
:100B30007FEA6C5C02D150EA013C0AD14FEA430CD7
:100B40007FEA6C5C02D152EA033C02D14FF0000014
:100B500070474FF0010070474FEA410212F5001252
:100B600015D211D56FF47873B3EB625212D94FEAF4
:100B7000C12343F0004343EA505311F0004F23FADE
:100B800002F018BF404270474FF00000704750EA33
:100B9000013005D111F0004008BF6FF000407047F0
:100BA0004FF00000704700BF4A0011D212F500124A
:100BB00011D20DD56FF47873B3EB62520ED44FEAB5
:100BC000C12343F0004343EA505323FA02F0704735
:100BD0004FF00000704750EA013002D14FF0FF3073
:100BE00070474FF0000070474FEA4102B2F1E04316
:100BF00024BFB3F5001CDCF1FE5C0DD901F0004C04
:100C00004FEAC0024CEA5070B2F1004F40EB830053
:100C100008BF20F00100704711F0804F21D113F17F
:100C20003872BCBF01F00040704741F480114FEAB8
:100C30005252C2F11802C2F1200C10FA0CF320FA41
:100C400002F018BF40F001004FEAC1234FEAD3235E
:100C500003FA0CFC40EA0C0023FA02F34FEA4303C8
:100C6000CCE77FEA625307D150EA01331EBF4FF051
:100C7000FE4040F44000704701F0004040F0FE406C
:100C800040F40000704700BF38B50022002304463E
:100C90000D46FFF723FF28B920462946BDE8384016
:100CA00000F00AB8204605F1004100F005F8404286
:100CB00061EB410138BD00BFD0B50C4B00220646A8
:100CC0000F46FFF799FCFFF76FFF0446FFF71AFC8A
:100CD000074B0022FFF790FC02460B463046394690
:100CE000FFF7D2FAFFF760FF2146D0BD0000F03DCC
:100CF0000000F04190B587B000AF78600B46FB7004
:100D0000FA787B6802FB03F33B613B699B00184662
:100D100001F022FC0346FB6000237B6132E07B692B
:100D200007EE903AF8EEE77A77EEA76A3B6907EEAE
:100D3000903AB8EE677AC6EE877A9FED177A77EE2B
:100D4000877A9FED167A27EE877A7B6907EE903ACD
:100D5000B8EEE76A7B6807EE903AF8EE676AC6EE8F
:100D6000267A67EE277A7B699B00FA68D418B0EE82
:100D7000670A06F019F9F0EE407AC4ED007A7B6953
:100D800001337B617B693A699A42C8D8FB6818468F
:100D90001C37BD4690BD00BFCDCCCC3DDB0FC9405C
:100DA00080B584B000AF78607B68DBB23B7307F13D
:100DB0000C0364220121184600F0F8FA7B681846FB
:100DC0001037BD4680BD80B586B000AFF860B96011
:100DD0007A6000237B6109E0BB685A1CBA601B780B
:100DE0001846FFF7DDFF7B6901337B617A697B6819
:100DF0009A42F1DB7B6818461837BD4680BD00007B
:100E000080B400AF064BD3F88830054A43F4700332
:100E1000C2F8883000BFBD465DF8047B704700BF54
:100E200000ED00E0B0B58CB002AF00F0EDF842F29A
:100E3000107000F0A3F8294BD3F88830274A43F408
:100E40007003C2F8883000F0F5F94FF4E13124481E
:100E500000F052FA02214FF48060FFF74BFF386236
:100E600042F20801202001F01BFB0346FB613B46D8
:100E70004FF40061184600F0B9FB0346FB76384694
:100E80000023FA69396A00F0FFFA00237B621DE053
:100E90007B6ADB00FA6913441B681846FFF754FBB2
:100EA00004460D467B6ADB00FA6913445B6818460A
:100EB000FFF74AFB02460B46CDE9002322462B46AC
:100EC000084802F05BFC7B6A01337B627B6AB3F506
:100ED000806FDDDD044802F0D7FCFEE700ED00E0A6
:100EE00000B4C404087B0008107B000880B483B001
:100EF00000AF0346FB7197F90730002B0CDBFB7941
:100F000003F01F02074997F907305B09012000FA37
:100F100002F2603341F8232000BF0C37BD465DF874
:100F2000047B704700E100E080B483B000AF03466B
:100F30003960FB7197F90730002B0ADB3B68DAB2A6
:100F40000C4997F907301201D2B20B4483F8002301
:100F50000AE03B68DAB20849FB7903F00F03043B6F
:100F60001201D2B20B441A7600BF0C37BD465DF8B1
:100F7000047B704700E100E000ED00E080B582B046
:100F800000AF7860124B00221A60114A7B68013B67
:100F900053600F214FF0FF30FFF7C6FF0C4B0022CC
:100FA0009A600B4B1B680A4A23F004031360084B3A
:100FB0001B68074A43F002031360054B1B68044A91
:100FC00043F00103136000BF0837BD4680BD00BF7A
:100FD00010E000E080B400AF044B1B680133034A0B
:100FE000136000BFBD465DF8047B7047F001002030
:100FF00080B400AF034B1B681846BD465DF8047B08
:10100000704700BFF001002080B400AF4C4B1B685C
:101010004B4A23F08073136000BF494B1B6803F0F9
:101020000073002BF9D1464BDB68454A23F00303DC
:10103000D360434BDB68424A43F00103D360404B2B
:10104000DB683F4A23F07003D3603D4BDB683C4ACA
:1010500023F4FE43D3603A4BDB68394A43F4205310
:10106000D360374BDB68364A23F0C063D360344B20
:10107000DB68334A23F4C003D360314BDB68304A6A
:1010800023F40033D3602E4BDB682D4A43F46023F6
:10109000D3602B4B1B682A4A43F080731360284BA4
:1010A000DB68274A43F08073D36000BF244B1B6882
:1010B00003F00073002BF9D0214B9B6C204A43F4C2
:1010C000807393641F4B1B681E4A23F00703136051
:1010D0001C4B1B681B4A43F00403136000BF194BF1
:1010E0001B6803F00403002BF9D0154B9B68144ACE
:1010F00023F003039360124B9B68114A43F00303F0
:10110000936000BF0E4B9B6803F00C03002BF9D0DB
:101110000B4B9B680A4A23F4E0639360084B9B687F
:10112000074A23F460539360054B9B68044A23F0FD
:10113000F003936000BFBD465DF8047B704700BFBD
:10114000001002400020024080B500AF4FF0FF3099
:10115000FFF7CCFEFFF73EFF00BF80BD80B485B037
:1011600000AF78607B6803F00703FB600C4BDB6823
:10117000BB60BA684FF6FF031340BB60FB681A02FE
:10118000BB68134343F0BF6343F40033BB60044ABE
:10119000BB68D36000BF1437BD465DF8047B704761
:1011A00000ED00E080B483B000AF0346FB7197F917
:1011B0000730002B0BDBFB7903F01F02074997F97F
:1011C00007305B09012000FA02F241F8232000BF3A
:1011D0000C37BD465DF8047B704700BF00E100E0BE
:1011E00080B483B000AF03463960FB7197F90730D4
:1011F000002B0ADB3B68DAB20C4997F90730120181
:10120000D2B20B4483F800230AE03B68DAB2084903
:10121000FB7903F00F03043B1201D2B20B441A76A0
:1012200000BF0C37BD465DF8047B704700E100E06D
:1012300000ED00E080B400AF2E4BDB6C2D4A43F094
:101240000103D3644FF090431B684FF0904223F0AA
:10125000404323F0300313604FF090431B684FF07E
:10126000904243F0004343F0200313604FF090435B
:101270005B684FF0904223F4004323F00403536073
:101280004FF090439B684FF0904223F0404323F08F
:10129000300393604FF090439B684FF0904243F0CF
:1012A000004343F0200393604FF090431B6A4FF0DC
:1012B000904223F4706313624FF090431B6A4FF027
:1012C000904243F4E06313624FF090435B6A4FF047
:1012D000904223F0704353624FF090435B6A4FF0AB
:1012E000904243F04053536200BFBD465DF8047B1B
:1012F000704700BF0010024080B582B000AF786038
:101300003960284B9B6D274A43F400339365264B85
:101310001B68254A23F08053136023497A683B6891
:10132000B2FBF3F3CB60204B1B681F4A23F48063AE
:1013300013601D4B5B681C4A23F4405353601A4BE7
:101340009B68194A23F400739360174B9B68164AF5
:1013500023F480739360144B5B68134A23F4904327
:101360005360114B9B68104A23F02A0393600E4B85
:101370001B680D4A43F00D0313600B4B1B680A4AB0
:1013800043F0200313600020FFF7E8FE0121262030
:10139000FFF726FF2620FFF705FF00BF0837BD46F1
:1013A00080BD00BF001002400044004080B586B000
:1013B00000AFF8600B467A60FB720023FB75FFF705
:1013C00017FE38611AE01A4BDB6903F08003002B2B
:1013D0000AD0FB7DFA6813441A78154B92B21A852D
:1013E000FB7D0133FB7509E0FFF702FE02463B6916
:1013F000D31A7A689A4201D8002315E0FA7DFB7A65
:101400009A42E0D309E0FFF7F3FD02463B69D31AA5
:101410007A689A4201D8002306E0054BDB6903F0A5
:101420004003002BEFD1012318461837BD4680BD7D
:1014300000440040DFF834D0FFF7E2FC0C480D49CF
:101440000D4A002302E0D458C4500433C4188C421F
:10145000F9D30A4A0A4C002301E013600432A24285
:10146000FBD301F055F8FFF7DDFCFEE7000001209B
:1014700000000020D401002074B80108D40100202D
:1014800008020020FEE7000070B5154606460C462F
:101490001A46002B55D0D1ED007AD1ED016A0088B3
:1014A000716937EEA67A77EEE67AB6EE004A431E09
:1014B00027EE047A67EE847A002B85ED007AC5ED7D
:1014C000017A04EBC30C35DD01F1100EACEBC0006A
:1014D0001034ACF1080C05F11001DCED036ADCED11
:1014E000027A14ED027A14ED015A1EED026A5EEDE5
:1014F000015A77EE674A77EE877A35EE667AE6EE3E
:10150000647AACF1080C0831A5EEA47A60450EF1BE
:10151000080E76EE856A04F10804E5EEE67AA6EE9A
:10152000667A67EE847A27EE047A41ED047A01ED5B
:10153000037AD2D1294630460123BDE8704000F03D
:10154000CFB8012300F0CCF8D4ED017A94ED006A15
:101550003388706977EEA77AF0EE006AB0EE677AAA
:10156000A6EE267A5E1E04EBC601D6EE267A103071
:1015700005F11002B6EE004A27EE047A67EE847A8F
:1015800085ED007AC5ED017A04F11003083913EDF9
:10159000027AD1ED036AD1ED027A13ED015A10ED12
:1015A000026A50ED015A77EEC74A77EE877A35EE38
:1015B000667AE6EE247A013E0832A5EEA47A002E81
:1015C00000F1080076EE856A03F10803E5EEA67ADD
:1015D000A1F10801A6EE667A67EE847A27EE047A16
:1015E00042ED047A02ED037AD1DC70BDB1F5007FE3
:1015F00038B50C4605464ED00ED8802937D01AD9BA
:10160000B1F5807F30D100282ED000F025FC10B934
:101610002B4B2C826B6138BDB1F5006F31D0B1F529
:10162000805F15D100B300F0D7FB0028F3D1254B24
:101630002C826B6138BD202937D0402914D198B154
:1016400000F02AFC0028E6D11F4B2C826B6138BDCC
:10165000B1F5806F08D138B100F0DEFB0028DAD197
:101660001A4B2C826B6138BD4FF0FF3038BD00281B
:10167000FAD000F001FC0028CDD1154B2C826B6113
:1016800038BD0028F0D000F0B7FB0028C3D1114BC3
:101690002C826B6138BD0028E6D000F0CDFB00281D
:1016A000B9D10D4B2C826B6138BD0028DCD000F025
:1016B00003FC0028AFD1094B2C826B6138BD00BF01
:1016C000F06101087066010870AE0108F02F010892
:1016D000F03F0108F041010870A60108F06501081B
:1016E0002DE9F04F2DED0C8B93B0012A0588029265
:1016F00083460C46019300F05A83B5F5807F00F0D5
:101700001D811CD9B5F5006F00F0188140F24683A9
:10171000B5F5805F06D1DBF8042001232946204679
:1017200000F000FC019B002B40F0D480029B012BB9
:1017300000F0DB8013B0BDEC0C8BBDE8F08F402DCA
:10174000E9D040F2F580802DECD16908DBF8042067
:101750008800103004EB850604F110034FEAD50E23
:1017600004EB000C03EB0E1E304402F1100806F1EE
:10177000100717ED041A57ED031A10ED045A50ED37
:10178000035A57ED028A17ED018A10ED027A50EDE7
:10179000017A13ED044A53ED034A13ED026A53ED47
:1017A000016A1CED042A5CED032A1CED020A5CEDC3
:1017B000010A74EE01BA34EEA1BA72EE059A32EE65
:1017C000A59A30EE073A70EEA73A76EE28AA36EEE2
:1017D00088AA43ED04BA03ED03BA43ED02AA03ED70
:1017E00001AA4CED049A0CED039A0CED023A4CED73
:1017F000013A58ED033A18ED043A34EE414A74EEDA
:10180000E14A75EEE25A35EE425A24EEA31A63EE2F
:10181000C41A23EE652AA4EE031A10339E4565EE22
:10182000032AB0EE614AA4EE834A0CF1100C08F1D1
:101830001008F0EE424AE5EE234A07F1100700F1E6
:101840001000B0EE625AA5EEA35A07ED074A07ED65
:10185000081A40ED084A00ED075A58ED055A18EDF0
:10186000065A36EE686A76EEC86A77EEE07A37EEA8
:10187000407A26EEA53A65EEC63A25EE674AA6EE10
:10188000053A67EE054AB0EE636AA6EE856AF0EEA9
:10189000446AE7EE256AB0EE647AA7EEA57A07ED12
:1018A000063A07ED056A40ED066A00ED057A7FF419
:1018B00060AF89B220460223039100F033FB02237C
:1018C0000399DBF80420304600F02CFB019B002B31
:1018D0003FF42CAFDBF80820BBF80C10204600F0DA
:1018E000FBFA029B012B7FF425AF07EE905AF8EE2E
:1018F000677AB7EE007AC7EE276A002D3FF41AAF79
:101900000834002301339D4204F1080414ED047AE5
:1019100054ED037A27EE267A67EEE67A04ED047A30
:1019200044ED037AEED113B0BDEC0C8BBDE8F08F23
:10193000102D3FF40AAF202D7FF4F4AE6B0804EBBA
:10194000C30191ED006AD1ED015A94ED007AD4ED16
:10195000017ADBF80470049101EB830277EE066AEA
:1019600037EE467A37EEA56A77EEE57AD2ED005A81
:1019700092ED012A059204EB830696ED005AD6ED0E
:10198000012A089636EEA53A204633EE053A77EE60
:10199000A53A083084ED003A0A905808069076EE91
:1019A000C56A77EE857A304633EEC55AD2ED013AF4
:1019B0000997083077EE024A36EE624A76EEE56A1B
:1019C00077EEE57A0B90D6ED015A084637EE227A8B
:1019D00036EE236A08300C9037EE427A069834EEE1
:1019E000424A74EEE24A36EE256A02EB830384ED46
:1019F000016A0C3B86ED007A86ED015AC1ED006A62
:101A000081ED014A1146C2ED004AC2ED017A821E03
:101A100050080F93083107F1100304F110020D91E3
:101A200003900E9307F12008109207F13009039FED
:101A3000049A11959A463B01079308EB0713A2F10C
:101A40000C0102F1100E1D46059ADDE90F373046F4
:101A5000A2F10C0C0C3E1030103252ED028A50ED07
:101A6000021A1EED026A57ED022A12ED011A1EED4E
:101A7000017A10ED01BA57ED016A72EE863A71EE05
:101A8000A87A36EE874A77EEA37A72EEC62A47ED39
:101A9000027A52ED015A50ED017A77EEA57A76EE90
:101AA000C76A77EE847A32EEC1AA47ED017ADCED9F
:101AB00002BA93ED02CA91ED025AD6ED020A9CEDEC
:101AC000010A93ED016A91ED018A96ED017A70EEBB
:101AD000ABCA35EE0CDA77EE00AA7CEE8D7A76EEA4
:101AE000E19AC6ED027AD3ED017A91ED012A32EE48
:101AF000272A79EEA89A32EE2A2A3AEE0BAA86ED28
:101B0000012A1AED019A5AED027A30EE863A7AEEFF
:101B1000C8AA7CEEC55A75EE4C4A33EE6B3A3AEEE3
:101B2000C65A75EECC5A3BEE866A29EE89CA69EE32
:101B30004ABAAAEE27CA08F110080837B0EE6BAA15
:101B4000A9EEA7AA083E0AF1080A74EEC09A33EE7D
:101B5000483A79EE879A63EE27AA67EEE97A00EDB4
:101B600001AAB0EE6AAAE3EE097A08300839A9EEB4
:101B700089AA0EF1080EACF1080C73EEE13A34EECE
:101B80004B4A00ED04CA81ED03AAC1ED047A58ED79
:101B9000077A73EEE83A34EE414A34EEC77A76EECD
:101BA000E86A58ED084A64EE278A27EEE33A65EEC4
:101BB000A75A3DEE6C2A67EEC57AE3EEA48A454546
:101BC00009F11809F0EE433AE4EE243A02F1080272
:101BD000A3F10803E5EE645AE4EE827A72EECB2AB2
:101BE0004EED048A36EE486A4EED033ACCED047AA7
:101BF000CCED035A19ED0C5A59ED0B5A77EE007AD9
:101C000032EE811A36EE607A76EEA16A25EEC14A8E
:101C100065EE674A27EE056AA6EE854A66EEA53AA6
:101C2000F0EE646AE7EE256AB0EE467AE1EE053A38
:101C3000A7EEA57A42ED043A02ED034AC3ED046A29
:101C400083ED037A7FF409AF079A0E9BBDF8181055
:101C5000119D13449C46039B0B9A581E02EBC00334
:101C60000D9AD3ED024AD3ED037A02EBC0070A9A2C
:101C700097ED024AD7ED032A02EBC0060C9A96EDC7
:101C8000027AD6ED036A02EBC00292ED023AD2ED7F
:101C9000033A74EE845A37EE036A37EE437A75EEF0
:101CA000865A36EE646AC6ED025A97ED032A93ED22
:101CB000035A76EEA35A35EE025A76EEE36A35EE13
:101CC000255A77EE623A86ED035A099E36EEE43ADB
:101CD00006EBC00090ED055AD0ED041A33EE043A3D
:101CE00073EEA73A75EEE75A25EE632A23EE055AFE
:101CF000A3EE212A2046A3EEA15A83ED032A83ED09
:101D0000025A9CED015A9CED003A039B36EE446A60
:101D100075EEE25A65EE463A25EE855AE5EE833ACF
:101D2000013303EB4303A6EE035A06EBC30377EE3E
:101D3000677A36EEC47A82ED025AC2ED033A77EE44
:101D4000A27A37EE247AD3ED016AD3ED005A0391DB
:101D500026EEE76A67EE266AA7EE256A3246042376
:101D6000E7EEA56A87ED036AC7ED026A00F0DAF8CC
:101D70000898DBF804200399042300F0D3F80498B2
:101D8000DBF804200399042300F0CCF803990598AC
:101D9000DBF80420042300F0C5F8C3E4B5F5007FA8
:101DA0003FF4B9ACB5F5806F3FF4CFACBAE475B190
:101DB00001F10C03002253ED027A0132F1EE677A51
:101DC000954243ED027A03F10803F4D195E4019BB7
:101DD000002B3FF4AFAC7DE5064B99898181D3E9B7
:101DE00001324FF4006CC0E90132A0F800C00020BD
:101DF000704700BFA0AF0108064B99898181D3E9E4
:101E000001324FF4806CC0E90132A0F800C000201C
:101E1000704700BF70AF0108064B99898181D3E9F3
:101E200001324FF4007CC0E90132A0F800C000206C
:101E3000704700BFD0AF0108064B99898181D3E973
:101E400001324FF4807CC0E90132A0F800C00020CC
:101E5000704700BFB0AF0108064B99898181D3E973
:101E600001324FF0800CC0E90132A0F800C0002020
:101E7000704700BF80AF0108064B99898181D3E983
:101E800001324FF0400CC0E90132A0F800C0002040
:101E9000704700BFE0AF0108064B99898181D3E903
:101EA00001324FF0200CC0E90132A0F800C0002040
:101EB000704700BFC0AF0108064B99898181D3E903
:101EC00001324FF0100CC0E90132A0F800C0002030
:101ED000704700BF90AF010811B370B54FF0000E0E
:101EE000951C32F81EC035F81E304FEA9C0C9B083A
:101EF00050F82C6050F8234040F82C4040F8236004
:101F00000CF1010C01330EF1020E50F82C4050F888
:101F1000236040F82C608E4540F82340E1D370BD2B
:101F2000704700BF2DE9F04F2DED108B8FB0CDE93C
:101F30000A3203460433DFEDBDCA0C908A468B4655
:101F40000D934FEADB0707EB87044FEACB000090C5
:101F5000E400C7EBC7000C9B02944FEAC708C4001B
:101F60004FEA0719059409F1040008F1040403EB92
:101F7000471107EB47061C4418447B0101933301CA
:101F800001EB0715A7EB87020393F30005EBC202F1
:101F900004930D9E009B099701EBC70C4FF0000EB8
:101FA00002EB471795ED00AA92ED008AD7ED00AA43
:101FB00010ED012A91ED005A9CED004A56ED013AD0
:101FC00014ED016A78EE2A0A36EE041A32EE0A3A65
:101FD00033EE857A71EE204A77EE036A36EE446A74
:101FE00076EEA47A76EEE46A46ED017AC1ED006AF7
:101FF0009CED01BAD4ED00BAD2ED019A96ED004AFB
:10200000D1ED015AD7ED011AD0ED004A95ED01CA84
:102010007BEECB6A36EE489A76EEE92A73EEC53A45
:1020200034EE655A39EE2A9A72EEA12AF0EE638AEE
:10203000B0EE450AE9EE6C8ADE44F245A2EEEC0A07
:1020400036EE6A6A76EEE16A76EE087A74EE255A22
:1020500032EE4A8A34EECC4A76EEA96A74EE8CAA45
:102060003AEE422A7CEE644A79EEA11A7BEE8BBAF4
:10207000E9EE2C3AB0EE44AAB0EE489AF0EE409A5F
:10208000B0EE68BA35EEEA6AA7EEAC9AA2EEAC5AA8
:10209000A6EEACAA37EE437AE7EEEC9AA6EEECBADF
:1020A000E6EEAC4AA7EEAC2A7BEEA12A77EE616A97
:1020B00075EEAA7A37EE6B7A36EE413A36EE606A02
:1020C00077EEA2AA76EEABBA77EEE27A37EE217A15
:1020D00075EE492A73EE8A1A33EE203A36EE016A1B
:1020E00073EECA3A34EE0B4A78EEA44A39EE055A3A
:1020F00070EE025A78EE296AC6ED00AAC1ED017AA7
:102100001E4440ED01BA194485ED007A80ED003A95
:1021100085ED016A184444ED011A1D44C7ED003AEB
:102120008CED004AC2ED004AC4ED002A87ED015A49
:102130001C44CCED015A1F44C2ED016A9C441A4470
:102140003FF630AF1F46099B072B40F2A381019D4C
:102150000C9E029C03980499059A083508F108081A
:1021600073190834089306EB0803083007933319F2
:1021700008310693331808320593731809F10C09D6
:102180000493B318039306EB0903019306F10C03C0
:1021900002934FF001094FF000083B460A9A904421
:1021A0000B9A02EBC80292ED00FA02EBC802D2EDE4
:1021B00000EA02EBC80292ED00EA02EBC802D2ED9F
:1021C00000DA02EBC80292ED00DA02EBC802A8EBDB
:1021D000880192ED00CA02EBC802D2ED00BA92ED7E
:1021E00001BA02EB0112D2ED01AA02EBC80292ED94
:1021F00001AA02EBC802D2ED019A02EBC80292EDED
:10220000019A02EBC802D2ED018A02EBC802D2EDBC
:10221000017ADDE901C7DDE90365DDE90540DDE9B6
:102220000712CDED007ACE4602E000BFF304353F41
:10223000D5ED004A1CED017AD4ED006A96ED003A26
:1022400057ED013AD1ED002AD2ED005AD0ED007AD7
:1022500097ED008A74EE830A32EEA70A33EEA55A90
:1022600037EE266A30EE204A35EE062A72EEE77A1D
:1022700072EE042A73EEE55A47ED012AD1ED01FA18
:10228000D0ED013A92ED011A32EE442A35EE466A5B
:1022900095ED014A3FEEE35A7FEEA33A77EEE4FA7A
:1022A00077EE661A77EEC37A76EEC76A3FEE833A28
:1022B00096ED017A75EE44FA78EE412A77EEA47A2B
:1022C0007FEE87FAF0EE654AE3EE6C4ADE44F245B3
:1022D000E3EE2C5AB0EE623AAFEEEC3AE7EEAC6ABF
:1022E00035EE475A73EE266AA7EEEC3A35EE045AFD
:1022F00038EE011A34EE074A9CED008A94ED017A1B
:10230000EFEEAC2AF0EE43FAB0EE613AA7EEAC3A4B
:1023100071EEAF7A78EE071A78EE47FA37EE487A20
:10232000B0EE6F8AA5EE2C7AA5EE2C8A37EE247AD1
:10233000E5EE6C4A31EE615A71EE211A35EE601A03
:1023400074EEAFFA35EE405A73EE844A30EE010A6D
:1023500036EE441A36EE636A35EE205A34EE064AFB
:1023600071EEA40A22EE496A71EEE41A71EE233A84
:10237000ADEEA16A69EE214A6AEE051AEDEE824AD7
:10238000B0EE612AAEEEA32A63EECA3AC7ED000AA8
:10239000EEEE853A1F449DED005A82ED016A65EE2E
:1023A000001A24EE455A35EE886AACEE005A32EE39
:1023B000C30A33EE223A75EEC85A6AEE800A2BEE53
:1023C000031A66EE6A2AC2ED004AEFEE060A1A44C4
:1023D000ABEEA51A65EECB4A29EEA76A67EE695AFD
:1023E000ECEE041AEFEE002AB0EE454A2FEEE80AB2
:1023F00028EEA65AAEEE076AB0EE657AEBEE834A97
:10240000ADEE2F5AADEE260AAEEE277A0CED012A7C
:10241000CCED003AC4ED001A84ED014A9C44C1EDB4
:10242000000AC1ED012A1C4486ED001AC6ED014ADE
:10243000194480ED005A80ED010A1E4485ED006AC2
:10244000184485ED017A1D443FF6F2AE089A083231
:102450000892079A08320792069A08320692059A5D
:1024600008320592049A08320492039A08320392C1
:10247000029A08320292019A08320192099A09F1ED
:1024800001094A457FF48AAE0A9BDB009BB20A939E
:10249000934656E50FB0BDEC108BBDE8F08F00BF42
:1024A000024B0A460146186800F0B2B8000000204E
:1024B0001FB514461A46094B1B680546D8684CB12F
:1024C000074B0091CDE9013406492B4600F00EF888
:1024D00002F086F9044B1C46F3E700BF0000002021
:1024E000F0AF0108FDAF01082BB001080EB403B531
:1024F000014603AB054853F8042B0068019300F034
:1025000093F902B05DF804EB03B0704700000020BF
:1025100070B50D4D0D4C641BA4100026A64209D1C8
:102520000B4D0C4C05F0E4FA641BA4100026A642E7
:1025300005D170BD55F8043B98470136EEE755F8D4
:10254000043B98470136F2E76CB801086CB8010803
:102550006CB8010870B80108024B0146186800F019
:10256000C5B800BF0000002002440346934200D1DA
:10257000704703F8011BF9E737B5002944D051F83B
:10258000043C0190002BA1F10404B8BFE41803F04F
:102590007BFD1E4A0198136833B96360146003B071
:1025A000BDE8304003F076BDA34208D92568611923
:1025B0008B4201BF19685B6849192160EDE71A4633
:1025C0005B680BB1A342FAD911685518A5420BD12B
:1025D000246821445418A3421160E0D11C685B6850
:1025E000536021441160DAE702D90C230360D6E777
:1025F000256861198B4204BF19685B68636004BF7A
:10260000491921605460CAE703B030BDF4010020CD
:10261000F8B54B1E0B42074602D000252846F8BDF0
:10262000082938BF0821531D0E4602D90C233B60F0
:10263000F3E7042A38BF0422D41C083924F0030429
:10264000CB43A342F2D3214400F050F80028E4D059
:1026500050F8042C031F002AB8BF9B18F51C1D441A
:1026600076423540191D6A1A0BD00B2A03EB02067D
:1026700018D91868801A98501A603846FFF77CFFFE
:1026800033461A6804F10C01981829448842C5D9C8
:102690002919C81A121A186004312A513846FFF74E
:1026A0006BFFBBE751429950EBE7000070B50E4E4F
:1026B0000C463168054611B901F0EEF8306021464C
:1026C000284601F0E9F8431C0AD0C41C24F0030496
:1026D000A04207D0211A284601F0DEF8013001D1CE
:1026E0004FF0FF34204670BDF80100202DE9F04185
:1026F000CD1C25F0030508350C2D38BF0C25002D09
:10270000074601DBA94205D90C233B600026304671
:10271000BDE8F0812E4E03F0B7FC33681C4634BB95
:1027200029463846FFF7C2FF431C04464DD13468A2
:102730002646002E40D123683146384604EB030874
:1027400001F0AAF880453AD1216803356D1A25F0C9
:10275000030508350C2D38BF0C2529463846FFF7F0
:10276000A5FF01302BD023682B4423600EE02268A4
:10277000521B1ED40B2A16D96119A342256018BF1B
:102780005960636808BF316062514B60384604F19C
:102790000B0603F07FFC26F00706231DF21AB6D0C5
:1027A0009B1BA350B3E76268A3420CBF32605A6020
:1027B000ECE723466468B2E734467668B9E70C2351
:1027C0003B60384603F066FCA1E72560DEE700BF0A
:1027D000F40100209368013B002B10B4936008DAE9
:1027E0009469A34201DB0A2903D15DF8044B01F08F
:1027F00037BF1368581C1060197008465DF8044B09
:102800007047F8B506460F461446D518AC4201D1BC
:10281000002007E014F8011B3A463046FFF7DAFFC4
:10282000431CF3D1F8BD00002DE9F04F0D469DB0DB
:1028300014469846064618B183690BB902F072FF38
:10284000894B9D421BD175686B6ED90705D4AB8946
:102850009A0502D4A86D03F076FBAB891B0701D55E
:102860002B69EBB92946304601F04CFFC0B16B6EC5
:10287000DC070ED54FF0FF301DB0BDE8F08F7B4B6D
:102880009D4201D1B568DFE7794B9D4208BFF568ED
:10289000DAE7AB899805EDD4A86D03F055FBE9E7BD
:1028A0000023099320238DF82930CDF80C803023A4
:1028B000DFF8C0818DF82A304FF0010923469A468F
:1028C00013F8012B0AB1252AF9D1BAEB040B0BD06E
:1028D0005B46224629463046FFF793FF013000F061
:1028E000AA80099A5A4409929AF80030002B00F005
:1028F000A28000234FF0FF32CDE905230AF1010A3F
:10290000049307938DF853301A935446052214F814
:10291000011B5848FDF764FC049AD8B9D10644BF9E
:1029200020238DF85330130744BF2B238DF85330E9
:102930009AF800302A2B15D0079A544600204FF001
:102940000A0C214611F8013B303B092B4ED9B0B19E
:10295000079214E0A0EB080309FA03F3134304936E
:10296000A246D2E7039B191D1B680391002BBBBF36
:102970005B4242F0020207930793B8BF04922378A8
:102980002E2B0CD163782A2B35D1039B1A1D1B6883
:102990000392002BB8BF4FF0FF3302340593DFF8EA
:1029A000E4A0217803225046FDF71AFC40B14023F1
:1029B000A0EB0A0003FA00F0049B034301340493E4
:1029C00014F8011B2C488DF828100622FDF708FC8E
:1029D00000283FD0294B1BBB039B073323F0070381
:1029E00008330393099B3B44099367E70CFB0232CE
:1029F0000C460120A5E700230134059319464FF04A
:102A00000A0C204610F8012B303A092A03D9002B72
:102A1000C5D00591C3E70CFB012104460123F0E773
:102A200003AB00932A46164B04A9304600F0CCF8BD
:102A30000746781CD6D16B6ED90705D4AB899A05A9
:102A400002D4A86D03F080FAAB895B063FF512AFA4
:102A5000099811E703AB00932A46094B04A93046B5
:102A600000F056FBE4E700BF84B20108A4B20108FD
:102A700064B2010830B001083AB00108C92B00085F
:102A80000328000836B001082DE9FF4755EC104B2C
:102A9000002D0E4619462B46BBBF05F100431D46CF
:102AA00000232D230B700D9BDDF830A0914623F001
:102AB0002008BCBF22461446B8F1460F05D0B8F135
:102AC000450F00D10136022100E0032103AB019341
:102AD00002AB009345EC104B5346324601F014FF15
:102AE000B8F1470F074602D119F0010F22D0B8F113
:102AF000460F07EB060910D13B78302B0AD1002294
:102B0000002320462946FDF7DFFF18B9C6F101066C
:102B1000CAF80060DAF80030994400220023204609
:102B20002946FDF7D1FF08B1CDF80C903022039B68
:102B30004B4507D3039B0E9ADB1B3846136004B04A
:102B4000BDE8F087591C03911A70F0E7F7B503460A
:102B50000029B8BF494203F8022BB4BF2D222B2213
:102B6000092942702ADD0DF10704A4460A27A6466A
:102B70000A4691FBF7F607FB16153035632A04F178
:102B8000FF340EF8015C3146F1DC3031AEF1020564
:102B900004F8011C441C294661450AD30DF10902C1
:102BA000A2EB0E02654588BF00221344181A03B039
:102BB000F0BD11F8012B04F8012FEDE7302330317F
:102BC0008370C170031DF1E72DE9F04F2DED028BED
:102BD0008DB00C46DDF8608016461F46054603F0B2
:102BE000ADF9D0F800A05046FDF7F2FA00230A93A1
:102BF00023680593D8F8003094F818B0073323F011
:102C0000070303F10802C8F80020D3E90023C4E950
:102C10001223D4E9128929F000430793CDF81880D4
:102C200008EE100A9F4BDDE906014FF0FF32FDF779
:102C30007DFF88BBDDE906019A4B4FF0FF32FDF7BF
:102C400057FF48BB0022002340464946FDF746FF98
:102C500010B12D2384F84330934B9448BBF1470FB8
:102C600094BF9846804603232361059B23F004020A
:102C700022604FF00009009733460BAA21462846F0
:102C800000F0D8F9013040F090804FF0FF300DB0E7
:102C9000BDEC028BBDE8F08F42464B4640464946AC
:102CA000FDF744FF40B14B46002BBCBF2D2384F8F9
:102CB00043307F487F4BD1E763680BF0DF02069219
:102CC0005A1C3FD106236360059B616843F4806210
:102CD000002303930AABCDE901B309AB49EC108B98
:102CE000009322600DF123032846FFF7CDFE069BDB
:102CF0000999472B804608D1C81C02DB63689942BA
:102D000041DDABF1020B5FFA8BFBBBF1650F20D805
:102D100001395A4604F150000991FFF717FF0A9A4A
:102D20001318012A8146236102DC2268D20701D5EB
:102D3000013323619DF82330002B9CD02D2384F890
:102D4000433098E7069A472ABED1002BBCD1012315
:102D5000B9E7BBF1660F18D1002963680BDD21616B
:102D600013B92268D00702D501330B442361A16552
:102D70004FF00009DEE713B92268D20701D502330C
:102D8000F4E70123F2E74FF0670B0A9B994205DB5A
:102D900023682161D807EAD54B1CE7E70029D4BF97
:102DA000C1F1020201221344E0E723685A0507D467
:102DB0002369424631462846B84701302CD164E7A2
:102DC000BBF1650F40F2E080D4E91201002200233C
:102DD000FDF77AFE002834D0374A012331462846D1
:102DE000B84701303FF451AFDDE909239A4202DBD5
:102DF0002368D80710D518EE103A524631462846B7
:102E0000B84701303FF441AF4FF0000804F11A0910
:102E10000A9B013B434509DC23689B0700F10581C0
:102E2000E0680B9B9842B8BF184630E701234A463A
:102E300031462846B84701303FF427AF08F1010872
:102E4000E6E7099B002B39DC1B4A01233146284663
:102E5000B84701303FF419AFDDE90923134302D12C
:102E60002368D907D8D518EE103A5246314628467D
:102E7000B84701303FF409AF4FF0000904F11A0AD6
:102E8000099B5B424B4501DC0A9B92E701235246BA
:102E900031462846B84701303FF4F7AE09F1010941
:102EA000EEE700BFFFFFEF7F41B0010845B001082A
:102EB0004DB0010849B0010851B001080A9AA36D4C
:102EC0009A42A8BF1A46002A914637DC4FF0000B01
:102ED00029EAE97904F11A02A36D0593A3EB09032A
:102EE0005B4533DCDDE909239A423BDB2368DA07E3
:102EF00038D40A9B059A09999A1AA3EB01099145BE
:102F0000A8BF9146B9F1000F35DC4FF0000829EA5F
:102F1000E97904F11A0ADDE909239B1AA3EB0903F5
:102F200043457FF779AF0123524631462846B847DB
:102F300001303FF4AAAE08F10108ECE71346314630
:102F400042462846B8470130C0D19EE601233146AB
:102F500028460592B84701303FF497AE059A0BF129
:102F6000010BB9E718EE103A524631462846B847E9
:102F70000130BED189E6059A4B4642443146284687
:102F8000B8470130C1D180E60A9A012A01DCDB078B
:102F900038D50123424631462846B84701303FF430
:102FA00074AE18EE103A524631462846B847013002
:102FB0003FF46BAED4E9120100220023FDF784FD3B
:102FC000D8B90A9B08F10102013B31462846B847AF
:102FD00001300ED159E60123524631462846B84702
:102FE00001303FF452AE08F101080A9B013B434512
:102FF000F1DC4B4604F15002DCE64FF0000804F12E
:103000001A0AF2E701234246DFE701234A46314626
:103010002846B84701303FF438AE08F10108E368AC
:103020000B995B1A4345F0DCFAE64FF0000804F117
:103030001909F4E72DE9F047164699468A680B69A5
:10304000DDF820809342B8BF1346336091F84320E7
:1030500007460C460AB1013333602368990642BF24
:10306000336802333360256815F0060506D104F194
:10307000190AE36832689B1AAB4226DC94F84320B5
:10308000131E226818BF012392062BD404F14302B9
:1030900049463846C04701301ED02368E56832688B
:1030A00003F00603042B08BFAD1AA36822690CBF06
:1030B00025EAE57500259342C4BF9B1AED1800264A
:1030C0001A34B5421AD1002008E00123524649467D
:1030D0003846C047013003D14FF0FF30BDE8F087DC
:1030E0000135C6E7E1185A1C302081F8430022441C
:1030F00094F8451082F843100233C7E701232246B3
:1031000049463846C0470130E6D00136D9E70000CD
:103110002DE9FF470F7E0C9D782F914680460C4687
:103120009A4601F1430207D8622F0AD8002F00F017
:10313000D880582F00F0A38004F1420584F8427033
:103140003AE0A7F16303152BF6D801A151F823F05B
:10315000A9310008BD3100083931000839310008B3
:103160003931000839310008BD3100083931000813
:10317000393100083931000839310008C9320008F6
:10318000ED310008AB320008393100083931000850
:10319000EB32000839310008ED3100083931000800
:1031A00039310008B33200082B681A1D1B682A60E9
:1031B00004F1420584F842300123A3E02068296825
:1031C000060601F104030AD50E682B60002E03DA0F
:1031D0002D23764284F843305E480A2319E00E68B6
:1031E0002B6010F0400F18BF36B2EFE72B68206855
:1031F000191D2960010601D51E6802E04606FBD5AF
:103200001E8854486F2F0CBF08230A23002184F81E
:1032100043106568A560002DA2BF216821F004015C
:1032200021600EB9002D4DD01546B6FBF3F103FB1E
:103230001167C75D05F8017D3746BB420E46F4D9DC
:10324000082B0BD12368DE0708D5236961689942F2
:10325000DEBF302305F8013C05F1FF35521B22612A
:10326000CDF800A04B4603AA21464046FFF7E2FEF8
:1032700001304CD14FF0FF3004B0BDE8F087354845
:1032800081F845702968236851F8046B29601D0690
:1032900014D5DF0744BF43F0200323601EB9236821
:1032A00023F0200323601023B0E7236843F02003BA
:1032B00023607823284884F84530E3E7590648BF5F
:1032C000B6B2E6E71546BBE72B6826686169181DAC
:1032D000286035061B6801D5196002E07006FBD531
:1032E0001980002323611546BAE72B681A1D2A604E
:1032F0001D68626800212846FCF772FF08B1401B78
:10330000606063682361002384F84330A8E7236981
:103310002A4649464046D0470130ABD023689B0738
:1033200013D4E068039B9842B8BF1846A4E7012372
:10333000324649464046D04701309BD00135E368CC
:1033400003995B1AAB42F2DCEBE7002504F11906A6
:10335000F5E700BF53B0010864B001082DE9F04F54
:1033600087B0174603938B685A1EB2F5AE7F83BFB2
:103370006FF4AE755B190293002386BF40F25D13B4
:103380008B6002930B688B46002543F4F0634BF887
:103390001C3BCDE9045580460C465E46AA46A9462C
:1033A0000195A26852B13B681B784E2B64D8402B24
:1033B0003CD8A3F12B01C8B20E283AD9B9F1000FBD
:1033C00003D0236823F4807323600AF1FF3ABAF133
:1033D000010F00F213815E4500F2058101252846A8
:1033E00007B0BDE8F08FA3F161020D2AE6D801A174
:1033F00051F822F033350008BD330008BD33000812
:10340000BD330008933500086B350008BD33000854
:10341000BD33000841350008BD330008BD33000846
:10342000BD330008BD330008F9340008A3F14102A0
:10343000DBE70E29C2D801A050F821F0EB340008D8
:10344000BD330008EB3400087F350008BD330008A9
:1034500099340008D5340008D5340008D534000864
:10346000D5340008D5340008D5340008D534000818
:10347000D5340008D53400086E2B09D8602BB2D89B
:10348000542B77D0592B99D1072D97D1082529E0B6
:10349000742B6FD0792BF6E72168C8051AD5029BEB
:1034A00021F08001216009F101091BB1013B0132CA
:1034B0000293A260A368013BA360236901332361E7
:1034C0007B68013B002B7B6040F384803B680133C9
:1034D0003B6066E71AEB050F7FF470AF226822F4B9
:1034E000C072226006F8013BE4E7226810067FF50F
:1034F00065AF22F08002F4E7BAF1000F0ED1B9F106
:10350000000F0ED1226802F4E061B1F5E06F08D13E
:1035100022F4F06222604FF0010AE3E7BAF1020FF1
:1035200055D0012D02D0042D7FF448AF0135EDB206
:10353000D8E7BAF1010F7FF441AF4FF0020AD1E7AB
:103540007DB9B9F1000F7FF43CAF226802F4E0616D
:10355000B1F5E06F7FF439AF22F4F062226001250B
:10356000C0E7032DE2D0052DDEE7022D7FF426AF64
:103570000325B7E7062D7FF421AF0725B2E72268C0
:1035800091057FF51BAF22F420722260CDF80490E4
:10359000A8E7226802F4A061B1F5806F06D050055B
:1035A0007FF50CAFB9F1000F3FF40FAF910558BF95
:1035B000019922F4F06258BFA9EB010142F4C072F4
:1035C00058BFCDE9041622604FF000098AE74FF09A
:1035D000030A87E7D4F880313946404698470028E7
:1035E0003FF4DFAEEAE6D4F87C3116F8011D3A4626
:1035F000404698472369013B2361ECE66B1E062B8E
:1036000025D8022D36D85E457FF6E8AED4F87C3159
:1036100016F8011D3A46404698472369013B23614D
:10362000F1E70298D4F87C3110F8011D02903A4677
:10363000404698472369013B23610AF1FF3A5FFA4C
:103640008AFABAF1020FECD1033DEDB2761B236882
:10365000DA052FD55B0510D55E457FF6BFAED4F8F1
:103660007C3116F8011D3A46404698472369013BD4
:103670002361F1E7AA460296DFE716F8011C2369E9
:10368000652903F1FF3306F1FF3523610CD045298D
:103690000AD0D4F87C313A4640469847236916F858
:1036A000021C013BB51E2361D4F87C313A464046EA
:1036B00098472E46256815F0100559D135702368B6
:1036C00003F4C063B3F5806F1BD1019B4B45A3EBA3
:1036D000090223D100225946404600F037FF2268F4
:1036E000039B12F0020F57EC106B1B6821D003995B
:1036F0001A1D0A601B68C3E90067E3680133E360D1
:103700006DE6049B002BE5D005990A232A4601317A
:10371000404600F0A3FF049B059EC21A04F26F13FB
:103720009E4228BF04F5B7761249304600F0CAF829
:10373000D0E7039912F0040F03F104020A60D9D113
:10374000D3F8008010EE102A10EE100A3B463946DE
:10375000FDF7ECF928B1084800F0AEF888ED000A52
:10376000CBE730463946FDF73FFAC8F80000C4E71A
:10377000002534E675B001082BB001080FB40A4BE0
:1037800013B51C6824B1A36913B9204601F0CAFF20
:1037900005AB049AA16801932046FFF745F802B0F3
:1037A000BDE8104004B070470000002070B50E4620
:1037B000054618B183690BB901F0B4FFAB69AC6879
:1037C00013B9284601F0AEFF2C4B9C4220D16C6807
:1037D000636EDB0705D4A389980502D4A06D02F0BF
:1037E000B2FBA38919071DD52369DBB1013EA3688C
:1037F00016F8011F013BA36039BB002B38DA2246C3
:103800000A21284600F02CFF013011D00A2511E0D2
:103810001B4B9C4201D1AC68DAE71A4B9C4208BFB3
:10382000EC68D5E72146284600F06CFF0028DDD083
:103830004FF0FF35636EDA0705D4A3899B0502D4E8
:10384000A06D02F081FB284670BD002B04DAA2694E
:103850009A4206DC0A2904D023685A1C2260197097
:10386000C5E72246284600F0FBFE0130BFD1DFE766
:1038700023680A255A1C22601D70DBE784B2010808
:10388000A4B2010864B20108024B01461868FFF7B0
:103890008DBF00BF0000002038B5064D0023044650
:1038A00008462B6004F014F9431C02D12B6803B1C5
:1038B000236038BD000200209FED010A704700BF61
:1038C0000000C07F0EB400B59CB01DAB0290069006
:1038D0006FF00041094807910491094953F8042BFE
:1038E00005910068019302A903F03CF9029B0022B4
:1038F0001A701CB05DF804EB03B0704700000020A4
:103900000802FFFF70B504460D4645EC104B164605
:1039100002F038FF51EC100B7EB1C5F30A53C3F12E
:103920006B03002B09DD1B0503F17F55002405F512
:10393000401522462B46FCF75FFE70BD00000000DC
:103940002DE9F04F2DED028B9DB01F4600231893FB
:10395000A24B13921B680593044618468846FCF751
:1039600037FC4FF0000A05464FF0000BCDF85C80A5
:10397000179B1A782B2A4ED03BD80D2A34D8082A08
:1039800034D8002A3ED000230A93179E3378302B78
:1039900040F0B080737803F0DF03582B68D10A9BA6
:1039A000019318AB029700938D4A19AB17A92046D3
:1039B00001F0BCFF10F00707054605D0062F2CD1FB
:1039C0000136002317960A93139B002B40F0908535
:1039D0000A9BEBB152460BF1004343EC102B1DB098
:1039E000BDEC028BBDE8F08F202ACCD101331793B8
:1039F000BEE72D2AC7D101220A925A1C17925B7882
:103A0000002BC2D1139BCDF85C80002B40F06E855B
:103A100052465B46E1E70022EEE7189A3AB13521BB
:103A20001AA802F0BAFF1899204602F079FB013F6C
:103A3000042F06D8DFE807F00A0314170A00DDE9AF
:103A40001AAB2807C0D54BF0004BBDE7DDE91AA340
:103A5000199A23F4801302F2334243EA025BF0E73F
:103A6000DFF880B1EDE76FF0004B4FF0FF3AE8E789
:103A7000179B5A1C17925B78302BF9D0002BA3D0E0
:103A800001234FF000090493179B0893CDF81C9075
:103A90004F460A2217980678A6F13003D9B20929B1
:103AA0002AD905992A4603F0EEF998B30020324648
:103AB0003D4605900346652A01D0452A18D11DB917
:103AC000049A02439ED00025DDF85C8008F10102D3
:103AD000179298F801202B2A75D02D2A7BD04FF011
:103AE000000CA2F13001092940F28280CDF85C80FF
:103AF00000269DE00023C4E7082FD8BF079900F1F6
:103B00000100DABF02FB0133079302FB09390137D9
:103B10001790BFE7179B5A1917925A5D002F37D09D
:103B200005903D46A2F13003092B12D90123C2E7CB
:103B3000179B5A1C17925A780130302AF8D0A2F1FC
:103B40003103082B00F2D984179B059000200893BD
:103B50000546303A00F1010314D005991944059146
:103B60002B4600EB050E0A21734513D12B18082BA9
:103B700005F1010505441CDC07990A2303FB012319
:103B800007930023179A511C179152781846C9E7DA
:103B90003846D2E7082B04DC079E4E4307960133D4
:103BA000E2E703F1010CBCF1100FD8BF01FB09F9EA
:103BB000F5E7102DDCBF0A2303FB0929E1E7002309
:103BC000059301237CE74FF0000C08F102021792E5
:103BD00098F8022085E74FF0010CF6E72CB30108B6
:103BE0007CB001080000F07F179A511C17915278A1
:103BF000302AF9D0A2F1310108293FF679AFA2F1BC
:103C0000300E179A0692179A511C17915278A2F10A
:103C10003006092E37D9069E891B082944F61F66EF
:103C200002DC7645A8BF7646BCF1000F00D0764294
:103C3000002D4DD1049901437FF4C6AE002B7FF4D3
:103C4000E1AE692A27D024DC492A24D04E2A7FF409
:103C5000D9AE9F4917A802F0C1F800283FF4D2AEB0
:103C6000179B1B78282B2DD19A491AAA17A802F066
:103C7000C9F8052826D11B9BDDF868A043F0FF4B4F
:103C80004BF4E00BA0E60A2101FB0E2EAEF1300E44
:103C9000B9E76E2ADBE7904917A802F09FF80028E1
:103CA0003FF4B0AE179B8D49013B17A8179302F064
:103CB00095F810B9179B01331793DFF830B24FF026
:103CC000000A81E6864803F04FF85BEC10AB7BE618
:103CD000059B0798F31A002F08BF2F46102D069357
:103CE000A846A8BF4FF01008FCF70CFC092D82462F
:103CF0008B4613DD7B4B03EBC80353E91223FCF720
:103D00007BFC824648468B46FCF7FCFB02460B4692
:103D100050465946FCF7BAFA82468B460F2D38DCDE
:103D2000069B002B3FF450AE24DD162B0BDC6D49B7
:103D300001EBC301D1E9000152465B46FCF75CFC94
:103D400082468B4640E6069AC5F12503934220DB66
:103D5000644CC5F10F0504EBC50152465B46D1E941
:103D60000001FCF749FC069B5D1B04EBC504D4E98C
:103D70000023E3E7069B16330BDB059B9E1B594B89
:103D800003EBC606D6E9002350465946FCF75EFD14
:103D9000D6E7069BA5EB08089844B8F1000F74DD40
:103DA00018F00F030AD04F4901EBC30152465B469E
:103DB000D1E90001FCF720FC82468B4638F00F0861
:103DC0004FD0B8F59A7F22DD00252E460795059540
:103DD0002223DFF818B123604FF0000A079B002B65
:103DE0003FF4F2AD1899204602F09AF90599204661
:103DF00002F096F93146204602F092F907992046E2
:103E000002F08EF92946204602F08AF9DCE5364BAD
:103E1000049300234FEA2818504659469946B8F1B2
:103E2000010F21DC0BB182468B462F4BABF1547B4B
:103E300003EBC90952465B46D9E90001FCF7DCFBFC
:103E40002A4B0A460B402A498B428246BCD8A1F530
:103E500080118B4286BFDFF89CB04FF0FF3A02F131
:103E6000547B0023049384E018F0010F05D0049BD9
:103E7000D3E90023FCF7C0FB0123049A083209F1BF
:103E800001094FEA68080492C9E7EAD0C8F10008BE
:103E900018F00F020AD0134B03EBC20350465946E9
:103EA000D3E90023FCF7D2FC82468B465FEA281850
:103EB000D7D0B8F11F0F1FDD00252E4607950595B9
:103EC00022234FF0000A4FF0000B236086E700BF6B
:103ED0004EB0010890B0010846B00108D4B1010805
:103EE0002BB00108C8B30108A0B301080000F07F9F
:103EF0000000A07CFFFFEF7F18F0100318BF6A23BB
:103F0000DFF8AC93049350465946002318F0010F94
:103F100004D0D9E90023FCF76FFB01235FEA6808AE
:103F200009F10809F2D10BB182468B46049BC3B15B
:103F3000CBF30A52C2F16B03002B594611DD1F2B44
:103F400040F32481342BDEBFC2F14B024FF0FF332C
:103F500003FA02F24FF0000ACCBF4FF05C7B02EA9A
:103F6000010B0022002350465946FCF7ADFD002806
:103F7000A2D1079B009308992B463A46204602F0AF
:103F800037F9079000283FF41FAF059B9E1B069B47
:103F9000002BB4BF334600230C93069B002523EA75
:103FA000E37312932E46079B2046596802F078F877
:103FB000059000283FF40CAF079B1A69023203F109
:103FC0000C0192000C3002F037F84BEC10AB1AAA3F
:103FD00019A9204602F052FC4BEC18AB18900028AF
:103FE0003FF4F6AE0121204602F09CF90646002877
:103FF0003FF4EEAE199B0499002BABBF0C9A129ABA
:10400000129FDDF83090ACBF03EB0209D71A1A9A61
:10401000A3EB01089044A14B08F1FF389845C2F189
:10402000360280F2C780A3EB08031F2BA2EB03022A
:104030004FF0010100F3B18001FA03F30D93002367
:10404000089309EB0208049BC14517441F444B46E3
:10405000A8BF4346BB42A8BF3B46002BC2BFA8EB4C
:104060000308FF1AA9EB03090C9B002B17DD31464F
:104070001A46204602F016FA064600283FF4A8AE7B
:104080000146189A204602F063F90B9000283FF48D
:104090009FAE1899204602F043F80B9B1893B8F195
:1040A000000F00F38C80069B002B08DD129A059907
:1040B000204602F0F7F9059000283FF489AE002F62
:1040C00008DD05993A46204602F046FA0590002898
:1040D0003FF47EAEB9F1000F08DD31464A46204676
:1040E00002F03AFA064600283FF472AE059A189993
:1040F000204602F0BDFA054600283FF469AEC368C9
:104100000B930023C360314602F096FA002860DA70
:104110000B9B53EA0A0340F08280CBF31303002B7E
:104120007DD12BF000431B0D1B05B3F1D66F76D963
:104130006B6913B92B69012B71DD294601222046D9
:1041400002F00AFA3146054602F076FA002866DDEA
:104150000499534A5B46002900F0818002EA0B0172
:10416000B1F1D66F7BDCB1F15C7F7FF7A9AE4D4B2F
:10417000504659460022FCF73FFA0B46034308BF5E
:10418000222382468B4608BF23602BE64FF0FF3286
:1041900002FA03F303EA0A0AE3E6C8F17F4808F5E6
:1041A0007F0808F57B4808F1E20801FA08F3089354
:1041B0000D9146E70023089301230D9341E71899D9
:1041C0004246204602F0C8F9189000287FF46BAFF1
:1041D000FEE55F466ED10B9ACBF3130342B3324A2E
:1041E000934228D1049B5146EBB12D4B3B40B3F198
:1041F000D46F4FF0FF3219D81B0DC3F16B0302FAD5
:1042000003F3994217D1294B9F4202D101313FF468
:10421000DFAD234B3B4003F5801B4FF0000A049BAE
:10422000002BA4D1DEE54FF0FF33EAE71346E8E7C1
:1042300053EA0A038CD0089BDBB13B42EFD00B9BC7
:10424000049A50465946C3B1FFF75CFB02460B4641
:1042500051EC180BFCF71AF882468B46DFE7134047
:10426000A3F580136FEA135B6FEA0B5B4FF0FF3A25
:10427000D5E70D9B13EA0A0FE0E7FFF743FB024681
:104280000B4651EC180BFBF7FFFF00220023824680
:104290008B46FCF719FC0028C1D011E602FCFFFF99
:1042A0000000F07F00005039FFFF0F00FFFFEF7F9D
:1042B000A8B001083146284602F03CFB59EC108BAF
:1042C00010EE100A00224FF080434946FCF710FC24
:1042D00000287AD00B9B002B4AD0954B0022CDE9C9
:1042E0000823DFF84C924FF00008924B3B400D93AF
:1042F0000D9A914B9A4240F0B080DDE90801A7F198
:10430000547B4BEC10ABCDE9080102F03BFADDE940
:10431000080153EC102BFCF76FF952465B46FBF794
:10432000B5FF0B468349854A19409142824660D9C0
:1043300018EE903A02F15472934204D118EE103AFA
:1043400001333FF445ADDFF800B24FF0FF3A189962
:10435000204601F0E5FE0599204601F0E1FE3146D8
:10436000204601F0DDFE2946204601F0D9FE1AE67E
:10437000BAF1000F1BD1CBF31303F3B96C4B00223E
:1043800040464946FCF7AAFBD0B9404649466C4B2B
:104390000022FCF731F98046894609F10043CDF847
:1043A00050801593DDE91423CDE908239DE7BAF188
:1043B000010F02D1002F3FF483AD624B00228EE744
:1043C000DFF87C914FF00008E7E75D4B4046494637
:1043D0000022FCF711F90B9B8046894633B901F1A5
:1043E00000430E900F93DDE90E23DDE7CDE90E8942
:1043F000F9E703F1547B049B002BA8D12BF0004379
:104400000D9A1B0D1B059A42A1D140464946FCF767
:104410003BFCFCF7C3F802460B4640464946FBF717
:1044200033FF0B9ACBF3130343EA0A03134380468B
:10443000894655D036A3D3E90023FCF74FFB00286B
:104440007FF4D0AC34A3D3E9002340464946FCF7BF
:1044500063FB00283FF47BAFC4E4049B33B30D9BA4
:10446000B3F1D46F22D82EA3D3E9002340464946A6
:10447000FCF73EFBA0B149464046FCF795FB0128FE
:1044800038BF0120FCF73EF80B9B8046894623BBD2
:1044900001F1004310901193DDE91023CDE90823C9
:1044A000099B0D9A03F1D6639B1A0993DDE9080174
:1044B000B0EE480AF0EE680ACDE9080102F062F9B0
:1044C000DDE9080153EC102BFCF796F853EC182BA0
:1044D000FBF7DCFE82468B468DE7CDE91089DBE7F2
:1044E00011A3D3E90023FCF7F9FAB2E700230A93FA
:1044F000139A179B1360FFF76BBA652A3FF45FAB03
:10450000452A3FF45CAB0123FFF794BBAFF3008077
:104510009535A094FFFFDF3F35E5AF350000E03F64
:104520000000C0FFFFFFDF419535A094FFFFCF3FA4
:104530000000F03F0000F07F0000E07FFFFF9F7C65
:104540000000E03F0000F0BFFFFFEF7F014BFFF7EF
:10455000F7B900BF68000020012B2DE9F04701D01A
:10456000242B06D900F0BEFF162303600020BDE80F
:10457000F087DFF8E4C00D462E4615F8014B14F81D
:104580000C7017F00807F7D12D2C32D12C780127A9
:10459000B51C002B5BD0102B09D1302C07D12C7807
:1045A00004F0DF04582C4DD16C781023023507F14C
:1045B000004808F1FF384FF0000CB8FBF3F96646ED
:1045C00003FB198AA4F1300EBEF1090F16D8744608
:1045D000A34224DDBCF1000F1EDBB1451CD301D189
:1045E000A24519DB06FB03464FF0010C15F8014B01
:1045F000E8E72B2C04BF2C78B51CCAE7A4F1410EC8
:10460000BEF1190F01D8373CE2E7A4F1610EBEF10B
:10461000190F04D8573CDBE74FF0FF3CE6E7BCF14D
:10462000000F05DA22230360464642B930469EE772
:1046300007B17642002AF9D0BCF1000F00D0691E04
:104640001160F3E73024002BB1D10823AFE7302C01
:10465000A5D00A23ABE700BFD1B00108FFF77CBFAC
:10466000F8B50E461446054618B183690BB901F03A
:1046700059F8214B9C422BD16C68A369A360A38994
:104680001A072FD523696BB323692068C01A6369A1
:10469000F6B28342374604DC2146284600F0AEFFDE
:1046A00030BBA368013BA36023685A1C22601E70C4
:1046B00063690130834204D0A389DB0706D50A2E43
:1046C00004D12146284600F099FF88B93846F8BD44
:1046D0000A4B9C4201D1AC68CFE7094B9C4208BF12
:1046E000EC68CAE72146284600F00CF80028CBD039
:1046F0004FF0FF37EAE700BF84B20108A4B2010817
:1047000064B20108324B70B51D6806460C4625B1EF
:10471000AB6913B9284601F005F82E4B9C420FD126
:104720006C68A389B4F90C2019072CD4DD0611D4C8
:104730000923336042F04003A3814FF0FF303EE095
:10474000254B9C4201D1AC68EBE7244B9C4208BF4F
:10475000EC68E6E7580712D5616B41B104F14403F8
:10476000994202D03046FDF707FF00236363A38917
:1047700023F02403A3810023636023692360A389BA
:1047800043F00803A38123694BB9A38903F4207381
:10479000B3F5007F03D02146304601F0FBFBA08932
:1047A000B4F90C2010F001030AD00023A360636960
:1047B0005B42A361236943B910F08000BAD170BD98
:1047C000810758BF6369A360F4E70020F7E700BFE3
:1047D0000000002084B20108A4B2010864B20108FC
:1047E00008B5062002F0F0FA012003F07FF92DE968
:1047F000F74F03690C69A3420746C0F28180013C70
:1048000001F1140800F1140505EB8403019358F835
:10481000243055F8242001339A424FEA840B08EBE8
:104820008409B2FBF3F631D34FF0000E4046AC469C
:10483000F24650F8042B93B206FB03E34FEA134E03
:104840009BB2AAEB0303DCF800A0120C13FA8AF364
:1048500006FB02E20093009B4FEA124E92B2C2EBBB
:104860001A4202EB2342BDF80030814543EA02437D
:104870004CF8043B4FEA224ADBD255F80B302BB9F7
:10488000019B043B9D421A462ED33C61384601F001
:10489000D3FE002824DB013628464FF0000C58F8E0
:1048A000042BD0F800E093B2ACEB0303120C13FA24
:1048B0008EF3C2EB1E4202EB23429BB243EA024359
:1048C000C14540F8043B4FEA224CE8D255F8242079
:1048D00005EB840322B9043B9D421A460AD33C618E
:1048E000304603B0BDE8F08F1268043B002ACCD1FB
:1048F000013CC7E71268043B002AF0D1013CEBE71A
:104900000020EEE7000000002DE9F04F2DED048BB4
:1049100057EC106B93B0456ADDF88080069110EE7D
:1049200010AA044609920C93BB4675B91020FDF7F6
:1049300013FE0246606220B9A74BEA21A748FDF7A3
:10494000B7FDC0E901550560C560636A196851B1DA
:104950005A684A60012393408B60204601F0E0FBD7
:10496000636A00221A603B1EAABF002323F0004B9B
:10497000C8F800309A4BBCBF0122C8F8002033EAC7
:104980000B031BD10C9A42F20F731360CBF313038A
:10499000334300F09285219B63B9924B22E0924B06
:1049A00001930833219A1360019813B0BDEC048B76
:1049B000BDE8F08F8B4B01930333F3E70022002314
:1049C00050465946FCF780F84BEC19AB804658B17D
:1049D0000C9A01231360219B002B00F06B85834808
:1049E0001860431E0193DFE74BEC10AB10AA11A92E
:1049F000204601F043FFCBF30A5508EE100A002DC4
:104A000000F0848019EE903AC3F3130343F07F570C
:104A1000564647F44017A5F2FF35CDF83880744B61
:104A2000002230463946FBF72FFC65A3D3E900236B
:104A3000FBF7E2FD64A3D3E90023FBF727FC06465E
:104A400028460F46FBF76EFD61A3D3E90023FBF771
:104A5000D3FD02460B4630463946FBF717FC0646A7
:104A60000F46FCF779F800220090002330463946C3
:104A7000FCF734F850B10098FBF754FD32463B4642
:104A8000FCF722F810B9009B013B0093009B162B0A
:104A90005AD8009A574B03EBC203D3E9002351ECD9
:104AA000190BFCF71BF8002850D0009B013B00932A
:104AB00000230B93109B5D1B6B1E059345BFC5F137
:104AC00001030493002300234CBF05930493009B30
:104AD000002B3DDB059B009A0A92134405930023AB
:104AE0000793069B092B00F28980052BC4BF043B6A
:104AF0000693069BA3F10203CCBF00250125032BDF
:104B000000F28780DFE803F02D3A3859DDE91053D1
:104B10001D4405F23243202BC1BFC3F1400305F20F
:104B200012400BFA03F326FA00F0DABFC3F12003B8
:104B300006FA03F01843FBF7E5FC01230646A1F152
:104B4000F877013D0E936AE70123B2E70B90B1E7D6
:104B5000049B009A9B1A04935342079300230A93E1
:104B6000BFE700230893099B002B55DC0123CDE907
:104B700002331A4609920CE00123F3E70023099A55
:104B80000893009B134402930133012B0393B8BF96
:104B90000123606A00224260042202F114069E4250
:104BA00041683DD9204601F07BFA019000283BD1B5
:104BB000114B02464FF4D571C0E60123DFE700BF79
:104BC00061436F63A787D23FB3C8608B288AC63F13
:104BD000FB799F501344D33FDEB10108F5B10108C2
:104BE0000000F07FDAB10108D1B1010852B001082C
:104BF0000000F83FC8B3010850B2010801250023A6
:104C0000069308954FF0FF33CDE9023300221223BB
:104C1000B0E701230893F5E7099BCDE90233B8E734
:104C2000013141605200B8E7636A019A1A60039B40
:104C30000E2B00F29D80002D00F09A80009B002B2F
:104C400032DDB74A03F00F0302EBC303D3E9008957
:104C5000009BD8054FEA231716D5B24B51EC190B20
:104C6000D3E90823FBF7F2FD07F00F0782468B46D6
:104C70000325AC4E57B942464B4650465946FBF7C2
:104C8000E5FD82468B4628E00225F2E7F90708D5C4
:104C900040464946D6E90023FBF7AEFC0135804685
:104CA00089467F100836E5E700F09B80009B9D4F0A
:104CB0005E429B4B06F00F0203EBC203D3E90023D5
:104CC00051EC190BFBF798FC361182468B460023FA
:104CD0000225002E7AD1002BD3D10B9B002B00F0A4
:104CE0008280914B002250465946FBF7F7FE002880
:104CF00079D0039B002B76D0029B002B36DD009BE6
:104D0000504659465F1E0022884BFBF775FC029EF9
:104D100082468B4601352846FBF704FC52465B462B
:104D2000FBF76AFC824B0022FBF7B0FAD046D9466B
:104D30008246A1F1507B002E58D17E4B0022404686
:104D40004946FBF7A1FA52465B4680468946FBF787
:104D5000E3FE002840F0958252460BF100434046A6
:104D60004946FBF7BBFE002840F089825BEC19AB9B
:104D7000119B002BC0F24881009A0E2A00F3448157
:104D8000674B03EBC203D3E90089099B002B80F238
:104D9000D580039B002B00F3D18040F06F82654BE0
:104DA000002240464946FBF727FC52465B46FBF78C
:104DB000A9FE039E3746002840F04582019D31231D
:104DC00005F8013B009B0133009340E2F20705D553
:104DD000D7E90023FBF710FC0135012376100837D3
:104DE00077E7022579E7009F039E94E701994C4BF2
:104DF00031440D91089903EBC60353E902230029BE
:104E000043D04D490020FBF721FD52465B46FBF79E
:104E10003BFA019D82468B4649464046FBF79CFE85
:104E20000646FBF77FFB02460B4640464946FBF72A
:104E30002BFA303605F8016B52465B4680468946B0
:104E4000FBF74CFE002863D142464B463649002012
:104E5000FBF71AFA52465B46FBF740FE002840F08B
:104E6000B5800D9B9D4281D0304B00225046594663
:104E7000FBF7C2FB2D4B82468B464046494600223B
:104E8000FBF7BAFB80468946C6E750465946FBF712
:104E9000B3FB0D9B019D0F9382468B4649464046CE
:104EA000FBF75AFE0646FBF73DFB303602460B4643
:104EB00040464946FBF7E8F905F8016B0D9B9D421A
:104EC000804689464FF0000224D11B4B504659467C
:104ED000FBF7DCF902460B4640464946FBF71CFE51
:104EE000002873D152465B4613490020FBF7CCF9EA
:104EF00002460B4640464946FBF7F0FD00283FF4CA
:104F000035AF0F9D6B1E0F9315F8013C302BF8D079
:104F1000009749E0054BFBF76FFB80468946BDE7EC
:104F2000C8B30108A0B301080000F03F000024400E
:104F300000001C40000014400000E03F019D564668
:104F40005F4642464B4630463946FBF77FFCFBF74F
:104F500003FE8246FBF7E6FA42464B46FBF74CFB64
:104F600002460B46304639460AF13006FBF78CF90B
:104F700005F8016B019E039FAE1BB74202460B462C
:104F800035D1FBF783F942464B4606460F46FBF701
:104F9000C3FDD0B942464B4630463946FBF794FD37
:104FA00010B11AF0010F10D1204618EE101A01F0BE
:104FB000B7F8002300982B700C9B01301860219BE0
:104FC000002B3FF4F1AC1D60EEE4009F2B461D4624
:104FD00013F8012D392A06D1019A9A42F7D1019985
:104FE000302201370A701A7801321A7090E7A64B06
:104FF0000022FBF701FB0022002306460F46FBF7C9
:1050000063FD00289DD0CFE7089A002A00F0D780E2
:10501000069A012A00F3BA800E9A002A00F0B280A4
:1050200003F23343079E049D049A1A440492059A9E
:1050300001211A442046059201F074F90746002D1B
:105040000CDD059B002B09DDAB42049AA8BF2B4663
:10505000D21A0492059AED1AD31A0593079B1BB333
:10506000089B002B00F0AF80002E13DD394632463E
:10507000204601F017FA18EE102A0146074620468E
:1050800001F066F918EE101A8046204601F048F843
:1050900008EE108A079B9A1B06D018EE101A2046BD
:1050A00001F000FA08EE100A0121204601F03AF959
:1050B0000A9B002B064640F388801A46014620468C
:1050C00001F0F0F9069B012B064640F381804FF07A
:1050D0000008336906EB8303186901F0D3F8C0F1C7
:1050E0002000059B184410F01F0000F09280C0F1D2
:1050F0002003042B40F38A80C0F11C00049B03446E
:105100000493059B034405440593049B002B07DD92
:1051100018EE101A1A46204601F01EFA08EE100A80
:10512000059B002B05DD31461A46204601F014FA96
:1051300006460B9B002B6ED018EE100A314601F08C
:105140007BFA002867DA009B013B18EE101A0093E7
:105150000A220023204601F005F8089B08EE100AF9
:10516000002B00F0B181002339460A22204600F0CE
:10517000F9FF029B002B074600F38E80069B022B53
:1051800051DC89E0109BC3F136034BE7039B5E1EA5
:10519000079BB342BFBF079B0796F21A0A9BB6BF95
:1051A0009B189E1B0A93039BB8BF0026002BB7BF1A
:1051B000DDE90323DDE903359D1A002334E7079E6B
:1051C000049D089F3BE7079A67E7069B012B18DCC5
:1051D000BAF1000F15D1CBF3130393B92BF00043B1
:1051E0001B0D1B0583B1049B01330493059B013305
:1051F00005934FF001080A9B002B7FF46AAF012052
:105200006FE74FF00008F6E79846F4E73FF47DAF0C
:1052100018461C3072E7039B002B37DC069B022BE1
:1052200034DD039B0293029B6BB931460522204675
:1052300000F098FF0146064618EE100A01F0FCF94E
:1052400000283FF7BBAD099B019DDB4300934FF066
:1052500000083146204600F063FF002F3FF4A4AE63
:10526000B8F1000F05D0B84503D04146204600F004
:1052700057FF3946204600F053FF95E60026374693
:10528000E1E70097374699E500002440089B002B92
:1052900000F0CA80039B0293002D05DD39462A46A3
:1052A000204601F059F90746B8F1000F5BD0796844
:1052B000204600F0F5FE054628B9874B024640F22D
:1052C000EA21FFF73BBB3A690232920007F10C0179
:1052D0000C3000F0B1FE01222946204601F03CF9D5
:1052E000019B03F10109DDE90123134405930AF051
:1052F0000103B84604930746314618EE100AFFF73B
:1053000076FA4146029000F1300A18EE100A01F0D8
:1053100093F93A4603903146204601F0A9F9C26854
:1053200009F1FF3B054602BB014618EE100A01F0E9
:1053300083F9024629462046079200F0F1FEDDE996
:10534000063243EA0201049B0B434D460FD1BAF1EA
:10535000390F2AD0039B002B02DD029B03F1310A97
:105360008BF800A075E73846BAE70122E2E7039B15
:10537000002B04DB06990B4304990B4322D1002A2E
:10538000EEDD18EE101A0122204601F0E5F8314654
:1053900008EE100A01F050F9002803DCE0D11AF001
:1053A000010FDDD0BAF1390FD7D139238BF8003096
:1053B0002B461D46013B15F8012C392A71D00132CC
:1053C0001A7046E7002A07DDBAF1390FEDD00AF16D
:1053D00001038BF800303CE7059B09F801AC9945C7
:1053E00047D018EE101A00230A22204600F0BAFE19
:1053F000B84508EE100A4FF000034FF00A0241468C
:10540000204606D100F0AEFE8046074609F10109AC
:1054100072E700F0A7FE3946804600230A222046A4
:1054200000F0A0FE0746F1E7039B0293019D18EEF2
:10543000100A3146FFF7DBF900F1300A019B05F84D
:1054400001ABEA1A029B934209DD18EE101A002301
:105450000A22204600F086FE08EE100AE7E7029BCB
:10546000002BC8BF1D46019BD8BF01251D444FF02E
:10547000000818EE101A0122204601F06DF831469E
:1054800008EE100A01F0D8F8002891DC02D11AF0D9
:10549000010F8DD12B461D4613F8012D302AFAD06D
:1054A000D7E6019A9A4284D1009B013300933123BD
:1054B0001370CEE6094BFFF795BA219B002B7FF4C2
:1054C0006EAA074BFFF78EBA029B002BAEDC069B41
:1054D000022B3FF7A8AEA9E750B2010851B001086E
:1054E000D1B10108014B1868704700BF00000020CF
:1054F0008A892DE9F041054610070C4658D44B68BF
:10550000002B05DC0B6C002B02DC0020BDE8F081D9
:10551000E66A002EF9D0002312F480522F682B6027
:1055200032D0606DA3895A0705D56368C01A636BD2
:105530000BB1236CC01A00230246E66A216A284692
:10554000B047431CA38906D129681D292CD82A4AB3
:10555000CA40D60728D500226260D9042269226099
:1055600004D5421C01D12B6803B96065616B2F60C3
:105570000029CAD004F14403994202D02846FCF71E
:10558000FBFF00206063C1E7216A01232846B04782
:10559000411CC7D12B68002BC4D01D2B01D0162B6A
:1055A00001D12F60B1E7A38943F04003A381ADE7A8
:1055B0000F69002FA9D093070E6808BF4B690F60D1
:1055C00018BF0023A6EB07088B60B8F1000F9CDD25
:1055D000216AA66A43463A462846B047002806DCB8
:1055E000A38943F04003A3814FF0FF308EE70744C7
:1055F000A8EB0008E9E700BF0100402038B50B69BF
:1056000005460C4613B90025284638BD18B18369F4
:105610000BB900F087F8144B9C421BD16C68B4F9AD
:105620000C30002BEFD0626ED00704D4990502D461
:10563000A06D00F088FC28462146FFF759FF636EF5
:10564000DA070546E0D4A3899B05DDD4A06D00F000
:105650007BFCD9E7054B9C4201D1AC68DFE7044BEA
:105660009C4208BFEC68DAE784B20108A4B20108E2
:1056700064B20108002310B50446C0E90033C0E954
:105680000433836081814366C281836119460822A5
:105690005C30FCF769FF054B6362054BA362054B69
:1056A000E362054B2462236310BD00BF016E000856
:1056B000236E00085B6E00087F6E0008014900F051
:1056C000AFB800BFFD55000870B568224D1E5543A8
:1056D0000E4605F17401FDF709F8044640B10021BA
:1056E000C0E900160C30A06005F16802FCF73CFF31
:1056F000204670BD014800F026BC00BFFD0100201F
:10570000014800F021BC00BFFD010020014800F06D
:105710001ABC00BFFE010020014800F015BC00BF0C
:10572000FE01002010B50446FFF7F0FFA3691BB18E
:10573000BDE81040FFF7F0BFC4E912332365134BF7
:10574000134A1B68A262A34204BF0123A36120463F
:1057500000F020F86060204600F01CF8A0602046B1
:1057600000F018F80022E06004216068FFF782FF73
:10577000A06801220921FFF77DFFE06802221221C3
:10578000FFF778FF0123A361D2E700BF2CB0010827
:10579000BD560008F8B50746FFF7ACFF1E4B1E6864
:1057A000B36913B93046FFF7BDFF4836D6E9013477
:1057B000013B03D533680BB33668F7E7B4F90C50F7
:1057C000D5B9164BE36004F15800656600F0BAFBEA
:1057D000FFF796FFC4E90155C4E904552560A561AA
:1057E0000822294604F15C00FCF7BEFEC4E90D5511
:1057F000C4E912552046F8BD6834D9E7042138467B
:10580000FFF762FF044630600028D5D1FFF778FF2C
:105810000C233B60EEE700BF2CB001080100FFFF46
:105820002DE9F8430646884600F148040027D4E9EC
:105830000195B9F1010905D52468002CF7D1384646
:10584000BDE8F883AB89012B07D9B5F90E300133D8
:1058500003D029463046C04707436835E9E7036966
:10586000B3EB611F2DE9F0434FEA611200F114041C
:1058700045DD11F01F0104EB830604EB82050CD11A
:1058800000F110072946B14234D39B1A9B00EA1E4F
:10589000964238BF0023234415E054F82270C1F12A
:1058A0002008CF4005F1040EA1467645F44615D8F0
:1058B0009A1A9200043A0135AE4238BF0022A3186A
:1058C000A75007B104331A1BA3424FEAA20208BF34
:1058D0000023026108BF4361BDE8F083DCF800C02B
:1058E0000CFA08FC4CEA070749F8047B5EF8047BD5
:1058F000CF40DAE751F804CB47F804CFC3E723469B
:10590000E1E7A0F13003092B02D82038C0B270477C
:10591000A0F16103052B01D84738F7E7A0F1410357
:10592000052B01D82738F1E7002070472DE9F04F0B
:105930002DED028B89B008EE100A0493B44B1B685E
:10594000019318468B469046FAF742FC019BDBF820
:1059500000200344824613F8013C0593931CC2F1D6
:10596000FF2202F57F02FE32D1181F4613F8010B09
:1059700000913028F8D0FFF7C4FF044600283AD140
:1059800001995246384601F07EFA0546002868D152
:1059900017F80A0007EB0A06FFF7B3FF002862D0EA
:1059A0003346187830281F4603F10103F9D0FFF77A
:1059B000A8FF0123B0FA80F46409354600933A4603
:1059C000164601323078FFF79CFF0028F8D1019984
:1059D0005246304601F057FA80B94DB906EB0A0538
:1059E0002A46164601323078FFF78BFF0028F8D19F
:1059F000AD1BAD0004E000242546E0E7002DF7D103
:105A0000337803F0DF03502B3BD173782B2B2CD052
:105A10002D2B2ED0711C4FF000090878FFF771FF75
:105A2000431EDBB2182B2CD8A0F1100211F8010F85
:105A3000FFF767FF431EDBB2182B1DD9B9F1000F2A
:105A400000D052421544CBF80010E4B1009B002B6B
:105A500014BF00270627384609B0BDEC028BBDE80D
:105A6000F08F3E4625460124CAE74FF00009B11CDD
:105A7000D3E74FF00109FAE70A2303FB0202103AC9
:105A8000D4E73146DFE7F31B013B2146072B0BDC54
:105A900018EE100A00F004FB044640B95D4B0246C4
:105AA000DE215D48FCF704FD01315B10EEE700F1FB
:105AB00014094FF0000BCAF10103CDF80890CDF89E
:105AC00000B00693B74240D30298009B40F8043BD5
:105AD000A0EB0900801046012061184600F0D2FBBF
