:020000040800F2
:10000000000001209D140008ED140008ED14000804
:10001000ED140008ED140008ED14000800000000C5
:10002000000000000000000000000000ED140008C7
:10003000ED14000800000000ED140008A50F0008F2
:10004000ED140008ED140008ED140008ED1400088C
:10005000ED140008ED140008ED140008ED1400087C
:10006000ED140008ED140008ED140008ED1400086C
:10007000ED140008ED140008ED140008ED1400085C
:10008000CD0C0008290D0008ED140008ED1400083F
:10009000ED140008ED140008ED140008ED1400083C
:1000A000ED140008ED140008ED140008ED1400082C
:1000B000ED1400080000000000000000ED1400082E
:1000C000ED1400080000000000000000ED1400081E
:1000D00000000000ED140008ED140008000000000E
:1000E000ED140008ED1400080000000000000000FE
:1000F0000000000000000000000000000000000000
:10010000000000000000000000000000ED140008E6
:100110000000000000000000ED140008ED140008CD
:10012000ED140008ED140008ED140008ED140008AB
:10013000ED140008000000000000000000000000B6
:10014000ED140008ED140008ED140008ED1400088B
:10015000ED140008ED140008ED140008ED1400087B
:10016000ED140008ED140008ED1400080000000074
:10017000ED140008ED14000800000000000000006D
:0C018000ED140008ED140008ED14000858
:1001900010B5054C237833B9044B13B10448AFF3C1
:1001A00000800123237010BDD0010020000000005A
:1001B0003840000808B5034B1BB103490348AFF3AF
:1001C000008008BD00000000D40100203840000875
:1001D000034613F8012B002AFBD1181A0138704787
:1001E00001F0FF01102A2BDB10F0070F08D010F8E8
:1001F000013B013A8B422DD010F0070F42B3F6D1EC
:10020000F0B441EA012141EA014122F007047FF004
:1002100000070023F0E80256083C85EA010586EA5B
:10022000010685FA47F5A3FA87F586FA47F6A5FA97
:1002300087F68EB9EED1F0BC01F0FF0102F00702A3
:1002400032B110F8013B013A83EA010313B1F8D14E
:100250000020704701387047002D06BF354603382F
:10026000073815F0010F07D1013015F4807F02BF68
:10027000013015F4C03F0130F0BC0138704700BFB9
:1002800081F0004102E000BF83F0004330B54FEA47
:1002900041044FEA430594EA050F08BF90EA020FB4
:1002A0001FBF54EA000C55EA020C7FEA645C7FEA47
:1002B000655C00F0E2804FEA5454D4EB5555B8BF6A
:1002C0006D420CDD2C4480EA020281EA030382EADB
:1002D000000083EA010180EA020281EA0303362D6D
:1002E00088BF30BD11F0004F4FEA01314FF4801C40
:1002F0004CEA113102D0404261EB410113F0004F52
:100300004FEA03334CEA133302D0524263EB430308
:1003100094EA050F00F0A780A4F10104D5F1200EA6
:100320000DDB02FA0EFC22FA05F2801841F1000101
:1003300003FA0EF2801843FA05F359410EE0A5F1D5
:1003400020050EF1200E012A03FA0EFC28BF4CF006
:10035000020C43FA05F3C01851EBE37101F00045BC
:1003600007D54FF0000EDCF1000C7EEB00006EEBC9
:100370000101B1F5801F1BD3B1F5001F0CD3490853
:100380005FEA30004FEA3C0C04F101044FEA4452AA
:1003900012F5800F80F09A80BCF1004F08BF5FEA31
:1003A000500C50F1000041EB045141EA050130BD11
:1003B0005FEA4C0C404141EB0101013C28BFB1F523
:1003C000801FE9D291F0000F04BF01460020B1FA6E
:1003D00081F308BF2033A3F10B03B3F120020CDA41
:1003E0000C3208DD02F1140CC2F10C0201FA0CF01F
:1003F00021FA02F10CE002F11402D8BFC2F1200C84
:1004000001FA02F120FA0CFCDCBF41EA0C01904039
:10041000E41AA2BF01EB0451294330BD6FEA040482
:100420001F3C1CDA0C340EDC04F11404C4F120026D
:1004300020FA04F001FA02F340EA030021FA04F37F
:1004400045EA030130BDC4F10C04C4F1200220FAD6
:1004500002F001FA04F340EA0300294630BD21FA14
:1004600004F0294630BD94F0000F83F4801306BFDA
:1004700081F480110134013D4EE77FEA645C18BFCE
:100480007FEA655C29D094EA050F08BF90EA020F65
:1004900005D054EA000C04BF1946104630BD91EA5D
:1004A000030F1EBF0021002030BD5FEA545C05D160
:1004B0004000494128BF41F0004130BD14F580049F
:1004C0003CBF01F5801130BD01F0004545F0FE4113
:1004D00041F470014FF0000030BD7FEA645C1ABF48
:1004E000194610467FEA655C1CBF0B46024650EA7F
:1004F000013406BF52EA033591EA030F41F40021AB
:1005000030BD00BF90F0000F04BF0021704730B530
:100510004FF4806404F132044FF000054FF0000105
:1005200050E700BF90F0000F04BF0021704730B5C6
:100530004FF4806404F1320410F0004548BF40429B
:100540004FF000013EE700BF42004FEAE2014FEAF0
:1005500031014FEA02701FBF12F07F4393F07F4FCB
:1005600081F06051704732F07F4208BF704793F0CE
:100570007F4F04BF41F40021704730B54FF46074E1
:1005800001F0004521F000411CE700BF50EA0102E4
:1005900008BF704730B54FF000050AE050EA01028D
:1005A00008BF704730B511F0004502D5404261EBFD
:1005B00041014FF4806404F132045FEA915C3FF43E
:1005C000D8AE4FF003025FEADC0C18BF03325FEADB
:1005D000DC0C18BF033202EBDC02C2F1200300FA8C
:1005E00003FC20FA02F001FA03FE40EA0E0021FAB1
:1005F00002F11444BDE600BF70B54FF0FF0C4CF49F
:10060000E06C1CEA11541DBF1CEA135594EA0C0F50
:1006100095EA0C0F00F0DEF82C4481EA030621EA8B
:100620004C5123EA4C5350EA013518BF52EA0335C6
:1006300041F4801143F4801338D0A0FB02CE4FF078
:100640000005E1FB02E506F00042E0FB03E54FF0A8
:100650000006E1FB03569CF0000F18BF4EF0010EA0
:10066000A4F1FF04B6F5007F64F5407404D25FEA9C
:100670004E0E6D4146EB060642EAC62141EA55514F
:100680004FEAC52040EA5E504FEACE2EB4F1FD0C91
:1006900088BFBCF5E06F1ED8BEF1004F08BF5FEA0F
:1006A000500E50F1000041EB045170BD06F00046C1
:1006B00046EA010140EA020081EA0301B4EB5C046E
:1006C000C2BFD4EB0C0541EA045170BD41F4801166
:1006D0004FF0000E013C00F3AB8014F1360FDEBF8B
:1006E000002001F0004170BDC4F10004203C35DA67
:1006F0000C341BDC04F11404C4F1200500FA05F3EA
:1007000020FA04F001FA05F240EA020001F000428A
:1007100021F0004110EBD37021FA04F642EB060100
:100720005EEA430E08BF20EAD37070BDC4F10C042A
:10073000C4F1200500FA04F320FA05F001FA04F2EE
:1007400040EA020001F0004110EBD37041F10001DA
:100750005EEA430E08BF20EAD37070BDC4F12005E5
:1007600000FA05F24EEA020E20FA04F301FA05F24D
:1007700043EA020321FA04F001F0004121FA04F2F5
:1007800020EA020000EBD3705EEA430E08BF20EAC5
:10079000D37070BD94F0000F0FD101F000464000FF
:1007A00041EB010111F4801F08BF013CF7D041EA81
:1007B000060195F0000F18BF704703F00046520085
:1007C00043EB030313F4801F08BF013DF7D043EA56
:1007D0000603704794EA0C0F0CEA135518BF95EA0C
:1007E0000C0F0CD050EA410618BF52EA4306D1D193
:1007F00081EA030101F000414FF0000070BD50EAB2
:10080000410606BF1046194652EA430619D094EA3B
:100810000C0F02D150EA013613D195EA0C0F05D125
:1008200052EA03361CBF104619460AD181EA030179
:1008300001F0004141F0FE4141F470014FF0000031
:1008400070BD41F0FE4141F4780170BD70B54FF0CC
:10085000FF0C4CF4E06C1CEA11541DBF1CEA13554C
:1008600094EA0C0F95EA0C0F00F0A7F8A4EB05042E
:1008700081EA030E52EA03354FEA013100F0888025
:100880004FEA03334FF0805545EA131343EA1263EE
:100890004FEA022245EA111545EA10654FEA0026A3
:1008A0000EF000419D4208BF964244F1FD0404F55C
:1008B000407402D25B084FEA3202B61A65EB0305B8
:1008C0005B084FEA32024FF480104FF4002CB6EB75
:1008D000020E75EB030E22BFB61A754640EA0C00F5
:1008E0005B084FEA3202B6EB020E75EB030E22BF35
:1008F000B61A754640EA5C005B084FEA3202B6EB76
:10090000020E75EB030E22BFB61A754640EA9C0034
:100910005B084FEA3202B6EB020E75EB030E22BF04
:10092000B61A754640EADC0055EA060E18D04FEAC2
:10093000051545EA16754FEA06164FEAC30343EA62
:1009400052734FEAC2025FEA1C1CC0D111F4801F2F
:100950000BD141EA00014FF000004FF0004CB6E728
:1009600011F4801F04BF01430020B4F1FD0C88BFC7
:10097000BCF5E06F3FF6AFAEB5EB030C04BFB6EBD2
:10098000020C5FEA500C50F1000041EB045170BDC5
:100990000EF0004E4EEA113114EB5C04C2BFD4EBF2
:1009A0000C0541EA045170BD41F480114FF0000E76
:1009B000013C90E645EA060E8DE60CEA135594EAF2
:1009C0000C0F08BF95EA0C0F3FF43BAF94EA0C0FF5
:1009D0000AD150EA01347FF434AF95EA0C0F7FF46A
:1009E00025AF104619462CE795EA0C0F06D152EABE
:1009F00003353FF4FDAE1046194622E750EA4106A2
:100A000018BF52EA43067FF4C5AE50EA41047FF4B2
:100A10000DAF52EA43057FF4EBAE12E74FF0FF3C17
:100A200006E000BF4FF0010C02E000BF4FF0010CE8
:100A30004DF804CD4FEA410C7FEA6C5C4FEA430C61
:100A400018BF7FEA6C5C1BD001B050EA410C0CBFB0
:100A500052EA430C91EA030F02BF90EA020F002012
:100A6000704710F1000F91EA030F58BF994208BF79
:100A700090422CBFD8176FEAE37040F00100704736
:100A80004FEA410C7FEA6C5C02D150EA013C07D18D
:100A90004FEA430C7FEA6C5CD6D152EA033CD3D0D8
:100AA0005DF8040B704700BF8446104662468C46D2
:100AB0001946634600E000BF01B5FFF7B7FF002805
:100AC00048BF10F1000F01BD4DF808EDFFF7F4FF2E
:100AD0000CBF012000205DF808FB00BF4DF808EDB9
:100AE000FFF7EAFF34BF012000205DF808FB00BFDC
:100AF0004DF808EDFFF7E0FF94BF012000205DF8FE
:100B000008FB00BF4DF808EDFFF7CEFF94BF0120B2
:100B100000205DF808FB00BF4DF808EDFFF7C4FFAB
:100B200034BF012000205DF808FB00BF4FEA410CF4
:100B30007FEA6C5C02D150EA013C0AD14FEA430CD7
:100B40007FEA6C5C02D152EA033C02D14FF0000014
:100B500070474FF0010070474FEA410212F5001252
:100B600015D211D56FF47873B3EB625212D94FEAF4
:100B7000C12343F0004343EA505311F0004F23FADE
:100B800002F018BF404270474FF00000704750EA33
:100B9000013005D111F0004008BF6FF000407047F0
:100BA0004FF00000704700BF80B483B000AF034631
:100BB000FB7197F90730002B0CDBFB7903F01F0268
:100BC000074997F907305B09012000FA02F2603308
:100BD00041F8232000BF0C37BD465DF8047B704709
:100BE00000E100E02DE9B04382B000AF00F0B0F9C1
:100BF0004FF4FA6000F050F900F04AFA2D4800F086
:100C0000A9FA00F047FB0A23013B7B600A23DBB211
:100C10000022984691464FF000024FF000034FEA41
:100C2000C90343EA58734FEAC8020A23DBB2002221
:100C30001C4615464FF000024FF00003EB0043EA5C
:100C40005473E2000A230733DB08DB00ADEB030D2E
:100C50006B4600333B600A231946174801F0DEF863
:100C60000A231946386800F0EFFB144B1B78DBB2FF
:100C7000002B13D0114B00221A700A231946386832
:100C800000F0C0FB00BF0E4B1B78DBB283F001030A
:100C9000DBB2002BF7D10A4B00221A70094B5B68BC
:100CA0001946094801F0BAF84FF47A7000F03AF9A1
:100CB000DBE700BF0024F40050400008EC010020F6
:100CC000ED0100206C0002407440000880B500AFC8
:100CD0001020FFF769FF114B1B6803F40013002B72
:100CE0000ED00F4B1B680E4A23F0010313600B4B11
:100CF0005B680A4A43F4001353600A4B01221A70DE
:100D0000064B1B6803F40003002B05D0034B5B6804
:100D1000024A43F48013536000BF80BD00000240CC
:100D20006C000240EC01002080B500AF1120FFF7FD
:100D30003BFF114B1B6803F00073002B0ED00F4BD1
:100D40001B680E4A23F0010313600B4B5B680A4AD1
:100D500043F0007353600A4B01221A70064B1B6864
:100D600003F00063002B05D0034B5B68024A43F09D
:100D70008073536000BF80BD0000024080000240CD
:100D8000ED01002080B584B000AF78607B68DBB2F5
:100D90003B7307F10C0364220121184600F036FA78
:100DA0007B6818461037BD4680BD80B586B000AF61
:100DB000F860B9607A6000237B6109E0BB685A1C67
:100DC000BA601B781846FFF7DDFF7B6901337B6152
:100DD0007A697B689A42F1DB7B6818461837BD4612
:100DE00080BD000080B400AF064BD3F88830054AC0
:100DF00043F47003C2F8883000BFBD465DF8047B41
:100E0000704700BF00ED00E080B483B000AF034640
:100E1000FB7197F90730002B0CDBFB7903F01F0205
:100E2000074997F907305B09012000FA02F26033A5
:100E300041F8232000BF0C37BD465DF8047B7047A6
:100E400000E100E080B483B000AF03463960FB717D
:100E500097F90730002B0ADB3B68DAB20C4997F9A7
:100E600007301201D2B20B4483F800230AE03B683A
:100E7000DAB20849FB7903F00F03043B1201D2B246
:100E80000B441A7600BF0C37BD465DF8047B7047F3
:100E900000E100E000ED00E080B582B000AF7860D6
:100EA000124B00221A60114A7B68013B53600F21EC
:100EB0004FF0FF30FFF7C6FF0C4B00229A600B4B40
:100EC0001B680A4A23F004031360084B1B68074A97
:100ED00043F002031360054B1B68044A43F001030F
:100EE000136000BF0837BD4680BD00BF10E000E0C2
:100EF00080B400AF044B1B680133034A136000BF8A
:100F0000BD465DF8047B7047F001002080B400AF5F
:100F1000034B1B681846BD465DF8047B704700BF55
:100F2000F001002080B584B000AF7860FFF7EEFFDD
:100F3000F86000BFFFF7EAFF0246FB68D31A7A6841
:100F40009A42F7D800BF00BF1037BD4680BD0000F1
:100F500080B400AF124B1B68114A43F480731360D6
:100F600000BF0F4B1B6803F48063002BF9D00C4BC0
:100F70009B680B4A23F003039360094B9B68084A64
:100F800043F00103936000BF054B9B6803F00C0323
:100F9000042BF9D100BF00BFBD465DF8047B70474C
:100FA0000010024080B500AF4FF0FF30FFF72CFF7C
:100FB000FFF79EFF00BF80BD80B485B000AF7860B2
:100FC0007B6803F00703FB600C4BDB68BB60BA680F
:100FD0004FF6FF031340BB60FB681A02BB68134364
:100FE00043F0BF6343F40033BB60044ABB68D36083
:100FF00000BF1437BD465DF8047B704700ED00E08C
:1010000080B483B000AF0346FB7197F90730002B23
:101010000BDBFB7903F01F02074997F907305B09E7
:10102000012000FA02F241F8232000BF0C37BD4630
:101030005DF8047B704700BF00E100E080B483B03E
:1010400000AF03463960FB7197F90730002B0ADBCC
:101050003B68DAB20C4997F907301201D2B20B445F
:1010600083F800230AE03B68DAB20849FB7903F011
:101070000F03043B1201D2B20B441A7600BF0C37A7
:10108000BD465DF8047B704700E100E000ED00E044
:1010900080B400AF2E4BDB6C2D4A43F00103D364C8
:1010A0004FF090431B684FF0904223F0404323F0F1
:1010B000300313604FF090431B684FF0904243F0B1
:1010C000004343F0200313604FF090435B684FF000
:1010D000904223F4004323F0040353604FF0904305
:1010E0009B684FF0904223F0404323F0300393601D
:1010F0004FF090439B684FF0904243F0004343F021
:10110000200393604FF090431B6A4FF0904223F40A
:10111000706313624FF090431B6A4FF0904243F4A8
:10112000E06313624FF090435B6A4FF0904223F00C
:10113000704353624FF090435B6A4FF0904243F02C
:101140004053536200BFBD465DF8047B704700BF4B
:101150000010024080B582B000AF7860284B9B6DD4
:10116000274A43F400339365264B1B68254A23F036
:1011700080531360234A7B682349A1FB03139B0A16
:10118000D360204B1B681F4A23F4806313601D4B00
:101190005B681C4A23F4405353601A4B9B68194AFE
:1011A00023F400739360174B9B68164A23F48073F3
:1011B0009360144B5B68134A23F490435360114BC4
:1011C0009B68104A23F02A0393600E4B1B680D4A5C
:1011D00043F00D0313600B4B1B680A4A43F02003D6
:1011E00013600020FFF7E8FE01212620FFF726FF0D
:1011F0002620FFF705FF00BF0837BD4680BD00BFB2
:101200000010024000440040B5814E1B80B586B0FE
:1012100000AFF8600B467A60FB720023FB75FFF7A6
:1012200075FE38611AE01A4BDB6903F08003002B6E
:101230000AD0FB7DFA6813441A78154B92B21A85CE
:10124000FB7D0133FB7509E0FFF760FE02463B6959
:10125000D31A7A689A4201D8002315E0FA7DFB7A06
:101260009A42E0D309E0FFF751FE02463B69D31AE8
:101270007A689A4201D8002306E0054BDB6903F047
:101280004003002BEFD1012318461837BD4680BD1F
:101290000044004080B500AF524B9B68514A43F078
:1012A000C0039360504B9B6C4F4A43F0010393641F
:1012B0004E4B5B684D4A43F0807353604C4B1B6848
:1012C0004B4A23F070631360494B1B68484A43F054
:1012D00000731360474B484A9A60464B1B68454A67
:1012E00023F020031360434B1B68424A43F0800302
:1012F0001360404B1B683F4A23F0400313603D4B93
:101300001B683C4A23F4406313603A4B1B68394A1C
:1013100023F440731360374B1B68364A43F01003C5
:101320001360344B1B68334A23F001031360314BC5
:101330001B68304A43F0020313602C4B5B682B4A56
:1013400043F4801353602A4B1B68294A23F470032B
:101350001360274B1B68264A43F400131360274B86
:10136000274A9A60254B1B68244A23F02003136008
:10137000224B1B68214A43F0800313601F4B1B68FC
:101380001E4A23F0400313601C4B1B681B4A23F4C6
:1013900040631360194B1B68184A23F440731360B1
:1013A000164B1B68154A23F010031360134B1B6880
:1013B000124A23F001031360104B1B680F4A43F0DD
:1013C0000203136006211120FFF738FE1120FFF7FA
:1013D00017FE05211020FFF731FE1020FFF710FE49
:1013E00000BF80BD004400400010024000000240E9
:1013F000A800024080000240284400406C000240E7
:101400002444004080B483B000AF78600B46FB708A
:101410000B4B5B680A4A43F080735360094A7B6850
:10142000D360084AFB785360064B1B68054A43F0BB
:101430000103136000BF0C37BD465DF8047B7047A5
:10144000000002408000024080B483B000AF7860AA
:101450000B46FB700E4B1B6A0D4A43F008031362E8
:101460000C4B5B680B4A43F4801353600A4A7B6859
:10147000D360094AFB785360074B1B68064A43F068
:101480000103136000BF0C37BD465DF8047B704755
:1014900000440040000002406C000240DFF834D0FD
:1014A000FFF7A0FC0C480D490D4A002302E0D45878
:1014B000C4500433C4188C42F9D30A4A0A4C00239E
:1014C00001E013600432A242FBD300F011F8FFF7F1
:1014D00089FBFEE70000012000000020D001002071
:1014E00074440008D001002008020020FEE700003C
:1014F00070B50D4D0D4C641BA4100026A64209D1F9
:101500000B4D0C4C02F098FD641BA4100026A64263
:1015100005D170BD55F8043B98470136EEE755F804
:10152000043B98470136F2E76C4400086C4400081D
:101530006C4400087044000802440346934200D102
:10154000704703F8011BF9E72DE9FF4755EC104BF5
:10155000002D0E4619462B46BBBF05F100431D4624
:1015600000232D230B700D9BDDF830A0914623F056
:101570002008BCBF22461446B8F1460F05D0B8F18A
:10158000450F00D10136022100E0032103AB019396
:1015900002AB009345EC104B5346324600F0E4FC9E
:1015A000B8F1470F074602D119F0010F22D0B8F168
:1015B000460F07EB060910D13B78302B0AD10022E9
:1015C000002320462946FFF77FFA18B9C6F1010625
:1015D000CAF80060DAF8003099440022002320465F
:1015E0002946FFF771FA08B1CDF80C903022039B21
:1015F0004B4507D3039B0E9ADB1B3846136004B0A0
:10160000BDE8F087591C03911A70F0E7F7B503465F
:101610000029B8BF494203F8022BB4BF2D222B2268
:10162000092942702ADD0DF10704A4460A27A646BF
:101630000A4691FBF7F607FB16153035632A04F1CD
:10164000FF340EF8015C3146F1DC3031AEF10205B9
:1016500004F8011C441C294661450AD30DF1090216
:10166000A2EB0E02654588BF00221344181A03B08E
:10167000F0BD11F8012B04F8012FEDE730233031D4
:101680008370C170031DF1E72DE9F04F2DED028B42
:101690008DB00C46DDF8608016461F46054601F009
:1016A00047FBD0F800A05046FEF792FD00230A93B6
:1016B00023680593D8F8003094F818B0073323F066
:1016C000070303F10802C8F80020D3E90023C4E9A6
:1016D0001223D4E9128929F000430793CDF818802A
:1016E00008EE100A9F4BDDE906014FF0FF32FFF7CD
:1016F0001DFA88BBDDE906019A4B4FF0FF32FFF778
:10170000F7F948BB0022002340464946FFF7E6F9B7
:1017100010B12D2384F84330934B9448BBF1470F0D
:1017200094BF9846804603232361059B23F004025F
:1017300022604FF00009009733460BAA2146284645
:1017400000F0D8F9013040F090804FF0FF300DB03C
:10175000BDEC028BBDE8F08F42464B464046494601
:10176000FFF7E4F940B14B46002BBCBF2D2384F8B2
:1017700043307F487F4BD1E763680BF0DF0206926E
:101780005A1C3FD106236360059B616843F4806265
:10179000002303930AABCDE901B309AB49EC108BED
:1017A000009322600DF123032846FFF7CDFE069B30
:1017B0000999472B804608D1C81C02DB636899420F
:1017C00041DDABF1020B5FFA8BFBBBF1650F20D85B
:1017D00001395A4604F150000991FFF717FF0A9AA0
:1017E0001318012A8146236102DC2268D20701D541
:1017F000013323619DF82330002B9CD02D2384F8E6
:10180000433098E7069A472ABED1002BBCD101236A
:10181000B9E7BBF1660F18D1002963680BDD2161C0
:1018200013B92268D00702D501330B442361A165A7
:101830004FF00009DEE713B92268D20701D5023361
:10184000F4E70123F2E74FF0670B0A9B994205DBAF
:1018500023682161D807EAD54B1CE7E70029D4BFEC
:10186000C1F1020201221344E0E723685A0507D4BC
:101870002369424631462846B84701302CD164E7F7
:10188000BBF1650F40F2E080D4E912010022002391
:10189000FFF71AF9002834D0374A01233146284689
:1018A000B84701303FF451AFDDE909239A4202DB2A
:1018B0002368D80710D518EE103A5246314628460C
:1018C000B84701303FF441AF4FF0000804F11A0966
:1018D0000A9B013B434509DC23689B0700F1058116
:1018E000E0680B9B9842B8BF184630E701234A4690
:1018F00031462846B84701303FF427AF08F10108C8
:10190000E6E7099B002B39DC1B4A012331462846B8
:10191000B84701303FF419AFDDE90923134302D181
:101920002368D907D8D518EE103A524631462846D2
:10193000B84701303FF409AF4FF0000904F11A0A2B
:10194000099B5B424B4501DC0A9B92E7012352460F
:1019500031462846B84701303FF4F7AE09F1010996
:10196000EEE700BFFFFFEF7F9440000898400008BB
:10197000A04000089C400008A44000080A9AA36DFB
:101980009A42A8BF1A46002A914637DC4FF0000B56
:1019900029EAE97904F11A02A36D0593A3EB09037F
:1019A0005B4533DCDDE909239A423BDB2368DA0738
:1019B00038D40A9B059A09999A1AA3EB0109914513
:1019C000A8BF9146B9F1000F35DC4FF0000829EAB5
:1019D000E97904F11A0ADDE909239B1AA3EB09034B
:1019E00043457FF779AF0123524631462846B84731
:1019F00001303FF4AAAE08F10108ECE71346314686
:101A000042462846B8470130C0D19EE60123314600
:101A100028460592B84701303FF497AE059A0BF17E
:101A2000010BB9E718EE103A524631462846B8473E
:101A30000130BED189E6059A4B46424431462846DC
:101A4000B8470130C1D180E60A9A012A01DCDB07E0
:101A500038D50123424631462846B84701303FF485
:101A600074AE18EE103A524631462846B847013057
:101A70003FF46BAED4E9120100220023FFF724F8F3
:101A8000D8B90A9B08F10102013B31462846B84704
:101A900001300ED159E60123524631462846B84757
:101AA00001303FF452AE08F101080A9B013B434567
:101AB000F1DC4B4604F15002DCE64FF0000804F183
:101AC0001A0AF2E701234246DFE701234A4631467C
:101AD0002846B84701303FF438AE08F10108E36802
:101AE0000B995B1A4345F0DCFAE64FF0000804F16D
:101AF0001909F4E72DE9F047164699468A680B69FB
:101B0000DDF820809342B8BF1346336091F843203C
:101B100007460C460AB1013333602368990642BF79
:101B2000336802333360256815F0060506D104F1E9
:101B3000190AE36832689B1AAB4226DC94F843200A
:101B4000131E226818BF012392062BD404F143020E
:101B500049463846C04701301ED02368E5683268E0
:101B600003F00603042B08BFAD1AA36822690CBF5B
:101B700025EAE57500259342C4BF9B1AED1800269F
:101B80001A34B5421AD1002008E0012352464946D2
:101B90003846C047013003D14FF0FF30BDE8F08731
:101BA0000135C6E7E1185A1C302081F84300224471
:101BB00094F8451082F843100233C7E70123224608
:101BC00049463846C0470130E6D00136D9E7000023
:101BD0002DE9FF470F7E0C9D782F914680460C46DD
:101BE0009A4601F1430207D8622F0AD8002F00F06D
:101BF000D880582F00F0A38004F1420584F8427089
:101C00003AE0A7F16303152BF6D801A151F823F0B0
:101C1000691C00087D1C0008F91B0008F91B00085E
:101C2000F91B0008F91B00087D1C0008F91B0008BF
:101C3000F91B0008F91B0008F91B0008891D0008A2
:101C4000AD1C00086B1D0008F91B0008F91B0008FB
:101C5000AB1D0008F91B0008AD1C0008F91B0008AB
:101C6000F91B0008731D00082B681A1D1B682A60E9
:101C700004F1420584F842300123A3E0206829687A
:101C8000060601F104030AD50E682B60002E03DA64
:101C90002D23764284F843305E480A2319E00E680B
:101CA0002B6010F0400F18BF36B2EFE72B682068AA
:101CB000191D2960010601D51E6802E04606FBD504
:101CC0001E8854486F2F0CBF08230A23002184F874
:101CD00043106568A560002DA2BF216821F00401B2
:101CE00021600EB9002D4DD01546B6FBF3F103FB74
:101CF0001167C75D05F8017D3746BB420E46F4D932
:101D0000082B0BD12368DE0708D523696168994247
:101D1000DEBF302305F8013C05F1FF35521B22617F
:101D2000CDF800A04B4603AA21464046FFF7E2FE4D
:101D300001304CD14FF0FF3004B0BDE8F08735489A
:101D400081F845702968236851F8046B29601D06E5
:101D500014D5DF0744BF43F0200323601EB9236876
:101D600023F0200323601023B0E7236843F020030F
:101D700023607823284884F84530E3E7590648BFB4
:101D8000B6B2E6E71546BBE72B6826686169181D01
:101D9000286035061B6801D5196002E07006FBD586
:101DA0001980002323611546BAE72B681A1D2A60A3
:101DB0001D68626800212846FEF712FA08B1401B30
:101DC000606063682361002384F84330A8E72369D7
:101DD0002A4649464046D0470130ABD023689B078E
:101DE00013D4E068039B9842B8BF1846A4E70123C8
:101DF000324649464046D04701309BD00135E36822
:101E000003995B1AAB42F2DCEBE7002504F11906FB
:101E1000F5E700BFA6400008B74000080FB40A4B22
:101E200013B51C6824B1A36913B9204600F0E2FE83
:101E300005AB049AA1680193204601F03BFC02B077
:101E4000BDE8104004B07047000000202DE9F74FB6
:101E500003690C69A3420746C0F28180013C01F18D
:101E6000140800F1140505EB8403019358F824309D
:101E700055F8242001339A424FEA840B08EB840979
:101E8000B2FBF3F631D34FF0000E4046AC46F246BB
:101E900050F8042B93B206FB03E34FEA134E9BB2B8
:101EA000AAEB0303DCF800A0120C13FA8AF306FB7A
:101EB00002E20093009B4FEA124E92B2C2EB1A422A
:101EC00002EB2342BDF80030814543EA02434CF85F
:101ED000043B4FEA224ADBD255F80B302BB9019B69
:101EE000043B9D421A462ED33C61384601F0C0F9AE
:101EF000002824DB013628464FF0000C58F8042B4C
:101F0000D0F800E093B2ACEB0303120C13FA8EF39B
:101F1000C2EB1E4202EB23429BB243EA0243C1459D
:101F200040F8043B4FEA224CE8D255F8242005EB58
:101F3000840322B9043B9D421A460AD33C613046D1
:101F400003B0BDE8F08F1268043B002ACCD1013CFD
:101F5000C7E71268043B002AF0D1013CEBE7002000
:101F6000EEE70000000000002DE9F04F2DED048B9E
:101F700057EC106B93B0456ADDF88080069110EE47
:101F800010AA044609920C93BB4675B9102000F0C4
:101F9000D7FE0246606220B9A74BEA21A74801F0AC
:101FA000DFFDC0E901550560C560636A196851B17C
:101FB0005A684A60012393408B60204600F016FF68
:101FC000636A00221A603B1EAABF002323F0004B65
:101FD000C8F800309A4BBCBF0122C8F8002033EA91
:101FE0000B031BD10C9A42F20F731360CBF3130354
:101FF000334300F09285219B63B9924B22E0924BD0
:1020000001930833219A1360019813B0BDEC048B3F
:10201000BDE8F08F8B4B01930333F3E700220023DD
:1020200050465946FEF750FD4BEC19AB804658B16F
:102030000C9A01231360219B002B00F06B858348D1
:102040001860431E0193DFE74BEC10AB10AA11A9F7
:10205000204601F0B3F9CBF30A5508EE100A002D23
:1020600000F0848019EE903AC3F3130343F07F57D6
:10207000564647F44017A5F2FF35CDF83880744B2B
:10208000002230463946FEF7FFF865A3D3E9002366
:10209000FEF7B2FA64A3D3E90023FEF7F7F8064689
:1020A00028460F46FEF73EFA61A3D3E90023FEF768
:1020B000A3FA02460B4630463946FEF7E7F80646D5
:1020C0000F46FEF749FD00220090002330463946B6
:1020D000FEF704FD50B10098FEF724FA32463B4665
:1020E000FEF7F2FC10B9009B013B0093009B162BFE
:1020F0005AD8009A574B03EBC203D3E9002351ECA3
:10210000190BFEF7EBFC002850D0009B013B00931D
:1021100000230B93109B5D1B6B1E059345BFC5F100
:1021200001030493002300234CBF05930493009BF9
:10213000002B3DDB059B009A0A9213440593002374
:102140000793069B092B00F28980052BC4BF043B33
:102150000693069BA3F10203CCBF00250125032BA8
:1021600000F28780DFE803F02D3A3859DDE910539B
:102170001D4405F23243202BC1BFC3F1400305F2D9
:1021800012400BFA03F326FA00F0DABFC3F1200382
:1021900006FA03F01843FEF7B5F901230646A1F14C
:1021A000F877013D0E936AE70123B2E70B90B1E7A0
:1021B000049B009A9B1A04935342079300230A93AB
:1021C000BFE700230893099B002B55DC0123CDE9D1
:1021D00002331A4609920CE00123F3E70023099A1F
:1021E0000893009B134402930133012B0393B8BF60
:1021F0000123606A00224260042202F114069E421A
:1022000041683DD9204600F0B1FD019000283BD146
:10221000114B02464FF4D571C0E60123DFE700BF42
:1022200061436F63A787D23FB3C8608B288AC63FDC
:10223000FB799F501344D33FD5400008EC40000881
:102240000000F07FD1400008C8400008A540000809
:102250000000F83F404200084741000801250023E4
:10226000069308954FF0FF33CDE902330022122385
:10227000B0E701230893F5E7099BCDE90233B8E7FE
:10228000013141605200B8E7636A019A1A60039B0A
:102290000E2B00F29D80002D00F09A80009B002BF9
:1022A00032DDB74A03F00F0302EBC303D3E9008921
:1022B000009BD8054FEA231716D5B24B51EC190BEA
:1022C000D3E90823FEF7C2FA07F00F0782468B46D0
:1022D0000325AC4E57B942464B4650465946FEF789
:1022E000B5FA82468B4628E00225F2E7F90708D5C1
:1022F00040464946D6E90023FEF77EF9013580467F
:1023000089467F100836E5E700F09B80009B9D4FD3
:102310005E429B4B06F00F0203EBC203D3E900239E
:1023200051EC190BFEF768F9361182468B460023F3
:102330000225002E7AD1002BD3D10B9B002B00F06D
:102340008280914B002250465946FEF7C7FB002879
:1023500079D0039B002B76D0029B002B36DD009BAF
:10236000504659465F1E0022884BFEF745F9029EF3
:1023700082468B4601352846FEF7D4F852465B4626
:10238000FEF73AF9824B0022FDF780FFD046D9468E
:102390008246A1F1507B002E58D17E4B0022404650
:1023A0004946FDF771FF52465B4680468946FEF777
:1023B000B3FB002840F0958252460BF100434046A3
:1023C0004946FEF78BFB002840F089825BEC19AB95
:1023D000119B002BC0F24881009A0E2A00F3448121
:1023E000674B03EBC203D3E90089099B002B80F202
:1023F000D580039B002B00F3D18040F06F82654BAA
:10240000002240464946FEF7F7F852465B46FEF783
:1024100079FB039E3746002840F04582019D312319
:1024200005F8013B009B0133009340E2F20705D51C
:10243000D7E90023FEF7E0F80135012376100837CD
:1024400077E7022579E7009F039E94E701994C4BBB
:1024500031440D91089903EBC60353E90223002987
:1024600043D04D490020FEF7F1F952465B46FDF797
:102470000BFF019D82468B4649464046FEF76CFBAA
:102480000646FEF74FF802460B4640464946FDF722
:10249000FBFE303605F8016B52465B4680468946A6
:1024A000FEF71CFB002863D142464B46364900200C
:1024B000FDF7EAFE52465B46FEF710FB002840F0AF
:1024C000B5800D9B9D4281D0304B0022504659462D
:1024D000FEF792F82D4B82468B4640464946002235
:1024E000FEF78AF880468946C6E750465946FEF709
:1024F00083F80D9B019D0F9382468B4649464046CB
:10250000FEF72AFB0646FEF70DF8303602460B466C
:1025100040464946FDF7B8FE05F8016B0D9B9D420C
:10252000804689464FF0000224D11B4B5046594645
:10253000FDF7ACFE02460B4640464946FEF7ECFA74
:10254000002873D152465B4613490020FDF79CFEDC
:1025500002460B4640464946FEF7C0FA00283FF4C3
:1025600035AF0F9D6B1E0F9315F8013C302BF8D043
:10257000009749E0054BFEF73FF880468946BDE7E6
:1025800040420008184200080000F03F00002440CC
:1025900000001C40000014400000E03F019D564632
:1025A0005F4642464B4630463946FEF74FF9FEF746
:1025B000D3FA8246FDF7B6FF42464B46FEF71CF8BB
:1025C00002460B46304639460AF13006FDF75CFEFE
:1025D00005F8016B019E039FAE1BB74202460B46F6
:1025E00035D1FDF753FE42464B4606460F46FEF7F1
:1025F00093FAD0B942464B4630463946FEF764FA64
:1026000010B11AF0010F10D1204618EE101A00F088
:10261000EDFB002300982B700C9B01301860219B70
:10262000002B3FF4F1AC1D60EEE4009F2B461D46ED
:1026300013F8012D392A06D1019A9A42F7D101994E
:10264000302201370A701A7801321A7090E7A64BCF
:102650000022FDF7D1FF0022002306460F46FEF7B9
:1026600033FA00289DD0CFE7089A002A00F0D780DF
:10267000069A012A00F3BA800E9A002A00F0B2806E
:1026800003F23343079E049D049A1A440492059A68
:1026900001211A442046059200F060FC0746002DF7
:1026A0000CDD059B002B09DDAB42049AA8BF2B462D
:1026B000D21A0492059AED1AD31A0593079B1BB3FD
:1026C000089B002B00F0AF80002E13DD3946324608
:1026D000204600F003FD18EE102A0146074620466A
:1026E00000F052FC18EE101A8046204600F07EFBE7
:1026F00008EE108A079B9A1B06D018EE101A204687
:1027000000F0ECFC08EE100A0121204600F026FC47
:102710000A9B002B064640F388801A460146204655
:1027200000F0DCFC069B012B064640F381804FF055
:102730000008336906EB8303186900F0BFFBC0F1A2
:102740002000059B184410F01F0000F09280C0F19B
:102750002003042B40F38A80C0F11C00049B034437
:102760000493059B034405440593049B002B07DD5C
:1027700018EE101A1A46204600F00AFD08EE100A5C
:10278000059B002B05DD31461A46204600F000FD72
:1027900006460B9B002B6ED018EE100A314600F057
:1027A00067FD002867DA009B013B18EE101A0093C2
:1027B0000A220023204600F03BFB089B08EE100A8B
:1027C000002B00F0B181002339460A22204600F098
:1027D0002FFB029B002B074600F38E80069B022BEB
:1027E00051DC89E0109BC3F136034BE7039B5E1E6F
:1027F000079BB342BFBF079B0796F21A0A9BB6BF5F
:102800009B189E1B0A93039BB8BF0026002BB7BFE3
:10281000DDE90323DDE903359D1A002334E7079E34
:10282000049D089F3BE7079A67E7069B012B18DC8E
:10283000BAF1000F15D1CBF3130393B92BF000437A
:102840001B0D1B0583B1049B01330493059B0133CE
:1028500005934FF001080A9B002B7FF46AAF01201B
:102860006FE74FF00008F6E79846F4E73FF47DAFD6
:1028700018461C3072E7039B002B37DC069B022BAB
:1028800034DD039B0293029B6BB93146052220463F
:1028900000F0CEFA0146064618EE100A00F0E8FCF9
:1028A00000283FF7BBAD099B019DDB4300934FF030
:1028B00000083146204600F099FA002F3FF4A4AEFC
:1028C000B8F1000F05D0B84503D04146204600F0CE
:1028D0008DFA3946204600F089FA95E600263746FB
:1028E000E1E70097374699E500002440089B002B5C
:1028F00000F0CA80039B0293002D05DD39462A466D
:10290000204600F045FC0746B8F1000F5BD079681F
:10291000204600F02BFA054628B9874B024640F2C4
:10292000EA21FFF73BBB3A690232920007F10C0142
:102930000C3000F00DFA01222946204600F028FC58
:10294000019B03F10109DDE90123134405930AF01A
:102950000103B84604930746314618EE100AFFF704
:1029600075FA4146029000F1300A18EE100A00F0A4
:102970007FFC3A4603903146204600F095FCC26841
:1029800009F1FF3B054602BB014618EE100A00F0B4
:102990006FFC024629462046079200F027FADDE93F
:1029A000063243EA0201049B0B434D460FD1BAF1B4
:1029B000390F2AD0039B002B02DD029B03F1310A61
:1029C0008BF800A075E73846BAE70122E2E7039BDF
:1029D000002B04DB06990B4304990B4322D1002AF8
:1029E000EEDD18EE101A0122204600F0D1FB314630
:1029F00008EE100A00F03CFC002803DCE0D11AF0DD
:102A0000010FDDD0BAF1390FD7D139238BF800305F
:102A10002B461D46013B15F8012C392A71D0013295
:102A20001A7046E7002A07DDBAF1390FEDD00AF136
:102A300001038BF800303CE7059B09F801AC994590
:102A400047D018EE101A00230A22204600F0F0F9B1
:102A5000B84508EE100A4FF000034FF00A02414655
:102A6000204606D100F0E4F98046074609F1010945
:102A700072E700F0DDF93946804600230A2220463D
:102A800000F0D6F90746F1E7039B0293019D18EE8B
:102A9000100A3146FFF7DAF900F1300A019B05F818
:102AA00001ABEA1A029B934209DD18EE101A0023CB
:102AB0000A22204600F0BCF908EE100AE7E7029B64
:102AC000002BC8BF1D46019BD8BF01251D444FF0F8
:102AD000000818EE101A0122204600F059FB31467A
:102AE00008EE100A00F0C4FB002891DC02D11AF0B5
:102AF000010F8DD12B461D4613F8012D302AFAD037
:102B0000D7E6019A9A4284D1009B01330093312386
:102B10001370CEE6094BFFF795BA219B002B7FF48B
:102B20006EAA074BFFF78EBA029B002BAEDC069B0A
:102B3000022B3FF7A8AEA9E747410008A4400008D0
:102B4000C8400008002310B50446C0E90033C0E9BE
:102B50000433836081814366C28183611946082200
:102B60005C30FEF7E9FC054B6362054BA362054B45
:102B7000E362054B2462236310BD00BF35390008B2
:102B8000573900088F390008B3390008014900F0AF
:102B9000AFB800BFC93C000870B568224D1E554350
:102BA0000E4605F1740100F0E7FC044640B1002137
:102BB000C0E900160C30A06005F16802FEF7BCFC0D
:102BC000204670BD014800F0B8B800BFF5010020F4
:102BD000014800F0B3B800BFF5010020014800F043
:102BE000ACB800BFF6010020014800F0A7B800BF54
:102BF000F601002010B50446FFF7F0FFA3691BB1F2
:102C0000BDE81040FFF7F0BFC4E912332365134B52
:102C1000134A1B68A262A34204BF0123A36120469A
:102C200000F020F86060204600F01CF8A06020460C
:102C300000F018F80022E06004216068FFF782FFCE
:102C4000A06801220921FFF77DFFE068022212211E
:102C5000FFF778FF0123A361D2E700BF904000088F
:102C60008D2B0008F8B50746FFF7ACFF1E4B1E681A
:102C7000B36913B93046FFF7BDFF4836D6E90134D2
:102C8000013B03D533680BB33668F7E7B4F90C5052
:102C9000D5B9164BE36004F15800656600F04CF8B6
:102CA000FFF796FFC4E90155C4E904552560A56105
:102CB0000822294604F15C00FEF73EFCC4E90D55EC
:102CC000C4E912552046F8BD6834D9E704213846D6
:102CD000FFF762FF044630600028D5D1FFF778FF88
:102CE0000C233B60EEE700BF904000080100FFFFAF
:102CF0002DE9F8430646884600F148040027D4E948
:102D00000195B9F1010905D52468002CF7D13846A1
:102D1000BDE8F883AB89012B07D9B5F90E30013333
:102D200003D029463046C04707436835E9E700002D
:102D300000487047540100207047704770470000FA
:102D4000024B0146186800F017BC00BF00000020CD
:102D50000A44914200F1FF3300D1704710B511F8D9
:102D6000014B03F8014F9142F9D110BD70B5466A8D
:102D700004460D4676B91020FFF7E2FF0246606276
:102D800020B9184B1848662100F0EAFEC0E9016638
:102D90000660C660666AF36883B1636ADB6853F8ED
:102DA0002500B8B9012101FA05F6721D92002046EE
:102DB00000F060FB60B1C0E901560EE02122042161
:102DC000204600F057FB636AF060DB68002BE4D11B
:102DD000002070BD026843F825200023C0E90333BA
:102DE000F7E700BFD5400008B841000870B5466A53
:102DF00005460C4676B91020FFF7A2FF024668622E
:102E000020B9094B09488A2100F0AAFEC0E90166F1
:102E10000660C6603CB16B6A6268DB6853F82210DA
:102E2000216043F8224070BDD5400008B841000839
:102E30002DE9F0410D6907460C461E4601F1140CC0
:102E40000020DCF8003099B202FB01611E0C0B0C73
:102E500002FB063389B2013001EB034185424CF895
:102E6000041B4FEA1346ECDC0EB3A368AB4219DC3B
:102E7000616838460131FFF779FF804628B902467C
:102E80000C4B0D48B52100F06BFE2269023204F1B3
:102E90000C0192000C30FFF75BFF21463846FFF72C
:102EA000A5FF444604EB850301355E61256120469C
:102EB000BDE8F08147410008B8410008030C1B043D
:102EC000D3B90004102310F07F4F04BF0002083371
:102ED00010F0704F04BF0001043310F0404F04BFE6
:102EE00080000233002805DB10F0804F03F101035E
:102EF00008BF2023184670470023E4E7036813F057
:102F0000070201460BD0DA0723D4980749BF5B08B4
:102F10009B0801200B605CBF0B600220704798B2D9
:102F2000A8B91B0C1020DAB20AB908301B0A1A071C
:102F300004BF1B0904309A0704BF9B080230DA075C
:102F400003D45B0800F1010005D00B607047104608
:102F5000E9E70020704720207047000010B50C46BC
:102F60000121FFF703FF024628B9054B05484FF43E
:102F7000A07100F0F5FD01234461036110BD00BFA5
:102F800047410008B84100082DE9F04F91460A6911
:102F9000D9F810309A42B8BF0B460C46BCBF4C461D
:102FA00099462769D9F810A0A368616807EB0A065B
:102FB000B34285B0B8BF0131FFF7D8FE30B9024641
:102FC000444B454840F25D1100F0CAFD00F1140584
:102FD00005EB86082B460022434521D304F1140358
:102FE00003EB870709F1140303EB8A0202923A1BF1
:102FF000153A22F00302043204F115018F4238BF62
:1030000004220192029A03939A420CD8002E03DD07
:1030100058F8043D002B5AD0066105B0BDE8F08F8A
:1030200043F8042BD8E7B3F800A0BAF1000F24D07E
:1030300004F1140EA9464FF0000C5EF8042BD9F8E9
:1030400000101FFA82FB89B20AFB0B114FEA124BE8
:10305000D9F8002061444FEA124C0AFB0BC202EB84
:10306000114289B241EA0241774549F8041B4FEA0F
:10307000124CE2D8019A45F802C0039AB2F80290C5
:103080000433B9F1000F20D0296804F1140CAE46C6
:103090004FF0000ABCF800B0BEF8022009FB0B227A
:1030A000924489B241EA0A414EF8041B5CF8042BB1
:1030B000BEF80010120C09FB021101EB1A41674522
:1030C0004FEA114AE6D8019AA95004359AE7013E21
:1030D0009CE700BF47410008B84100082DE9F843CC
:1030E000154612F0030206460F4607D0254C013A5A
:1030F000002354F82220FFF79BFE0746AD103DD079
:10310000746A7CB91020FFF71BFE0246706228B972
:103110001D4B1E484FF4D77100F022FDC0E9014459
:103120000460C460D6F82480D8F808404CB940F256
:1031300071213046FFF712FF0023C8F8080004464B
:1031400003604FF00009EB070AD5394622463046A6
:10315000FFF71AFF394680463046FFF747FE4746DD
:103160006D100BD0206838B9224621463046FFF753
:103170000BFF2060C0F800900446E4E73846BDE845
:10318000F88300BF08430008D5400008B841000894
:103190002DE9F0470C464968236903EB6218A368E0
:1031A000074691464FEA621A08F10106B3420BDB6B
:1031B0003846FFF7DBFD054648B902462A4B2B4847
:1031C00040F2D91100F0CCFC01315B00EEE70023A6
:1031D00000F1140100F110021846534537DB206955
:1031E0002AEAEA7A04F1140319F01F0901EB8A01B3
:1031F00003EB80002FD0C9F1200E8A464FF0000C5F
:103200001A6802FA09F242EA0C024AF8042B53F84F
:10321000042B984222FA0EFCF2D8031B153B23F034
:103220000303043304F11502904238BF042341F82C
:1032300003C0BCF1000F01D008F10206013E384680
:103240002E612146FFF7D2FD2846BDE8F08742F8FF
:10325000040F0133C1E7043953F8042B41F8042F5C
:103260009842F9D8EAE700BF47410008B841000892
:1032700030B502690C69121B0ED100F11403143130
:1032800003EB840001EB840150F8045D51F8044D18
:10329000A54203D005D30122104630BD8342F3D3AB
:1032A000FAE74FF0FF32F7E72DE9F84F0C460646F4
:1032B000114620469046FFF7DBFF051E10D1294638
:1032C0003046FFF753FD30B93A4B024640F2322107
:1032D000394800F045FC0123C0E90435BDE8F88F0A
:1032E000A4BF4346A0463046D8F80410A6BF1C46EB
:1032F00000250125FFF73AFD20B92E4B02464FF479
:103300001071E5E7D8F810702669C56004F114095A
:1033100008F1140500F1140E05EB870C09EB860685
:1033200008F11002F246002159F8043B52F804BF9C
:103330001FFA83F811FA8BF11B0CA1EB0808C3EB01
:103340001B4303EB28431FFA88F819144E4548EA3B
:1033500003434AF8043BE7D8331B153B23F0030330
:1033600004331534A64238BF04231D4473449E46DB
:103370002E4666450ED30CF10302521B22F00302C7
:10338000033DAC4538BF00221A4452F8043D7BB1DE
:103390000761A3E756F8048B11FA88F2141404EBC2
:1033A000184492B242EA04424EF8042B2114E0E79A
:1033B000013FEAE747410008B84100082DE9F7431B
:1033C0008946012157EC106B9046FFF7CFFC04466D
:1033D00030B90246254B264840F20A3100F0C0FBC6
:1033E000C7F30A55C7F3130335BB002E019328D04A
:1033F00068460096FFF782FD009900B3019AC0F17C
:10340000200302FA03F30B43C24063610192019B64
:10341000A361002B14BF022201222261D5B1A5F2C3
:1034200033450544C9F80050C0F13500C8F8000024
:10343000204603B0BDE8F08343F48013D5E7616113
:10344000E5E701A8FFF75AFD019B636101222261B4
:103450002030E3E704EB8203A0F23240C9F8000019
:103460001869FFF72BFDC0EB4210DFE7474100086A
:10347000B841000837B5A1FB02244CB911460192AE
:1034800000F07AF8019A054630B9284603B030BDFD
:103490000C2202600025F8E72146FEF74DF8F4E71C
:1034A00037B5002944D051F8043C0190002BA1F11C
:1034B0000404B8BFE41800F0DFFC1E4A019813684A
:1034C00033B96360146003B0BDE8304000F0DABC8B
:1034D000A34208D9256861198B4201BF19685B684E
:1034E00049192160EDE71A465B680BB1A342FAD98E
:1034F00011685518A5420BD1246821445418A342E1
:103500001160E0D11C685B68536021441160DAE708
:1035100002D90C230360D6E7256861198B4204BFEA
:1035200019685B68636004BF491921605460CAE789
:1035300003B030BDF801002070B50E4E0C46316866
:10354000054611B900F0E6F930602146284600F042
:10355000E1F9431C0AD0C41C24F00304A04207D0A4
:10356000211A284600F0D6F9013001D14FF0FF347E
:10357000204670BDFC0100202DE9F041CD1C25F056
:10358000030508350C2D38BF0C25002D074601DB3F
:10359000A94205D90C233B6000263046BDE8F081E6
:1035A0002E4E00F069FC33681C4634BB2946384671
:1035B000FFF7C2FF431C04464DD134682646002E57
:1035C00040D123683146384604EB030800F0A2F9E5
:1035D00080453AD1216803356D1A25F00305083579
:1035E0000C2D38BF0C2529463846FFF7A5FF0130C2
:1035F0002BD023682B4423600EE02268521B1ED47C
:103600000B2A16D96119A342256018BF5960636857
:1036100008BF316062514B60384604F10B0600F080
:1036200031FC26F00706231DF21AB6D09B1BA350CF
:10363000B3E76268A3420CBF32605A60ECE72346EE
:103640006468B2E734467668B9E70C233B603846D5
:1036500000F018FCA1E72560DEE700BFF8010020BC
:103660009368013B002B10B4936008DA9469A3427D
:1036700001DB0A2903D15DF8044B00F09FB9136800
:10368000581C1060197008465DF8044B7047F8B577
:1036900006460F461446D518AC4201D1002007E07B
:1036A00014F8011B3A463046FFF7DAFF431CF3D10A
:1036B000F8BD00002DE9F04F0D469DB01446984628
:1036C000064618B183690BB9FFF794FA894B9D42FE
:1036D0001BD175686B6ED90705D4AB899A0502D4E6
:1036E000A86DFFF72AFBAB891B0701D52B69EBB946
:1036F0002946304600F0C6F9C0B16B6EDC070ED526
:103700004FF0FF301DB0BDE8F08F7B4B9D4201D1E3
:10371000B568DFE7794B9D4208BFF568DAE7AB890A
:103720009805EDD4A86DFFF709FBE9E7002309939D
:1037300020238DF82930CDF80C803023DFF8C081AC
:103740008DF82A304FF0010923469A4613F8012BD1
:103750000AB1252AF9D1BAEB040B0BD05B462246FD
:1037600029463046FFF793FF013000F0AA80099AFE
:103770005A4409929AF80030002B00F0A2800023EE
:103780004FF0FF32CDE905230AF1010A04930793B4
:103790008DF853301A935446052214F8011B5848EB
:1037A000FCF71EFD049AD8B9D10644BF20238DF83A
:1037B0005330130744BF2B238DF853309AF8003051
:1037C0002A2B15D0079A544600204FF00A0C2146A8
:1037D00011F8013B303B092B4ED9B0B1079214E0F0
:1037E000A0EB080309FA03F313430493A246D2E7BC
:1037F000039B191D1B680391002BBBBF5B4242F06A
:10380000020207930793B8BF049223782E2B0CD1A2
:1038100063782A2B35D1039B1A1D1B680392002B5A
:10382000B8BF4FF0FF3302340593DFF8E4A02178EE
:1038300003225046FCF7D4FC40B14023A0EB0A0021
:1038400003FA00F0049B03430134049314F8011BB2
:103850002C488DF828100622FCF7C2FC00283FD027
:10386000294B1BBB039B073323F007030833039348
:10387000099B3B44099367E70CFB02320C4601208D
:10388000A5E700230134059319464FF00A0C2046A2
:1038900010F8012B303A092A03D9002BC5D0059125
:1038A000C3E70CFB012104460123F0E703AB0093BF
:1038B0002A46164B04A93046FDF7E6FE0746781C5B
:1038C000D6D16B6ED90705D4AB899A0502D4A86D01
:1038D000FFF734FAAB895B063FF512AF099811E7A1
:1038E00003AB00932A46094B04A93046FEF770F952
:1038F000E4E700BF784100089841000858410008FB
:10390000144300081E430008891600088F3600087B
:103910001A43000838B5064D0023044608462B60BC
:1039200000F07AFB431C02D12B6803B1236038BD41
:103930000002002010B50C46B1F90E1000F0A8FAF4
:103940000028ABBF636DA3891B1823F48053ACBF61
:103950006365A38110BD2DE9F0411F468B89DB050E
:1039600005460C46164605D5B1F90E100223002275
:1039700000F0F8F9A389B4F90E1023F48053A38161
:1039800032463B462846BDE8F04100F069B810B524
:103990000C46B1F90E1000F0E5F9431CA38915BFE0
:1039A000606523F4805343F48053A38118BFA3813F
:1039B00010BDB1F90E1000F0F1B80000F8B50E46D8
:1039C0001446054618B183690BB9FFF713F9214B6B
:1039D0009C422BD16C68A369A360A3891A072FD5D9
:1039E00023696BB323692068C01A6369F6B2834206
:1039F000374604DC2146284600F066F930BBA36850
:103A0000013BA36023685A1C22601E706369013069
:103A1000834204D0A389DB0706D50A2E04D12146B0
:103A2000284600F051F988B93846F8BD0A4B9C4247
:103A300001D1AC68CFE7094B9C4208BFEC68CAE7EC
:103A40002146284600F01EF80028CBD04FF0FF3763
:103A5000EAE700BF78410008984100085841000893
:103A600038B5074D04460846114600222A601A461A
:103A7000FDF79BF9431C02D12B6803B1236038BDCD
:103A800000020020324B70B51D6806460C4625B179
:103A9000AB6913B92846FFF7ADF82E4B9C420FD106
:103AA0006C68A389B4F90C2019072CD4DD0611D455
:103AB0000923336042F04003A3814FF0FF303EE022
:103AC000254B9C4201D1AC68EBE7244B9C4208BFDC
:103AD000EC68E6E7580712D5616B41B104F1440385
:103AE000994202D03046FFF7DBFC00236363A389D1
:103AF00023F02403A3810023636023692360A38947
:103B000043F00803A38123694BB9A38903F420730D
:103B1000B3F5007F03D02146304600F05BF9A08961
:103B2000B4F90C2010F001030AD00023A3606369EC
:103B30005B42A361236943B910F08000BAD170BD24
:103B4000810758BF6369A360F4E70020F7E700BF6F
:103B50000000002078410008984100085841000802
:103B60001FB514461A46094B1B680546D8684CB168
:103B7000074B0091CDE9013406492B4600F0E0F8EF
:103B800000F0A5F9044B1C46F3E700BF000000203D
:103B900025430008324300086043000838B5064D4D
:103BA0000023044608462B6000F0FEF9431C02D1B6
:103BB0002B6803B1236038BD000200208A892DE9FB
:103BC000F041054610070C4658D44B68002B05DC25
:103BD0000B6C002B02DC0020BDE8F081E66A002EB1
:103BE000F9D0002312F480522F682B6032D0606D20
:103BF000A3895A0705D56368C01A636B0BB1236CA0
:103C0000C01A00230246E66A216A2846B047431CD0
:103C1000A38906D129681D292CD82A4ACA40D6076B
:103C200028D500226260D9042269226004D5421C92
:103C300001D12B6803B96065616B2F600029CAD080
:103C400004F14403994202D02846FFF729FC0020E2
:103C50006063C1E7216A01232846B047411CC7D1F0
:103C60002B68002BC4D01D2B01D0162B01D12F6047
:103C7000B1E7A38943F04003A381ADE70F69002FAB
:103C8000A9D093070E6808BF4B690F6018BF0023C7
:103C9000A6EB07088B60B8F1000F9CDD216AA66ACD
:103CA00043463A462846B047002806DCA38943F03D
:103CB0004003A3814FF0FF308EE70744A8EB0008D4
:103CC000E9E700BF0100402038B50B6905460C4606
:103CD00013B90025284638BD18B183690BB9FEF722
:103CE00089FF144B9C421BD16C68B4F90C30002B3B
:103CF000EFD0626ED00704D4990502D4A06DFFF70F
:103D00001CF828462146FFF759FF636EDA0705467F
:103D1000E0D4A3899B05DDD4A06DFFF70FF8D9E7A8
:103D2000054B9C4201D1AC68DFE7044B9C4208BFC5
:103D3000EC68DAE77841000898410008584100082B
:103D40000EB403B5014603AB054853F8042B0068D5
:103D50000193FFF7AFFC02B05DF804EB03B07047CE
:103D60000000002038B5074D0446084611460022E1
:103D70002A601A4600F040F9431C02D12B6803B1B7
:103D8000236038BD0002002070B50E46B1F90E1058
:103D9000002996B014461D4608DAB6F90C30002208
:103DA0002A601A0610D44FF480630EE06A4600F0D1
:103DB00095F80028F1DB019A02F47042A2F5005355
:103DC0005A425A412A60EEE740230020236016B091
:103DD00070BD00008B8973B59D0706460C4607D55C
:103DE00004F14703236023610123636102B070BDC6
:103DF00001AB6A46FFF7C8FF009905463046FFF75A
:103E0000BBFB48B9B4F90C309A05EFD423F0030397
:103E100043F00203A381E3E70D4BB362A389206063
:103E200043F08003A381009B6361019B20615BB130
:103E3000B4F90E10304600F063F828B1A38923F0DE
:103E4000030343F00103A381A0890543A581CDE7C6
:103E50008D2B000882B001B901A942B14BB1137892
:103E60000B601278101E18BF012002B07047104678
:103E7000FBE76FF00100F8E70148FEF75EBF00BF07
:103E8000F40100200148FEF759BF00BFF4010020F3
:103E900038B5074D04460846114600222A601A46E6
:103EA00000F0B2F8431C02D12B6803B1236038BD87
:103EB0000002002049B1FF2A85BF8A2303600A70EF
:103EC0004FF0FF3098BF012070470846704708B593
:103ED000062000F04DF8012000F0ACF838B5074D91
:103EE00000230446084611462B6000F065F8431C89
:103EF00002D12B6803B1236038BD00BF000200204F
:103F000038B5064D0023044608462B6000F064F8DF
:103F1000431C02D12B6803B1236038BD000200208E
:103F20001F2938B504460D4604D9162303604FF007
:103F3000FF3038BD426C12B152F821304BB92046E7
:103F400000F030F82A4601462046BDE8384000F02F
:103F500017B8012B0AD0591C03D116230360012086
:103F6000E7E7002442F82540284698470020E0E78C
:103F7000024B01461868FFF7D3BF00BF00000020C6
:103F800038B5074D00230446084611462B6000F063
:103F90002BF8431C02D12B6803B1236038BD00BF4E
:103FA0000002002000F010B8024B58221A604FF0B7
:103FB000FF30704700020020024B58221A604FF079
:103FC000FF30704700020020024B58221A604FF069
:103FD000FF30704700020020024B58221A60002078
:103FE000704700BF00020020024B58221A604FF0B9
:103FF000FF30704700020020024B58221A604FF039
:10400000FF30704700020020024B58221A604FF028
:10401000FF30704700020020044A1168034609B9C6
:1040200003491160106803441360704704020020C4
:1040300008020020FEE70000F8B500BFF8BC08BC8D
:104040009E467047F8B500BFF8BC08BC9E46704756
:1040500045736372696265202575206279746573A2
:1040600020656E206C61207465726D696E616C0DE7
:104070000A000000444D4120526563656976652061
:10408000436F756E746572203D2025640D0A000033
:1040900004000020494E4600696E66004E414E0005
:1040A0006E616E0030003031323334353637383996
:1040B0004142434445460030313233343536373897
:1040C0003961626364656600496E66696E69747918
:1040D000004E614E005245454E54206D616C6C6F30
:1040E0006320737563636565646564002F62756939
:1040F0006C642F676E752D746F6F6C732D666F72A5
:104100002D73746D33325F31302E332D32303231B6
:104110002E31302E32303231313130352D31313097
:10412000302F7372632F6E65776C69622F6E6577BF
:104130006C69622F6C6962632F7374646C69622F9F
:1041400064746F612E630042616C6C6F63207375E1
:1041500063636565646564000000000000000000A2
:10416000000000000000000000000000000000004F
:10417000000000000000000000000000000000003F
:10418000000000000000000000000000000000002F
:10419000000000000000000000000000000000001F
:1041A000000000000000000000000000000000000F
:1041B00000000000000000002F6275696C642F672A
:1041C0006E752D746F6F6C732D666F722D73746DB9
:1041D00033325F31302E332D323032312E31302EAA
:1041E00032303231313130352D313130302F737240
:1041F000632F6E65776C69622F6E65776C69622FCD
:104200006C6962632F7374646C69622F6D70726580
:10421000632E6300000000000080E03779C3414353
:10422000176E05B5B5B89346F5F93FE9034F384D1C
:10423000321D30F94877825A3CBF737FDD4F1575C8
:10424000000000000000F03F0000000000002440DB
:1042500000000000000059400000000000408F40B6
:10426000000000000088C34000000000006AF84021
:104270000000000080842E4100000000D012634145
:104280000000000084D797410000000065CDCD41BB
:10429000000000205FA00242000000E8764837429C
:1042A000000000A2941A6D42000040E59C30A2423A
:1042B0000000901EC4BCD64200003426F56B0C43AF
:1042C0000080E03779C3414300A0D8855734764356
:1042D00000C84E676DC1AB43003D9160E458E143B7
:1042E000408CB5781DAF154450EFE2D6E41A4B442C
:1042F00092D54D06CFF08044F64AE1C7022DB54471
:10430000B49DD9794378EA44050000001900000003
:104310007D000000232D302B2000686C4C0065666A
:1043200067454647002C2066756E6374696F6E3A68
:104330002000617373657274696F6E202225732289
:10434000206661696C65643A2066696C6520222587
:1043500073222C206C696E65202564257325730AF1
:10436000004300504F534958002E000020202020C9
:104370002020202020282828282820202020202015
:1043800020202020202020202020202088101010F5
:10439000101010101010101010101010040404044D
:1043A00004040404040410101010101010414141C2
:1043B000414141010101010101010101010101012D
:1043C00001010101010101101010101010424242C0
:1043D00042424202020202020202020202020202FD
:1043E000020202020202021010101020000000005F
:1043F00000000000000000000000000000000000BD
:1044000000000000000000000000000000000000AC
:10441000000000000000000000000000000000009C
:10442000000000000000000000000000000000008C
:10443000000000000000000000000000000000007C
:10444000000000000000000000000000000000006C
:10445000000000000000000000000000000000005C
:0C44600000000000000000000000000050
:04446C00B50100088E
:0444700091010008AE
:104474000400002000000000784100089841000872
:104484005841000800000000000000000000000087
:104494000000000000000000000000000000000018
:1044A4000000000000000000000000000000000008
:1044B40000000000000000000000000000000000F8
:1044C40000000000000000000000000000000000E8
:1044D4000000000043000000000000000000000095
:1044E40000000000000000000000000000000000C8
:1044F4000000000043000000000000000000000075
:1045040000000000000000000000000000000000A7
:104514000000000043000000000000000000000054
:104524000000000000000000000000000000000087
:104534000000000043000000000000000000000034
:104544000000000000000000000000000000000067
:104554000000000043000000000000000000000014
:104564000000000000000000000000000000000047
:1045740000000000430000000000000000000000F4
:104584000000000000000000000000000000000027
:1045940000000000430000000000000000000000D4
:1045A4000000000000000000000000000000000007
:1045B40000000000B53E0008553E00080000000061
:1045C4006B43000869430008604300086043000827
:1045D400604300086043000860430008604300082B
:1045E400604300086043000860430008FFFFFFFFCA
:1045F400FFFFFFFFFFFFFFFFFFFF0000010041532C
:1046040043494900000000000000000000000000D1
:104614000000000000000000000000000000415302
:1046240043494900000000000000000000000000B1
:104634000000000000000000000000000000000076
:040000050800149D3E
:00000001FF
