:020000040800F2
:1000000000000120096900085969000859690008C1
:100010005969000859690008596900080000000082
:100020000000000000000000000000005969000806
:100030005969000800000000596900081D660008A1
:100040005969000859690008596900085969000888
:100050005969000859690008596900085969000878
:100060005969000859690008596900085969000868
:100070005969000859690008596900085969000858
:100080005969000859690008596900085969000848
:100090005969000859690008596900085969000838
:1000A0005969000859690008596900085969000828
:1000B00059690008000000000000000059690008AC
:1000C000596900080000000000000000596900089C
:1000D000000000005969000859690008000000008C
:1000E000596900085969000800000000000000007C
:1000F0000000000000000000000000000000000000
:100100000000000000000000000000005969000825
:10011000000000000000000059690008596900084B
:1001200059690008596900085969000859690008A7
:1001300059690008000000000000000000000000F5
:100140005969000859690008596900085969000887
:100150005969000859690008596900085969000877
:100160005969000859690008596900080000000031
:1001700059690008596900080000000000000000EB
:0C01800059690008596900085969000815
:1001900010B5054C237833B9044B13B10448AFF3C1
:1001A00000800123237010BDD0010020000000005A
:1001B000E48B000808B5034B1BB103490348AFF3B8
:1001C000008008BD00000000D4010020E48B00087E
:1001D00001F0FF01102A2BDB10F0070F08D010F8F8
:1001E000013B013A8B422DD010F0070F42B3F6D1FC
:1001F000F0B441EA012141EA014122F007047FF015
:1002000000070023F0E80256083C85EA010586EA6B
:10021000010685FA47F5A3FA87F586FA47F6A5FAA7
:1002200087F68EB9EED1F0BC01F0FF0102F00702B3
:1002300032B110F8013B013A83EA010313B1F8D15E
:100240000020704701387047002D06BF354603383F
:10025000073815F0010F07D1013015F4807F02BF78
:10026000013015F4C03F0130F0BC0138704700BFC9
:10027000034613F8012B002AFBD1181A01387047E6
:1002800081F0004102E000BF83F0004330B54FEA47
:1002900041044FEA430594EA050F08BF90EA020FB4
:1002A0001FBF54EA000C55EA020C7FEA645C7FEA47
:1002B000655C00F0E2804FEA5454D4EB5555B8BF6A
:1002C0006D420CDD2C4480EA020281EA030382EADB
:1002D000000083EA010180EA020281EA0303362D6D
:1002E00088BF30BD11F0004F4FEA01314FF4801C40
:1002F0004CEA113102D0404261EB410113F0004F52
:100300004FEA03334CEA133302D0524263EB430308
:1003100094EA050F00F0A780A4F10104D5F1200EA6
:100320000DDB02FA0EFC22FA05F2801841F1000101
:1003300003FA0EF2801843FA05F359410EE0A5F1D5
:1003400020050EF1200E012A03FA0EFC28BF4CF006
:10035000020C43FA05F3C01851EBE37101F00045BC
:1003600007D54FF0000EDCF1000C7EEB00006EEBC9
:100370000101B1F5801F1BD3B1F5001F0CD3490853
:100380005FEA30004FEA3C0C04F101044FEA4452AA
:1003900012F5800F80F09A80BCF1004F08BF5FEA31
:1003A000500C50F1000041EB045141EA050130BD11
:1003B0005FEA4C0C404141EB0101013C28BFB1F523
:1003C000801FE9D291F0000F04BF01460020B1FA6E
:1003D00081F308BF2033A3F10B03B3F120020CDA41
:1003E0000C3208DD02F1140CC2F10C0201FA0CF01F
:1003F00021FA02F10CE002F11402D8BFC2F1200C84
:1004000001FA02F120FA0CFCDCBF41EA0C01904039
:10041000E41AA2BF01EB0451294330BD6FEA040482
:100420001F3C1CDA0C340EDC04F11404C4F120026D
:1004300020FA04F001FA02F340EA030021FA04F37F
:1004400045EA030130BDC4F10C04C4F1200220FAD6
:1004500002F001FA04F340EA0300294630BD21FA14
:1004600004F0294630BD94F0000F83F4801306BFDA
:1004700081F480110134013D4EE77FEA645C18BFCE
:100480007FEA655C29D094EA050F08BF90EA020F65
:1004900005D054EA000C04BF1946104630BD91EA5D
:1004A000030F1EBF0021002030BD5FEA545C05D160
:1004B0004000494128BF41F0004130BD14F580049F
:1004C0003CBF01F5801130BD01F0004545F0FE4113
:1004D00041F470014FF0000030BD7FEA645C1ABF48
:1004E000194610467FEA655C1CBF0B46024650EA7F
:1004F000013406BF52EA033591EA030F41F40021AB
:1005000030BD00BF90F0000F04BF0021704730B530
:100510004FF4806404F132044FF000054FF0000105
:1005200050E700BF90F0000F04BF0021704730B5C6
:100530004FF4806404F1320410F0004548BF40429B
:100540004FF000013EE700BF42004FEAE2014FEAF0
:1005500031014FEA02701FBF12F07F4393F07F4FCB
:1005600081F06051704732F07F4208BF704793F0CE
:100570007F4F04BF41F40021704730B54FF46074E1
:1005800001F0004521F000411CE700BF50EA0102E4
:1005900008BF704730B54FF000050AE050EA01028D
:1005A00008BF704730B511F0004502D5404261EBFD
:1005B00041014FF4806404F132045FEA915C3FF43E
:1005C000D8AE4FF003025FEADC0C18BF03325FEADB
:1005D000DC0C18BF033202EBDC02C2F1200300FA8C
:1005E00003FC20FA02F001FA03FE40EA0E0021FAB1
:1005F00002F11444BDE600BF70B54FF0FF0C4CF49F
:10060000E06C1CEA11541DBF1CEA135594EA0C0F50
:1006100095EA0C0F00F0DEF82C4481EA030621EA8B
:100620004C5123EA4C5350EA013518BF52EA0335C6
:1006300041F4801143F4801338D0A0FB02CE4FF078
:100640000005E1FB02E506F00042E0FB03E54FF0A8
:100650000006E1FB03569CF0000F18BF4EF0010EA0
:10066000A4F1FF04B6F5007F64F5407404D25FEA9C
:100670004E0E6D4146EB060642EAC62141EA55514F
:100680004FEAC52040EA5E504FEACE2EB4F1FD0C91
:1006900088BFBCF5E06F1ED8BEF1004F08BF5FEA0F
:1006A000500E50F1000041EB045170BD06F00046C1
:1006B00046EA010140EA020081EA0301B4EB5C046E
:1006C000C2BFD4EB0C0541EA045170BD41F4801166
:1006D0004FF0000E013C00F3AB8014F1360FDEBF8B
:1006E000002001F0004170BDC4F10004203C35DA67
:1006F0000C341BDC04F11404C4F1200500FA05F3EA
:1007000020FA04F001FA05F240EA020001F000428A
:1007100021F0004110EBD37021FA04F642EB060100
:100720005EEA430E08BF20EAD37070BDC4F10C042A
:10073000C4F1200500FA04F320FA05F001FA04F2EE
:1007400040EA020001F0004110EBD37041F10001DA
:100750005EEA430E08BF20EAD37070BDC4F12005E5
:1007600000FA05F24EEA020E20FA04F301FA05F24D
:1007700043EA020321FA04F001F0004121FA04F2F5
:1007800020EA020000EBD3705EEA430E08BF20EAC5
:10079000D37070BD94F0000F0FD101F000464000FF
:1007A00041EB010111F4801F08BF013CF7D041EA81
:1007B000060195F0000F18BF704703F00046520085
:1007C00043EB030313F4801F08BF013DF7D043EA56
:1007D0000603704794EA0C0F0CEA135518BF95EA0C
:1007E0000C0F0CD050EA410618BF52EA4306D1D193
:1007F00081EA030101F000414FF0000070BD50EAB2
:10080000410606BF1046194652EA430619D094EA3B
:100810000C0F02D150EA013613D195EA0C0F05D125
:1008200052EA03361CBF104619460AD181EA030179
:1008300001F0004141F0FE4141F470014FF0000031
:1008400070BD41F0FE4141F4780170BD70B54FF0CC
:10085000FF0C4CF4E06C1CEA11541DBF1CEA13554C
:1008600094EA0C0F95EA0C0F00F0A7F8A4EB05042E
:1008700081EA030E52EA03354FEA013100F0888025
:100880004FEA03334FF0805545EA131343EA1263EE
:100890004FEA022245EA111545EA10654FEA0026A3
:1008A0000EF000419D4208BF964244F1FD0404F55C
:1008B000407402D25B084FEA3202B61A65EB0305B8
:1008C0005B084FEA32024FF480104FF4002CB6EB75
:1008D000020E75EB030E22BFB61A754640EA0C00F5
:1008E0005B084FEA3202B6EB020E75EB030E22BF35
:1008F000B61A754640EA5C005B084FEA3202B6EB76
:10090000020E75EB030E22BFB61A754640EA9C0034
:100910005B084FEA3202B6EB020E75EB030E22BF04
:10092000B61A754640EADC0055EA060E18D04FEAC2
:10093000051545EA16754FEA06164FEAC30343EA62
:1009400052734FEAC2025FEA1C1CC0D111F4801F2F
:100950000BD141EA00014FF000004FF0004CB6E728
:1009600011F4801F04BF01430020B4F1FD0C88BFC7
:10097000BCF5E06F3FF6AFAEB5EB030C04BFB6EBD2
:10098000020C5FEA500C50F1000041EB045170BDC5
:100990000EF0004E4EEA113114EB5C04C2BFD4EBF2
:1009A0000C0541EA045170BD41F480114FF0000E76
:1009B000013C90E645EA060E8DE60CEA135594EAF2
:1009C0000C0F08BF95EA0C0F3FF43BAF94EA0C0FF5
:1009D0000AD150EA01347FF434AF95EA0C0F7FF46A
:1009E00025AF104619462CE795EA0C0F06D152EABE
:1009F00003353FF4FDAE1046194622E750EA4106A2
:100A000018BF52EA43067FF4C5AE50EA41047FF4B2
:100A10000DAF52EA43057FF4EBAE12E74FF0FF3C17
:100A200006E000BF4FF0010C02E000BF4FF0010CE8
:100A30004DF804CD4FEA410C7FEA6C5C4FEA430C61
:100A400018BF7FEA6C5C1BD001B050EA410C0CBFB0
:100A500052EA430C91EA030F02BF90EA020F002012
:100A6000704710F1000F91EA030F58BF994208BF79
:100A700090422CBFD8176FEAE37040F00100704736
:100A80004FEA410C7FEA6C5C02D150EA013C07D18D
:100A90004FEA430C7FEA6C5CD6D152EA033CD3D0D8
:100AA0005DF8040B704700BF8446104662468C46D2
:100AB0001946634600E000BF01B5FFF7B7FF002805
:100AC00048BF10F1000F01BD4DF808EDFFF7F4FF2E
:100AD0000CBF012000205DF808FB00BF4DF808EDB9
:100AE000FFF7EAFF34BF012000205DF808FB00BFDC
:100AF0004DF808EDFFF7E0FF94BF012000205DF8FE
:100B000008FB00BF4DF808EDFFF7CEFF94BF0120B2
:100B100000205DF808FB00BF4DF808EDFFF7C4FFAB
:100B200034BF012000205DF808FB00BF4FEA410CF4
:100B30007FEA6C5C02D150EA013C0AD14FEA430CD7
:100B40007FEA6C5C02D152EA033C02D14FF0000014
:100B500070474FF0010070474FEA410212F5001252
:100B600015D211D56FF47873B3EB625212D94FEAF4
:100B7000C12343F0004343EA505311F0004F23FADE
:100B800002F018BF404270474FF00000704750EA33
:100B9000013005D111F0004008BF6FF000407047F0
:100BA0004FF00000704700BF4A0011D212F500124A
:100BB00011D20DD56FF47873B3EB62520ED44FEAB5
:100BC000C12343F0004343EA505323FA02F0704735
:100BD0004FF00000704750EA013002D14FF0FF3073
:100BE00070474FF0000070474FEA4102B2F1E04316
:100BF00024BFB3F5001CDCF1FE5C0DD901F0004C04
:100C00004FEAC0024CEA5070B2F1004F40EB830053
:100C100008BF20F00100704711F0804F21D113F17F
:100C20003872BCBF01F00040704741F480114FEAB8
:100C30005252C2F11802C2F1200C10FA0CF320FA41
:100C400002F018BF40F001004FEAC1234FEAD3235E
:100C500003FA0CFC40EA0C0023FA02F34FEA4303C8
:100C6000CCE77FEA625307D150EA01331EBF4FF051
:100C7000FE4040F44000704701F0004040F0FE406C
:100C800040F40000704700BF38B50022002304463E
:100C90000D46FFF723FF28B920462946BDE8384016
:100CA00000F00AB8204605F1004100F005F8404286
:100CB00061EB410138BD00BFD0B50C4B00220646A8
:100CC0000F46FFF799FCFFF76FFF0446FFF71AFC8A
:100CD000074B0022FFF790FC02460B463046394690
:100CE000FFF7D2FAFFF760FF2146D0BD0000F03DCC
:100CF0000000F0412DE9FF4757EC106B002F0C4628
:100D000019463B46BBBF07F100431F4600232D2376
:100D10000B700D9BDDF830A0914623F02008BCBF7E
:100D200032461646B8F1460F05D0B8F1450F00D14E
:100D30000134022100E0032103AB019302AB0093D5
:100D400047EC106B5346224601F06EF8B8F1470F9E
:100D5000054619D119F0010F0ED000EB040900224D
:100D6000002330463946FFF7AFFE08B1CDF80C90AE
:100D70003022039B4B451ED3039B0E9A5B1B2846D8
:100D8000136004B0BDE8F087B8F1460F00EB04092A
:100D9000E5D10378302B0AD10022002330463946B2
:100DA000FFF792FE18B9C4F10104CAF80040DAF85E
:100DB00000309944D3E7591C03911A70D9E7F7B56D
:100DC0000029BABF49422D232B2309290270437001
:100DD00029DD0DF107031D460A271A46B1FBF7F678
:100DE00007FB1614303402F8014C0C46632C03F157
:100DF000FF333146F1DC3031941E03F8011C411CF5
:100E00002346AB420AD30DF109039B1AAC4288BFBB
:100E1000002302330344181A03B0F0BD13F8016B2A
:100E200001F8016FEDE7302330318370C170031D8D
:100E3000F1E700002DE9F04F8DB00C46DDF8588049
:100E400016461F46054600F0EFFE03680493184659
:100E5000FFF70EFA00230A93D8F800300590073305
:100E600023F0070303F1080294F818A0D4F800B0A7
:100E7000C8F80020D3E9008929F000430793CDF892
:100E80001880C4E91289DDE906019C4B4FF0FF325E
:100E9000FFF74CFE70BBDDE90601984B4FF0FF32C7
:100EA000FFF726FE30BB0022002340464946FFF7ED
:100EB00015FE10B12D2384F84330914A914BBAF1BD
:100EC000470F94BF90469846032323612BF00403F9
:100ED00023604FF00009009733460BAA21462846AD
:100EE00000F0D2F9013040F08D804FF0FF300DB0AE
:100EF000BDE8F08F42464B4640464946FFF716FE96
:100F000040B14B46002BBCBF2D2384F843307E4AB2
:100F10007E4BD4E763680AF0DF0206925A1C3BD18D
:100F2000062363604BF480620023226003930AABC4
:100F3000CDE901A309AB0093616849EC108B0DF179
:100F400023032846FFF7D6FE069B0999472B8046C8
:100F500029D1C81C02DB6368994241DDAAF1020A6B
:100F60005FFA8AFA0139524604F150000991FFF7FD
:100F700026FF0A9A1318012A8146236102DC22689F
:100F8000D20701D5013323619DF82330002BA2D075
:100F90002D2384F843309EE7069A472AC2D1002BBE
:100FA000C0D10123BDE7BAF1650FDBD9BAF1660FF5
:100FB00018D1002963680BDD216113B92268D007BD
:100FC00002D501330B442361A1654FF00009DBE733
:100FD00013B92268D20701D50233F4E70123F2E7FF
:100FE0004FF0670A0A9B994205DB23682161D80705
:100FF000EAD54B1CE7E70029D4BFC1F10202012268
:101000001344E0E723685A0507D423694246314672
:101010002846B84701302BD167E7BAF1650F40F297
:10102000DD80D4E9120100220023FFF74DFD0028E6
:1010300033D0374A012331462846B84701303FF4C0
:1010400054AFDDE90938434502DB2368D8070FD5E3
:10105000DDE9042331462846B84701303FF445AF67
:101060004FF0000908F1FF3804F11A0AC84509DCFD
:1010700023689B0700F10381E0680B9B9842B8BF8F
:10108000184634E70123524631462846B847013016
:101090003FF42BAF09F10109E8E7099B002B39DC8C
:1010A0001B4A012331462846B84701303FF41DAFA3
:1010B000DDE9093959EA030302D12368D907D7D5F5
:1010C000DDE9042331462846B84701303FF40DAF2F
:1010D0004FF0000A04F11A0B099B5B42534501DCF7
:1010E0004B4693E701235A4631462846B84701301C
:1010F0003FF4FBAE0AF1010AEEE700BFFFFFEF7F0E
:10110000958D0008998D00089D8D0008A18D00081F
:10111000A58D0008A36DDDF828A05345A8BF534650
:10112000002B994636DC4FF0000B29EAE97904F1EF
:101130001A02A36D0693A3EB09035B4531DC099BFF
:101140009A453ADC2368DA0737D4099BAAEB0309EE
:10115000069BAAEB03039945A8BF9946B9F1000F76
:1011600033DC4FF0000829EAE97904F11A0B099BF6
:10117000AAEB0303A3EB090343457FF779AF0123F0
:101180005A4631462846B84701303FF4AEAE08F122
:101190000108ECE7424631462846B8470130C2D143
:1011A000A3E60123314628460692B84701303FF4B2
:1011B0009CAE069A0BF1010BBBE7DDE90423314637
:1011C0002846B8470130C0D18FE6069A4B464244C4
:1011D00031462846B8470130C3D186E6DDF828A05D
:1011E000BAF1010F01DCDB0736D501234246314657
:1011F0002846B84701303FF478AEDDE90423314694
:101200002846B84701303FF470AED4E912010022FD
:1012100000230AF1FF3AFFF757FCC0B9534608F123
:10122000010231462846B84701300CD15DE6012362
:101230005A4631462846B84701303FF456AE08F1C9
:101240000108D045F3DB4B4604F15002DFE64FF0D6
:10125000000804F11A0BF4E701234246E1E70123F9
:101260004A4631462846B84701303FF43EAE08F1C1
:101270000108E3680B995B1A4345F0DCFCE64FF08C
:10128000000804F11909F4E72DE9F04716469846DD
:101290008A680B69DDF820909342B8BF134633602B
:1012A00091F8432007460C460AB1013333602368A6
:1012B000990642BF336802333360256815F006058E
:1012C00006D104F1190AE36832689B1AAB4226DCA6
:1012D00094F843302268003B18BF012392062BD4B8
:1012E00004F1430241463846C84701301ED0236806
:1012F000226903F00603042B02BFE5683368ED1A88
:10130000A3680CBF25EAE57500259342C4BF9B1A6C
:10131000ED1800261A34B5421AD1002008E0012346
:10132000524641463846C847013003D14FF0FF309E
:10133000BDE8F0870135C6E7E1185A1C302081F876
:101340004300224494F8451082F843100233C7E763
:101350000123224641463846C8470130E6D00136CF
:10136000D9E700002DE9FF470F7E0C9E782F9146AC
:1013700080460C469A4601F1430207D8622F0AD8EC
:10138000002F00F0D280582F00F0B98004F14206FF
:1013900084F842703AE0A7F16303152BF6D801A157
:1013A00051F823F0FD130008111400088D130008F4
:1013B0008D1300088D1300088D1300081114000808
:1013C0008D1300088D1300088D1300088D1300087D
:1013D000111500083B140008CB1400088D130008F9
:1013E0008D130008331500088D1300083B14000806
:1013F0008D1300088D130008D314000833681A1DDC
:101400001B68326004F1420684F8423001239DE0FB
:1014100033682068191D3160060601D51D6803E098
:101420004506FBD5B3F90050002D03DA2D236D429C
:1014300084F8433059480A2311E0216833680806CC
:1014400053F8045B02D4490648BFADB26F2F53482E
:10145000336014BF0A230823002184F84310666810
:10146000A660002EA2BF216821F0040121600DB901
:10147000002E4BD01646B5FBF3F103FB1157C75DA9
:1014800006F8017D2F46BB420D46F4D9082B0BD13F
:101490002368DF0708D5236961689942DEBF3023DE
:1014A00006F8013C06F1FF36921B2261CDF800A040
:1014B0004B4603AA21464046FFF7E6FE01304AD1DB
:1014C0004FF0FF3004B0BDE8F087236843F02003FD
:1014D00023603348782784F84570236831681F06F5
:1014E00051F8045B02D45F0648BFADB23160D90742
:1014F00044BF43F0200323601DB11023ACE727480D
:10150000E9E7236823F020032360F6E71646BDE7EA
:10151000336825686169181D30602E061B6801D587
:10152000196002E06806FBD5198000232361164686
:10153000BCE733681A1D32601E68626800213046BD
:10154000FEF746FE08B1801B6060636823610023DC
:1015500084F84330AAE72369324649464046D047DB
:101560000130ADD023689B0713D4E068039B9842F9
:10157000B8BF1846A6E70123324649464046D04741
:1015800001309DD00135E36803995B1AAB42F2DC70
:10159000EBE7002504F11906F5E700BFA78D000869
:1015A000B88D00082DE9F04F87B0174603938B687C
:1015B0005A1EB2F5AE7F81BF6FF4AE7503EB050B1B
:1015C00040F25D138B600B680A464FF0000543F450
:1015D000F06342F81C3BCDE9045580460C4698BFA9
:1015E0004FF0000B01921646AA46A9460295A26842
:1015F00052B13B681B784E2B64D8402B3CD8A3F1EA
:101600002B01C8B20E283AD9B9F1000F03D02368D4
:1016100023F4807323600AF1FF3ABAF1010F00F25C
:101620001781019B9E4200F20881012007B0BDE8AE
:10163000F08FA3F161020D2AE6D801A151F822F042
:10164000871700080916000809160008091600087F
:10165000E7170008BF170008091600080916000858
:101660009517000809160008091600080916000851
:10167000091600084D170008A3F14102DBE70E2907
:10168000C2D801A050F821F03D1700080916000843
:101690003D170008D317000809160008E5160008D2
:1016A0002317000823170008231700082317000832
:1016B0002317000823170008231700082317000822
:1016C000231700086E2B09D8602BB2D8542B7BD07F
:1016D000592B99D1072D97D108252CE0742B73D065
:1016E000792BF6E72168C8051BD521F08001216020
:1016F00009F10109BBF1000F03D001320BF1FF3BEF
:10170000A260A368013BA3602369013323617B6866
:10171000013B002B7B6040F387803B6801333B60DB
:1017200065E71AEB05017FF46FAF226822F4C072FF
:1017300022600D468A4606F8013BE2E72268100661
:101740007FF562AF22F080022260F4E7BAF1000F69
:101750000ED1B9F1000F0ED1226802F4E061B1F5AB
:10176000E06F08D122F4F06222604FF0010AE2E754
:10177000BAF1020F55D0012D02D0042D7FF444AFF1
:101780000135EDB2D7E7BAF1010F7FF43DAF4FF06D
:10179000020AD0E77DB9B9F1000F7FF438AF2268B3
:1017A00002F4E061B1F5E06F40F0088122F4F062EC
:1017B00022600125BFE7032DE2D0052DDEE7022DD3
:1017C0007FF422AF0325B6E7062D7FF41DAF072572
:1017D000B1E7226891057FF517AF22F420722260ED
:1017E000CDF80890A7E7226802F4A061B1F5806FF8
:1017F00006D050057FF508AFB9F1000F00F0DE808C
:10180000910558BF029922F4F06258BFA9EB01017B
:1018100042F4C07258BFCDE9041622604FF00009AF
:1018200089E74FF0030A86E7D4F88031394640460D
:10183000984700283FF4DBAEE6E6D4F87C3116F892
:10184000011D3A46404698472369013B2361E8E67B
:101850006B1E062B24D8022D36D8019B9E427FF6A4
:10186000E4AED4F87C3116F8011D3A46404698475C
:101870002369013B2361F0E7D4F87C311BF8011D9B
:101880003A46404698472369013B23610AF1FF3AF3
:101890005FFA8AFABAF1020FEED1033DEDB2761B80
:1018A0002368DA0530D55B0511D5019B9E427FF692
:1018B000BCAED4F87C3116F8011D3A464046984734
:1018C0002369013B2361F0E7AA46B346DEE716F839
:1018D000011C2369652903F1FF3306F1FF352361FC
:1018E0000CD045290AD0D4F87C313A464046984776
:1018F000236916F8021C013BB51E2361D4F87C3124
:101900003A46404698472E46226812F0100201D00F
:1019100000208BE63270236803F4C063B3F5806F58
:101920001CD1029B4B45A3EB090223D10199002254
:10193000404602F0F9FB039B21681B6811F0020F7F
:1019400057EC106B03F104021FD003990A601B6867
:10195000C3E90067E3680133E360D9E7049B002B28
:10196000E4D005990A230131404602F05DFC049B56
:10197000059EC21A04F26F139E4228BF04F5B77683
:101980001049304600F0E4F8D0E711F0040F039955
:101990000A60DCD11D6832463B4630463946FFF7C7
:1019A000C5F828B1084800F0B1F985ED000AD1E783
:1019B00030463946FFF718F92860CBE74FF00009A9
:1019C00029E600BFC98D00085D910008002310B50D
:1019D0000446C0E90033C0E9043383608181436673
:1019E000C2818361194608225C3000F014F90D4B66
:1019F00063620D4BA3620D4BE3620D4B23630D4BF2
:101A000024629C4206D003F16802944202D0D03393
:101A10009C4205D104F15800BDE8104000F072B9B5
:101A200010BD00BF911B0008B31B0008EB1B000892
:101A30000F1C0008EC010020024A0349034800F093
:101A400069B800BF00000020E54500081000002034
:101A500041680C4B994210B5044601D002F0C2FD1A
:101A6000A168094B994202D0204602F0BBFDE16813
:101A7000064B994204D02046BDE8104002F0B2BDAA
:101A800010BD00BFEC01002054020020BC02002069
:101A900010B50B4B0B4C0C4A1A6020460022042157
:101AA000FFF794FF04F1680001220921FFF78EFF80
:101AB00004F1D0000222BDE810401221FFF786BFDA
:101AC00024030020EC010020391A0008014800F02E
:101AD0001AB900BF2D030020014800F015B900BF5E
:101AE0002D03002010B50446FFF7F0FF236A1BB159
:101AF000BDE81040FFF7F0BF044B2362044B1B68A6
:101B0000002BF5D1FFF7C4FFF2E700BF511A000820
:101B1000240300202DE9F843074688461446002692
:101B2000D4E90195B9F1010905D52468002CF7D154
:101B30003046BDE8F883AB89012B07D9B5F90E30E3
:101B4000013303D029463846C04706436835E9E7E4
:101B50000EB400B59CB01DAB029006906FF0004132
:101B6000094807910491094953F8042B059100682D
:101B7000019302A902F0B6FB029B00221A701CB06E
:101B80005DF804EB03B070470C0000200802FFFF73
:101B900010B50C46B1F90E1000F06CF80028ABBF80
:101BA000636DA3891B1823F48053ACBF6365A381C5
:101BB00010BD2DE9F0411F468B89DB0505460C461B
:101BC000164605D5B1F90E100223002200F040F8A8
:101BD000A389B4F90E1023F48053A38132463B4607
:101BE0002846BDE8F04100F057B810B50C46B1F9F1
:101BF0000E1000F02DF8431CA38915BF606523F477
:101C0000805343F48053A38118BFA38110BDB1F961
:101C10000E1000F00DB802440346934200D1704705
:101C200003F8011BF9E70000004870474C01002051
:101C300038B5064D0023044608462B6005F016FA19
:101C4000431C02D12B6803B1236038BD2803002058
:101C500038B5074D04460846114600222A601A4648
:101C600005F0F5F9431C02D12B6803B1236038BDA0
:101C70002803002038B5074D0446084611460022C7
:101C80002A601A4605F08DF9431C02D12B6803B176
:101C9000236038BD2803002038B5074D04460846A8
:101CA000114600222A601A4604F025FB431C02D18B
:101CB0002B6803B1236038BD2803002070B50D4D9B
:101CC0000D4C641BA4100026A64209D10B4D0C4CF0
:101CD00006F088FF641BA4100026A64205D170BD43
:101CE00055F8043B98470136EEE755F8043B984712
:101CF0000136F2E7B86E0208B86E0208B86E020844
:101D0000BC6E020870477047704700009FED010AE3
:101D1000704700BF0000C07F2DE9F74F03690C69D1
:101D2000A34207467EDB013C01F11408A30000F149
:101D30001405009305EB8403019358F8243055F8FB
:101D4000242001339A4208EB8409B2FBF3F62ED328
:101D50004FF0000AC446AE46D3465CF8043B98B246
:101D600006FB00A0020C1B0C06FB0323DEF8002080
:101D700080B292B2121A5A44DEF800004FEA134AB7
:101D80009BB2C3EB224303EB104392B242EA0342FD
:101D9000E1454EF8042B4FEA234BDED2009BEB5873
:101DA0002BB9019B043B9D421A462FD33C61384618
:101DB00001F0CAF9002825DB2946002058F8042B39
:101DC000D1F800C01FFA82FE1FFA8CF3A3EB0E03BA
:101DD0000344120CC2EB234202EB1C429BB243EAC7
:101DE0000243C14541F8043B4FEA2240E6D255F890
:101DF000242005EB840322B9043B9D421A460BD3F1
:101E00003C610136304603B0BDE8F08F1268043BF8
:101E1000002ACBD1013CC6E71268043B002AEFD16F
:101E2000013CEAE70020EEE72DE9F04FC76999B0E1
:101E30008DED020B55EC104B229E099183460E92BC
:101E400013937FB9102000F0FDFD0246CBF81C0073
:101E500020B9A74BEF21A74802F046FCC0E9017763
:101E60000760C760DBF81C30196859B15A684A60CE
:101E7000012393408B60584600F0E2FEDBF81C30F3
:101E800000221A602B1EB9BF23F0004303930023E6
:101E90003360039F984BBCBF01223260BB4312D119
:101EA000139A42F20F731360C7F31303234300F036
:101EB0004D85239BDFF854A2002B00F04F850AF1DB
:101EC000030300F049BD9DED027B002251EC170B8E
:101ED00000238DED0C7BFEF7F7FD804658B1139A79
:101EE00001231360239B13B1239A844B1360DFF803
:101EF00020A200F033BD9DED0C0B16AA17A9584681
:101F000001F042FAC7F30A568146002E77D00D9BA6
:101F1000CDF85080C3F31303DDE90C0143F07F5388
:101F200043F44013A6F2FF3619460022744BFEF725
:101F3000ABF969A3D3E90023FEF75EFB68A3D3E9FD
:101F40000023FEF7A3F9044630460D46FEF7EAFAF1
:101F500065A3D3E90023FEF74FFB02460B4620465C
:101F60002946FEF793F904460D46FEF7F5FD0022DB
:101F70000746002320462946FEF7B0FD40B138460B
:101F8000FEF7D0FA22462B46FEF79EFD00B9013F30
:101F9000162F51D85B4B03EBC703D3E90023DDE9D0
:101FA0000C01FEF79BFD002848D0013F002312934F
:101FB000169B9B1B5A1E44BFC3F1010800230892C5
:101FC00054BF4FF000080893002F39DB089B0F9790
:101FD0003B44089300230A93099B092B64D8052BE3
:101FE000C4BF043B0993099BA3F10203CCBF0024A7
:101FF0000124032B63D8DFE803F02A373555DDE9E8
:1020000016631E4406F23243202BC1BFC3F14003C6
:102010009F4006F2124324FA03F3D6BFC3F1200314
:1020200047EA030004FA03F0FEF76CFA0122A1F17B
:10203000F873013E149277E70123B8E71290B7E7EF
:102040007B420A930023A8EB07080F93C4E7002301
:102050000B930E9B002B35DC0123009307931A464C
:102060000E920BE00123F3E700230B930E9BFB186A
:1020700000930133012B0793B8BF0123DBF81C0049
:102080000021042202F114059D421FD941605846E7
:1020900000F096FD824600283CD11B4B024640F2E0
:1020A000AF11D8E60123E0E70124002309930B9444
:1020B0004FF0FF330093079300221223D0E7012350
:1020C0000B93F5E70E9B00930793D7E7013152007E
:1020D000D8E700BFAFF3008061436F63A787D23FAB
:1020E000B3C8608B288AC63FFB799F501344D33F07
:1020F000DB8D0008F28D00080000F07FA68D00083F
:102100000000F83FE88E00084A8E0008D78D0008CE
:10211000A58D0008DBF81C301860079B0E2B00F221
:10212000A480002C00F0A180002F33DDAD4B07F020
:102130000F0203EBC20393ED007BF8058DED047BEA
:102140004FEA271416D5A84BDDE90C01D3E9082383
:10215000FEF77CFBCDE9020104F00F040326A24D3B
:1021600054B9DDE90423DDE90201FEF76FFBCDE997
:10217000020128E00226F2E7E10708D5DDE90401C3
:10218000D5E90023FEF738FACDE9040101366410E1
:102190000835E5E700F0D2807C42924B924D04F086
:1021A0000F0203EBC203D3E90023DDE90C01FEF7C4
:1021B00023FACDE90201241100230226002C40F06D
:1021C000B280002BD3D1129BDDE90245002B00F039
:1021D000B780864B002220462946FEF77FFC002868
:1021E00000F0AE80079B002B00F0AA80009B002B24
:1021F00037DD7B1E049320467D4B00222946FEF7E7
:10220000FBF9CDE90201009C01363046FEF78AF960
:10221000DDE90223FEF7F0F9764B0022FEF736F8EF
:102220000546A1F15076002C40F08D80DDE90201D9
:10223000714B0022FEF728F802460B46CDE9022337
:102240002A463346FEF768FC002840F08B82DDE921
:1022500002012A4606F10043FEF740FC002840F048
:102260002881DDE90C34CDE90234179B002BC0F244
:102270005A810E2F00F357815A4B03EBC70393ED9E
:10228000007B0E9B002B8DED007B03DA079B002B60
:1022900040F30181DDE902455646DDE90023204691
:1022A0002946FEF7D3FAFEF757FC8046FEF73AF9C7
:1022B000DDE90023FEF7A0F902460B462046294639
:1022C00008F13004FDF7E0FF06F8014B079DA6EB8F
:1022D0000A04A54202460B4640F01781FDF7D6FFDF
:1022E000DDE9002304460D46FEF716FC002840F009
:1022F000F980DDE9002320462946FEF7E5FB18B109
:1023000018F0010F40F0EE804946584600F098FC66
:1023100000233370139B01371F60239B002B00F0B9
:102320001D831E601AE3E20705D5D5E90023FEF7F9
:1023300063F901360123641008353FE7022642E7BE
:10234000079C049761E7274B0B9903EBC40353E900
:1023500002235444002953D028490020FEF776FA7E
:1023600033462A46FDF790FFCDE910015646DDE9D8
:102370000201FEF7F1FB0546FEF7D4F802460B46D4
:10238000DDE90201FDF780FF303502460B46CDE95D
:10239000022306F8015BDDE91023FEF79FFB00280E
:1023A00071D1DDE9022311490020FDF76DFFDDE960
:1023B0001023FEF793FB002840F09580A6423FF4DF
:1023C00050AFDDE910010A4B0022FEF715F9084B6A
:1023D000CDE910010022DDE90201FEF70DF9CDE99A
:1023E0000201C4E7E88E0008C08E00080000F03F3C
:1023F0000000244000001C40000014400000E03FAA
:1024000031462846FEF7F8F8CDE9100115945646F6
:10241000DDE90201FEF7A0FB0546FEF783F8024660
:102420000B46DDE90201FDF72FFF303506F8015BB1
:1024300002460B46A642CDE902234FF0000224D10A
:10244000AC4BDDE91001FDF721FF02460B46DDE94B
:102450000201FEF761FB002845D1DDE91023A54903
:102460000020FDF711FF02460B46DDE90201FEF7F1
:1024700035FB00283FF4F5AE159E731E159316F834
:10248000013C302BF8D0049F3EE79B4BFEF7B4F89D
:10249000CDE90201BCE70CD1984B0022DDE9000137
:1024A000FEF7AAF8DDE90223FEF72CFB002800F076
:1024B0005781002425460E9BDB4304935646002794
:1024C0002146584600F0BCFB002DDCD02FB1AF42B6
:1024D00003D03946584600F0B3FB2946584600F071
:1024E000AFFBD0E7049733461E4613F8012D392A77
:1024F00007D19A45F8D1049A0132049230228AF821
:1025000000201A7801321A70BDE77B4B0022FEF7DB
:1025100073F80022002304460D46FEF7D5FA002882
:102520003FF4BBAEF0E60B9A002A00F0DB80099A7C
:10253000012A00F3BF80149A002A00F0B78003F24A
:1025400033430A9C4646089A01211A445846984447
:10255000089200F073FC05465EB1089B002B08DD75
:10256000B342089AA8BF3346A8EB0308F61AD31A59
:1025700008930A9BF3B10B9B002B00F0B7808CB142
:1025800029462246584600F019FD4A4601460546AE
:10259000584600F069FC49460490584600F050FB4C
:1025A000049B99460A9B1A1B04D04946584600F0E2
:1025B00005FD81460121584600F040FC0F9B044672
:1025C000002B00F0CF811A460146584600F0F6FC79
:1025D000099B012B044600F39580029B002B40F0E1
:1025E0008780039BC3F31303002B40F08980039B78
:1025F00023F000431B0D1B052BB1089B01330893EF
:1026000008F1010801230A930F9B002B00F0B08111
:10261000236904EB8303186900F0C4FBC0F12000B8
:10262000089B184410F01F0077D0C0F12003042B42
:102630006BDD089BC0F11C000344804406440893F2
:10264000B8F1000F05DD49464246584600F010FD3E
:102650008146089B002B05DD21461A46584600F0AE
:1026600007FD0446129B002B59D02146484600F036
:102670006BFD002853DA7B1E0493494600230A228F
:10268000584600F0FFFA0B9B8146002B00F0728148
:10269000002329460A22584600F0F4FA009B002B3A
:1026A000054667DC099B022B41DC63E0169BC3F106
:1026B000360346E7079B5C1E0A9BA342BFBF0A9BEB
:1026C0000F9A0A94E31AB4BFD2181C1B079BBCBF15
:1026D0000F920024002BB5BFA8EB0306079B002335
:1026E000464630E70A9C0B9D464635E70A9A5CE76A
:1026F000002388E70000E03F000024400000144071
:10270000029B80E700230A9382E799D0089A1C3342
:102710001A4498441E44089292E70346F6E7079B42
:102720000497002B20DC0093099B022B1EDD009BED
:10273000002B7FF4C0AE21460522584600F0A2FAD5
:1027400001460446484600F0FFFC00287FF7B3AE80
:102750005646312306F8013B049B01330493AEE651
:10276000079C04972546F3E7079B00930B9B002BE0
:1027700000F00481002E05DD29463246584600F05F
:1027800077FC05460A9B002B5AD06968584600F032
:1027900017FA064628B9844B024640F2EF21FFF7AC
:1027A0005ABB2A690232920005F10C010C3001F08B
:1027B00083FF01223146584600F05AFC0AF101031A
:1027C0000793009B53440B93029B03F001032F4696
:1027D0000A930546079B2146013B48460093FFF7B5
:1027E0009BFA3946029000F13008484600F0ACFCF4
:1027F0002A4608902146584600F0C2FCC2680646A8
:1028000002BB0146484600F09FFC0246314658464E
:102810000E9200F015FA099B0E9A079E43EA0201F8
:102820000A9B194310D1B8F1390F29D0089B002B0E
:1028300002DD029B03F13108009B83F800803FE634
:102840002846BBE70122E1E7089B002B04DB09993E
:102850000B430A990B4320D1002AEDDD49460122A2
:10286000584600F005FC2146814600F06DFC00282A
:1028700003DCE1D118F0010FDED0B8F1390FD8D167
:10288000009A3923137033461E46013B16F8012C7B
:10289000392A52D001321A7012E6002A07DDB8F147
:1028A000390FEDD0009A08F10103137008E6079B79
:1028B000079A03F8018C0B9B934228D049460023CA
:1028C0000A22584600F0DEF9AF4281464FF000037D
:1028D0004FF00A023946584607D100F0D3F90746AF
:1028E0000546079B0133079374E700F0CBF92946AF
:1028F000074600230A22584600F0C4F90546F0E7CF
:10290000009B002BCCBF1E4601265644002749469B
:102910000122584600F0ACFB2146814600F014FC31
:102920000028B0DC02D118F0010FACD133461E46AE
:1029300013F8012D302AFAD0C2E59A45A4D1049BA0
:102940000133049331238AF80030B9E5239BDFF883
:102950005CA01BB10AF10803239A1360504619B01A
:10296000BDE8F08F099B012B7FF737AE0F9B0A93D1
:10297000012055E6009B002B7FF7D6AE5646214638
:102980004846FFF7C9F900F1300806F8018B009BB3
:10299000A6EB0A029342B3DD494600230A225846B9
:1029A00000F070F98146EAE74A8E0008CE8D0008F3
:1029B00038B50546002941D051F8043C0C1F002BC6
:1029C000B8BFE41800F0F0F81D4A136833B963602B
:1029D00014602846BDE8384000F0ECB8A34208D99E
:1029E000206821188B4201BF19685B6809182160B3
:1029F000EDE71A465B680BB1A342FAD9116850188B
:102A0000A0420BD120680144501883421160E0D1EC
:102A100018685B68536008441060DAE702D90C2339
:102A20002B60D6E7206821188B4204BF19685B68C9
:102A3000636004BF091821605460CAE738BD00BF55
:102A400034030020024B0146186800F02DB800BF87
:102A50000C000020024B01461868FFF7A9BF00BF19
:102A60000C00002070B50F4E0C463168054611B9B8
:102A700001F00CFE30602146284601F007FE431CA1
:102A800003D14FF0FF34204670BDC41C24F0030472
:102A9000A042F8D0211A284601F0F8FD0130F2D109
:102AA000EFE700BF300300202DE9F843CD1C25F0EF
:102AB000030508350C2D38BF0C25002D064601DB1B
:102AC000A94204D90C2333600020BDE8F883DFF865
:102AD000D48000F069F8D8F800301C4644BB294681
:102AE0003046FFF7BFFF431C044658D1D8F80040DA
:102AF0002746002F43D1002C4BD02368394630465F
:102B000004EB030901F0C2FD814542D121686D1A31
:102B100029463046FFF7A6FF01303AD023682B4400
:102B20002360D8F800305A6862BBC8F800700FE024
:102B30002268521B20D40B2A17D96119A3422560A1
:102B400018BF5960636808BFC8F8001062514B6035
:102B5000304600F02FF804F10B00231D20F0070091
:102B6000C21A1CBF1B1AA350AFE76268A3420CBF76
:102B7000C8F800205A60EBE723466468AEE73C469D
:102B80007F68B6E71A465B68A342FBD10023536017
:102B9000DEE70C233360304600F00CF894E7056064
:102BA000D6E700BF340300200148FFF7ACB800BFF0
:102BB0002C0300200148FFF7A7B800BF2C0300201A
:102BC00070B5C66904460D4676B91020FFF73AFF86
:102BD0000246E06120B9184B18486B2101F084FDD2
:102BE000C0E901660660C660E669F36883B1E3691F
:102BF000DB6853F82500B8B9012101FA05F6721D0A
:102C00009200204601F08EFD60B1C0E901560EE051
:102C100021220421204601F085FDE369F060DB6894
:102C2000002BE4D1002070BD026843F8252000236A
:102C3000C0E90333F7E700BFDB8D00085B8E0008B7
:102C400070B5C66905460C4676B91020FFF7FAFE46
:102C50000246E86120B9094B09488F2101F044FD83
:102C6000C0E901660660C6603CB1EB696268DB687A
:102C700053F82210216043F8224070BDDB8D00081C
:102C80005B8E00082DE9F0410D6907460C461E4693
:102C900001F1140C0020DCF8003099B202FB016154
:102CA0001E0C0B0C02FB063389B2013001EB034111
:102CB00085424CF8041B4FEA1346ECDC0EB3A368C4
:102CC000AB4219DC616838460131FFF779FF804675
:102CD00028B902460C4B0D48BA2101F005FD2269C6
:102CE000023204F10C0192000C3001F0E5FC2146A7
:102CF0003846FFF7A5FF444604EB850301355E61C6
:102D000025612046BDE8F0814A8E00085B8E0008F0
:102D10002DE9F8430C4615461F460922083306469E
:102D200093FBF2F3002101229A4209DB3046FFF7C0
:102D300047FF40B90246194B1948D32101F0D4FC92
:102D400052000131F0E7089B4361092D4FF0010368
:102D5000036116DD04F10909C8462C4418F8013B4B
:102D60000146303B0A223046FFF78CFFA045F5D1E3
:102D7000A5F108044C442D1B6319BB4204DBBDE8DC
:102D8000F8830A340925F6E714F8013B0146303B85
:102D90000A223046FFF776FFEEE700BF4A8E0008B2
:102DA0005B8E0008B0F5803F034636BF0304002069
:102DB0001020B3F1807F3CBF1B020830B3F1805F6D
:102DC0003CBF1B010430B3F1804F3CBF9B0002307D
:102DD000002B05DB13F0804F00F1010008BF20201D
:102DE00070470368024613F007000BD0D90721D4BF
:102DF000980749BF5B089B08012013605CBF136004
:102E00000220704799B209B91B0C1020D9B209B938
:102E100008301B0A190704BF1B090430990704BFB7
:102E20009B080230D90703D45B0800F1010003D0EE
:102E300013607047002070472020704710B50C4683
:102E40000121FFF7BDFE024628B9054B054840F2B7
:102E5000451101F049FC01234461036110BD00BF2D
:102E60004A8E00085B8E00082DE9F04F14460A696F
:102E700023699A42A8BF23460F46A4BF0C461F46AB
:102E8000D4F810A0D7F81090A36861680AEB09067F
:102E9000B34285B0B8BF0131FFF792FE30B90246A8
:102EA000444B45484FF4B17101F01EFC00F114058C
:102EB00005EB86082B460022434521D307F1140178
:102EC00004F1140202EB8A0201EB89030293131B43
:102ED000153B23F00303043304F11507BA4238BF4E
:102EE00004230193029B03918B420CD8002E03DD37
:102EF00058F8043D002B5BD0066105B0BDE8F08FAB
:102F000043F8042BD8E7B1F800A0BAF1000F24D0A1
:102F100004F1140EA9464FF0000C5EF8047BD9F8BA
:102F200000301FFA87FB9BB20AFB0B334FEA174BAB
:102F3000D9F8007063444FEA174C0AFB0BC707EB44
:102F400013479BB243EA0743724549F8043B4FEAF3
:102F5000174CE2D8019B45F803C0039BB3F80290DD
:102F60000431B9F1000F21D02B6804F1140CAE46E6
:102F70004FF0000ABCF800B0BEF8027009FB0B77F6
:102F800057449BB243EA07434EF8043B5CF8043BCA
:102F90004FEA134ABEF8003009FB0A3303EB17432C
:102FA00062454FEA134AE5D8019FEB51043599E792
:102FB000013E9BE74A8E00085B8E00082DE9F8432E
:102FC000154612F0030207460E4607D0254C013A7B
:102FD000002354F82220FFF755FE0646AD103DD0E1
:102FE000FC697CB91020FFF72DFD0246F86128B975
:102FF0001D4B1E4840F2B31101F076FBC0E90144BD
:103000000460C460D7F81C80D8F808404CB940F27E
:1030100071213846FFF712FF0023C8F80800044664
:1030200003604FF00009EB070AD5314622463846C7
:10303000FFF71AFF314680463846FFF701FE464645
:103040006D100BD0206838B9224621463846FFF76C
:103050000BFF2060C0F800900446E4E73046BDE86E
:10306000F88300BFB48E0008DB8D00085B8E00087B
:103070002DE9F0470C464968236903EB6218A36801
:10308000074691464FEA621A08F10106B3420BDB8C
:103090003846FFF795FD054648B90246284B2948B2
:1030A0004FF4EF7101F020FB01315B00EEE70023EC
:1030B00000F1140100F110021846534533DB20697A
:1030C0002AEAEA7A04F1140319F01F0901EB8A01D4
:1030D00003EB800C2BD0C9F1200E8A460022186821
:1030E00000FA09F010434AF8040B53F8042B9C45EE
:1030F00022FA0EF2F3D8ACEB0403153B23F00303E2
:10310000043304F11500844538BF0423CA500AB1C2
:1031100008F10206013E38462E612146FFF790FD78
:103120002846BDE8F08742F8040F0133C5E70439AB
:1031300053F8042B41F8042F9C45F9D8EAE700BF67
:103140004A8E00085B8E00080A6903460069801AEF
:1031500030B50ED11433143103EB820401EB82013C
:1031600054F8045D51F8042D954203D005D24FF078
:10317000FF3030BDA342F3D3FBE70120F9E70000A5
:103180002DE9F74F89460646114648461446FFF793
:10319000DBFF051E12D129463046FFF711FD02461E
:1031A00028B93F4B40F237213E4801F09DFA0123F8
:1031B000C0E90435104603B0BDE8F08FBCBF4B46F4
:1031C000A1463046D9F80410BABF1C460125002597
:1031D000FFF7F6FC024618B9314B40F24521E3E710
:1031E000D9F810702669C56009F1100309F11405BA
:1031F00004F1140E00F1140B05EB87080EEB8606A4
:103200000193D9464FF0000C019B5EF8040B53F874
:1032100004AF01931FFA8AF3194683B2CB1A000C4C
:103220006344C0EB1A4000EB23409BB243EA0043E7
:10323000764549F8043B4FEA204CE5D8331B153B53
:1032400023F0030315340433A64238BF04231D447E
:103250005B441E462C4644450ED308F10301491B2E
:1032600021F00301033DA84538BF00210B4453F86A
:10327000041D91B117619DE754F8041BE646080C44
:103280001CFA81FC714400EB2C4089B241EA0041F8
:1032900046F8041B4FEA204CDDE7013FE7E700BF9B
:1032A0004A8E00085B8E000882B08DED000B019AFB
:1032B0000F4B1340A3F15073002B08DC5B42B3F1BA
:1032C000A07F4FEA235204DA4FF400231341002277
:1032D00008E0A2F114031E2BDABF4FF00042DA40DF
:1032E000012200231946104641EC100B02B0704732
:1032F0000000F07F2DE9F041066900F1140808EBA9
:103300008606371F56F8042C1046FFF74BFDC0F118
:1033100020030A280B601B4915DCC0F10B0C22FAB4
:103320000CF3B84543EA010534BF56F8083C0023C6
:10333000153002FA00F023FA0CF303431C4645EC67
:10334000104BBDE8F081B8453ABF56F8083CA6F1ED
:10335000080700230B3812D0C0F1200123FA01F432
:1033600082402243474542F07F558CBF57F8042CDA
:1033700000228340CA4045F440151343DEE742EA89
:103380000105DBE70000F03F2DE9F7430F4601217F
:1033900059EC108B1646FFF713FC044630B9024671
:1033A000234B244840F20F3101F09EF9C9F30A552E
:1033B000C9F313030DB143F480130193B8F1000373
:1033C00023D068460093FFF70CFDDDE90012D0B171
:1033D000C0F1200302FA03F30B43C2406361019280
:1033E000019BA361002B0CBF012202222261A5B127
:1033F000A5F2334505443D60C0F1350030602046FC
:1034000003B0BDE8F0836161EAE701A8FFF7E9FCDA
:10341000019B636120300122E8E704EB8203A0F204
:10342000324038601869FFF7BDFCC0EB4210E5E799
:103430004A8E00085B8E00082DE9F04F85B0CDE97B
:10344000001002A9FFF756FF009803A955EC104B96
:10345000FFF750FF019B1969009B1B69C91ADDE941
:1034600002329B1A5BEC10AB03EB4113002BCEBF77
:103470002A46C3EB03335A462F46D946CCBF02EB4C
:10348000035702EB03594B46524620463946FDF797
:10349000DDF941EC100B05B0BDE8F08F013970B5D6
:1034A00049111469013102F1140300EB810103EBAE
:1034B0008404051FA3420CD3A31A113B23F003037A
:1034C0001132A24288BF002318440023884205D34A
:1034D00070BD53F8046B45F8046FEBE740F8043B0C
:1034E000F4E700F1140200694B11984210B511DBAA
:1034F0000ADD11F01F0107D052F8234024FA01F031
:1035000000FA01F18C420BD102EB8303934203D802
:10351000002010BD0346F7E753F8041D0029F5D03D
:103520000120F6E770B504460D4645EC104B1646F3
:10353000FFF7BAFE51EC100B7EB1C5F30A53C3F18D
:103540006B03002B09DD1B0503F17F55002405F5F6
:10355000401522462B46FDF74FF841EC100B70BD8D
:103560002DE9F04F9FB00C46179200221A92059059
:103570004FF0000A4FF0000B0A46199211782B29E0
:103580004AD038D80D2932D8082932D800293BD062
:1035900000220B92199D2A78302A40F0B3806A7875
:1035A00002F0DF02582A6ED102930B9B01931AABF3
:1035B00000938E4A05981BAB19A901F02FF910F062
:1035C0000F06044605D0062E28D101350023199593
:1035D0000B93179B002B40F08E850B9BCBB1524673
:1035E0000BF1004343EC102B1FB0BDE8F08F2029F6
:1035F000CED10132C1E72D29CAD101210B91511C35
:1036000019915278002AC5D1179B1994002B40F0CC
:10361000708552465B46E5E70021EFE71A9A3AB11A
:1036200035211CA8FFF73AFF1A990598FFF708FB08
:10363000013E1B9A042E06D8DFE806F014031D2075
:103640001400DDE91CABE10548BF4BF0004B2BF04B
:1036500000431B0D1B05002BBBD101F027F82223D3
:103660000360B6E7DDE91CA302F2334223F48013C2
:1036700043EA025BE7E7DFF87CB1E4E76FF0004B79
:103680004FF0FF3ADFE7199B5A1C19925B78302BF9
:10369000F9D0002B9DD001230993199B0C93002393
:1036A00008930A931F460A2219980578A5F130035A
:1036B000D9B2092928D94E49012200F0D5FF0028A6
:1036C00032D000202A4681463D460346652A01D075
:1036D000452A14D11DB9099A024395D00025199C99
:1036E000621C199262782B2A77D02D2A7BD04FF05A
:1036F000000CA2F13001092940F2828019944FF0A8
:103700000008A2E00023C7E7082FD5BF0A9908994F
:1037100002FB013302FB013300F10100D4BF0A9325
:10372000089301371990BFE7199B5A1C19925A78D0
:103730007FB381463D46A2F13003092B12D9012304
:10374000C4E7199B5A1C19925A780130302AF8D0D4
:10375000A2F13103082B00F2D384199B0C9381460C
:1037600000200546303A00F101032AD0994400EBCD
:10377000050C2B460A2163450DD1691C01442844E0
:10378000082816DC0A980A2303FB00230A93002367
:1037900018E03846DAE7082B03F1010303DC0A9E40
:1037A0004E430A96E7E7102BDEBF089E4E4308966D
:1037B000E1E70F28EBDC08980A2303FB00230893BA
:1037C000E5E72946199A501C1990527818460D467B
:1037D000B1E74FF0000901237DE74FF0000CA21C78
:1037E0001992A27885E74FF0010CF8E7C88F00081E
:1037F000B08F00080000F07F199A511C199152787F
:10380000302AF9D0A2F1310108293FF678AF303AD9
:103810000E92199A0F924FF00A08199A561C19968F
:103820005278A2F1300EBEF1090F39D90F99761AEC
:10383000082E44F61F6803DC0E998845A8BF884609
:10384000BCF1000F01D0C8F10008002D4ED109993C
:1038500008437FF4BEAE002B7FF4D6AE692A28D091
:1038600025DC492A25D04E2A7FF4CEAE9B4919A8E3
:1038700001F0F6F900283FF4C7AE199B1B78282BFE
:103880002ED197491CAA19A801F0FEF9052827D1C5
:103890001D9BDDF870A043F0FF4B4BF4E00B98E666
:1038A0000E9908FB0121A1F130020E92B5E76E2AB4
:1038B000DAE78C4919A801F0D3F900283FF4A4AE47
:1038C000199B8949013B19A8199301F0C9F910B94D
:1038D000199B01331993DFF820B24FF0000A78E604
:1038E000824800F0F9FE5BEC10AB72E6A8EB09032E
:1038F0000A980993002F08BF2F46102D2C46A8BF09
:103900001024FCF7FFFD092D82468B4613DC099B32
:10391000002B3FF45EAE099B78DD162B5FDC74490B
:1039200001EBC301D1E9000152465B46FCF764FE9E
:1039300082468B464DE66E4B03EBC40353E91223DC
:10394000FCF75AFE824608988B46FCF7DBFD0246E0
:103950000B4650465946FCF799FC0F2D82468B4684
:10396000D5DD099B2C1B1C44002C40F3968014F0E1
:103970000F030AD05E4901EBC30152465B46D1E911
:103980000001FCF739FE82468B4634F00F0473D0F9
:10399000B4F59A7F48DD0024A0460A94A146059A12
:1039A000DFF854B1222313604FF0000A0A9B002B6A
:1039B0003FF40FAE1A990598FFF742F9059849466A
:1039C000FFF73EF905984146FFF73AF90A9905983D
:1039D000FFF736F905982146FFF732F9F9E5099A1C
:1039E000C5F125039342BCDB414CC5F10F0504EB47
:1039F000C50152465B46D1E90001FCF7FDFD099B7C
:103A00005D1B04EBC504D4E900238FE71633A8DB64
:103A1000374BA9EB080803EBC808D8E90023504648
:103A20005946FCF713FF83E7324B08930023241118
:103A3000504659461E46012C21DC0BB182468B466E
:103A40002C49ABF1547B01EBC60152465B46D1E9F0
:103A50000001FCF7D1FD284B0A460B4027498B4259
:103A6000824698D8A1F580118B4286BFDFF890B0CE
:103A70004FF0FF3A02F1547B002308937AE0E2070B
:103A800005D5089BD3E90023FCF7B6FD0123089A6E
:103A90000832013664100892CDE7EDD0644214F08C
:103AA0000F020AD0124B03EBC20350465946D3E92A
:103AB0000023FCF7CBFE82468B462411DCD01F2C62
:103AC00020DD0024A0460A94A146059A22234FF047
:103AD000000A4FF0000B136068E700BFA28D0008DA
:103AE000B48F00089A8D0008D18D00085D91000800
:103AF000E88E0008C08E00080000F07F0000A07C67
:103B0000FFFFEF7F14F0100318BF6A23A94E08933C
:103B1000504659460023E20704D5D6E90023FCF7B6
:103B20006BFD0123641006F10806F4D10BB1824647
:103B30008B46089BB3B1CBF30A52C2F16B03002B47
:103B400059460FDD1F2B55DD342BDEBF4FF0FF3301
:103B5000C2F14B0293404FF0000ACCBF4FF05C7BA8
:103B600003EA010B0022002350465946FCF7ACFF44
:103B70000028A6D10A9B00930C9905982B463A463B
:103B8000FFF7C6F80A9000283FF405AF099A002A0B
:103B9000A9EB0803A8BF00231293002422EAE273D2
:103BA0001693A0460A9B05985968FFF709F88146C5
:103BB00000283FF4F4AE0A9B1A69023203F10C01AB
:103BC00092000C3000F078FD4BEC10AB05981CAA6D
:103BD0001BA9CDE90CABFFF7D7FB1A9000283FF4E7
:103BE000DEAE05980121FFF729F9804648B94FF06C
:103BF0000008D4E64FF0FF3202FA03F303EA0A0AA0
:103C0000B0E71B9D1C9A002DABBF129B169B169E06
:103C1000129FACBFEF185E1B089BED1A1544664B54
:103C2000013D9D42C2F1360250DA5B1B1F2BA2EB15
:103C300003024FF001013DDC01FA03F3139300236B
:103C40001093BD18089BAF4216441E443B46A8BFC4
:103C50002B46B342A8BF3346002BC2BFED1AF61A5B
:103C6000FF1A129B002B16DD414605981A46FFF7F6
:103C7000A5F980460028BAD001461A9A0598FFF7A0
:103C8000F3F80E9000283FF48AAE1A990598FEF7D3
:103C9000D7FF0E9B1A93002D1DDC099B002B23DD03
:103CA0004946169A0598FFF789F98146E0B94FF021
:103CB000000974E6C5F17F4505F57F0505F57B45EF
:103CC000E23501FA05F310931391BAE7002310933C
:103CD00001231393B5E71A9905982A46FFF7C8F907
:103CE0001A900028D9D15AE6002E07DD49460598DA
:103CF0003246FFF7BDF981460028D8D0002F08DDF5
:103D0000414605983A46FFF7B3F9804600283FF44C
:103D100046AE1A9905984A46FFF732FA044600283B
:103D20003FF43DAEC3680F930023C3604146FFF7E5
:103D30000BFA002846DA0F9B53EA0A036CD1CBF347
:103D40001303002B68D12BF000431B0D1B05B3F1AF
:103D5000D66F61D9636913B92369012B5CDD2146F4
:103D600001220598FFF784F941460446FFF7ECF974
:103D7000002851DD2BF00043089A1B0D1B05002A7B
:103D80006BD0B3F1D66F68D8B3F15C7F7FF69DAE90
:103D90000A4B504659460022FCF72EFC084B0B40BC
:103DA00082468B46002B7FF405AE059A22231360D2
:103DB00000E600BFE08F000802FCFFFF0000503962
:103DC0000000F07FCDF838B065D10F9ACBF3130324
:103DD0005AB39F4A93422BD1089B514603B39D4B44
:103DE0005A461340B3F1D46F4FF0FF321BD81B0D6E
:103DF000C3F16B0302FA03F3994219D1964B0E9A61
:103E00009A4202D101313FF4CAAD924B0E9A1A4048
:103E100002F5801B4FF0000A089B002BB8D1C9E5C2
:103E20004FF0FF33E8E71346E6E753EA0A03A1D071
:103E3000109BDBB10E9A1342EED00F9B089A5046AE
:103E40005946BBB1FFF76EFBDDE90C0153EC102BBB
:103E5000FCF71CFA82468B46DEE7A3F580136FEA77
:103E6000135B6FEA0B5B4FF0FF3AD5E7139B13EA46
:103E70000A0FE1E7FFF756FBDDE90C0153EC102BCD
:103E8000FCF702FA0022002382468B46FCF71CFE58
:103E90000028C1D019E641462046FFF7CDFA57EC7D
:103EA000106B00224FF0804330463946FCF720FE6D
:103EB00000286FD00F9B002B7AD1BAF1000F58D198
:103EC0000E9BC3F31303002B5AD1644B00223046E0
:103ED0003946FCF703FE002859D130463946604B7D
:103EE0000022FCF789FB06460F4607F100430696C1
:103EF0000793DDE90623574DCDE910230E9B1D40A6
:103F0000584B9D4240F0B2800E9BA3F1547B4BEC8A
:103F100010ABFFF7C9F9DDE9062351EC100BFCF7F4
:103F20006BFB52465B46FCF7B1F90B4649494E4ADA
:103F300019409142824642D90D9A474B9A4203D189
:103F40000C9B01333FF42BADDFF80CB14FF0FF3A7F
:103F50001A990598FEF774FE05984946FEF770FE1B
:103F600005984146FEF76CFE05982146FEF768FE6F
:103F700018E6BAF1010F03D10E9B002B3FF4A5AD5B
:103F80009FED2B7B354F8DED067B0026B1E7344F3F
:103F90000026AAE7324B304639460022FCF72CFBBC
:103FA0000F9B06460F46002B9FD0CDE90667A0E782
:103FB0009FED217B8DED067B57EC176B99E703F1A5
:103FC000547B089BCDF838B0002BC1D12BF00043B7
:103FD0001B0D1B059D42BBD130463946FCF754FEF4
:103FE000FCF7DCFA02460B4630463946FCF74CF942
:103FF0000B460246CDE90C23CBF313060F9B46EA92
:104000000A061E436FD00EA3D3E90023FCF766FD1A
:1040100000287FF4CFAC0CA3D3E90023DDE90C0129
:10402000FCF77AFD002893D0C4E400BFAFF3008012
:10403000000000000000F0BF000000000000F03FA2
:104040009535A094FFFFDF3F35E5AF350000E03F39
:10405000FFFF0F000000F07FFFFFEF7F0000F03F49
:104060000000E03F0000E07FFFFF9F7C089B23B340
:10407000B5F1D46F21D828A3D3E9002330463946BF
:10408000FCF736FDA0B139463046FCF78DFD01281E
:1040900038BF0120FCF736FA0F9B06460F46FBB9E6
:1040A00001F1004314901593DDE91423CDE91023A9
:1040B000119B03F1D6635B1B11939DED0C0BDDE9A6
:1040C00010ABFFF7F1F8504653EC102B5946FCF7B4
:1040D00093FADDE90C23FCF7D9F882468B4670E7AA
:1040E000CDE91467E0E70EA3D3E90023FCF7F6FC63
:1040F00098E700230B93179A199B1360FFF76DBA8B
:10410000652A3FF466AB452A3FF463AB0123FFF712
:104110009EBB00BFAFF300800000C0FFFFFFDF4188
:104120009535A094FFFFCF3F014BFFF719BA00BFB1
:104130005C000020242B2DE9F0478646904601D8EC
:10414000012B06D100F0B2FA162303600020BDE86F
:10415000F08734480D462A4615F8014B065D16F0E7
:104160000806F8D12D2C2DD12C780126951C33F082
:10417000100209D1302C2AD12A7802F0DF02582A05
:1041800025D16C781023023506F1004C0CF1FF3C70
:104190000022BCFBF3F9104603FB19CAA4F1300757
:1041A000092F1BD83C46A34227DD571C07D0814569
:1041B00020D301D1A2451DDB00FB0340012215F8ED
:1041C000014BEBE72B2C04BF2C78951CCFE7002B81
:1041D000DAD1302C0CBF08230A23D5E7A4F141071C
:1041E000192F01D8373CDEE7A4F16107192F04D855
:1041F000573CD8E74FF0FF32E1E7531C08D12223A8
:10420000CEF800306046B8F1000FA0D0691E06E07D
:1042100006B14042B8F1000F99D0002AF6D1C8F893
:10422000001094E709900008FFF784BF2DE9F047DC
:104230008E681F46BE420B6882460C4690462DD8BB
:10424000B1F90C2012F4906F26D06569096905EB6D
:104250004505A3EB010905EBD5757B1C4B446D109F
:104260009D4238BF1D46530527D52946FEF71CFC45
:10427000064660B321694A4600F01EFAA38923F47A
:10428000906343F08003A381266165614E44A5EBF2
:1042900009052660A5603E46BE4200D93E4620681C
:1042A0003246414600F0C6F9A3689B1BA360236811
:1042B000334423600020BDE8F0872A4600F091FDDA
:1042C00006460028E0D121695046FEF771FB0C2319
:1042D000CAF80030A38943F04003A3814FF0FF30B8
:1042E000E9E700002DE9F04F98468B891B069DB049
:1042F00007460D46144610D50B6973B94021FEF7E9
:10430000D3FB2860286130B90C233B604FF0FF30AD
:104310001DB0BDE8F08F40236B610023099320237B
:104320008DF82930CDF80C803023DFF89C818DF892
:104330002A304FF0010923469A4613F8012B0AB19F
:10434000252AF9D1BAEB040B0BD05B46224629464D
:104350003846FFF76BFF013000F0A780099A5A44F6
:1043600009929AF80030002B00F09F8000234FF054
:10437000FF32CDE905230AF1010A049307938DF872
:1043800053301A935446052214F8011B4E48FBF78C
:104390001FFF049AD8B9D00644BF20238DF85330AC
:1043A000110744BF2B238DF853309AF800302A2B85
:1043B00015D0079A544600204FF00A0C214611F8F8
:1043C000013B303B092B4BD9B0B1079214E0A0EB75
:1043D000080309FA03F313430493A246D2E7039BAD
:1043E000191D1B680391002BBBBF5B4242F0020208
:1043F00007930793B8BF049223782E2B0AD16378D2
:104400002A2B32D1039B1A1D1B68039243EAE373E4
:1044100002340593DFF8C0A0217803225046FBF751
:10442000D7FE38B1049BA0EB0A0040228240134320
:104430000134049314F8011B24488DF82810062237
:10444000FBF7C6FE002836D0214B1BBB039B07336E
:1044500023F0070308330393099B334409936AE766
:104460000CFB02320C460120A8E70023013405931F
:1044700019464FF00A0C204610F8012B303A092A51
:1044800003D9002BC6D00591C4E70CFB01210446DB
:104490000123F0E703AB00932A460E4B04A93846EC
:1044A000FCF7C8FC421C0646D6D1AB895B063FF53B
:1044B0002DAF09982CE703AB00932A46054B04A9BE
:1044C0003846FCF74FFFEDE709910008139100080B
:1044D000350E00082D4200080F910008B1F90C209C
:1044E0002DE9F041160705460C4654D44B68002BC5
:1044F00002DC0B6C002B48DDE66A002E45D0002361
:1045000012F480522F68216A2B6030D0626DA3892B
:10451000590705D56368D21A636B0BB1236CD21AA5
:104520000023E66A216A2846B047431CA38906D1C6
:1045300029681D292BD82A4A0A41D60727D40022E8
:104540006260D9042269226004D5421C01D12B6823
:1045500003B96065616B2F60B9B104F144039942FE
:1045600002D02846FEF724FA002363630DE00123FE
:104570002846B0470246501CC9D12B68002BC6D034
:104580001D2B01D0162B1ED12F60002022E043F0FE
:1045900040031BB21BE00F69002FF6D093070E6893
:1045A00008BF4B690F6018BF0023A6EB07088B609C
:1045B000B8F1000FE9DD216AA66A43463A4628466B
:1045C000B047002808DCB4F90C3043F04003A38165
:1045D0004FF0FF30BDE8F0810744A8EB0008E7E7A3
:1045E000FEFFBFDF38B50B6905460C4613B9002541
:1045F000284638BD18B1036A0BB9FDF773FAB4F950
:104600000C30002BF3D0626ED00704D4990502D48D
:10461000A06DFDF778FB28462146FFF75FFF636E2C
:10462000DA070546E4D4A3899B05E1D4A06DFDF724
:104630006BFBDDE7884210B501EB020402D984422E
:10464000234607D8431EA14208D011F8012B03F8D6
:10465000012FF8E7024401468A4200D110BD13F849
:10466000014D02F8014DF7E710B56AB10139841820
:1046700010F8012B11F8013F9A4203D1A04201D05A
:10468000002AF5D1D01A10BD1046FCE738B5064D0A
:104690000023044608462B6001F04AFE431C02D169
:1046A0002B6803B1236038BD28030020014B186834
:1046B000704700BF0C0000200A44914200F1FF3314
:1046C00000D1704710B511F8014B03F8014F91422A
:1046D000F9D110BD000000009FED010B704700BF35
:1046E000000000000000F87F1FB514461A46094B71
:1046F0001B680546D86854B9074B1C46CDE9013400
:1047000000912B46054900F0A7FB00F0B7FB044BD6
:10471000F4E700BF0C0000205D9100082F91000815
:104720002291000870B5A1FB02543CB92946FEF75E
:10473000BBF9064628B90026304670BD0C2202603F
:10474000F9E72A462146FDF766FAF5E70369B3EB78
:10475000611F2DE9F0434FEA611200F1140445DDB9
:1047600011F01F0104EB830604EB82050CD100F16C
:1047700010072946B14234D39B1A9B00EA1E964289
:1047800038BF0023234415E054F82270C1F12008FB
:10479000CF4005F1040EA1467645F44615D89A1A85
:1047A0009200043A0135AE4238BF0022A318A75048
:1047B00007B104331A1BA3424FEAA20208BF002329
:1047C000026108BF4361BDE8F083DCF800C00CFA69
:1047D00008FC4CEA070749F8047B5EF8047BCF40ED
:1047E000DAE751F804CB47F804CFC3E72346E1E703
:1047F000A0F13003092B02D82038C0B27047A0F1D5
:104800006103052B01D84738F7E7A0F14103052BD9
:1048100001D82738F1E70020704700002DE9F04F5C
:1048200085B08A4602930B68019090469C1CA14675
:1048300014F8010B3028FAD0A9EB0303A3F1020B03
:10484000FFF7D6FF0546002868D1A0490122484657
:10485000FFF70AFF0746002867D199F801002646AE
:10486000FFF7C6FF002862D0234618783028994603
:1048700003F10103F9D0FFF7BBFFB0FA80F56D0932
:104880004FF0010B4A46164601323078FFF7B0FF71
:104890000028F8D18D4901223046FFF7E5FE0028B7
:1048A0003FD144B9741C2246164601323078FFF7D6
:1048B0009FFF0028F8D1A41BA700337803F0DF0383
:1048C000502B3ED173782B2B33D02D2B34D0711C31
:1048D00000240878FFF78CFF431EDBB2182B30D87A
:1048E000A0F1100211F8010FFFF782FF00F1FF3C69
:1048F0005FFA8CFCBCF1180F4FF00A031ED904B10B
:1049000052421744CAF80010EDB1BBF1000F0CBFC2
:1049100006250025284605B0BDE8F08F00252C4669
:10492000B0E7002CC7D12746C7E74E462F460125E2
:10493000C3E70024B11CCCE70124FBE703FB020022
:10494000CEE73146DEE7A6EB0903013B2946072BFC
:104950000ADC0198FEF734F9044640B95C4B024684
:10496000E4215C48FFF7C0FE01315B10EFE700F186
:10497000140A002355469B46B14537D345F804BB7E
:10498000A5EB0A05AD1025615846FEF70BFA6D013F
:10499000D8F800602D1AB54254DDAD1B29462046DB
:1049A000FEF79FFD814678B16B1E591103F01F027F
:1049B0005AF821104FF0010909FA02F20A4203D015
:1049C0004B4536DC4FF0020929462046FFF7BEFE74
:1049D0002F44D8F80830BB4242DA01982146FEF74E
:1049E0002FF90E9A00231360A32593E716F8012DE3
:1049F0002E2A12D0202B04D145F804BB4FF0000B17
:104A00005B4630780393FFF7F3FE039B00F00F0043
:104A100098404BEA000B0433AEE7B145EAD82B4986
:104A2000039301223046FFF71FFE039B0028E1D1CC
:104A3000A2E7A91E2046FEF754FD0028C2D04FF081
:104A40000309C1E709DA751B214601982A46FEF7DA
:104A50000FFB7F1B044600F1140A4FF00009B8E772
:104A6000D8F80450BD426FDDED1BAE4234DCD8F8FF
:104A70000C30022B22D0032B24D0012B15D1AE42B7
:104A800013D1012E0BD1029AD8F804301360012300
:104A90002361CAF800300E9B62251C603AE7711E44
:104AA0002046FEF71EFD0028EDD101982146FEF7B5
:104AB000C7F80E9A0023136050252BE70F9B002B9D
:104AC000F3D1E0E70F9B002BDDD1EEE7B08F0008BC
:104AD0004A8E00085E9100086F1EB9F1000F30D1B8
:104AE00027B139462046FEF7FCFC81467A110123A6
:104AF0005AF8222007F01F07BB40134229462046E0
:104B000018BF49F00209FFF721FED8F80470761BA0
:104B10000225B9F1000F47D0D8F80C30022B15D080
:104B2000032B17D0012B09D119F0020F06D0DAF8A8
:104B3000003049EA030919F0010F0ED145F01005C4
:104B400032E04FF00109D1E70125E2E70F9BC3F105
:104B500001030F930F9B002BF0D0D4F810B004F199
:104B600014034FEA8B0A03EB8B014FF0000C18463D
:104B700053F8042BB2F1FF3F1BD001320260022D2B
:104B800004F114033CD1D8F80020013AB24209D113
:104B90007111012253F8213006F01F0602FA06F6C1
:104BA0001E423AD145F020050E9B1C60029B1F60FF
:104BB000B0E6994243F804CCD9D8A3689B4517DBEB
:104BC000616801980131FDF7FBFF814618B91A4B66
:104BD00002468421C5E62269023204F10C019200EA
:104BE0000C30FFF769FD21460198FEF729F84C4685
:104BF00023695A1C04EB8303226101225A61BEE738
:104C000022695A450BDD01212046FFF79FFDD8F8A8
:104C100008300137BB42FFF6E0AE0125C2E716F0CF
:104C20001F06FAD05344C6F1200653F8040CFEF7D1
:104C3000B9F8B042E7DBF0E74A8E0008C2F108029B
:104C4000920070B5C2F120064368046803FA06F5C5
:104C50002C43D340046040F8043F8842F4D370BD35
:104C600030B50368013311F8014B14B9036001201A
:104C700030BD13F8012BA2F14105192D98BF203248
:104C8000A242F0D00020F3E72DE9F04F0B68016855
:104C90005E1102EB860613F01F0387B018BF0436BF
:104CA0000025371F82469046019346F8045CB946BA
:104CB0003C460295AB464A784B1C039342B31046E0
:104CC00005910492FFF794FD002851D1049A0599AB
:104CD000202A18D8029B9B4513DD4C4506D2072D90
:104CE00004DC2A4649462046FFF7A8FF444552D92E
:104CF0000023A4F1040944F8043CCDF808B04C4664
:104D00001D460399D7E7292A57D10231CAF8001066
:104D1000BBF1000F51D04C4506D2072D04DC2A46CA
:104D200049462046FFF78AFF444536D9A8F10402D8
:104D3000234653F8041B42F8041F9F42F9D23B1B41
:104D400023F0030304330134033EB44288BF042339
:104D50004344002243F8042B9F42FBD23B681BB91B
:104D6000474528D101233B60052007B0BDE8F08FFF
:104D70000135082D0BF1010B06DD4445C1D9002397
:104D800044F8043C0125043C226800F00F0040EA8E
:104D900002102060B5E70825B3E7019B002BDDD0AA
:104DA000C3F120034FF0FF32DA4056F8043C1340C1
:104DB00046F8043CD2E7043FD0E70420D5E782B0B0
:104DC00001B901A942B14BB113780B601278101EE2
:104DD00018BF012002B070471046FBE76FF00100DA
:104DE000F8E72DE9F041804615460C4621B9BDE8AB
:104DF000F0411146FDF758BE2AB9FDF7D9FD002450
:104E00002046BDE8F08100F040F88542064602D811
:104E1000B5EB500FF4D829464046FDF745FE07464E
:104E20000028ECD0B5422A46214628BF3246FFF77B
:104E300043FC21464046FDF7BBFD3C46E0E7034608
:104E4000084641B1FF2A04D98A221A604FF0FF3088
:104E500070470A70012070470EB403B5014603ABDA
:104E6000054853F8042B0068019300F03FF802B0A6
:104E70005DF804EB03B070470C00002008B5062075
:104E800000F008FA012002F025F851F8043C181F40
:104E9000002BBCBF0B58C01870479368013B002B18
:104EA00010B4936008DA9469A34201DB0A2903D1A4
:104EB0005DF8044B00F032B91368581C106019708B
:104EC00008465DF8044B7047F8B506460F46144691
:104ED000D518AC4201D1002007E014F8011B3A4676
:104EE0003046FFF7DAFF431CF3D1F8BD2DE9F04F50
:104EF0000D469DB014469846064618B1036A0BB994
:104F0000FCF7F0FD6B6ED90705D4AB899A0502D486
:104F1000A86DFCF7F8FEAB891B0701D52B699BB97F
:104F20002946304600F038F970B16B6EDC0704D5C5
:104F30004FF0FF301DB0BDE8F08FAB899805F7D476
:104F4000A86DFCF7E1FEF3E70023099320238DF819
:104F50002930CDF80C803023DFF8AC818DF82A3071
:104F60004FF0010923469A4613F8012B0AB1252A6E
:104F7000F9D1BAEB040B0BD05B46224629463046EA
:104F8000FFF7A2FF013000F0A780099A5A44099266
:104F90009AF80030002B00F09F8000234FF0FF3282
:104FA000CDE905230AF1010A049307938DF85330E4
:104FB0001A935446052214F8011B5348FBF708F9CD
:104FC000049AD8B9D10644BF20238DF85330130773
:104FD00044BF2B238DF853309AF800302A2B15D07C
:104FE000079A544600204FF00A0C214611F8013B65
:104FF000303B092B4BD9B0B1079214E0A0EB08036A
:1050000009FA03F313430493A246D2E7039B191D45
:105010001B680391002BBBBF5B4242F00202079367
:105020000793B8BF049223782E2B0AD163782A2BDA
:1050300032D1039B1A1D1B68039243EAE3730234C7
:105040000593DFF8D4A0217803225046FBF7C0F87F
:1050500038B1049BA0EB0A00402282401343013484
:10506000049314F8011B29488DF828100622FBF739
:10507000AFF800283FD0264B1BBB039B073323F020
:10508000070308330393099B3B4409936AE70CFB2E
:1050900002320C460120A8E700230134059319468B
:1050A0004FF00A0C204610F8012B303A092A03D998
:1050B000002BC6D00591C4E70CFB01210446012357
:1050C000F0E703AB00932A46124B04A93046FBF7E6
:1050D000B1FE0746781CD6D16B6ED90705D4AB89D3
:1050E0009A0502D4A86DFCF70FFEAB895B063FF56D
:1050F0001FAF09981EE703AB00932A46054B04A98E
:105100003046FCF72FF9E4E70991000813910008F5
:10511000350E0008C94E00080F910008F8B50E467C
:105120001446054618B1036A0BB9FCF7DBFCA3690A
:10513000A360A3891A0701D5236943B921462846EC
:1051400000F02AF818B14FF0FF373846F8BD236851
:105150002269981A6369F6B28342374605DC214614
:105160002846FFF73FFA0028EDD1A368013BA36072
:1051700023685A1C22601E706269431C9A4204D044
:10518000A389DB07E1D50A2EDFD121462846FFF7A8
:1051900029FA0028D9D0D6E738B5294B0546186832
:1051A0000C4618B1036A0BB9FCF79CFCB4F90C303F
:1051B000190722D4DA0607D409222A6043F04003F3
:1051C000A3814FF0FF3033E0580712D5616B41B136
:1051D00004F14403994202D02846FDF7E9FB00237D
:1051E0006363A38923F02403A381002363602369FD
:1051F0002360A38943F00803A38123694BB9A389E2
:1052000003F42073B3F5007F03D02146284600F055
:1052100083F8B4F90C3013F001020AD00022A26026
:1052200062695242A261226942B913F08000C5D17D
:1052300038BD990758BF6269A260F4E70020F7E71C
:105240000C0000201F2938B505460C4604D916234A
:1052500003604FF0FF3038BDC26B12B152F82130FD
:105260004BB9284600F030F8224601462846BDE8F2
:10527000384000F017B8012B0AD0591C03D116236F
:1052800003600120E7E7002142F8241020469847F8
:105290000020E0E7024B01461868FFF7D3BF00BFCC
:1052A0000C00002038B5074D00230446084611467F
:1052B0002B6001F02DFE431C02D12B6803B123604B
:1052C00038BD00BF2803002001F0F2BE70B50C46C7
:1052D000B1F90E10002996B015461E460DDAA389C5
:1052E00013F0800F4FF0000114BF40234FF4806390
:1052F000002031602B6016B070BD6A4600F048F89F
:105300000028ECDB019901F47041A1F500535942EA
:1053100059414FF48063EBE78B89F7B59D0706464B
:105320000C4607D504F14703236023610123636121
:1053300003B0F0BD01AB6A46FFF7C8FF009F05460A
:1053400039463046FDF7B0FB48B9B4F90C309A0540
:10535000EED423F0030343F00203A381E2E7A38921
:10536000206043F08003A381019BC4E904075BB183
:10537000B4F90E10304600F01DF828B1A38923F0CF
:10538000030343F00103A381A3891D43A581CFE754
:1053900038B5074D00230446084611462B6001F03E
:1053A000AAFE431C02D12B6803B1236038BD00BFA5
:1053B0002803002038B5064D0023044608462B601C
:1053C00001F09CFF431C02D12B6803B1236038BD60
:1053D0002803002080B58CB004AF78613961FA6091
:1053E000BB6087ED010A97F83430002B2BD03B6B64
:1053F000DB001946202001F0B1FA0346FB613B6B4C
:105400005B001946F8699FED1F0A02F03FFABB6A7C
:105410009B683A6B92B2B96A097BB86A407B039089
:1054200002910192009397ED010AFB69FA683969CC
:10543000786900F02BF83B6B5B001A46B968F86995
:1054400002F0F2F919E0BB68002B02D10E4801F01E
:1054500043FBBB6A9B683A6B92B2B96A097BB86A34
:10546000407B039002910192009397ED010ABB6883
:10547000FA683969786900F009F800BF2037BD463D
:1054800080BD00BF00000000008C000880B588B01F
:1054900002AF78613961FA60BB6087ED010ABA8CAE
:1054A00097F82C30019397F828300093134697ED26
:1054B000010A3A6AF968386900F012F801230122FA
:1054C000F968786902F004FABB8C5B001A46B96887
:1054D000F86802F0A9F900BF1837BD4680BD00008A
:1054E00080B592B000AF78613961FA6087ED020A49
:1054F000FB80FB8807EE903AF8EE677AC7ED0D7AED
:10550000FB88013B3B63D7ED0D7A77EEA76A97EDF9
:10551000027AC6EE877A97ED0D7AB4EEE77AF1EE6D
:1055200010FA02D57B6B7B6409E0D7ED0D7A77EE3C
:10553000A76A97ED027AC6EE877AC7ED117A97EDE2
:10554000027AF0EE006AC7EE267AC7ED0B7AD7ED45
:10555000117AFCEEE77A17EE903ABB62FB889B006B
:105560001846FDF76FFA03467B62FB881946786A96
:10557000B7EE000A02F08AF90023FB6333E0FB6B0D
:1055800007EE903AF8EEE77A97ED0B7A67EE277A16
:10559000C7ED107AD7ED0D7AB7EE007A77EEC77ABD
:1055A00097ED107AB4EEE77AF1EE10FA07DDD7ED59
:1055B0000D7AB7EE007A77EEC77AC7ED107AD7ED9D
:1055C000107AFDEEE77A17EE903ABB61BB699B005B
:1055D000FA681A44FB6B9B00796A0B4412681A60E4
:1055E000FB6B0133FB63FB6BBA6A9A42C7D897F82F
:1055F0005030002B1DD0FB889B001846FDF722FA87
:1056000003463B62FB881946386A9FED480A02F060
:105610003DF9BB6A3A6A796A786902F025F8FB8835
:105620001A463969386A01F0C3FF386AFDF712FA81
:1056300008E0BB6A3A69796A786902F015F8786A15
:10564000FDF708FA97F85430002B6BD00023BB63AA
:1056500064E0BB6B07EE903AF8EEE77A97ED0B7AD1
:1056600067EE277AC7ED107AD7ED0D7AB7EE007A9C
:1056700077EEC77A97ED107AB4EEE77AF1EE10FA8A
:1056800007DDD7ED0D7AB7EE007A77EEC77AC7ED72
:10569000107AD7ED107AFDEEE77A17EE903AFB61BB
:1056A000BB6B3A6BD31ADB007A69134493ED007A33
:1056B000FB699B00FA681344D3ED007A27EE277A42
:1056C00097F850305B00C3F1010307EE903AF8EE13
:1056D000E77ABB6B3A6BD31ADB003A69134467EE87
:1056E000277AC3ED007ABB6B3A6BD31ADB007A6979
:1056F000134493ED017AFB699B00FA681344D3EDE0
:10570000007ABB6B3A6BD31ADB003A69134467EE3D
:10571000277AC3ED017ABB6B0133BB63BB6BBA6AFB
:105720009A4296D800BF4837BD4680BD00000000B1
:1057300080B598B004AFF860B9607A603B603868B3
:1057400000F0BCF878647B6CB3F5805F05D9574BEB
:10575000574AB7215748FEF7C7FF7B6CDB00194655
:10576000202001F0FBF803463B647B6CDB0019460C
:10577000202001F0F3F80346FB637B6C5B001946C5
:10578000386C9FED4D0A02F081F87B6C5B00194686
:10579000F86B9FED490A02F079F87B6C9AB207F139
:1057A00020031146184602F08BFD034687F83B3074
:1057B0007B6C9AB207F110031146184602F084FC84
:1057C000034687F83B3007F1200000233A6C7968E4
:1057D00002F0C4FC796CF86800F0CCFB0123FB6498
:1057E0001EE0FB6CDB003A6C1A44FB6C796CCB1A44
:1057F000DB00396C0B4412681A60FB6CDB003A6CFE
:105800001344D3ED017AFB6C7A6CD31ADB003A6C4B
:105810001344F1EE677AC3ED017AFB6C0133FB644C
:105820007B6C5A08FB6C9A42DBD80023BB6427E0F0
:10583000BB681A68BB6C9B001344D3ED007ABB684D
:105840009B68013BBA6C9A420CBF01230023DBB278
:1058500007F1100003937B6C02933B680193FB6894
:105860000093B0EE670ABB6DFA6B396CFFF7B2FDBF
:105870003B68DB00BA6D1344BB65BB6C0133BB6492
:10588000BB689B68BA6C9A42D2DB386CFDF7E2F8D1
:10589000F86BFDF7DFF8F868FDF7DCF8B868FDF79E
:1058A000D9F800BF5037BD4680BD00BF1C8C000832
:1058B000C09100085C8C00080000000080B485B036
:1058C00000AF78607B68002B01D100230AE0012340
:1058D000FB6002E0FB685B00FB60FA687B689A4251
:1058E000F8D3FB6818461437BD465DF8047B704753
:1058F00080B586B000AF78613961BB6087ED010A81
:10590000C7ED000A1346FB737B69BA685A607B696E
:105910003A6A9A603B6A9B001846FDF793F8034683
:105920001A467B691A60FB7B002B09D13A6AD7EDD6
:10593000000A97ED010AB968786900F00BF917E0E1
:10594000FB7B012B0BD13A6A97ED001AD7ED010AC8
:10595000B968B0EE000A786900F00EF808E03A6A1B
:10596000D7ED000A97ED010AB968786900F074F97B
:1059700000BF1837BD4680BDB0B592B000AF7861AA
:1059800087ED040AF960C7ED020A87ED011A3A6053
:10599000BB683B647B68FB63FB6807EE903AF8EEFC
:1059A000E76A97ED0F7AC6EE877AC7ED0E7AFB6845
:1059B00007EE903AF8EEE76A97ED107AC6EE877A2E
:1059C000C7ED0D7AFB68DA0F13445B1007EE903ACF
:1059D000F8EEE77A97ED017AB4EEE77AF1EE10FA95
:1059E00005D9584B584A46215848FEF77DFEB86BFA
:1059F000FAF7AAFD02460B4643EC102B01F074F8AF
:105A000055EC104B3869FAF79FFD02460B4643EC04
:105A1000102B01F069F853EC102B20462946FAF7B9
:105A200015FF02460B4610461946FBF7DDF8034604
:105A30003B63786BFAF788FD02460B4643EC102B6C
:105A400001F052F855EC104B3869FAF77DFD02462B
:105A50000B4643EC102B01F047F853EC102B20467B
:105A60002946FAF7F3FE02460B4610461946FBF7A5
:105A7000BBF80346FB6297ED0B7AD7ED0C7A77EE15
:105A8000677AC7ED0A7A3B68013B07EE903AB8EEB9
:105A9000E77AD7ED0A6AC6EE877AC7ED0A7A3B68DD
:105AA0009B001846FCF7CEFF03467B623B689B00D9
:105AB0001846FCF7C7FF03463B623B689B0018464D
:105AC000FCF7C0FF0346FB6100237B6411E07B6CA5
:105AD00007EE903AB8EEE77A7B6C9B007A6A134443
